:100000000C9425080C948C100C9465100C943E10E4
:100010000C9417100C944D080C944D080C94F00F90
:100020000C944D080C944D080C94B3100C942511AD
:100030000C944D080C944D080C944D080C944D08EC
:100040000C944D080C944D080C944D080C944D08DC
:100050000C944D080C944D080C944D080C94A60F6C
:100060000C944D080C944D080C944D080C944D08BC
:100070000C944D080C944D080C944D080C944D08AC
:100080000C944D080C944D080C944D080C944D089C
:100090000C94C50B0C944D080C944D080C944D0811
:1000A0000C944D080C944D080C944D08351E381EC8
:1000B000271E2B1E311E591E591E591E3C1E401E46
:1000C000441E4A1E4E1E591E541E00000000000011
:1000D00000002A2B280000000000000000000000A3
:1000E000000000000000000000002C9EB4A0A1A2AF
:1000F000A434A6A7A5AE362D3738271E1F202122EF
:1001000023242526B333B62EB7B89F8485868788E7
:10011000898A8B8C8D8E8F909192939495969798D7
:10012000999A9B9C9D2F3130A3AD35040506070895
:10013000090A0B0C0D0E0F101112131415161718B7
:10014000191A1B1C1DAFB1B0B5000403090412013C
:100150000002EF0201404123368000010102030149
:1001600041726475696E6F204C4C43004172647536
:10017000696E6F204C656F6E6172646F00DB40A426
:10018000A62EAFDA0281DA1281DA02818F2000A175
:10019000C8D300408DAED580A800006000000000EC
:1001A00000000000000000000000E000000000006F
:1001B000000000000000000001E00000000000005E
:1001C0000000000000000001F0000000000000003E
:1001D00000000000000003F000000000000000002C
:1001E000000000000007F000000000000000000018
:1001F0000000000007F80000000000000000000000
:100200000000000FF800000003C0007E000001E0C5
:10021000007F0FF800000003C000FE000001E000B6
:10022000FFEFF800000003C000FE000001E000FF47
:10023000FFF800000003C000F00000000F007FFE88
:100240007FC0000003C000F00000000F003FFE7FF1
:10025000F83FF1FBCFFCFEF3BC3DEFE01FFE7FFF5C
:100260007FFBFFDFFEFEFFBC3DEFE01FC6FFFF7F11
:10027000FBFFDFFEFEFFBC3DEFE00FE3C7FE787B38
:10028000C3DE1EF0FFBC3DEF0007FF87FC787BC399
:10029000DE1EF0F83C3DEF0001FFFFF0007BC3C025
:1002A0001EF0F03C3DEF0001F37FE03FFBC3CFFECB
:1002B000F0F03C3DEF0003E33F807FFBC3DFFEF047
:1002C000F03C3DEF0007E73C00787BC3DE1EF0F01A
:1002D0003C3DEF0007FFBE00787BC3DE1EF0F03C24
:1002E0003DEF0007FFFE00787BC3DE1EF0F03C3DD3
:1002F000EF000FFFFE007FFBFFDFFEF0F03FFDEFA2
:10030000E00FFFFF007FFBFFDFFEF0F03FFDEFE0BF
:100310000FF9FF003E79F9CF9EF0F01F3DE7E01F97
:10032000F1FF0000000000000000000000001F803E
:10033000FF007FFFFFFFFFFFFFFFFFFFE01C007FCD
:10034000007FFFFFFFFEB46D888D18E000001F00E6
:100350007FFFFFFFFE95AD7DB577E000000F007FCA
:10036000FFFFFFFEA5AD9D8D19E0000006007FFF99
:10037000FFFFFEB5ADEDB57EE0000000000001809E
:1003800000000000000000000003800000000000EA
:100390000000000007C0000000000000000000078F
:1003A000C00000000000000000000FC000000000BE
:1003B00000000000001FE00000000000000000003E
:1003C0001FE00000000000000000003FE00000000F
:1003D0000000000000003FF00000000000000000EE
:1003E000007FF0000000000000001FF87FF0000018
:1003F00000000000003FFE7FF00000000000000051
:100400003FFF7FF0000000000000001FFFFBE00046
:100410000000000000000FFFF9FFC0000000000016
:10042000000FFFF9FFF800000000000007FFF1FFD8
:10043000FF00000000000003FC73FFFF80000000CD
:10044000000001FE3FFFFF80000000000000FF1ED3
:100450000FFF000000000000007FFE1FFC000000F6
:10046000000000003FFFFFF8000000000000000F48
:10047000DFFFE0000000000000001F19FFC00000C7
:1004800000000000003F3CFF0000000000000000F2
:100490007E7CF800000000000000007FFE7C000071
:1004A000000000000000FFFFFC0000000000000052
:1004B00000FFFFFE0000000000000000FFFFFE0044
:1004C00000000000000001FFEFFE0000000000003F
:1004D0000001FFCFFE0000000000000003FF07FE48
:1004E0000000000000000003FC07FE000000000008
:1004F000000003F003FE0000000000000001800087
:10050000FE000000000000000000007E000000006F
:100510000000000000003E0000000000000000009D
:10052000000C000000000000078000FC000003C079
:10053000000000078001FC000003C00000000780ED
:1005400001FC000003C0000000078001E000000083
:100550001E000000078001E00000001E007FE3F79E
:100560009FF9FDE7787BDFC0FFF7FFBFFDFDFF7858
:100570007BDFC0FFF7FFBFFDFDFF787BDFC0F0F73B
:1005800087BC3DE1FF787BDE00F0F787BC3DE1F002
:10059000787BDE0000F787803DE1E0787BDE007F3E
:1005A000F7879FFDE1E0787BDE00FFF787BFFDE185
:1005B000E0787BDE00F0F787BC3DE1E0787BDE0091
:1005C000F0F787BC3DE1E0787BDE00F0F787BC3DCB
:1005D000E1E0787BDE00FFF7FFBFFDE1E07FFBDFBE
:1005E000C0FFF7FFBFFDE1E07FFBDFC07CF3F39FBF
:1005F0003DE1E03E7BCFC0000000000000000000B5
:100600000000FFFFFFFFFFFFFFFFFFFFC0FFFFFF37
:10061000FFFD68DB111A31C0FFFFFFFFFD2B5AFB06
:100620006AEFC0FFFFFFFFFD4B5B3B1A33C0FFFFCC
:10063000FFFFFD6B5BDB6AFDC0080B0002020201DD
:100640000009040000010202000005240010010559
:100650002401010104240206052406000107058186
:100660000310004009040100020A0000000705020F
:100670000240000007058302400000000000002443
:100680000027002A002D003000000000002500286F
:10069000002B002E003100000103070F1F3F7F00D9
:1006A00080C0E0F0F8FCFE00000000003E5B4F5B05
:1006B0003E3E6B4F6B3E1C3E7C3E1C183C7E3C1805
:1006C0001C577D571C1C5E7F5E1C00183C1800FFE9
:1006D000E7C3E7FF0018241800FFE7DBE7FF304817
:1006E0003A060E2629792926407F050507407F0511
:1006F000253F5A3CE73C5A7F3E1C1C08081C1C3E08
:100700007F14227F22145F5F005F5F06097F017FF5
:10071000006689956A606060606094A2FFA2940898
:10072000047E040810207E201008082A1C08081CDB
:100730002A08081E101010100C1E0C1E0C30383E1B
:100740003830060E3E0E06000000000000005F007C
:10075000000007000700147F147F14242A7F2A1248
:10076000231308646236495620500008070300002E
:100770001C2241000041221C002A1C7F1C2A080860
:100780003E08080080703000080808080800006073
:10079000600020100804023E5149453E00427F405F
:1007A0000072494949462141494D331814127F10BE
:1007B00027454545393C4A49493141211109073608
:1007C00049494936464949291E00001400000040A5
:1007D000340000000814224114141414140041229F
:1007E000140802015909063E415D594E7C1211124E
:1007F0007C7F494949363E414141227F4141413E4A
:100800007F494949417F090909013E414151737FAF
:100810000808087F00417F41002040413F017F08D8
:100820001422417F404040407F021C027F7F040829
:10083000107F3E4141413E7F090909063E41512159
:100840005E7F09192946264949493203017F010380
:100850003F4040403F1F2040201F3F4038403F6303
:100860001408146303047804036159494D43007F5D
:100870004141410204081020004141417F0402012E
:1008800002044040404040000307080020545478D0
:10089000407F284444383844444428384444287F1E
:1008A000385454541800087E090218A4A49C787F78
:1008B0000804047800447D40002040403D007F1043
:1008C00028440000417F40007C047804787C0804C0
:1008D00004783844444438FC182424181824241874
:1008E000FC7C08040408485454542404043F442461
:1008F0003C4040207C1C2040201C3C4030403C447C
:10090000281028444C9090907C4464544C44000837
:100910003641000000770000004136080002010265
:1009200004023C2623263C1EA1A161123A4040202D
:100930007A385454555921555579412254547842A6
:10094000215554784020545579400C1E527212396A
:100950005555555939545454593955545458000023
:10096000457C410002457D420001457C407D1211DD
:10097000127DF0282528F07C545545002054547CE5
:10098000547C0A097F4932494949323A4444443A3D
:10099000324A4848303A4141217A3A424020780070
:1009A0009DA0A07D3D4242423D3D4040403D3C2413
:1009B000FF2424487E4943662B2FFC2F2BFF092957
:1009C000F620C0887E090320545479410000447DFC
:1009D000413048484A32384040227A007A0A0A7246
:1009E0007D0D19317D2629292F28262929292630F0
:1009F000484D4020380808080808080808382F1013
:100A0000C8ACBA2F102834FA00007B000008142A62
:100A1000142222142A14085500550055AA55AA5527
:100A2000AAFF55FF55FF000000FF00101010FF0047
:100A3000141414FF001010FF00FF1010F010F01439
:100A40001414FC001414F700FF0000FF00FF14143E
:100A5000F404FC141417101F10101F101F1414148A
:100A60001F00101010F0000000001F101010101FC9
:100A700010101010F010000000FF101010101010D7
:100A8000101010FF10000000FF140000FF00FF0016
:100A9000001F10170000FC04F4141417101714148E
:100AA000F404F40000FF00F714141414141414F7E1
:100AB00000F7141414171410101F101F141414F43A
:100AC000141010F010F000001F101F0000001F1481
:100AD000000000FC140000F010F01010FF10FF14D4
:100AE0001414FF141010101F00000000F010FFFF7E
:100AF000FFFFFFF0F0F0F0F0FFFFFF00000000004C
:100B0000FFFF0F0F0F0F0F3844443844FC4A4A4A86
:100B1000347E02020606027E027E0263554941636C
:100B20003844443C04407E201E2006027E02029986
:100B3000A5E7A5991C2A492A1C4C7201724C304A1F
:100B40004D4D303048784830BC625A463D3E4949A8
:100B500049007E0101017E2A2A2A2A2A44445F4450
:100B60004440514A444040444A51400000FF010380
:100B7000E080FF000008086B6B083612362436064A
:100B80000F090F0600001818000000101000304078
:100B9000FF0101001F01011E00191D1712003C3C3E
:100BA0003C3C00000000000000000023002600295B
:100BB000002C002F000404040404030405020202B4
:100BC00002040302020202060606060606040402E6
:100BD00002020404040802011040804010204080FA
:100BE0004080080204018040201002011080102083
:100BF0004040200000000200090F00000304010033
:100C00000C000000000000000000000000000000D8
:100C100000000000000000000000000000000000D4
:100C200000000000000000000000000000000000C4
:100C300000000000000000000000000000000000B4
:100C400000000000000000000000000000000000A4
:100C50000000000000000000000000000000000094
:100C60000000000000000000000000000000000084
:100C70000000000000000000000000000000000074
:100C80000000000000000000000000000000000064
:100C90000000000000000000000000000000000054
:100CA0000000000000000000000000000000000044
:100CB00000000000000000000007C000000000006D
:100CC0000000000000000000001FF0000000000015
:100CD0000000000000000000003FF80000000000DD
:100CE0000000000000000000007FFC000000000089
:100CF000000000000000000000FFFE0000000000F7
:100D0000000000000000000000FC7E000000000069
:100D1000000000000000000001F83F00000000009B
:100D2000000000000000000001F01F0000000000B3
:100D3000000000000000000001F01F0000000000A3
:100D4000000000000000000003E00F800000000031
:100D5000000000000000000003E00F800000000021
:100D600000000000000000001FFFFFF00000000076
:100D700000000000000000001FFFFFF00000000066
:100D800000000000000000001FFFFFF00000000056
:100D900000000000000000001FFFFFF00000000046
:100DA00000000000000000001FFFFFF00000000036
:100DB00000000000000000001FFFFFF00000000026
:100DC00000000000000000001FFFFFF00000000016
:100DD00000000000000000001FFFFFF00000000006
:100DE00000000000000000001FFFFFF000000000F6
:100DF00000000000000000001FFFFFF000000000E6
:100E000000000000000000001FFFFFF000000000D5
:100E100000000000000000001FFFFFF000000000C5
:100E200000000000000000001FFFFFF000000000B5
:100E300000000000000000001FFFFFF000000000A5
:100E400000000000000000001FFC3FF00000000058
:100E500000000000000000001FF81FF0000000006C
:100E600000000000000000001FF00FF00000000074
:100E700000000000000000001FF00FF00000000064
:100E800000000000000000001FF00FF00000000054
:100E900000000000000000001FF81FF0000000002C
:100EA00000000000000000001FFC3FF000000000F8
:100EB00000000000000000001FFC3FF000000000E8
:100EC00000000000000000001FFC3FF000000000D8
:100ED00000000000000000001FFC3FF000000000C8
:100EE00000000000000000001FFFFFF000000000F5
:100EF00000000000000000001FFFFFF000000000E5
:100F000000000000000000001FFFFFF000000000D4
:100F100000000000000000001FFFFFF000000000C4
:100F200000000000000000001FFFFFF000000000B4
:100F300000000000000000001FFFFFF000000000A4
:100F400000000000000000000000000000000000A1
:100F50000000000000000000000000000000000091
:100F60000000000000000000000000000000000081
:100F70000000000000000000000000000000000071
:100F80000000000000000000000000000000000061
:100F90000000000000000000000000000000000051
:100FA0000000000000000000000000000000000041
:100FB0000000000000000000000000000000000031
:100FC0000000000000000000000000000000000021
:100FD0000000000000000000000000000000000011
:100FE0000000000000000000000000000000000001
:100FF00000000000000000000000000000000000F1
:1010000000000000000000000000000000000000E0
:1010100000002200FF210005010906A1018502054B
:101020000719E029E715002501750195088102954A
:1010300001750881039506750815002573050719C4
:101040000029738100C07626F92211241FBECFEF3C
:10105000DAE0DEBFCDBF11E0A0E0B1E0EAEEF1E5FD
:1010600002C005900D92AE38B107D9F723E0AEE883
:10107000B1E001C01D92AA35B207E1F718E0C4E261
:10108000D8E004C02197FE010E94A127C332D107F6
:10109000C9F70E9408230C94E8280C9400008F9252
:1010A0009F92AF92BF92CF92DF92EF92FF920F93F7
:1010B0001F93CF93DF93EC015B014A016901780133
:1010C000E881F9810284F385E02D0995C80CD91CCB
:1010D000860101501109E881F9810488F589E02D24
:1010E0009501A401B501CE010995E881F981068831
:1010F000F789E02DCE01DF91CF911F910F91FF90E5
:10110000EF90DF90CF90BF90AF909F908F90099419
:101110000895EF92FF920F931F93DC01ED91FC91E4
:1011200000A0F1A1E02D09951F910F91FF90EF9084
:1011300008950F931F93DC01ED91FC91068CF78DC0
:10114000E02D09951F910F9108950F931F93DC01D6
:10115000ED91FC91048CF58DE02D09951F910F9177
:101160000895DC01ED91FC910084F185E02D099456
:101170002F923F924F925F926F927F928F929F92A7
:10118000AF92BF92CF92DF92EF92FF920F931F9395
:10119000CF93DF9300D000D000D0CDB7DEB72C01C5
:1011A0007E836D836A015901C801FC82EB8248018C
:1011B000841A950A97FE03C0919481949108350191
:1011C0002D813E81621A730A77FE03C07194619487
:1011D0007108681479045CF43A2D2B2D5C01832F7F
:1011E000922F3D812E81DE82CD82C32ED22EAD8103
:1011F000BE81AA16BB065CF43C2D2D2D6C01832FFD
:10120000922F3D812E81BE82AD82A32EB22E85010A
:101210002D813E81021B130B1C012C183D0837FE4B
:1012200003C0319421943108780117FF03C03FEFC8
:10123000E31AF30AF594E794C816D9062CF08FEF59
:101240009FEF9A83898304C0A1E0B0E0BA83A983A9
:101250002D813E81A216B30624F1D201ED91FC91BD
:101260000484F585E02D2B813C816814790424F4F5
:101270004D815E81B60103C0A6016D817E81C201F0
:101280000995E218F308F7FE06C029813A81C20EDB
:10129000D31EE00EF11E8D819E8101969E838D836B
:1012A000D7CF26960FB6F894DEBF0FBECDBFDF9125
:1012B000CF911F910F91FF90EF90DF90CF90BF9053
:1012C000AF909F908F907F906F905F904F903F90E6
:1012D0002F900895DC01FB0112968C91129790E0FB
:1012E0002481358182179307D1F491818081813ADD
:1012F00031F481E0913091F0933089F411C0813262
:1013000071F49B3021F482811F968C9305C09A3032
:1013100031F4828150968C9381E00895089580E0A5
:101320000895DC01FB0188E4808389E4818384E4FF
:1013300082831D969C911D979F709F5B93831D9642
:101340008D919C911E9724E0969587952A95E1F7BB
:101350008F708F5B848385E00895FC0182818F5BB1
:10136000FB01808381E00895CF92DF92EF92FF929C
:101370000F931F93CF93DF936C01EB017B01E40E7E
:10138000F51E00E010E0CE15DF0581F069916D30AB
:10139000D1F3D601ED91FC910190F081E02DC601D1
:1013A0000995892B19F00F5F1F4FEDCFC801DF9111
:1013B000CF911F910F91FF90EF90DF90CF90089504
:1013C00085ED8093BC008091BC0084FDFCCF109221
:1013D000630208954091F601262F30E0240F311D5D
:1013E00021323105DCF4209163022430C9F4FC0180
:1013F00080E090E0861758F43091F6012191DC01ED
:10140000AC52BE4FA30FB11D2C930196F3CF809128
:10141000F601680F6093F60180E0089581E0089579
:1014200082E0089508950895E091D3018091D2015A
:10143000E81730F4F0E0EE54FE4F808190E008951C
:101440008FEF9FEF08959091D3018091D20198176B
:1014500050F4E92FF0E0EE54FE4F208130E09F5F22
:101460009093D30102C02FEF3FEFC90108958091FF
:10147000D20190E02091D301821B91090895CF926F
:10148000DF92EF92FF920F931F93CF93DF937C0134
:10149000CB018A0120916402222389F0EB016B01C8
:1014A000C40ED51ECC15DD0569F06991D701ED910B
:1014B000FC910190F081E02DC7010995F3CF642FD5
:1014C0000E94EA09C801DF91CF911F910F91FF900F
:1014D000EF90DF90CF900895CF93DF931F92CDB719
:1014E000DEB76983209164022223D1F02091870224
:1014F000203240F021E030E0FC013383228380E0A1
:1015000090E015C080916502E82FF0E0EA59FD4FA8
:10151000998190838F5F809365028093870205C0D5
:1015200061E0CE0101960E94EA0981E090E00F900F
:10153000DF91CF910895089580E090E00895089597
:10154000EF92FF920F931F93CF93DF93FB012081C4
:10155000213851F52381223239F5DC0112962C9184
:1015600030E04481558142175307F1F4EC010B85BB
:101570001C85E12CF12C0115110591F0F801448135
:1015800055816281738180E80E94EF178F3FFFEFE2
:101590009F0769F0E80EF91ED8010D911C91EBCF61
:1015A00081E08F87C70105C080E090E002C08FEF27
:1015B0009FEFDF91CF911F910F91FF90EF900895D2
:1015C000CF93DF93CDB7DEB769970FB6F894DEBF40
:1015D0000FBECDBFFC01DB018C918F5F8C93BE01F0
:1015E0006F5F7F4F89E1DB011D928A95E9F729E062
:1015F000298384E08A8391E09D8383E08E832A8718
:1016000021E22B879C879D879F8722E2288B27E0FA
:101610002B8B25E02C8B8E8B20E430E0388F2F8BAA
:10162000998F82818B8395858685998B8A8B83811F
:1016300080688D8B49E150E080E00E94EF17699649
:101640000FB6F894DEBF0FBECDBFDF91CF910895E6
:10165000EF92FF921F93CF93DF93EC01162F683820
:1016600018F0E8E7E60F23C0E62FF0E067FF0DC0B3
:10167000E058F10981E090E001C0880FEA95EAF7AF
:101680009C81892B8C83E0E012C0E653FF4FE491EC
:10169000E11107C081E090E09B838A83E12CF12C6B
:1016A0003CC0E7FF04C08C8182608C83EF778E8121
:1016B0008E1739F18F81E81721F18885E81709F134
:1016C0008985E817F1F08A85E817D9F08B85E81746
:1016D000C1F0DE01169680E090E02D91211106C048
:1016E000DE01A80FB91F1696EC930BC00196863049
:1016F000910599F781E090E09B838A83E12CF12C9E
:1017000007C0CE0104960E94731AEE24E394F12CD4
:10171000183818F0E8E7E10F1DC0E12FF0E017FFDF
:101720000EC0E058F10981E090E001C0880FEA9511
:10173000EAF780959C8189238C83E0E00BC0E65317
:10174000FF4FE491EE23D1F0E7FF04C08C818D7F41
:101750008C83EF77DE0186E0EE2341F016969C91B4
:101760001697E91303C016961C921697815011968E
:101770008111F2CFCE0104960E94731AC701DF9146
:10178000CF911F91FF90EF9008951F920F920FB687
:101790000F9211242F933F934F935F936F937F93F7
:1017A0008F939F93AF93BF93EF93FF938091B90073
:1017B000887F803609F49CC068F5883209F45BC0E4
:1017C00090F4803109F454C038F4882309F4F6C049
:1017D000883009F44DC0F6C0883109F44CC080321D
:1017E00009F45DC0EFC0803409F468C048F4803368
:1017F00009F455C0883309F0E5C080936102D8C070
:10180000803509F44FC0883509F45DC0883409F08B
:10181000D9C0D6C0883909F4C7C0A8F4883709F4FC
:1018200067C038F4883609F463C0803709F460C0B3
:10183000C9C0883809F4B8C0803909F45FC080385D
:1018400009F0C0C05BC0803B09F486C038F4803A20
:1018500009F466C0883A09F47FC0B4C0803C09F43A
:10186000A7C0883C09F4A4C0883B09F48AC0AAC078
:1018700080913E0210C09091600280915F029817A3
:1018800070F5E091600281E08E0F80936002F0E0DD
:10189000E15CFD4F80818093BB0085EC86C0809326
:1018A00061028EC0E091600281E08E0F8093600241
:1018B0008091BB00F0E0E15CFD4F8083909160027D
:1018C00080915F026EC0E091600281E08E0F809394
:1018D00060028091BB00F0E0E15CFD4F808380916D
:1018E000620281116DC081E080933D0284EA61C093
:1018F00083E08093630210921A02CFCF80911A0284
:10190000803208F051C0E0911A0281E08E0F80937E
:101910001A028091BB00F0E0E650FE4F8083BDCFFD
:1019200085EC8093BC001092630280911A02803291
:1019300030F4E0911A02F0E0E650FE4F1082609120
:101940001A0270E0E091F801F091F9018AEF91E05C
:10195000099510921A0236C084E0809363021092B7
:10196000F7011092F601E091F401F091F50109956B
:101970008091F601811105C081E08093F6011092FB
:10198000D401E091F70181E08E0F8093F701F0E040
:10199000EC52FE4F80818093BB009091F7018091C3
:1019A000F601981708F479CF85E88093BC000AC047
:1019B00085EC8093BC001092630204C01092610217
:1019C0000E94E009FF91EF91BF91AF919F918F919C
:1019D0007F916F915F914F913F912F910F900FBE2B
:1019E0000F901F9018951092D3011092D20110926F
:1019F0006502109287021092630281E08093620276
:101A000010923D0261E082E00E945A1E61E083E094
:101A10000E945A1EE9EBF0E080818E7F80838081F6
:101A20008D7F808388E48093B80085E48093BC0038
:101A300082E19AE09093F5018093F40183E19AE0CA
:101A40009093F9018093F80108958F929F92AF923D
:101A5000BF92EF92FF920F931F93CF93DF9381304A
:101A600091F0823009F094C00E94D1218091B001A0
:101A70009091B1010E94D30D0E941020CAE0D0E0E5
:101A800009E010E027C0DF91CF911F910F91FF90E7
:101A9000EF90BF90AF909F908F900C94F121809128
:101AA000210290912202029771F48091B0019091ED
:101AB000B1010196BE010E946B279093B101809302
:101AC000B0010E94D30D1E141F04BCF00E9412220C
:101AD000892B81F18FE00E9436224B015C0180E16D
:101AE0000E9436227B018AE00E9436228EE00E940C
:101AF0003622181419049CF2E6CF809121029091AD
:101B00002202029719F78091B0019091B1010197DB
:101B100097FD05C09093B1018093B00104C010936C
:101B2000B1010093B0018091B0019091B1010E9488
:101B3000D30DCCCF6FE070E080E090E00E94C51E36
:101B40000E941222892B31F680912102909122026B
:101B5000029709F0BFCF8091AE019091AF01FC01D7
:101B6000EE0FFF1FE257FE4F2091B0013091B101FF
:101B70003183208301969093AF018093AE01109240
:101B8000B1011092B00180E090E00E94D30DA2CF8D
:101B9000DF91CF911F910F91FF90EF90BF90AF9089
:101BA0009F908F9008952F923F924F925F926F92E5
:101BB0007F928F929F92AF92BF92CF92DF92EF92DD
:101BC000FF920F931F93CF93DF9300D000D0CDB738
:101BD000DEB79A8389832091AE013091AF013C83B7
:101BE0002B8322303105B1F14CF42115310509F474
:101BF00093C02130310509F45EC05FC18B819C81A7
:101C000040970CF05AC10E94D1218AE090E0909355
:101C10000A038093090387E190E090930C0380937B
:101C20000B0383E0809311038093120381E090E023
:101C30009093100380930F0390930E0380930D03F2
:101C4000EB81FC81EE0FFF1FE857FE4F80819181F1
:101C50000E94011A2091AE013091AF013C832B8389
:101C60002230310511F40E94D1218BE290E0909353
:101C70000A038093090387E190E090930C0380931B
:101C80000B0383E0809311038093120381E090E0C3
:101C90009093100380930F0390930E0380930D0392
:101CA0008B819C81880F991F86579E4FFC018081F4
:101CB00091810E94011A2091AE013091AF013C83C5
:101CC0002B832130310511F40E94D1218CE490E066
:101CD00090930A038093090387E190E090930C03AB
:101CE00080930B0383E0809311038093120381E0C0
:101CF00090E09093100380930F0390930E038093D2
:101D00000D038B819C81880F991F84579E4FFC0186
:101D1000808191810E94011A01E010E029E330E006
:101D200044E050E06FE770E08DEF92E00E94A5087C
:101D300044244394512C6CE1662E712CE12CF12C3F
:101D40002CE130E03C832B8378EC272E33243A942B
:101D5000E5EECE2EDD24DA94EFEFEE1AFE0AF2E085
:101D60004F0E511CC40CD51C2B813C812E153F05F8
:101D7000BCF14901880C991C3FEF831A930A01E0DA
:101D800010E0940140E2A42EB12C8B819C81A81A12
:101D9000B90AA501B70161587F4F8DEF92E00E940B
:101DA000A5089401A5016FE770E06E197F098DEF1A
:101DB00092E00E94A508EB81FC81E615F705A9F4E5
:101DC0008B819C81E816F9068CF5D7FCC5CF01976D
:101DD0009C838B8392E0290E311CC20CD31CBCCF98
:101DE0008B819C818615970509F1B30161587F4F5E
:101DF00001E010E04201F2E08F1A9108940181E2C3
:101E0000A82EB12CAE18BF08A5018DEF92E00E945C
:101E1000A5086FE770E0661977099401A5018DEFB9
:101E200092E00E94A5086B807C80CACF8EE690E08D
:101E300090930A038093090387E190E090930C0349
:101E400080930B0383E0809311038093120310921D
:101E5000100310920F0310920E0310920D032981AC
:101E60003A81B901330F880B990B97FF03C00E9489
:101E7000E01903C04AE00E94632242E050E06BE8B0
:101E800071E08DEF92E00E94A2130F900F900F90DF
:101E90000F90DF91CF911F910F91FF90EF90DF9006
:101EA000CF90BF90AF909F908F907F906F905F90FA
:101EB0004F903F902F900C94102080912102909190
:101EC0002202019690932202809321020F900F909C
:101ED0000F900F90DF91CF911F910F91FF90EF9096
:101EE000DF90CF90BF90AF909F908F907F906F903A
:101EF0005F904F903F902F900C94250D08950E9475
:101F0000DC283FB7F89480912B0290912C02A0918D
:101F10002D02B0912E0226B5A89B05C02F3F19F0C7
:101F20000196A11DB11D3FBFBA2FA92F982F882759
:101F3000820F911DA11DB11DBC01CD0142E0660FB4
:101F4000771F881F991F4A95D1F708951F920F9206
:101F50000FB60F9211242F933F938F939F93AF93BC
:101F6000BF938091270290912802A0912902B091FD
:101F70002A023091260223E0230F2D3720F4019608
:101F8000A11DB11D05C026E8230F0296A11DB11D9C
:101F9000209326028093270290932802A09329027F
:101FA000B0932A0280912B0290912C02A0912D02D5
:101FB000B0912E020196A11DB11D80932B0290932A
:101FC0002C02A0932D02B0932E02BF91AF919F914E
:101FD0008F913F912F910F900FBE0F901F901895EA
:101FE0001F920F920FB60F9211242F933F934F938E
:101FF0005F936F937F938F939F93AF93BF93EF9371
:10200000FF93E0911401F09115010995FF91EF9173
:10201000BF91AF919F918F917F916F915F914F9100
:102020003F912F910F900FBE0F901F9018951F9208
:102030000F920FB60F9211242F933F934F935F93FC
:102040006F937F938F939F93AF93BF93EF93FF9380
:10205000E0911201F09113010995FF91EF91BF9169
:10206000AF919F918F917F916F915F914F913F9130
:102070002F910F900FBE0F901F9018951F920F92E7
:102080000FB60F9211242F933F934F935F936F934B
:102090007F938F939F93AF93BF93EF93FF93E091C1
:1020A0001001F09111010995FF91EF91BF91AF914E
:1020B0009F918F917F916F915F914F913F912F9160
:1020C0000F900FBE0F901F9018951F920F920FB692
:1020D0000F9211242F933F934F935F936F937F93AE
:1020E0008F939F93AF93BF93EF93FF93E0910E0174
:1020F000F0910F010995FF91EF91BF91AF919F91E1
:102100008F917F916F915F914F913F912F910F90A0
:102110000FBE0F901F9018951F920F920FB60F923F
:1021200011242F933F934F935F936F937F938F93DC
:102130009F93AF93BF93EF93FF93E0910C01F091C6
:102140000D010995FF91EF91BF91AF919F918F91F3
:102150007F916F915F914F913F912F910F900FBEA3
:102160000F901F9018951F920F920FB60F92112487
:102170008F939F938091E1009091E100937F9093E2
:10218000E10083FF0FC01092E90091E09093EB0013
:102190001092EC0092E39093ED0010923C0298E0D4
:1021A0009093F00082FF20C093E09093E90090911B
:1021B000F200992319F09AE39093E80090911F029E
:1021C000992339F090911F02915090931F02992307
:1021D00089F190913B02992339F090913B02915003
:1021E00090933B02992341F184FF10C08091E2005B
:1021F0008E7E81608093E2008091E1008F7E8093EB
:10220000E100809120028E7E806111C080FF16C0A7
:102210008091E2008E7E80618093E2008091E100F7
:102220008E7E8093E100809120028E7E816080937B
:10223000200204C05D9ACDCF289AD6CF9F918F916E
:102240000F900FBE0F901F9018951F920F920FB610
:102250000F921124CF92DF92EF92FF920F931F9370
:102260002F933F934F935F936F937F938F939F939E
:10227000AF93BF93EF93FF93CF93DF93CDB7DEB7C9
:102280006C97DEBFCDBF1092E9008091E80083FF1C
:10229000FBC168E0CE0145960E94C51882EF80938D
:1022A000E8008D8987FF05C09091E80090FFFCCF82
:1022B00003C09EEF9093E800982F907609F0C6C077
:1022C0009E894F89588D2F89F88C91110CC08038C8
:1022D00029F4809124028093F10002C01092F10051
:1022E0001092F10045C1913051F4811141C141304A
:1022F000510509F03DC1809124028D7F0BC09330C0
:1023000061F4811135C14130510509F031C180912D
:1023100024028260809324022BC1953049F480917D
:10232000E80080FFFCCF822F80688093E30020C10B
:10233000963009F05EC00B8D1C8D22E01092E900F2
:1023400010921E0210921D02F21232C010921C0254
:1023500010921B020E94E61899E0BE016F5F7F4F4A
:10236000DB01E92F1D92EA95E9F79983FA8291E062
:102370009E8390EA98879AEF998720911D02309169
:102380001E02275F3F4F3C832B838D831092E90011
:1023900010921E0210921D0210931C0200931B0249
:1023A00049E050E080E00E94EF170E94E618E0C08C
:1023B00010931C0200931B020E94D218DC0112969B
:1023C0000D911C9113970115110509F4BBC0D8019B
:1023D000ED91FC910480F581E02DBE016B5E7F4F95
:1023E000C8010995009709F0C7C0F801008511855B
:1023F000EACF973009F445C1983021F481E0809309
:10240000F100B6C0993009F0B3C0837009F039C14A
:10241000E7E1F1E081E031E096E32081211109C09C
:102420008EE78093EA001092EA008F8980933C0245
:102430009FC08093E9003093EB0021912093EC0042
:102440009093ED008F5F873041F7EACF8B8D9C8DA5
:102450001092E90010921E0210921D0290931C022D
:1024600080931B02898D811153C08E899D89913A79
:1024700049F4813209F005C147E050E064E071E0C1
:1024800080E0BBC0913209F0FCC0833269F48F89CF
:10249000988DA0E0B0E08093000190930101A0939B
:1024A0000201B093030164C0803269F48091E800B6
:1024B00082FFFCCF67E084E091E00E94C5188BEFBB
:1024C0008093E80055C0823209F052C08F89809312
:1024D0000B01EEEFFFE7859194918B3F9C4D19F036
:1024E000E0E0F8E002C0EEEFFAE0809104019091A4
:1024F0000501A0910601B0910701803B9440A10520
:10250000B10509F09EC080910B0180FF79C099C090
:102510000E94D218FC01028113810115110509F4F2
:10252000B0C0D801ED91FC910190F081E02DBE0189
:102530006B5E7F4FC801099581111AC0F8010085B3
:102540001185EBCFF1E0FF1609F44EC0F3E0FF1266
:1025500098C08F89882309F44AC0823089F440E802
:1025600060E18CE691E00E944126882309F489C04D
:102570008EEF8093E80088C018161906CCF381C04E
:10258000813029F440E86BE080E691E0ECCF8330C5
:1025900009F077C00E94D218DC011296ED90FC90F1
:1025A00013978E010F5F1F4F6801E114F10479F05A
:1025B000D701ED91FC910680F781E02DB801C701AC
:1025C0000995080F111DF701E084F184EECFD801C1
:1025D0001C92F60101900020E9F73197BF016C19B8
:1025E0007D0940E0C601BFCF6EE471E002C06AE43D
:1025F00071E0FB01449150E080E80E94EF17B8CFF2
:10260000EE3F2AE0F20751F0808191818737A7E7FA
:102610009A0721F09093FF0A8093FE0A87E797E7D5
:102620009183808380916000809323029BE088E106
:102630000FB6F894A895809360000FBE9093600049
:1026400097CF808191818737974709F091CFA895DF
:102650008091600088618093600080912302809364
:102660006000EE3FBAE0FB0739F08091FE0A9091DE
:10267000FF0A918380837CCF1092FF0A1092FE0A9A
:1026800077CF81E28093EB006C960FB6F894DEBFB3
:102690000FBECDBFDF91CF91FF91EF91BF91AF9171
:1026A0009F918F917F916F915F914F913F912F916A
:1026B0001F910F91FF90EF90DF90CF900F900FBE82
:1026C0000F901F90189540911D0250911E0220916D
:1026D0001B0230911C0242175307B4F49091E8009A
:1026E0009570E1F39091E80092FD19C08093F1009C
:1026F00080911D0290911E0201968F739927892B5C
:1027000019F48EEF8093E80080911D0290911E02D3
:10271000019690931E0280931D0281E0089580E04F
:1027200008952FB7F89487708093E9009091E8009E
:10273000892F807295FF04C09091F20080E4891B7C
:102740002FBF0895CF92DF92EF92FF920F931F93C6
:10275000CF93DF936C017A018B01C0E0D0E0CE15FE
:10276000DF0581F0D8016D918D01D601ED91FC91CD
:102770000190F081E02DC6010995892B11F0219679
:10278000EECF7E01C701DF91CF911F910F91FF9096
:10279000EF90DF90CF900895CF93DF931F92CDB746
:1027A000DEB76983DC01ED91FC910280F381E02DBD
:1027B00041E050E0BE016F5F7F4F09950F90DF91C0
:1027C000CF91089583E08093E9008091F2008823FF
:1027D00019F08AE38093E800089583E00E94911342
:1027E00090E00895FC018485958597FD0BC09FB707
:1027F000F89482E08093E9008091F2009FBF90E01E
:10280000019608959FB7F89482E08093E900809143
:10281000F2009FBF90E00895FC0177FDB9C080856C
:102820009185681779070CF0B3C057FDB1C0828558
:102830009385481759070CF008958689823079F4FA
:1028400084819581DC01A61BB70BBD016150710924
:1028500086819781DC01A41BB50BAD010EC08330CE
:1028600009F084C064277527CA018627972768273F
:10287000792746815781481B590B41505109213016
:10288000310531F048F12230310509F44AC008958C
:10289000CA0157FD07969C01A3E035952795AA9597
:1028A000E1F7A481B5812A9FC0012B9F900D3A9F2B
:1028B000900D1124680F791F078CF0A1E02DE60F11
:1028C000F71F4770552781E090E001C0880F4A95B7
:1028D000EAF79081892B48C0CA0157FD07969C01F1
:1028E00093E0359527959A95E1F7A481B5812A9FC4
:1028F000C0012B9F900D3A9F900D1124680F791FF6
:10290000078CF0A1E02DE60FF71F4770552781E0F7
:1029100090E001C0880F4A95EAF78095908189235D
:1029200023C0CA0157FD07969C0183E03595279582
:102930008A95E1F7A481B5812A9FC0012B9F900D54
:102940003A9F900D1124680F791F078CF0A1E02D9C
:10295000E60FF71F4770552781E090E001C0880F10
:102960004A95EAF79081892780830895813009F09C
:1029700086CF6427752746275727642775278481C4
:102980009581DC01A61BB70BBD016150710977CFA2
:1029900008950895FC016370668B8481958126817A
:1029A0003781613039F0633029F091878087338730
:1029B00022870895318720879387828708956F92B1
:1029C0007F928F929F92AF92BF92CF92DF92EF92BF
:1029D000FF920F931F93CF93DF93EC014B015A01AA
:1029E00069013801E881F9810284F385E02D0995B8
:1029F000E881F9810288F389E02D87019601A5011C
:102A0000B401CE010995A501460D571D415051094C
:102A1000E881F9810288F389E02D9601B401CE01A5
:102A20000995E881F9810088F189E02D9301A501DC
:102A3000B401CE010995C80CD91CB60161507109C9
:102A4000E881F9810088F189E02D9301A501CE018B
:102A50000995E881F9810688F789E02DCE01DF919B
:102A6000CF911F910F91FF90EF90DF90CF90BF908B
:102A7000AF909F908F907F906F9009948F929F92CC
:102A8000AF92BF92CF92DF92EF92FF920F931F937C
:102A9000CF93DF934C016B015A01E901DC01ED9109
:102AA000FC916217730781F40417150724F48B2D2A
:102AB0005801042F182F0A191B0998012F5F3F4F47
:102AC000048CF58DE02D12C04017510709F526172B
:102AD000370724F48D2D6901C62FD82F9E012C199C
:102AE0003D092F5F3F4F068CF78DE02D8701A50133
:102AF000B601C4010995DF91CF911F910F91FF900D
:102B0000EF90DF90CF90BF90AF909F908F900895FF
:102B10000284F385E02D0995D401ED91FC910488A0
:102B2000F589E02D9E01A501B601C4010995D401E6
:102B3000ED91FC910688F789E02DC401DF91CF91DA
:102B40001F910F91FF90EF90DF90CF90BF90AF90CB
:102B50009F908F900994EF92FF920F931F93DC0147
:102B60001A960D911C911B9718962D913C911997CF
:102B7000ED91FC9100A0F1A1E02D7B0140E050E03F
:102B800060E070E009951F910F91FF90EF9008951C
:102B90004F925F926F927F928F929F92AF92BF926D
:102BA000CF92DF92EF92FF920F931F93CF93DF9319
:102BB0006C012B015A0139014801DC01ED91FC91B6
:102BC0000284F385E02D0995E201640C751CD601A1
:102BD000ED91FC91C615D7055CF40088F189E02DD4
:102BE00087019401A501BE01C60109952196EFCF89
:102BF0000688F789E02DC601DF91CF911F910F91D3
:102C0000FF90EF90DF90CF90BF90AF909F908F900C
:102C10007F906F905F904F9009948F929F92AF92A8
:102C2000BF92CF92DF92EF92FF920F931F93CF93B9
:102C3000DF93EC015B014A016901E881F9810284BB
:102C4000F385E02D099595012C0D3D1D215031098D
:102C5000E881F9810488F589E02D78018401A401D7
:102C6000B501CE010995E881F9810688F789E02D43
:102C7000CE01DF91CF911F910F91FF90EF90DF90E8
:102C8000CF90BF90AF909F908F9009940F931F9318
:102C9000CF93DF931F92CDB7DEB78C01FC01848503
:102CA000958597FF0EC0CE0101960E94EF1D0197FA
:102CB00019F4898190E002C08FEF9FEFF8019587AA
:102CC0008487F801848595850F90DF91CF911F91BE
:102CD0000F910895CF93DF931F92CDB7DEB7FC011C
:102CE0008485958597FD05C02FEF3FEF35872487B5
:102CF0000BC0CE0101960E94EF1D019719F4898146
:102D000090E002C08FEF9FEF0F90DF91CF91089579
:102D10000F931F93CF93DF93DC015696EC91569758
:102D2000E23071F0E330E9F0E13079F5FB0114961F
:102D30000D90BC91A02DA41BB50BA21BB30B18C00A
:102D4000EC01EC81FD81E61BF70BBF0161507109BD
:102D5000EE81FF81DF01A41BB50BAD01421B530BBC
:102D600014C0DA01EC01EE81FF81E61BF70B31970D
:102D7000F7FD0DC0EC014E815F81E417F5073CF4CF
:102D8000AF01BD010E94D31C02C00E943A1DDF9119
:102D9000CF911F910F9108950F931F93DC015696C9
:102DA000EC915697E23061F0E33009F1E13081F5C2
:102DB0001496ED91FC911597E41BF50B319723C008
:102DC000DC011496ED91FC911597DF01A61BB70B62
:102DD000BD01DC011696ED91FC911797DF01A41B54
:102DE000B50BAD0141505109621B730B11C0FA01C3
:102DF000DC0116964D915C911797DA01A61BB70B73
:102E0000BD01621B730BAB01BF010E943A1D0CC0D8
:102E100057FD0AC0DC011696ED91FC9117974E17ED
:102E20005F0714F40E94D31C1F910F9108958F9295
:102E30009F92AF92CF92EF92FF920F931F93CF93F7
:102E4000DF93EC01262F898D9A8D009709F042C0FF
:102E50006A3059F41D861C862D898E859F8538E041
:102E6000239F800D911D112443C06D3009F4AAC029
:102E70008F898823C9F03C898C859D8546E0349FE5
:102E8000800D911D1124488559854817590764F410
:102E90001D861C863D898E859F8548E0349F800D68
:102EA000911D11249F878E87EA88FB8808891989DC
:102EB0004E855F856C857D85AD88CC88CE010E946E
:102EC0009F1A2C898C859D8536E0239F800D911D4E
:102ED00011243EC06A3079F41D861C862D89FC01C0
:102EE0003696E4918E859F852E9F800D911D11242D
:102EF0009F878E8767C06D3009F464C0FC013496EB
:102F00003491631708F45EC03196E491E61708F433
:102F100059C0462F431B342FFC0132968590949064
:102F200047E0349F800C911C1124F40132963491B7
:102F30003196E491332311F0E1110DC0F401349680
:102F4000E4912C898C859D85E29F800D911D112433
:102F50009D878C8737C0F401359644915F8955234E
:102F600019F15C89E32FF0E0E40FF11D47FDFA95BC
:102F70005E9FB0015F9F700D11244C855D85460FEB
:102F8000571F688579856417750774F41D861C863C
:102F90003D89FC013696E4918E859F853E9F800D8C
:102FA000911D11249F878E87EA88FB8808891989DB
:102FB0004E855F856C857D85AD88CC88CE010E946D
:102FC0009F1ABCCF81E090E0DF91CF911F910F91CC
:102FD000FF90EF90CF90AF909F908F900895DF92E9
:102FE000EF92FF920F931F93CF93DF93D82E8A0116
:102FF0007B01E40EF51EEB01CE15DF0571F0D7FE67
:1030000003C0FE01849101C088810E946313219650
:103010008111F2CF8FEF9FEF01C0C801DF91CF91F7
:103020001F910F91FF90EF90DF9008957F928F9204
:103030009F92AF92BF92CF92DF92EF92FF920F9347
:103040001F93CF93DF93C82E8B017A0180913C02AE
:10305000811103C08FEF9FEF74C08091200280FF29
:1030600005C08091E00082608093E000CE2DDF2DCE
:10307000D12C8AEFB82E8C2D8770982E8C2D8072D3
:10308000882E8C2D8074782E9AE3A92E209719F41F
:10309000DD2009F451C08C2D0E94911381110AC0CA
:1030A000BA94BB20B9F261E070E080E090E00E9449
:1030B000C51EECCF282F30E0C217D3070CF48C2F9D
:1030C0009FB7F8949092E9002091E80025FF32C064
:1030D000282F30E0C21BD30B882029F08150A0F0AC
:1030E0001092F100FBCFF801C7FE0AC0815050F0EA
:1030F00044914093F1003196F9CF41914093F10012
:103100008150D8F7020F131FDD2019F0A092E800BC
:103110000AC08091E80085FD08C0A092E800DD2487
:10312000D394209739F0D12C05C0209719F4711051
:10313000A092E8009FBFAACF5D9884E680931F020B
:10314000C701DF91CF911F910F91FF90EF90DF901A
:10315000CF90BF90AF909F908F907F900895CF9326
:10316000DF93EC0180910B01882331F083E00E9412
:1031700016181816190634F081E090E09B838A83B4
:1031800080E090E0DF91CF910895615030F0209180
:10319000F100FC0120830196F8CF289884E6809303
:1031A0003B0208958091330281110DC082E080932B
:1031B0002F0284E08093300210923202109231028A
:1031C00081E0809333028FE292E008950F931F9382
:1031D000CF93DF931F92CDB7DEB782E0898342E4BD
:1031E00050E069E376E080E80E94EF170E94D21871
:1031F000DC0112960D911C9113970115110589F0B0
:10320000D801ED91FC910280F381E02DBE016F5F4A
:103210007F4FC801099597FD04C0F801008511850D
:10322000ECCF89810F90DF91CF911F910F9108957D
:1032300008958EBD00000DB407FEFDCF8EB5089534
:103240001F93CF93DF93FC01858D968D009729F115
:10325000162FEF0121A131E0309364022093860202
:103260001092650210928702DC01ED91FC910190B1
:10327000F081E02D60E009958D8D9E8DDC01ED9152
:10328000FC910190F081E02D612F09958D8D9E8D2F
:10329000DF91CF911F910C94FF1EA5A5B6A59C911F
:1032A00083A9809589238C93838D948D892B31F00C
:1032B000862FDF91CF911F910C94191928E030E0EF
:1032C00080E8A1A5B2A591A9462F482319F04C91F9
:1032D000942B03C04C91909594239C93A3A5B4A5E3
:1032E0004C9192A9942B9C93A3A5B4A54C9192A91F
:1032F000909594239C9386952150310911F7DF9185
:10330000CF911F9108958CBD9DBD08951F93CF93BC
:10331000DF93EC01162F8D8D9E8D892BB1F02FA997
:1033200038AD49AD5AAD60E074E284EF90E00E94A0
:103330007F27DA01C9014097A109B109B695A79580
:10334000979587958093B8000FC08B8D9C8D892BA6
:1033500021F08DA99EA90E948319EFA5F8A990815B
:103360008CA9809589238083111102C066EA01C06F
:1033700067EACE010E9420198D8D9E8D892BB1F0B8
:103380002BAD3CAD4DAD5EAD60E074E284EF90E0FE
:103390000E947F27DA01C9014097A109B109B695BA
:1033A000A795979587958093B80006C0EFA5F8A9D3
:1033B00090818CA9892B8083DF91CF911F910895F3
:1033C000CF92DF92EF92FF92CF93DF936B017C015C
:1033D0006DE28DEF92E00E941717EC0166277727C8
:1033E000CB016C197D098E099F094AE00E94632276
:1033F0008C0F9D1FDF91CF91FF90EF90DF90CF90CA
:103400000895BC01990F880B990B97FD0C94E01956
:103410004AE00C94632281E08093DC028093DD0219
:1034200022EE32E03093DF022093DE021092E102BE
:103430001092E00227E231E03093D9022093D802C3
:103440001092E4021092E3021092E6021092E5025A
:103450008093E7028093E80281EC8093E2020E946D
:10346000D218FC0121818091DC0290E0820F911D35
:103470000897C4F5A281B381109729F488ED92E0F2
:10348000938382830EC018968D919C911997009713
:1034900011F0DC01F8CF88ED92E019969C938E93A1
:1034A000189780818093DA0281818093DB0290817A
:1034B0008091DD02890F808380E09091DC02891782
:1034C00088F4A091DE02B091DF02A80FB11D9C919B
:1034D000A181B0E0AA5EBE4F9C9391819F5F9183D2
:1034E0008F5FEBCF08950F931F93CF93DF931F92BE
:1034F000CDB7DEB78C018091E902811105C00E9431
:103500000B1A81E08093E90282E0898341E050E078
:10351000BE016F5F7F4F8091DB020E94161897FDFE
:1035200008C08091DB0248E050E0B80180640E944E
:1035300016180F90DF91CF911F910F9108952F9240
:103540003F924F925F926F927F928F929F92AF9233
:10355000BF92CF92DF92EF92FF920F931F93CF9380
:10356000DF93CDB7DEB76B970FB6F894DEBF0FBE13
:10357000CDBF9B8F8A8F1B014A01D22E19870887E6
:103580003701A982DC0159962D913C915A9721155A
:10359000310509F0FFC018968D919C911997681715
:1035A00079070CF0E7C11A968D919C911B974817EB
:1035B00059070CF0DFC1EC2DF0E0FB83EA839B019F
:1035C00046E0C49E200D311D11243D872C87121624
:1035D00013060CF0CFC16A2D70E07B876A8783E009
:1035E000660F771F8A95E1F77F876E87CB01880D7D
:1035F000991D181619060CF0BDC158968C918111B1
:1036000004C08FEA8D1508F4D394AA8DBB8DED917B
:10361000FC9111970284F385E02DCD010995B5E069
:10362000DB9EC0011124EC2DF0E0F98BE88B9101B9
:103630002B5F3F4F3B8B2A8B3D822C822101AC01BB
:10364000421953095D8B4C8B7981672F70E07F8B1A
:103650006E8BC4010896998F888FEC89FD89E40DE3
:10366000F51DE955F94FD49054019F828E82D0FE0A
:1036700016C0AA8DBB8DED91FC91B1E0CB1209C0B3
:103680002981213031F40484F585E02D28853985A0
:1036900019C00684F785E02DE884F9841DC04885AB
:1036A00059854615570519F1AA8DBB8DED91FC91F1
:1036B000B1E0CB120DC02981213051F40484F5858D
:1036C000E02D9301A501B2018A8D9B8D09950FC054
:1036D0000684F785E02D73010A851B852A813B81CD
:1036E0004E815F816C817D818A8D9B8D0995D694F9
:1036F0003FEFA31AB30A4E815F816E897F89460F1F
:10370000571F5F834E83888D998DA816B90609F0DF
:10371000AECF9FEF491A590AAC81BD81E889F9897A
:10372000AE0FBF1FBD83AC832A893B894216530667
:1037300009F093CF488559854615570509F4F8C017
:10374000AA8DBB8DED91FC91B1E0CB1211C0298106
:10375000213071F4B1016B5F7F4F0088F189E02D5A
:10376000830128E030E0A4018A8D9B8D0995E0C09B
:103770006C857D854A815B81641B750B0684F785AA
:10378000E02D73010E851F859A01A4018A8D9B8D02
:103790000995CEC0F9013496E491DE1AF90132960A
:1037A00085919491B7E0DB9E800D911D1124F90164
:1037B000259134913B8B2A8BFC0125913491590141
:1037C000FC0132965490319634913C873296749035
:1037D0003196149141E04C1518F05981523068F03F
:1037E000672D072C000C770B7D836C83812F012EB6
:1037F000000C990B9B838A8304C01B821A821D8252
:103800001C82AA8DBB8DED91FC9111970284F385EA
:10381000E02DCD010995412CD12C612CF981EF2FA0
:10382000F0E0FF83EE832C2D30E03B872A87A40154
:10383000410F511D17FD5A955F8B4E8BB101670DDE
:10384000711D77FC7A95798F688F7C85671608F0F3
:103850006FC0262D30E04A815B81420F531FAE813D
:10386000BF81A49FC001A59F900DB49F900D11240E
:10387000F401E80FF91FF98BE88B842D712C4E8928
:103880005F89420F531F5D8B4C8B751408F04DC040
:1038900051E0580F5E87877041F4C5010196EA89AF
:1038A000FB89EA0DFB1DD4905C01D7FE3AC061E0B4
:1038B000C61216C07981713099F4AA8DBB8DED9135
:1038C000FC9111970484F585E02D288539854C8974
:1038D0005D89688D798D670D711DCD01099521C0B8
:1038E0008C819D81870D911DEA85FB858E9FB0019E
:1038F0008F9F700D9E9F700D1124620D731DAA8DF8
:10390000BB8DED91FC9111970684F785E02DE8843D
:10391000F9840E811F812A853B8548895989CD010B
:103920000995DD0C73948E85B0CF450C63948DCFD3
:10393000AA8DBB8DED91FC9111970688F789E02D3A
:10394000CD016B960FB6F894DEBF0FBECDBFDF91F1
:10395000CF911F910F91FF90EF90DF90CF90BF908C
:10396000AF909F908F907F906F905F904F903F901F
:103970002F9009946B960FB6F894DEBF0FBECDBFA3
:10398000DF91CF911F910F91FF90EF90DF90CF903B
:10399000BF90AF909F908F907F906F905F904F906F
:1039A0003F902F9008950F931F93CF93DF9377FF4E
:1039B00004C0260F371F60E070E0DC011496CD9143
:1039C000DC911597FB01E20FF31FCE17DF071CF404
:1039D0009E01261B370B121613060CF046C0FA0187
:1039E00057FD3796DF01E3E0B595A795EA95E1F736
:1039F000AC9FF001AD9FF00DBC9FF00D11246E0F38
:103A00007F1FDC015F96ED91FC919097E60FF71F09
:103A10004770552781E090E001C0880F4A95EAF78A
:103A2000482F0130110539F078F002301105E9F422
:103A30002E0F3F1F13C02E0F3F1FE217F307A9F0F1
:103A40008081842B8193F9CF80952E0F3F1FE21741
:103A5000F30759F0908198239193F9CFE217F30778
:103A600021F0808184278193F9CFDF91CF911F913D
:103A70000F910895EF92FF920F931F93CF93DF93CF
:103A8000EC0177FDA5C0EC80FD806E157F050CF084
:103A90009FC057FF04C0240F351F40E050E08E81C7
:103AA0009F81FA01E20FF31F8E179F071CF49C0100
:103AB000241B350B121613060CF08AC0922F842F8C
:103AC0008695869586958E9DD0018F9DB00D11248B
:103AD0006A0F7B1FAF8DB8A1A60FB71F4770B1F15A
:103AE00088E0841B482F682F70E0FB01E156F94FF6
:103AF000E491281798F4621B71092FEF30E002C09F
:103B0000359527956A95E2F7E2230130110549F0D2
:103B100078F00230110509F05BC00EC001301105CC
:103B200019F48C91E82B0AC00130110508F049C046
:103B3000E0958C91E82302C08C91E827EC939417D0
:103B400008F446C02C813D81A20FB31FE92FE41B6E
:103B5000E830F8F00230110561F48E2F9C919095B9
:103B60009C932C813D81A20FB31F88508830B0F701
:103B70000FC081E00115110509F480E081959E2FA9
:103B80008C932C813D81A20FB31F98509830C0F7C1
:103B9000E770EE23E9F0F0E0E956F94FE4910130E7
:103BA000110539F048F00230110591F48C91E827A5
:103BB00006C08C91E82B03C0E0958C91E823EC9330
:103BC00007C00230110509F4B7CFAE0DBF1DBECF3F
:103BD000DF91CF911F910F91FF90EF900895209169
:103BE0003C02211103C08FEF9FEF08955FB7F89457
:103BF00022E02093E9002091F20030E01216130633
:103C000014F421E030E0422FFC0184E6415038F00A
:103C1000289880933B029091F1009193F7CF211562
:103C2000310521F08091F200882319F05FBFC901AE
:103C300008958BE68093E800F9CF90E0FC0131977E
:103C4000EF30F105B0F5EA5AFF4F0C94A1278091AF
:103C500080008F7703C0809180008F7D80938000EB
:103C6000089580918000877FF9CF84B58F7702C057
:103C700084B58F7D84BD0895809190008F7707C0B3
:103C8000809190008F7D03C080919000877F80930A
:103C9000900008958091C0008F7703C08091C0008C
:103CA0008F7D8093C00008958091C200877F8093AC
:103CB000C20008951F93CF93DF93282F30E0F901BE
:103CC000ED50F44F8491F901EC52F44FD491F90185
:103CD000EB54F44FC491CC23C1F0162F81110E94F4
:103CE0001D1EEC2FF0E0EE0FFF1FE757F94FA591D7
:103CF000B4919FB7F894111104C08C91D095D8233A
:103D000002C0EC91DE2BDC939FBFDF91CF911F911E
:103D10000895CF93DF9390E0FC01EC52F44F24918F
:103D2000FC01EB54F44F8491882361F190E0880FFB
:103D3000991FFC01E558F94FC591D491FC01E75753
:103D4000F94FA591B491611109C09FB7F89488818A
:103D5000209582238883EC912E230BC0623061F47E
:103D60009FB7F8948881322F309583238883EC9114
:103D70002E2B2C939FBF06C08FB7F894E8812E2B73
:103D800028838FBFDF91CF9108958F929F92AF923A
:103D9000BF92CF92DF92EF92FF926B017C010E9463
:103DA000810F4B015C01C114D104E104F104F1F075
:103DB0000E94810FDC01CB0188199909AA09BB096E
:103DC000883E9340A105B10570F321E0C21AD108E5
:103DD000E108F10888EE880E83E0981EA11CB11C52
:103DE000C114D104E104F10419F7DDCFFF90EF9085
:103DF000DF90CF90BF90AF909F908F9008953091BB
:103E00008702313208F04BC0809163028111FCCFF0
:103E10009091860222E02093630221E020936202C7
:103E20002FEF209361021092600230935F02E6E66A
:103E3000F2E0AFE3B2E020E0321721F041914D9380
:103E40002F5FFACF10923E0220913E02990F922BE3
:103E500090933E0290913D02913061F410923D02A8
:103E600090913E029093BB009091BC0093FDF8CFDF
:103E700095EC01C095EE9093BC0090916302923056
:103E8000E1F3909161029F3F79F08091610280326D
:103E900041F080916102803331F084E005C081E01F
:103EA00003C082E001C083E0109265021092870295
:103EB000109264020895DF92EF92FF920F931F9386
:103EC000CF93DF93D82ED92FC62F80911A039091CC
:103ED0001B03009709F454C020911E0331E0309376
:103EE0006402209386021092650210928702DC0120
:103EF000ED91FC910190F081E02D60E00995ED2CB1
:103F0000FD2E11E0D1E080911A0390911B03CC2388
:103F100071F11032C8F00E94FF1E80911E03D093F1
:103F2000640280938602109265021092870280914B
:103F30001A0390911B03DC01ED91FC910190F0813B
:103F4000E02D60E0099511E080911A0390911B0328
:103F5000F7016491DC01ED91FC910190F081E02D7D
:103F600009951F5FC150BFEFEB1AFB0ACCCFDF9161
:103F7000CF911F910F91FF90EF90DF900C94FF1E57
:103F8000E0912A03F0912B0390818091300380957A
:103F9000892380830D2D1D2FCC2309F439C0F8010E
:103FA00084912091180330911903232B31F00E9442
:103FB0001919C1500F5F1F4FEFCF28E030E040E8E4
:103FC000E0912603F091270390912E03582F54235C
:103FD00019F05081952B03C05081909595239083C3
:103FE000E0912803F0912903508190912F03952BA4
:103FF0009083E0912803F0912903508190912F0341
:10400000909595239083469521503109C9F6D1CFDB
:10401000DF91CF911F910F91FF90EF90DF90089566
:10402000EF92FF920F931F93CF93DF9380911A0328
:1040300090911B03892BD1F02091340330913503EB
:10404000409136035091370360E074E284EF90E0D2
:104050000E947F27DA01C9014097A109B109B695ED
:10406000A795979587958093B80016C080911803FF
:1040700090911903892B31F0809132039091330391
:104080000E948319E0912C03F0912D03908180917F
:10409000310380958923808365E082E190E10E946D
:1040A0005B1F6091010361508DEF92E00E94201927
:1040B0002091030330910403C901079697FD0796E9
:1040C00033E0959587953A95E1F72091010330917A
:1040D0000203829F8001839F100D929F100D112477
:1040E000C0911C03D0911D0380911A0390911B0372
:1040F0000C0F1D1F009709F44CC020911E0331E0E6
:104100003093640220938602109265021092870217
:10411000DC01ED91FC910190F081E02D60E40995C6
:10412000FF24F394EE24E39480911A0390911B03EF
:104130000C171D0759F1BFE1BF15D0F40E94FF1EF7
:1041400080911E03E09264028093860210926502C1
:104150001092870280911A0390911B03DC01ED916C
:10416000FC910190F081E02D60E40995FF24F39427
:1041700080911A0390911B036991DC01ED91FC91F0
:104180000190F081E02D0995F394CECF0E94FF1E9F
:1041900041C0E0912A03F0912B039081809130037C
:1041A000892B80830C171D07A9F189912091180391
:1041B00030911903232B19F00E941919F3CF28E02D
:1041C00030E040E8E0912603F091270390912E0320
:1041D000582F542319F05081952B03C0508190958E
:1041E00095239083E0912803F091290350819091C9
:1041F0002F03952B9083E0912803F09129035081A0
:1042000090912F03909595239083469521503109E5
:10421000C9F6C8CF80911A0390911B03892BD1F066
:10422000209138033091390340913A0350913B0378
:1042300060E074E284EF90E00E947F27DA01C90118
:104240004097A109B109B695A79597958795809351
:10425000B80017C0E0912C03F0912D03908180915C
:104260003103892B80838091180390911903892B46
:1042700041F0DF91CF911F910F91FF90EF900C943F
:104280001819DF91CF911F910F91FF90EF90089532
:104290003F924F925F926F927F928F929F92AF92D6
:1042A000BF92CF92DF92EF92FF920F931F93CF9323
:1042B000DF93CDB7DEB728970FB6F894DEBF0FBEF9
:1042C000CDBF4C017E836D832A013901C801079659
:1042D00097FD07969C0193E0359527959A95E1F710
:1042E0003C832B83A12CB12CC12CD12C312CC201AD
:1042F0008C0D9D1D9A838983CE14DF04D4F5188616
:104300001F822F813885201731075CF5C90187701E
:104310009927892B11F0330C0EC0EF81F885F7FD3A
:10432000379683E0F595E7958A95E1F7EA0DFB1D51
:10433000E60DF71D349037FE0DC021E030E04981D5
:104340005A816D817E818F819885680F791FC401A4
:104350000E94B1082F8138852F5F3F4F38872F8308
:10436000D0CF3FEFC31AD30A8B819C81A80EB91E10
:10437000BECF28960FB6F894DEBF0FBECDBFDF913B
:10438000CF911F910F91FF90EF90DF90CF90BF9052
:10439000AF909F908F907F906F905F904F903F90E5
:1043A00008952091030330910403C901079697FDF6
:1043B000079623E0959587952A95E1F720910103CB
:1043C00030910203829FA001839F500D929F500D58
:1043D000112460E070E080911C0390911D030C9407
:1043E000E128EF92FF920F931F930E94D12180E466
:1043F000E82EF12C00E810E022E13CE040E050E043
:1044000060E070E08DEF92E00E9448210E94102051
:1044100064EF71E080E090E01F910F91FF90EF90CA
:104420000C94C51ECF93DF93EAEFFBE08491EBED94
:10443000FBE0D491ECEBFBE0C491CC2391F0811133
:104440000E941D1EEC2FF0E0EE0FFF1FE955F44F08
:10445000A591B491EC91ED2381E090E021F480E00E
:1044600002C080E090E0DF91CF9108950F931F93F9
:1044700090E0FC01EC52F44F6491FC01EB54F44FDA
:10448000E491F0E0EE0FFF1FE955F44F8591949110
:1044900000E41CE920E030E040E00E94B422611515
:1044A00071058105910549F0DC01CB010196A11D43
:1044B000B11DBC01CD019F7003C060E070E0CB0175
:1044C0001F910F9108958F929F92AF92BF920F9379
:1044D0001F93CF93DF93CDB7DEB7A1970FB6F894B4
:1044E000DEBF0FBECDBF19A2423008F44AE08E01F4
:1044F0000F5D1F4F842E912CA12CB12CA50194018E
:104500000E947F27E62FB901CA0101501109EA3044
:1045100014F4E05D01C0E95CD801EC93232B242B5B
:10452000252B61F70115110571F0F80101900020AC
:10453000E9F73197AF01401B510BB8018DEF92E0C5
:104540000E94A21302C080E090E0A1960FB6F894FA
:10455000DEBF0FBECDBFDF91CF911F910F91BF90F6
:10456000AF909F908F900895CF92DF92EF92FF923D
:104570000F931F93E82FF92F05C00150110921094E
:10458000310961F1908196239417B9F305C0015068
:1045900011092109310911F1908196239413F7CF64
:1045A000C12CD12CE12CF12C0AC08FEFC81AD80AEB
:1045B000E80AF80A0C151D052E053F0579F08081E3
:1045C0008623841791F36C2D7D2D8E2D9F2D1F91A9
:1045D0000F91FF90EF90DF90CF90089560E070E032
:1045E00080E090E01F910F91FF90EF90DF90CF90CF
:1045F000089583E691E09093FE028093FD028091FE
:104600001C0390911D03009711F00C9453280895FA
:10461000789484B5826084BD84B5816084BD85B59D
:10462000826085BD85B5816085BD80916E008160A9
:1046300080936E001092810080918100826080934F
:104640008100809181008160809381008091800051
:1046500081608093800080919100826080939100BE
:1046600080919100816080939100809190008160A1
:10467000809390008091C10084608093C1008091FC
:10468000C10082608093C1008091C10081608093ED
:10469000C1008091C30081608093C3008091C000FD
:1046A00082608093C0008091C20081608093C200CC
:1046B00080917A00846080937A0080917A00826091
:1046C00080937A0080917A00816080937A00809153
:1046D0007A00806880937A0010923C021092240243
:1046E000109220028091D70081608093D70080EAE9
:1046F0008093D80089B5806189BD89B5826089BD04
:1047000009B400FEFDCF61E070E080E090E00E941F
:10471000C51E8091D8008F7C80618093D8008091E5
:10472000E000807F8093E0008091E1008E7E8093A6
:10473000E1008DE08093E200559A209A80911C035D
:1047400090911D03892B11F52091030330910403EF
:10475000C901079697FD079623E0959587952A95B9
:10476000E1F72091010330910203AC01429FC001A7
:10477000439F900D529F900D11240E94BB27909350
:104780001D0380931C03892B09F4E4C00E94D121EE
:104790008091030390910403813291050CF43AC196
:1047A000AC014054510957FF02C04F5F5F4F559510
:1047B000479560910103709102036255710977FF7B
:1047C00002C06F5F7F4F7595679500E4E02EF12C76
:1047D00002E510E029E733E08DEF92E00E944821E6
:1047E00082E080931F0380911A0390911B0300972E
:1047F00009F42DC12CE320931E030E94F30C809139
:10480000250387FD1EC061E00E94891E61E0809142
:1048100025030E945A1E61E070E080E090E00E9453
:10482000C51E60E0809125030E945A1E6AE070E078
:1048300080E090E00E94C51E61E0809125030E9407
:104840005A1E80911A0390911B03892B09F4BEC153
:104850002091340330913503409136035091370352
:1048600060E074E284EF90E00E947F27DA01C901E2
:104870004097A109B109B695A7959795879580931B
:10488000B80064E085E991E00E945B1F609103033A
:1048900061508DEF92E00E94201964E081E991E07F
:1048A0000E945B1F80911F03813009F4A6C164E15F
:1048B0008DEF92E00E94201964E08DE891E00E9463
:1048C0005B1F80910103909102038038910509F0EC
:1048D000A7C180910303909104038032910509F0F0
:1048E0008EC164E089E891E00E945B1F69ED8DEF65
:1048F00092E00E94201980911F03813009F4ACC11D
:1049000061EF8DEF92E00E94201966E08DE791E063
:104910000E945B1F80911A0390911B03892B09F45D
:104920009DC1209138033091390340913A03509151
:104930003B0360E074E284EF90E00E947F27DA019D
:10494000C9014097A109B109B695A7959795879593
:104950008093B80081E090E090932202809321023E
:104960000E94F1210FB6F894A895809160008861AB
:1049700080936000109260000FBE8FEF9FEF9093C6
:1049800095028093940262E087E00E94891E62E0B3
:104990008FE00E94891E62E080E10E94891E62E031
:1049A0008EE00E94891E62E08AE00E94891E81EFEB
:1049B00092E00E94F30C8FEF93E00E9455278A3219
:1049C00029F06AE28FEF93E00E945D278FE99AE079
:1049D0009093110180931001809169008F7C806217
:1049E00080936900EA9A82E090E09093220280939B
:1049F000210268EB7BE080E090E00E94C51EC0E0F1
:104A0000D0E0809121020E94250D2097D1F30E94D1
:104A10000000F7CFAC014052510957FF02C04F5F71
:104A20005F4F55954795609101037091020363575D
:104A3000710977FF02C06F5F7F4F75956795C0E280
:104A4000EC2EF12C03E710E029E931E0C5CE61E05E
:104A5000809123030E94891E61E0809124030E94BB
:104A6000891E80912303082E000C990BFC01EB5446
:104A7000F44FE491F0E0EE0FFF1FE757F94F259157
:104A8000349130932B0320932A03FC01EC52F44F12
:104A9000E491E093300380912403082E000C990BDD
:104AA000FC01EB54F44FE491F0E0EE0FFF1FE757E9
:104AB000F94FA591B491B0932D03A0932C03FC0161
:104AC000EC52F44FE491E09331038C91E82BEC939A
:104AD0008091180390911903892B09F434C0CFB742
:104AE000F89480912502811127C0E6ECFBE08491C7
:104AF000E5EEFBE09491E82FF0E0EE0FFF1FE558A4
:104B0000F94FA591B491EC91E92321F461E081E1A1
:104B10000E945A1E61E081E10E94891E8CB580616D
:104B20008CBD8CB580648CBD61E08FE00E94891ED5
:104B300061E080E10E94891E809125028F5F809351
:104B40002502CFBF5CCE61E0809121030E94891EC7
:104B500061E0809122030E94891E80912103082E2A
:104B6000000C990BFC01EB54F44FE491F0E0EE0FD4
:104B7000FF1FE757F94F2591349130932703209376
:104B80002603FC01EC52F44FE491E0932E03809154
:104B90002203082E000C990BFC01EB54F44FE49116
:104BA000F0E0EE0FFF1FE757F94FA591B491B093D6
:104BB0002903A0932803FC01EC52F44FE491E09305
:104BC0002F038C91E095E823EC9319CE8091180384
:104BD00090911903892B31F0809132039091330326
:104BE0000E948319E0912C03F0912D039081809114
:104BF000310380958923808344CE60E159CE80348F
:104C0000910509F073CE63E086E891E00E945B1F96
:104C100080911F03813011F06FEC19C06FE917C04C
:104C20008036910509F062CE8091030390910403D0
:104C3000409709F05BCE63E083E891E00E945B1F40
:104C400080911F03813011F06FEA01C060E18DEFA8
:104C500092E00E9420194ACE62E253CEE0912C03EA
:104C6000F0912D03908180913103892B8083809175
:104C7000180390911903892B09F46CCE0E9418191E
:104C800069CEDF92EF92FF920F931F93CF93DF9342
:104C9000D82EF92EE42E062F10E0C8010196880FB9
:104CA0000E94631383E00E946313CD2DDF2D0C0F50
:104CB0001D1FC017D10789F0E7FE03C0FE018491D4
:104CC00001C088810E946313F82E80E00E94631364
:104CD0008F2121968111EDCF01C081E0DF91CF912D
:104CE0001F910F91FF90EF90DF90089510928B022B
:104CF00010928A0288EE93E0A0E0B0E080938C02EC
:104D000090938D02A0938E02B0938F0283E391E083
:104D100090938902809388028FEF9FEF9093950282
:104D20008093940210924D0310924C0385E491E01D
:104D300090934B0380934A0380914203811113C0E7
:104D400010923D0310923C0387E190E190933F0362
:104D500080933E038FE290E0909341038093400361
:104D600081E0809342038091E902811105C00E9495
:104D70000B1A81E08093E902E091E302F091E402F2
:104D8000309739F48CE393E09093E4028093E3024C
:104D90000AC080819181009711F0FC01FACF8CE369
:104DA00093E0918380832091E5023091E602809127
:104DB000400390914103820F931F9093E6028093EA
:104DC000E5021092F4021092F30288EE93E0A0E064
:104DD000B0E08093F5029093F602A093F702B093AF
:104DE000F80281E591E09093F2028093F102109233
:104DF00000031092FF0220E830E03093020320937A
:104E0000010380E490E090930403809303033093C4
:104E100006032093050390930803809307031092E1
:104E2000130310920A031092090310920C031092BC
:104E30000B0381E080931203809311032FEF3FEF68
:104E40003093100320930F0330930E0320930D0330
:104E500080931403109215031092170310921603F7
:104E600083E691E09093FE028093FD021092190375
:104E70001092180381EF92E090931B0380931A0322
:104E800010921D0310921C038FEF809321038093D7
:104E9000220380932303809324038093250380E5DA
:104EA00080933203109233030895F999FECF92BD97
:104EB00081BDF89A992780B50895262FF999FECFDC
:104EC0001FBA92BD81BD20BD0FB6F894FA9AF99A27
:104ED0000FBE0196089597FB072E16F4009407D095
:104EE00077FD09D00E94A72707FC05D03EF49095D6
:104EF00081959F4F0895709561957F4F0895A1E228
:104F00001A2EAA1BBB1BFD010DC0AA1FBB1FEE1F43
:104F1000FF1FA217B307E407F50720F0A21BB30B8E
:104F2000E40BF50B661F771F881F991F1A9469F70A
:104F300060957095809590959B01AC01BD01CF0166
:104F40000895EE0FFF1F0590F491E02D0994AA1B20
:104F5000BB1B51E107C0AA1FBB1FA617B70710F064
:104F6000A61BB70B881F991F5A95A9F78095909596
:104F7000BC01CD0108950F931F93CF93DF9382302F
:104F8000910510F482E090E0E0915803F09159030C
:104F900020E030E0A0E0B0E0309719F1408151818D
:104FA0000281138148175907C8F08417950769F4DF
:104FB000109731F012960C93129713961C9327C0FA
:104FC000009358031093590322C02115310519F09D
:104FD0004217530718F49A01BD01EF01DF01F801F0
:104FE000DBCF21153105F9F0281B390B24303105B1
:104FF00080F48A819B816115710521F0FB01938307
:10500000828304C09093590380935803FE01329623
:1050100044C0FE01E20FF31F8193919322503109A6
:10502000398328833AC02091560330915703232BAC
:1050300041F420911F0130912001309357032093B8
:10504000560320911D0130911E012115310541F4B7
:105050002DB73EB74091210150912201241B350B01
:10506000E0915603F0915703E217F307A0F42E1BCB
:105070003F0B2817390778F0AC014E5F5F4F2417BC
:10508000350748F04E0F5F1F509357034093560368
:105090008193919302C0E0E0F0E0CF01DF91CF91E6
:1050A0001F910F910895CF93DF93009709F481C06A
:1050B000FC01329713821282A0915803B0915903D8
:1050C000109781F420813181820F931F2091560324
:1050D000309157032817390751F5F0935703E093A0
:1050E000560367C0ED0120E030E0CE17DF0740F443
:1050F0004A815B819E0141155105F1F0EA01F5CF2E
:10510000D383C28340815181840F951FC817D9076B
:1051100059F488819981840F951F02969183808329
:105120008A819B81938382832115310529F4F09331
:105130005903E09358033DC0E901FB83EA83499199
:105140005991C40FD51FEC17FD0761F4808191813F
:10515000840F951F0296E901998388838281938148
:105160009B838A83E0E0F0E012968D919C911397E7
:10517000009719F0FD01DC01F7CF8D919C911197FB
:105180009D012E5F3F4F820F931F20915603309158
:1051900057032817390769F4309729F410925903F7
:1051A0001092580302C013821282B0935703A09347
:1051B0005603DF91CF91089581E090E0F8940C942C
:1051C000E828DC0101C06D9341505040E0F708959C
:1051D00018E0C4E2D8E004C0FE010E94A127219695
:0A51E000C532D107C9F7F894FFCFDC
:1051EA00FFFFFFFF00E10000000000007E0F7E0FBE
:1051FA007E0F7E0F7E0F00C1808100000000005AE2
:10520A00038000000000006A09E00AA00A91090070
:10521A00000000CC13AF18ED13E213F2136A16461E
:10522A001600000000280BB4099C0A9B0A00000023
:10523A00006C0A3F0A9C0A8808370A230A140A00E3
:10524A000000001717A2139C0A9B0A0C148808B1C5
:10525A00088908A5089908B8088808CA1486198808
:0E526A0016CC16C815AB153E15DF140D0A0044
:00000001FF
