:100000000C9464060C948C060C948C060C948C0650
:100010000C948C060C948C060C948C060C948C0618
:100020000C948C060C948C060C9472130C943D1456
:100030000C948C060C948C060C948C060C948C06F8
:100040000C948C060C948C060C948C060C948C06E8
:100050000C948C060C948C060C948C060C9428132F
:100060000C948C060C948C060C948C060C948C06C8
:100070000C948C060C948C060C948C060C948C06B8
:100080000C948C060C948C060C948C060C948C06A8
:100090000C94BA190C948C060C948C060C948C0657
:1000A0000C948C060C948C060C948C06F323F6238B
:1000B000E523E923EF23172417241724FA23FE232B
:1000C000022408240C2417241224414243444546A8
:1000D0004748494A4B4C4D4E4F5051525354555638
:1000E0005758595A28295B5D7B7D61626364656658
:1000F0006768696A6B6C6D6E6F7071727374757618
:100100007778797A3C3E7C5C2F3F3031323334351E
:10011000363738392D2B21402324255E262A5F2BA4
:10012000607E3B3A22272C2E080B000202020100BF
:10013000090400000102020000052400100105244A
:1001400001010104240206052406000107058103BC
:1001500010004009040100020A0000000705020225
:100160004000000705830240000004030904120157
:100170000002EF0201404123368000010102030129
:1001800041726475696E6F204C4C43004172647516
:10019000696E6F204C656F6E6172646F00DB40A406
:1001A000A62EAFDA0281DA1281DA02818F2000A155
:1001B000C8D300408DAED580A800006000000000CC
:1001C00000000000000000000000E000000000004F
:1001D000000000000000000001E00000000000003E
:1001E0000000000000000001F0000000000000001E
:1001F00000000000000003F000000000000000000C
:10020000000000000007F0000000000000000000F7
:100210000000000007F800000000000000000000DF
:100220000000000FF800000003C0007E000001E0A5
:10023000007F0FF800000003C000FE000001E00096
:10024000FFEFF800000003C000FE000001E000FF27
:10025000FFF800000003C000F00000000F007FFE68
:100260007FC0000003C000F00000000F003FFE7FD1
:10027000F83FF1FBCFFCFEF3BC3DEFE01FFE7FFF3C
:100280007FFBFFDFFEFEFFBC3DEFE01FC6FFFF7FF1
:10029000FBFFDFFEFEFFBC3DEFE00FE3C7FE787B18
:1002A000C3DE1EF0FFBC3DEF0007FF87FC787BC379
:1002B000DE1EF0F83C3DEF0001FFFFF0007BC3C005
:1002C0001EF0F03C3DEF0001F37FE03FFBC3CFFEAB
:1002D000F0F03C3DEF0003E33F807FFBC3DFFEF027
:1002E000F03C3DEF0007E73C00787BC3DE1EF0F0FA
:1002F0003C3DEF0007FFBE00787BC3DE1EF0F03C04
:100300003DEF0007FFFE00787BC3DE1EF0F03C3DB2
:10031000EF000FFFFE007FFBFFDFFEF0F03FFDEF81
:10032000E00FFFFF007FFBFFDFFEF0F03FFDEFE09F
:100330000FF9FF003E79F9CF9EF0F01F3DE7E01F77
:10034000F1FF0000000000000000000000001F801E
:10035000FF007FFFFFFFFFFFFFFFFFFFE01C007FAD
:10036000007FFFFFFFFEB46D888D18E000001F00C6
:100370007FFFFFFFFE95AD7DB577E000000F007FAA
:10038000FFFFFFFEA5AD9D8D19E0000006007FFF79
:10039000FFFFFEB5ADEDB57EE0000000000001807E
:1003A00000000000000000000003800000000000CA
:1003B0000000000007C0000000000000000000076F
:1003C000C00000000000000000000FC0000000009E
:1003D00000000000001FE00000000000000000001E
:1003E0001FE00000000000000000003FE0000000EF
:1003F0000000000000003FF00000000000000000CE
:10040000007FF0000000000000001FF87FF00000F7
:1004100000000000003FFE7FF00000000000000030
:100420003FFF7FF0000000000000001FFFFBE00026
:100430000000000000000FFFF9FFC00000000000F6
:10044000000FFFF9FFF800000000000007FFF1FFB8
:10045000FF00000000000003FC73FFFF80000000AD
:10046000000001FE3FFFFF80000000000000FF1EB3
:100470000FFF000000000000007FFE1FFC000000D6
:10048000000000003FFFFFF8000000000000000F28
:10049000DFFFE0000000000000001F19FFC00000A7
:1004A00000000000003F3CFF0000000000000000D2
:1004B0007E7CF800000000000000007FFE7C000051
:1004C000000000000000FFFFFC0000000000000032
:1004D00000FFFFFE0000000000000000FFFFFE0024
:1004E00000000000000001FFEFFE0000000000001F
:1004F0000001FFCFFE0000000000000003FF07FE28
:100500000000000000000003FC07FE0000000000E7
:10051000000003F003FE0000000000000001800066
:10052000FE000000000000000000007E000000004F
:100530000000000000003E0000000000000000007D
:10054000000C000000000000078000FC000003C059
:10055000000000078001FC000003C00000000780CD
:1005600001FC000003C0000000078001E000000063
:100570001E000000078001E00000001E007FE3F77E
:100580009FF9FDE7787BDFC0FFF7FFBFFDFDFF7838
:100590007BDFC0FFF7FFBFFDFDFF787BDFC0F0F71B
:1005A00087BC3DE1FF787BDE00F0F787BC3DE1F0E2
:1005B000787BDE0000F787803DE1E0787BDE007F1E
:1005C000F7879FFDE1E0787BDE00FFF787BFFDE165
:1005D000E0787BDE00F0F787BC3DE1E0787BDE0071
:1005E000F0F787BC3DE1E0787BDE00F0F787BC3DAB
:1005F000E1E0787BDE00FFF7FFBFFDE1E07FFBDF9E
:10060000C0FFF7FFBFFDE1E07FFBDFC07CF3F39F9E
:100610003DE1E03E7BCFC000000000000000000094
:100620000000FFFFFFFFFFFFFFFFFFFFC0FFFFFF17
:10063000FFFD68DB111A31C0FFFFFFFFFD2B5AFBE6
:100640006AEFC0FFFFFFFFFD4B5B3B1A33C0FFFFAC
:10065000FFFFFD6B5BDB6AFDC000000000000000D7
:10066000002A2B280000000000000000000000000D
:100670000000000000000000002C9EB4A0A1A2A475
:1006800034A6A7A5AE362D3738271E1F20212223DA
:10069000242526B333B62EB7B89F848586878889EC
:1006A0008A8B8C8D8E8F9091929394959697989932
:1006B0009A9B9C9D2F3130A3AD3504050607080990
:1006C0000A0B0C0D0E0F1011121314151617181912
:1006D0001A1B1C1DAFB1B0B50001018000004145DF
:1006E000532D31323800000000002300260029007D
:1006F0002C002F0004040404040304050202020277
:1007000004030202020206060606060604040202AA
:100710000204040408020110408040102040804080
:100720008008020401804020100201108010204047
:1007300040200000000200090F0000030401000C2B
:1007400000000000000000000000000000000000A9
:10075000000100DE06B000800088298427042500FF
:1007600000D9062200FF210005010906A10185022A
:10077000050719E029E71500250175019508810293
:100780009501750881039506750815002573050701
:10079000190029738100C000000000240027002AEE
:1007A000002D00300000000000250028002B002E46
:1007B000003100000103070F1F3F7F0080C0E0F001
:1007C000F8FCFE00000000003E5B4F5B3E3E6B4FBE
:1007D0006B3E1C3E7C3E1C183C7E3C181C577D57D3
:1007E0001C1C5E7F5E1C00183C1800FFE7C3E7FF7F
:1007F0000018241800FFE7DBE7FF30483A060E2612
:1008000029792926407F050507407F05253F5A3C69
:10081000E73C5A7F3E1C1C08081C1C3E7F14227FAC
:1008200022145F5F005F5F06097F017F0066899584
:100830006A606060606094A2FFA29408047E04086D
:1008400010207E201008082A1C08081C2A08081EF0
:10085000101010100C1E0C1E0C30383E3830060ED6
:100860003E0E06000000000000005F0000000700D0
:100870000700147F147F14242A7F2A12231308648C
:100880006236495620500008070300001C22410030
:100890000041221C002A1C7F1C2A08083E08080070
:1008A0008070300008080808080000606000201010
:1008B0000804023E5149453E00427F4000724949CA
:1008C00049462141494D331814127F1027454545AB
:1008D000393C4A49493141211109073649494936CC
:1008E000464949291E000014000000403400000061
:1008F0000814224114141414140041221408020193
:100900005909063E415D594E7C1211127C7F4949BE
:1009100049363E414141227F4141413E7F4949495B
:10092000417F090909013E414151737F0808087F51
:1009300000417F41002040413F017F081422417F58
:10094000404040407F021C027F7F0408107F3E41F0
:1009500041413E7F090909063E4151215E7F091947
:100960002946264949493203017F01033F4040405F
:100970003F1F2040201F3F4038403F63140814634E
:1009800003047804036159494D43007F414141020A
:1009900004081020004141417F040201020440404C
:1009A000404040000307080020545478407F28440A
:1009B00044383844444428384444287F38545454F4
:1009C0001800087E090218A4A49C787F0804047803
:1009D00000447D40002040403D007F10284400003E
:1009E000417F40007C047804787C08040478384413
:1009F000444438FC1824241818242418FC7C0804C7
:100A00000408485454542404043F44243C404020E7
:100A10007C1C2040201C3C4030403C442810284492
:100A20004C9090907C4464544C4400083641000043
:100A300000770000004136080002010204023C2653
:100A400023263C1EA1A161123A4040207A3854541A
:100A5000555921555579412254547842215554789D
:100A60004020545579400C1E527212395555555933
:100A7000395454545939555454580000457C410058
:100A800002457D420001457C407D1211127DF02817
:100A90002528F07C545545002054547C547C0A0988
:100AA0007F4932494949323A4444443A324A4848F3
:100AB000303A4141217A3A42402078009DA0A07D01
:100AC0003D4242423D3D4040403D3C24FF242448BD
:100AD0007E4943662B2FFC2F2BFF0929F620C08867
:100AE0007E090320545479410000447D4130484838
:100AF0004A32384040227A007A0A0A727D0D193152
:100B00007D2629292F28262929292630484D4020AD
:100B1000380808080808080808382F10C8ACBA2F89
:100B2000102834FA00007B000008142A1422221432
:100B30002A14085500550055AA55AA55AAFF55FF75
:100B400055FF000000FF00101010FF00141414FFE8
:100B5000001010FF00FF1010F010F0141414FC002F
:100B60001414F700FF0000FF00FF1414F404FC1439
:100B70001417101F10101F101F1414141F00101032
:100B800010F0000000001F101010101F10101010A7
:100B9000F010000000FF101010101010101010FFC7
:100BA00010000000FF140000FF00FF00001F1017DE
:100BB0000000FC04F414141710171414F404F400C7
:100BC00000FF00F714141414141414F700F714148D
:100BD00014171410101F101F141414F4141010F014
:100BE00010F000001F101F0000001F14000000FC88
:100BF000140000F010F01010FF10FF141414FF1474
:100C00001010101F00000000F010FFFFFFFFFFF0AA
:100C1000F0F0F0F0FFFFFF0000000000FFFF0F0FFB
:100C20000F0F0F3844443844FC4A4A4A347E0202CB
:100C30000606027E027E0263554941633844443C05
:100C400004407E201E2006027E020299A5E7A59997
:100C50001C2A492A1C4C7201724C304A4D4D3030CE
:100C600048784830BC625A463D3E494949007E01B9
:100C700001017E2A2A2A2A2A44445F444440514AD8
:100C8000444040444A51400000FF0103E080FF001F
:100C90000008086B6B083612362436060F090F065B
:100CA000000018180000001010003040FF01010083
:100CB0001F01011E00191D1712003C3C3C3C0000A6
:100CC00000000000262E172E11241FBECFEFDAE001
:100CD000DEBFCDBF12E0A0E0B1E0E6EFF2E602C079
:100CE00005900D92AA31B107D9F724E0AAE1B2E04C
:100CF00001C01D92A834B207E1F716E0C3E6D6E0C2
:100D000004C02197FE010E943230C236D107C9F7D4
:100D10000E94062B0C946E310C94000060E585EE69
:100D200093E00E94461B85EE93E00E94431B91E0F6
:100D3000811190E0892F08958F929F92AF92BF9278
:100D4000CF92DF92EF92FF920F931F93CF93DF9397
:100D5000CDB7DEB72B970FB6F894DEBF0FBECDBF71
:100D600000911E0210911F020E948E06882309F432
:100D700076C046E0000F111F4A95E1F760E585EE69
:100D800093E00E94461B812F90E00E94951DC801B0
:100D900099270E94951D61E085EE93E00E94E81A74
:100DA00000E512E0FF24F394EE24EA9455EED52EEC
:100DB00065ECC62E8091CF028111FCCFF092CF025C
:100DC000F092D102E092CE021092F3021092F2025F
:100DD000F092F4028091F402806A8093F402809190
:100DE000D002813069F41092D0028091F402809395
:100DF000BB008091BC0083FDF8CFC092BC0002C054
:100E0000D092BC008091CF028130E1F38091F30257
:100E1000811103C09091F30201C091E0A2EDB2E014
:100E2000ECEAF2E080E0891721F02D9121938F5FA9
:100E3000FACF1092CD028093CC0285EE93E00E940F
:100E4000ED17F80181938F01F2E000391F0709F0D7
:100E5000B1CF61E085EE93E00E94E81A02C00E94E3
:100E6000821B30E8C32E32E0D32E60E472E0A0E2B1
:100E7000B2E080E693E09601F90141919F01FB0108
:100E80004193BF014C911296FC014193CF01F2E0D6
:100E900060357F0789F7CE0101960E949A1D811166
:100EA00031C00B8510E0000F111F005B1D4F22E0C9
:100EB000E22EF12C8B855801A81AB108BE016D5F96
:100EC0007F4FC8010E94AB194B8550E0B501C801A6
:100ED0000E94802A8B85081B110921E0E21AF10883
:100EE00049F7BE016D5F7F4FC8010E94AB194B856A
:100EF00050E060E472E0C8010E94802ACE010196B1
:100F00000E948E1900E512E078018EE5882E912C62
:100F1000A12CB12CF701808180528F3560F00E94A6
:100F2000502FA50194010E94A72FFB01E653FF4F0C
:100F30006491F7016083FFEFEF1AFF0ACE14DF041C
:100F400049F780E291E0A0E1B1E040E051E0F80132
:100F500021918F01FC012193CF01F80127852D9369
:100F6000278DFA012193AF01F2E000361F0779F7D0
:100F70002B960FB6F894DEBF0FBECDBFDF91CF9199
:100F80001F910F91FF90EF90DF90CF90BF90AF90A7
:100F90009F908F9008950E94901B80911A029091CB
:100FA0001B020E9417090E94641C0E94C80ADF925B
:100FB000EF92FF920F931F93CF93DF9390E2E92E6E
:100FC000F12C0CE110E0DD24D394C1E0D0E08330BB
:100FD00041F0843009F46DC0823009F020C10E94D4
:100FE000CB0760ED77E080E090E00E9483240E94D0
:100FF000901BF092FE03E092FD0310930004009317
:10100000FF03D0920504D0920604D0930404C09349
:101010000304D0930204C093010485EB91E00E9485
:10102000B01B0E94641C6CE271E080E090E00E94C2
:1010300083248FEB91E00E94B01B0E94641C68EC3B
:1010400070E080E090E00E9483248FEB91E00E94AA
:10105000B01B0E94641C68EC70E080E090E00E948D
:1010600083248FEB91E00E94B01B0E94641C68EC0B
:1010700070E080E090E00E9483248FEB91E00E947A
:10108000B01B0E94641C10921F0210921E020E944C
:101090009C0660ED77E080E090E00E9483248091E0
:1010A000A2029091A30201969093A3028093A202C0
:1010B0008ECF0E94901B81E090E090930404809377
:1010C00003049093020480930104809305048093A9
:1010D000060485E290E09093FE038093FD0388E38D
:1010E00090E0909300048093FF0381EC91E00E94D4
:1010F000B01B80911E0290911F0201960E94A01EBB
:1011000087EC91E00E94B01B1092FE031092FD0349
:10111000109200041092FF038BEC91E00E94B01B30
:10112000C0E2D1E0699181EF93E00E94331281E047
:10113000CE32D807B9F71092FE031092FD0388E073
:1011400090E0909300048093FF0383ED91E00E9470
:10115000B01BC0E1D1E0699181EF93E00E943312AE
:1011600081E0CE31D807B9F71092FE031092FD034B
:1011700080E190E0909300048093FF038BED91E079
:101180000E94B01BC0E0D1E00EE011E0699181EF58
:1011900093E00E9433120C171D07C1F71092FE0353
:1011A0001092FD0300E210E0109300040093FF038F
:1011B00083EE91E00E94B01B1092FE031092FD039B
:1011C000C8E2D0E0D0930004C093FF0388EE91E022
:1011D0000E94B01B8FE590E09093FE038093FD0387
:1011E000109300040093FF038DEE91E00E94B01B6A
:1011F0008CE590E09093FE038093FD03D093000470
:10120000C093FF0381E0809305048093060483EF7D
:1012100091E00E94B01B0E94641C0E94C80ADF91EA
:10122000CF911F910F91FF90EF90DF9008952F9233
:101230003F924F925F926F927F928F929F92AF9266
:10124000BF92CF92DF92EF92FF920F931F93CF93B3
:10125000DF9300D000D0CDB7DEB79A838983809129
:101260001C0290911D029C838B8382309105A9F111
:101270003CF4009709F48FC0019709F45DC067C181
:10128000EB81FC8170970CF062C10E94901B8AE098
:1012900090E09093FE038093FD0387E190E09093AC
:1012A00000048093FF0383E0809305048093060489
:1012B00081E090E0909304048093030490930204EF
:1012C000809301048B819C81880F991F865E9D4FBE
:1012D000FC01808191810E94A01E80911C0290914E
:1012E0001D029C838B83029711F40E94901B8BE25A
:1012F00090E09093FE038093FD0387E190E090934C
:1013000000048093FF0383E0809305048093060428
:1013100081E090E09093040480930304909302048E
:1013200080930104EB81FC81EE0FFF1FE45EFD4F13
:10133000808191810E94A01E80911C0290911D02CB
:101340009C838B83019711F40E94901B8CE490E0A6
:101350009093FE038093FD0387E190E09093000457
:101360008093FF0383E0809305048093060481E06B
:1013700090E090930404809303049093020480937C
:101380000104EB81FC81EE0FFF1FE25EFD4F8081C7
:1013900091810E94A01E01E010E029E330E044E0CA
:1013A00050E06FE770E081EF93E00E94940F4424D7
:1013B0004394512C6CE1662E712CE12CF12C8CE1C4
:1013C00090E09C838B8378EC272E33243A94E5EECF
:1013D000CE2EDD24DA948FEFE81AF80A92E0490E57
:1013E000511CC40CD51CEB81FC81EE15FF05BCF132
:1013F0004F01880C991CFFEF8F1A9F0A01E010E043
:10140000940140E2A42EB12C8B819C81A81AB90AC8
:10141000A501B70161587F4F81EF93E00E94940FBF
:101420009401A5016FE770E06E197F0981EF93E0E9
:101430000E94940FEB81FC81E615F705A9F4EB817E
:10144000FC81EE16FF068CF5D7FCC5CF3197FC83E7
:10145000EB83F2E02F0E311CC20CD31CBCCFEB810E
:10146000FC81E615F70509F1B30161587F4F01E0F2
:1014700010E04201F2E08F1A9108940181E2A82E57
:10148000B12CAE18BF08A50181EF93E00E94940F24
:101490006FE770E0661977099401A50181EF93E089
:1014A0000E94940F6B807C80CACF8EE690E0909370
:1014B000FE038093FD0387E190E090930004809306
:1014C000FF0383E0809305048093060410920404D4
:1014D00010920304109202041092010489819A81EF
:1014E0006C01990FEE08FF08F7FE0EC06DE281EF68
:1014F00093E00E94331266277727CB016C197D0990
:101500008E099F094AE003C04AE0C701B6010E9464
:101510005D1E6AEF71E081EF93E00E943A120F9036
:101520000F900F900F90DF91CF911F910F91FF902F
:10153000EF90DF90CF90BF90AF909F908F907F9073
:101540006F905F904F903F902F900C94641C80910F
:10155000A2029091A30201969093A3028093A2020B
:101560000F900F900F900F90DF91CF911F910F91DF
:10157000FF90EF90DF90CF90BF90AF909F908F90B3
:101580007F906F905F904F903F902F900C94D70773
:10159000CF93DF93CDB7DEB72F970FB6F894DEBFAA
:1015A0000FBECDBF74E0872E912CE0E22E2EE1E03D
:1015B0003E2EF0E14F2EF1E05F2EA3E06A2E712C5B
:1015C0008FE00E94F41E5B016C0180E10E94F41E1A
:1015D0007B018AE00E94F41E8B018EE00E94F41EC3
:1015E0001A141B04ACF48091A2029091A3020297FA
:1015F00079F480911A0290911B0201966AE070E0E2
:101600000E941E3090931B0280931A020E941709B9
:101610001E141F04CCF48091A2029091A3020297A1
:1016200099F480911A0290911B02019797FF02C0D2
:1016300089E090E090931B0280931A0280911A0235
:1016400090911B020E94170910161106ACF48091AC
:10165000A2029091A302049779F480911E029091C6
:101660001F02019690931F0280931E020E949C0607
:101670008091A2020E94D7070E94D01E892B09F0F8
:101680009FCF6FE070E080E090E00E9483240E9492
:10169000D01E892B09F094CF64EF71E080E090E0D8
:1016A0000E9483240E94D01E2091A2023091A302A6
:1016B000892B09F049C02330310509F46CC024306E
:1016C0003105E9F02230310509F07ACF80911C0212
:1016D00090911D02833091050CF472CF880F991FF1
:1016E000FC01E05EFD4F80911A0290911B029183F4
:1016F00080837092A3026092A20283E051C000E155
:1017000011E0D8016D918D0189ED93E00E943312B3
:1017100020163106B1F76CEF71E089ED93E00E947D
:101720003A126AEF71E089ED93E00E943A1200E00C
:1017300011E0F80161918F0189ED93E00E9433126D
:1017400040165106B1F73CCF2330310521F124304A
:10175000310549F12230310509F032CF80911C0268
:1017600090911D02FC01EE0FFF1FE05EFD4F2091E6
:101770001A0230911B0231832083019690931D023F
:1017800080931C0210921B0210921A0280E090E0DB
:101790000E94170915CF9092A3028092A20284E0C2
:1017A0000E94D7070DCF20E4C22E22E0D22E80E285
:1017B00092E09F878E8730E6A32E33E0B32E60E25F
:1017C00071E040E5E42E42E0F42E40E151E020E0FB
:1017D00031E0F701DD86CC8680E090E0AC85BD8508
:1017E0001D92BD87AC87AE85BF851C911296BF87C1
:1017F000AE87D5011D935D01DB011D91BD011083F5
:10180000DA011D91AD01108BD9011D919D0110A32D
:10181000019631968031910509F7CE0101960E941B
:101820009A1D811134C04B8550E060E472E08985D7
:101830009A850E945E3194E0A92EB12C00E512E059
:10184000F1E0AF1AB108F9F04B8550E069857A856F
:10185000C8010E94802AEB81FC813A96259134913F
:101860002115310529F06F817885C801F9010995A5
:101870004B8550E0B80189859A850E945E318B8541
:10188000080F111DDDCFCE0101960E948E19E0E8F0
:10189000F2E0D6018D916D01819380E592E08A1787
:1018A0009B07B9F700911E0210911F020E948E063D
:1018B000882361F186E0000F111F8A95E1F760E54A
:1018C00085EE93E00E94461B812F90E00E94951DBB
:1018D000C80199270E94951DD7016D917D0185EE64
:1018E00093E00E94361861E085EE93E00E94E81ACA
:1018F00065E070E080E090E00E9483240F5F1F4F5E
:10190000E0E9F2E0EE15FF05D1F65ACE0E94821B07
:1019100057CE2FB7F89487708093E9009091E80034
:10192000892F807295FF04C09091F20080E4891B9A
:101930002FBF0895CF92DF92EF92FF920F931F93E4
:10194000CF93DF936C017A018B01C0E0D0E0CE151C
:10195000DF0581F0D8016D918D01D601ED91FC91EB
:101960000190F081E02DC6010995892B11F0219697
:10197000EECF7E01C701DF91CF911F910F91FF90B4
:10198000EF90DF90CF900895CF93DF931F92CDB764
:10199000DEB76983DC01ED91FC910280F381E02DDB
:1019A00041E050E0BE016F5F7F4F09950F90DF91DE
:1019B000CF91089583E08093E9008091F20088231D
:1019C00019F08AE38093E800089583E00E94890C6F
:1019D00090E00895FC018485958597FD0BC09FB725
:1019E000F89482E08093E9008091F2009FBF90E03C
:1019F000019608959FB7F89482E08093E900809162
:101A0000F2009FBF90E00895FC0177FDB9C080858A
:101A10009185681779070CF0B3C057FDB1C0828576
:101A20009385481759070CF008958689823079F418
:101A300084819581DC01A61BB70BBD016150710942
:101A400086819781DC01A41BB50BAD010EC08330EC
:101A500009F084C064277527CA018627972768275D
:101A6000792746815781481B590B41505109213034
:101A7000310531F048F12230310509F44AC00895AA
:101A8000CA0157FD07969C01A3E035952795AA95B5
:101A9000E1F7A481B5812A9FC0012B9F900D3A9F49
:101AA000900D1124680F791F078CF0A1E02DE60F2F
:101AB000F71F4770552781E090E001C0880F4A95D5
:101AC000EAF79081892B48C0CA0157FD07969C010F
:101AD00093E0359527959A95E1F7A481B5812A9FE2
:101AE000C0012B9F900D3A9F900D1124680F791F14
:101AF000078CF0A1E02DE60FF71F4770552781E016
:101B000090E001C0880F4A95EAF78095908189237B
:101B100023C0CA0157FD07969C0183E035952795A0
:101B20008A95E1F7A481B5812A9FC0012B9F900D72
:101B30003A9F900D1124680F791F078CF0A1E02DBA
:101B4000E60FF71F4770552781E090E001C0880F2E
:101B50004A95EAF79081892780830895813009F0BA
:101B600086CF6427752746275727642775278481E2
:101B70009581DC01A61BB70BBD016150710977CFC0
:101B800008950895FC016370668B84819581268198
:101B90003781613039F0633029F09187808733874E
:101BA00022870895318720879387828708956F92CF
:101BB0007F928F929F92AF92BF92CF92DF92EF92DD
:101BC000FF920F931F93CF93DF93EC014B015A01C8
:101BD00069013801E881F9810284F385E02D0995D6
:101BE000E881F9810288F389E02D87019601A5013A
:101BF000B401CE010995A501460D571D415051096B
:101C0000E881F9810288F389E02D9601B401CE01C3
:101C10000995E881F9810088F189E02D9301A501FA
:101C2000B401CE010995C80CD91CB60161507109E7
:101C3000E881F9810088F189E02D9301A501CE01A9
:101C40000995E881F9810688F789E02DCE01DF91B9
:101C5000CF911F910F91FF90EF90DF90CF90BF90A9
:101C6000AF909F908F907F906F9009948F929F92EA
:101C7000AF92BF92CF92DF92EF92FF920F931F939A
:101C8000CF93DF934C016B015A01E901DC01ED9127
:101C9000FC916217730781F40417150724F48B2D48
:101CA0005801042F182F0A191B0998012F5F3F4F65
:101CB000048CF58DE02D12C04017510709F5261749
:101CC000370724F48D2D6901C62FD82F9E012C19BA
:101CD0003D092F5F3F4F068CF78DE02D8701A50151
:101CE000B601C4010995DF91CF911F910F91FF902B
:101CF000EF90DF90CF90BF90AF909F908F9008951E
:101D00000284F385E02D0995D401ED91FC910488BE
:101D1000F589E02D9E01A501B601C4010995D40104
:101D2000ED91FC910688F789E02DC401DF91CF91F8
:101D30001F910F91FF90EF90DF90CF90BF90AF90E9
:101D40009F908F900994EF92FF920F931F93DC0165
:101D50001A960D911C911B9718962D913C911997ED
:101D6000ED91FC9100A0F1A1E02D7B0140E050E05D
:101D700060E070E009951F910F91FF90EF9008953A
:101D80004F925F926F927F928F929F92AF92BF928B
:101D9000CF92DF92EF92FF920F931F93CF93DF9337
:101DA0006C012B015A0139014801DC01ED91FC91D4
:101DB0000284F385E02D0995E201640C751CD601BF
:101DC000ED91FC91C615D7055CF40088F189E02DF2
:101DD00087019401A501BE01C60109952196EFCFA7
:101DE0000688F789E02DC601DF91CF911F910F91F1
:101DF000FF90EF90DF90CF90BF90AF909F908F902B
:101E00007F906F905F904F9009948F929F92AF92C6
:101E1000BF92CF92DF92EF92FF920F931F93CF93D7
:101E2000DF93EC015B014A016901E881F9810284D9
:101E3000F385E02D099595012C0D3D1D21503109AB
:101E4000E881F9810488F589E02D78018401A401F5
:101E5000B501CE010995E881F9810688F789E02D61
:101E6000CE01DF91CF911F910F91FF90EF90DF9006
:101E7000CF90BF90AF909F908F9009948F929F9238
:101E8000AF92BF92CF92DF92EF92FF920F931F9388
:101E9000CF93DF93EC015B014A0169017801E8818E
:101EA000F9810284F385E02D0995C80CD91C8601BF
:101EB00001501109E881F9810488F589E02D950127
:101EC000A401B501CE010995E881F9810688F78959
:101ED000E02DCE01DF91CF911F910F91FF90EF90F8
:101EE000DF90CF90BF90AF909F908F90099408950E
:101EF000EF92FF920F931F93DC01ED91FC9100A0F4
:101F0000F1A1E02D09951F910F91FF90EF90089599
:101F10000F931F93DC01ED91FC91068CF78DE02D62
:101F200009951F910F9108950F931F93DC01ED9177
:101F3000FC91048CF58DE02D09951F910F9108956A
:101F40000F931F93CF93DF931F92CDB7DEB78C0112
:101F5000FC018485958597FF0EC0CE0101960E94F5
:101F6000AD23019719F4898190E002C08FEF9FEFB4
:101F7000F80195878487F801848595850F90DF9116
:101F8000CF911F910F910895CF93DF931F92CDB7FB
:101F9000DEB7FC018485958597FD05C02FEF3FEFE7
:101FA000358724870BC0CE0101960E94AD2301978F
:101FB00019F4898190E002C08FEF9FEF0F90DF91BD
:101FC000CF9108950F931F93CF93DF93DC01569623
:101FD000EC915697E23071F0E330E9F0E13079F5B9
:101FE000FB0114960D90BC91A02DA41BB50BA21B58
:101FF000B30B18C0EC01EC81FD81E61BF70BBF01B0
:1020000061507109EE81FF81DF01A41BB50BAD01A9
:10201000421B530B14C0DA01EC01EE81FF81E61B79
:10202000F70B3197F7FD0DC0EC014E815F81E4178E
:10203000F5073CF4AF01BD010E94912202C00E944D
:10204000F822DF91CF911F910F9108950F931F9365
:10205000DC015696EC915697E23061F0E33009F1DD
:10206000E13081F51496ED91FC911597E41BF50B89
:10207000319723C0DC011496ED91FC911597DF0197
:10208000A61BB70BBD01DC011696ED91FC911797CD
:10209000DF01A41BB50BAD0141505109621B730B4D
:1020A00011C0FA01DC0116964D915C911797DA0187
:1020B000A61BB70BBD01621B730BAB01BF010E94D6
:1020C000F8220CC057FD0AC0DC011696ED91FC9178
:1020D00017974E175F0714F40E9491221F910F91DA
:1020E00008958F929F92AF92CF92EF92FF920F93AB
:1020F0001F93CF93DF93EC01262F898D9A8D009744
:1021000009F042C06A3059F41D861C862D898E85DF
:102110009F8538E0239F800D911D112443C06D30B1
:1021200009F4AAC08F898823C9F03C898C859D85D4
:1021300046E0349F800D911D11244885598548172C
:10214000590764F41D861C863D898E859F8548E06D
:10215000349F800D911D11249F878E87EA88FB880C
:10216000088919894E855F856C857D85AD88CC8809
:10217000CE010E945D202C898C859D8536E0239FB1
:10218000800D911D11243EC06A3079F41D861C8695
:102190002D89FC013696E4918E859F852E9F800DBA
:1021A000911D11249F878E8767C06D3009F464C02C
:1021B000FC0134963491631708F45EC03196E491C3
:1021C000E61708F459C0462F431B342FFC01329602
:1021D0008590949047E0349F800C911C1124F40169
:1021E000329634913196E491332311F0E1110DC010
:1021F000F4013496E4912C898C859D85E29F800DB5
:10220000911D11249D878C8737C0F4013596449128
:102210005F89552319F15C89E32FF0E0E40FF11D8C
:1022200047FDFA955E9FB0015F9F700D11244C85AC
:102230005D85460F571F688579856417750774F4A7
:102240001D861C863D89FC013696E4918E859F850E
:102250003E9F800D911D11249F878E87EA88FB8801
:10226000088919894E855F856C857D85AD88CC8808
:10227000CE010E945D20BCCF81E090E0DF91CF9144
:102280001F910F91FF90EF90CF90AF909F908F9004
:10229000089540919E0250919F0220919C0230919E
:1022A0009D0242175307B4F49091E8009570E1F352
:1022B0009091E80092FD19C08093F10080919E02F8
:1022C00090919F0201968F739927892B19F48EEFB5
:1022D0008093E80080919E0290919F0201969093D6
:1022E0009F0280939E0281E0089580E008957F928E
:1022F0008F929F92AF92BF92CF92DF92EF92FF9216
:102300000F931F93CF93DF93C82E8B017A01809197
:102310004304811103C08FEF9FEF74C08091A1022D
:1023200080FF05C08091E00082608093E000CE2DA8
:10233000DF2DD12C8AEFB82E8C2D8770982E8C2D06
:102340008072882E8C2D8074782E9AE3A92E209787
:1023500019F4DD2009F451C08C2D0E94890C8111E3
:102360000AC0BA94BB20B9F261E070E080E090E06E
:102370000E948324ECCF282F30E0C217D3070CF43F
:102380008C2F9FB7F8949092E9002091E80025FFE8
:1023900032C0282F30E0C21BD30B882029F0815097
:1023A000A0F01092F100FBCFF801C7FE0AC08150E7
:1023B00050F044914093F1003196F9CF4191409310
:1023C000F1008150D8F7020F131FDD2019F0A09201
:1023D000E8000AC08091E80085FD08C0A092E800EE
:1023E000DD24D394209739F0D12C05C0209719F41F
:1023F0007110A092E8009FBFAACF5D9884E68093F9
:10240000A002C701DF91CF911F910F91FF90EF9034
:10241000DF90CF90BF90AF909F908F907F90089566
:10242000CF93DF93EC0180913B01882331F083E06F
:102430000E9477111816190634F081E090E09B8312
:102440008A8380E090E0DF91CF910895615030F071
:102450002091F100FC0120830196F8CF289884E6B2
:10246000809342040895DC01ED91FC910190F0818C
:10247000E02D09946115710579F0FB0101900020B0
:10248000E9F73197AF01461B570BDC01ED91FC9149
:102490000280F381E02D099480E090E0089580911E
:1024A000940281110DC082E08093900284E08093B9
:1024B0009102109293021092920281E08093940212
:1024C00080E992E0089508958EBD00000DB407FEE6
:1024D000FDCF8EB508951F93CF93DF93FC01858DBB
:1024E000968D009701F1162FEF0161A10E94461B06
:1024F0008D8D9E8DDC01ED91FC910190F081E02DA0
:1025000060E009958D8D9E8DDC01ED91FC9101902F
:10251000F081E02D612F09958D8D9E8DDF91CF91FA
:102520001F910C94431BA5A5B6A59C9183A98095EA
:1025300089238C93838D948D892B31F0862FDF91A5
:10254000CF911F910C94641228E030E080E8A1A59F
:10255000B2A591A9462F482319F04C91942B03C0A2
:102560004C91909594239C93A3A5B4A54C9192A9CA
:10257000942B9C93A3A5B4A54C9192A990959423D8
:102580009C9386952150310911F7DF91CF911F91CE
:1025900008958CBD9DBD08951F93CF93DF93EC01EB
:1025A000162F8D8D9E8D892BB1F02FA938AD49AD99
:1025B0005AAD60E074E284EF90E00E94D92FDA0116
:1025C000C9014097A109B109B695A7959795879537
:1025D0008093B8000FC08B8D9C8D892B21F08DA925
:1025E0009EA90E94C912EFA5F8A990818CA9809597
:1025F00089238083111102C066EA01C067EACE0117
:102600000E946B128D8D9E8D892BB1F02BAD3CAD50
:102610004DAD5EAD60E074E284EF90E00E94D92F92
:10262000DA01C9014097A109B109B695A795979517
:1026300087958093B80006C0EFA5F8A990818CA972
:10264000892B8083DF91CF911F9108950E9459318A
:102650001F920F920FB60F9211242F933F938F93D7
:102660009F93AF93BF938091A8029091A902A091EC
:10267000AA02B091AB023091A70223E0230F2D37BD
:1026800020F40196A11DB11D05C026E8230F029676
:10269000A11DB11D2093A7028093A8029093A902C7
:1026A000A093AA02B093AB0280913E0490913F04A4
:1026B000A0914004B09141040196A11DB11D8093E9
:1026C0003E0490933F04A0934004B0934104BF9113
:1026D000AF919F918F913F912F910F900FBE0F90CF
:1026E0001F9018951F920F920FB60F9211248F937F
:1026F0009F938091E1009091E100937F9093E1009E
:1027000083FF0FC01092E90091E09093EB001092CC
:10271000EC0092E39093ED001092430498E09093C4
:10272000F00082FF20C093E09093E9009091F200C6
:10273000992319F09AE39093E8009091A0029923CD
:1027400039F09091A00291509093A002992389F1C1
:1027500090914204992339F09091420491509093C2
:102760004204992341F184FF10C08091E2008E7EE3
:1027700081608093E2008091E1008F7E8093E10090
:102780008091A1028E7E806111C080FF16C0809171
:10279000E2008E7E80618093E2008091E1008E7E77
:1027A0008093E1008091A1028E7E81608093A102DE
:1027B00004C05D9ACDCF289AD6CF9F918F910F906C
:1027C0000FBE0F901F901895DF92EF92FF920F931C
:1027D0001F93CF93DF93D82E8A017B01E40EF51E61
:1027E000EB01CE15DF0571F0D7FE03C0FE01849129
:1027F00001C088810E94491121968111F2CF8FEF8B
:102800009FEF01C0C801DF91CF911F910F91FF9001
:10281000EF90DF9008950F931F93CF93DF931F9254
:10282000CDB7DEB782E0898342E450E068E271E030
:1028300080E80E94E4130E944F12DC0112960D9171
:102840001C9113970115110589F0D801ED91FC91A8
:102850000280F381E02DBE016F5F7F4FC8010995B3
:1028600097FD04C0F80100851185ECCF89810F9098
:10287000DF91CF911F910F9108951F920F920FB684
:102880000F921124CF92DF92EF92FF920F931F933A
:102890002F933F934F935F936F937F938F939F9368
:1028A000AF93BF93EF93FF93CF93DF93CDB7DEB793
:1028B0006C97DEBFCDBF1092E9008091E80083FFE6
:1028C000FBC168E0CE0145960E94261282EF8093FC
:1028D000E8008D8987FF05C09091E80090FFFCCF4C
:1028E00003C09EEF9093E800982F907609F0C6C041
:1028F0009E894F89588D2F89F88C91110CC0803892
:1029000029F48091A5028093F10002C01092F10099
:102910001092F10045C1913051F4811141C1413013
:10292000510509F03DC18091A5028D7F0BC0933008
:1029300061F4811135C14130510509F031C18091F7
:10294000A50282608093A5022BC1953049F4809145
:10295000E80080FFFCCF822F80688093E30020C1D5
:10296000963009F05EC00B8D1C8D22E01092E900BC
:1029700010929F0210929E02F21232C010929D029B
:1029800010929C020E940B1499E0BE016F5F7F4F72
:10299000DB01E92F1D92EA95E9F79983FA8291E02C
:1029A0009E8390EA98879AEF998720919E023091B2
:1029B0009F02275F3F4F3C832B838D831092E9005A
:1029C00010929F0210929E0210939D0200939C020F
:1029D00049E050E080E00E94E4130E940B14E0C044
:1029E00010939D0200939C020E944F12DC011296EC
:1029F0000D911C9113970115110509F4BBC0D80165
:102A0000ED91FC910480F581E02DBE016B5E7F4F5E
:102A1000C8010995009709F0C7C0F8010085118524
:102A2000EACF973009F445C1983021F481E08093D2
:102A3000F100B6C0993009F0B3C0837009F039C114
:102A4000EDE3F1E081E031E096E32081211109C05E
:102A50008EE78093EA001092EA008F898093430406
:102A60009FC08093E9003093EB0021912093EC000C
:102A70009093ED008F5F873041F7EACF8B8D9C8D6F
:102A80001092E90010929F0210929E0290939D0274
:102A900080939C02898D811153C08E899D89913AC2
:102AA00049F4813209F005C147E050E064E371E088
:102AB00080E0BBC0913209F0FCC0833269F48F8999
:102AC000988DA0E0B0E08093300190933101A09305
:102AD0003201B093330164C0803269F48091E80020
:102AE00082FFFCCF67E084E391E00E9426128BEF27
:102AF0008093E80055C0823209F052C08F898093DC
:102B00003B01EEEFFFE7859194918B3F9C4D19F0CF
:102B1000E0E0F8E002C0EEEFFAE08091340190913D
:102B20003501A0913601B0913701803B9440A10559
:102B3000B10509F09EC080913B0180FF79C099C02A
:102B40000E944F12FC01028113810115110509F445
:102B5000B0C0D801ED91FC910190F081E02DBE0153
:102B60006B5E7F4FC801099581111AC0F80100857D
:102B70001185EBCFF1E0FF1609F44EC0F3E0FF1230
:102B800098C08F89882309F44AC0823089F440E8CC
:102B900060E18CE891E00E94D12A882309F489C081
:102BA0008EEF8093E80088C018161906CCF381C018
:102BB000813029F440E86BE080E891E0ECCF83308D
:102BC00009F077C00E944F12DC011296ED90FC9044
:102BD00013978E010F5F1F4F6801E114F10479F024
:102BE000D701ED91FC910680F781E02DB801C70176
:102BF0000995080F111DF701E084F184EECFD8018B
:102C00001C92F60101900020E9F73197BF016C1981
:102C10007D0940E0C601BFCF6EE671E002C06AE602
:102C200071E0FB01449150E080E80E94E413B8CFCA
:102C3000EE3F2AE0F20751F0808191818737A7E7C4
:102C40009A0721F09093FF0A8093FE0A87E797E79F
:102C500091838083809160008093A4029BE088E14F
:102C60000FB6F894A895809360000FBE9093600013
:102C700097CF808191818737974709F091CFA895A9
:102C8000809160008861809360008091A4028093AD
:102C90006000EE3FBAE0FB0739F08091FE0A9091A8
:102CA000FF0A918380837CCF1092FF0A1092FE0A64
:102CB00077CF81E28093EB006C960FB6F894DEBF7D
:102CC0000FBECDBFDF91CF91FF91EF91BF91AF913B
:102CD0009F918F917F916F915F914F913F912F9134
:102CE0001F910F91FF90EF90DF90CF900F900FBE4C
:102CF0000F901F901895DC01ED91FC910084F185F7
:102D0000E02D09942F923F924F925F926F927F92A3
:102D10008F929F92AF92BF92CF92DF92EF92FF92EB
:102D20000F931F93CF93DF9300D000D000D0CDB787
:102D3000DEB72C017E836D836A015901C801FC82D4
:102D4000EB824801841A950A97FE03C091948194FE
:102D5000910835012D813E81621A730A77FE03C006
:102D6000719461947108681479045CF43A2D2B2DE8
:102D70005C01832F922F3D812E81DE82CD82C32E76
:102D8000D22EAD81BE81AA16BB065CF43C2D2D2D42
:102D90006C01832F922F3D812E81BE82AD82A32EA6
:102DA000B22E85012D813E81021B130B1C012C18B4
:102DB0003D0837FE03C0319421943108780117FF94
:102DC00003C03FEFE31AF30AF594E794C816D90657
:102DD0002CF08FEF9FEF9A83898304C0A1E0B0E0CD
:102DE000BA83A9832D813E81A216B30624F1D201B4
:102DF000ED91FC910484F585E02D2B813C816814D4
:102E0000790424F44D815E81B60103C0A6016D8171
:102E10007E81C2010995E218F308F7FE06C02981F8
:102E20003A81C20ED31EE00EF11E8D819E81019665
:102E30009E838D83D7CF26960FB6F894DEBF0FBE44
:102E4000CDBFDF91CF911F910F91FF90EF90DF9059
:102E5000CF90BF90AF909F908F907F906F905F903A
:102E60004F903F902F900895DC01FB0112968C91BA
:102E7000129790E02481358182179307D1F49181D4
:102E80008081813A31F481E0913091F0933089F47E
:102E900011C0813271F49B3021F482811F968C9392
:102EA00005C09A3031F4828150968C9381E0089568
:102EB000089580E00895DC01FB0188E4808389E4C3
:102EC000818384E482831D969C911D979F709F5BF4
:102ED00093831D968D919C911E9724E096958795DE
:102EE0002A95E1F78F708F5B848385E00895FC015C
:102EF00082818F5BFB01808381E00895CF92DF9216
:102F0000EF92FF920F931F93CF93DF936C01EB012E
:102F10007B01E40EF51E00E010E0CE15DF0581F028
:102F200069916D30D1F3D601ED91FC910190F08162
:102F3000E02DC6010995892B19F00F5F1F4FEDCFCA
:102F4000C801DF91CF911F910F91FF90EF90DF901B
:102F5000CF90089585ED8093BC008091BC0084FDE6
:102F6000FCCF1092CF02089540913B03262F30E012
:102F7000240F311D21323105DCF42091CF022430A1
:102F8000C9F4FC0180E090E0861758F430913B03CF
:102F90002191DC01A75EBC4FA30FB11D2C930196BC
:102FA000F3CF80913B03680F60933B0380E008956B
:102FB00081E0089582E0089508950895E091CD029A
:102FC0008091CC02E81730F4F0E0E455FD4F8081A9
:102FD00090E008958FEF9FEF08959091CD0280913A
:102FE000CC02981750F4E92FF0E0E455FD4F208112
:102FF00030E09F5F9093CD0202C02FEF3FEFC901F9
:1030000008958091CC0290E02091CD02821B91091D
:103010000895CF92DF92EF92FF920F931F93CF9379
:10302000DF937C01CB018A0120911603222389F0D2
:10303000EB016B01C40ED51ECC15DD0569F069915D
:10304000D701ED91FC910190F081E02DC701099528
:10305000F3CF642F0E94B417C801DF91CF911F9165
:103060000F91FF90EF90DF90CF900895CF93DF9373
:103070001F92CDB7DEB76983209116032223D1F0CA
:1030800020911703203240F021E030E0FC0133832F
:10309000228380E090E015C080911803E82FF0E0D3
:1030A000EA50FD4F998190838F5F8093180380933E
:1030B000170305C061E0CE0101960E94B41781E0BC
:1030C00090E00F90DF91CF910895089580E090E017
:1030D0000895EF92FF920F931F93CF93DF93FB011D
:1030E0002081213851F52381223239F5DC011296F5
:1030F0002C9130E04481558142175307F1F4EC01E3
:103100000B851C85E12CF12C0115110591F0F801BE
:10311000448155816281738180E80E94E4138F3F6E
:10312000FFEF9F0769F0E80EF91ED8010D911C9181
:10313000EBCF81E08F87C70105C080E090E002C03F
:103140008FEF9FEFDF91CF911F910F91FF90EF9045
:103150000895CF93DF93CDB7DEB769970FB6F89494
:10316000DEBF0FBECDBFFC01DB018C918F5F8C9366
:10317000BE016F5F7F4F89E1DB011D928A95E9F700
:1031800029E0298384E08A8391E09D8383E08E8314
:103190002A8721E22B879C879D879F8722E2288BA5
:1031A00027E02B8B25E02C8B8E8B20E430E0388FB2
:1031B0002F8B998F82818B8395858685998B8A8BBE
:1031C000838180688D8B49E150E080E00E94E413A8
:1031D00069960FB6F894DEBF0FBECDBFDF91CF91D9
:1031E0000895EF92FF921F93CF93DF93EC01162F78
:1031F000683818F0E8E7E60F23C0E62FF0E067FF35
:103200000DC0E058F10981E090E001C0880FEA9517
:10321000EAF79C81892B8C83E0E012C0E75AF94FD2
:10322000E491E11107C081E090E09B838A83E12C67
:10323000F12C3CC0E7FF04C08C8182608C83EF7767
:103240008E818E1739F18F81E81721F18885E81773
:1032500009F18985E817F1F08A85E817D9F08B859F
:10326000E817C1F0DE01169680E090E02D91211163
:1032700006C0DE01A80FB91F1696EC930BC001968D
:103280008630910599F781E090E09B838A83E12C59
:10329000F12C07C0CE0104960E943120EE24E39465
:1032A000F12C183818F0E8E7E10F1DC0E12FF0E02D
:1032B00017FF0EC0E058F10981E090E001C0880FCF
:1032C000EA95EAF780959C8189238C83E0E00BC026
:1032D000E75AF94FE491EE23D1F0E7FF04C08C8167
:1032E0008D7F8C83EF77DE0186E0EE2341F016962A
:1032F0009C911697E91303C016961C92169781505D
:1033000011968111F2CFCE0104960E943120C7019F
:10331000DF91CF911F91FF90EF900895CF93DF93AE
:10332000EC01CE3F8FEFD80781F0EA81FB813E961A
:10333000259134912115310521F08E819F81F9016C
:1033400009958E819F810E94D03088859985DF9173
:10335000CF910C94D030DB01ED91FC913C962591FE
:1033600034912115310529F0FB0164817581F90142
:10337000099408951F920F920FB60F9211242F9364
:103380003F934F935F936F937F938F939F93AF93ED
:10339000BF93EF93FF938091B900887F803609F443
:1033A0009CC068F5883209F45BC090F4803109F460
:1033B00054C038F4882309F4F6C0883009F44DC0AD
:1033C000F6C0883109F44CC0803209F45DC0EFC00A
:1033D000803409F468C048F4803309F455C0883358
:1033E00009F0E5C08093CE02D8C0803509F44FC003
:1033F000883509F45DC0883409F0D9C0D6C0883951
:1034000009F4C7C0A8F4883709F467C038F48836CF
:1034100009F463C0803709F460C0C9C0883809F472
:10342000B8C0803909F45FC0803809F0C0C05BC003
:10343000803B09F486C038F4803A09F466C0883AC3
:1034400009F47FC0B4C0803C09F4A7C0883C09F4EB
:10345000A4C0883B09F48AC0AAC08091F40210C0BD
:103460009091F3028091F202981770F5E091F302C7
:1034700081E08E0F8093F302F0E0EE52FD4F8081E9
:103480008093BB0085EC86C08093CE028EC0E09115
:10349000F30281E08E0F8093F3028091BB00F0E095
:1034A000EE52FD4F80839091F3028091F2026EC044
:1034B000E091F30281E08E0F8093F3028091BB00D4
:1034C000F0E0EE52FD4F80838091D10281116DC0FA
:1034D00081E08093D00284EA61C083E08093CF02D0
:1034E00010925F03CFCF80915F03803208F051C00C
:1034F000E0915F0381E08E0F80935F038091BB00BA
:10350000F0E0E15CFC4F8083BDCF85EC8093BC0094
:103510001092CF0280915F03803230F4E0915F031C
:10352000F0E0E15CFC4F108260915F0370E0E0919D
:103530003D03F0913E038FE393E0099510925F0302
:1035400036C084E08093CF0210923C0310923B037C
:10355000E0913903F0913A03099580913B03811181
:1035600005C081E080933B0310921903E0913C0376
:1035700081E08E0F80933C03F0E0E75EFC4F80819A
:103580008093BB0090913C0380913B03981708F413
:1035900079CF85E88093BC000AC085EC8093BC009D
:1035A0001092CF0204C01092CE020E94AA17FF917F
:1035B000EF91BF91AF919F918F917F916F915F91AB
:1035C0004F913F912F910F900FBE0F901F90189524
:1035D00030911703313208F04AC08091CF02811137
:1035E000FCCF9091F50222E02093CF026093D102AC
:1035F0002FEF2093CE021092F3023093F202E6EF07
:10360000F2E0A2EDB2E020E0321721F041914D93BB
:103610002F5FFACF1092F4022091F402990F922BAF
:103620009093F4029091D002913061F41092D00204
:103630009091F4029093BB009091BC0093FDF8CF61
:1036400095EC01C095EE9093BC009091CF02923022
:10365000E1F39091CE029F3F79F08091CE028032CB
:1036600041F08091CE02803331F084E005C081E0EA
:1036700003C082E001C083E0109218031092170388
:1036800010921603089561E00C94E81A81E080938B
:1036900016036093F5021092180310921703089511
:1036A0001092CD021092CC021092180310921703C0
:1036B0001092CF0281E08093D1021092D00261E09B
:1036C00082E00E94182461E083E00E941824E9EB64
:1036D000F0E080818E7F808380818D7F808388E48D
:1036E0008093B80085E48093BC008CED97E19093C3
:1036F0003A03809339038DED97E190933E038093D5
:103700003D0308950E94901B8DEF91E00E94B01B35
:103710000E94641C60ED77E080E090E00C948324CC
:103720002091F7033091F803C901079697FD07969A
:1037300023E0959587952A95E1F72091F50330913F
:10374000F603829FA001839F500D929F500D11247C
:1037500060E070E080911004909111040C94673146
:10376000BC0181EF93E00C943A12DF92EF92FF924A
:103770000F931F93CF93DF93D82ED92FC62F80910D
:103780000E0490910F04009709F44EC0609112044A
:103790000E94461B80910E0490910F04DC01ED9174
:1037A000FC910190F081E02D60E00995ED2CFD2E5B
:1037B00011E080910E0490910F04CC2361F110323E
:1037C000B8F00E94431B6091120480910E04909106
:1037D0000F040E94461B80910E0490910F04DC019F
:1037E000ED91FC910190F081E02D60E0099511E0F0
:1037F00080910E0490910F04F7016491DC01ED912A
:10380000FC910190F081E02D09951F5FC150BFEF41
:10381000EB1AFB0ACECFDF91CF911F910F91FF9052
:10382000EF90DF900C94431BE0911E04F0911F0475
:103830009081809124048095892380830D2D1D2FF4
:10384000CC2309F439C0F801849120910C04309103
:103850000D04232B31F00E946412C1500F5F1F4FE3
:10386000EFCF28E030E040E8E0911A04F0911B042B
:1038700090912204582F542319F05081952B03C0A6
:103880005081909595239083E0911C04F0911D0444
:10389000508190912304952B9083E0911C04F0912A
:1038A0001D04508190912304909595239083469513
:1038B00021503109C9F6D1CFDF91CF911F910F91DE
:1038C000FF90EF90DF900895EF92FF920F931F9378
:1038D000CF93DF9380910E0490910F04892BD1F048
:1038E000209128043091290440912A0450912B04FE
:1038F00060E074E284EF90E00E94D92FDA01C90100
:103900004097A109B109B695A7959795879580939A
:10391000B80016C080910C0490910D04892B31F0F1
:1039200080912604909127040E94C912E0912004FE
:10393000F0912104908180912504809589238083D2
:1039400065E083E697E00E94B51B6091F503615046
:1039500081EF93E00E946B122091F7033091F803FE
:10396000C901079697FD079633E0959587953A9597
:10397000E1F72091F5033091F603829F8001839F48
:10398000100D929F100D1124C0911004D0911104BC
:1039900080910E0490910F040C0F1D1F009709F4E5
:1039A00045C0609112040E94461B80910E049091C4
:1039B0000F04DC01ED91FC910190F081E02D60E4B9
:1039C00009957E01D1E080910E0490910F040E15AF
:1039D0001F0549F1D032B8F00E94431B60911204D8
:1039E00080910E0490910F040E94461B80910E045A
:1039F00090910F04DC01ED91FC910190F081E02D9C
:103A000060E40995D1E080910E0490910F04F701D4
:103A100061917F01DC01ED91FC910190F081E02D3D
:103A20000995DF5FD0CF0E94431B41C0E0911E0487
:103A3000F0911F04908180912404892B8083C0170A
:103A4000D107A9F1899120910C0430910D04232B09
:103A500019F00E946412F3CF28E030E040E8E091D2
:103A60001A04F0911B0490912204582F542319F04A
:103A70005081952B03C05081909595239083E091C0
:103A80001C04F0911D04508190912304952B908388
:103A9000E0911C04F0911D045081909123049095B5
:103AA00095239083469521503109C9F6C8CF80915E
:103AB0000E0490910F04892BD1F020912C043091A9
:103AC0002D0440912E0450912F0460E074E284EFA5
:103AD00090E00E94D92FDA01C9014097A109B109EC
:103AE000B695A795979587958093B80017C0E091F4
:103AF0002004F0912104908180912504892B8083FA
:103B000080910C0490910D04892B41F0DF91CF91AD
:103B10001F910F91FF90EF900C946312DF91CF9162
:103B20001F910F91FF90EF900895682F85EE93E01D
:103B30000C943618EF92FF920F931F93CF93DF935D
:103B4000EC0181E597E099838883E7E5F7E08591CB
:103B50009491079623E0969587952A95E1F78A87B1
:103B600099270E94383099878887892B09F456C095
:103B7000E1E6F7E08591949100E810E09C012F5F69
:103B80003F4FFC014491442309F44AC0413091F471
:103B90000296F9012491222349F0FC0145915491A8
:103BA0000296215040385105B1F73CC09C0122508B
:103BB000310931C0423081F4F901459154919C01A1
:103BC0002D5F3F4FF901859194914138510518F5CA
:103BD0008038910500F126C0433011F5F901459177
:103BE0005491FC013396A591B491FC0135966591F1
:103BF00074919C01295F3F4FF901E590F4904138A1
:103C0000510548F4A038B10530F0C8010E940A30CF
:103C1000E816F90639F0C9010196B0CFC1E145C0F7
:103C2000C1E043C081E597E09B838A8380E890E010
:103C30009D838C83E0E0F0E01491E9E5F7E0E59006
:103C4000F490E114F10489F480E190E00E943830AE
:103C50009F838E83009731F120E1E0E6F3E0DC0101
:103C600001900D922A95E1F71BC0E5E5F7E08591FB
:103C700094910E9438309F838E830097A9F0C12FC2
:103C8000C17010FD06C0BC0180E693E0F701099504
:103C90000CC0AC0160E870E080E693E0F7010995A4
:103CA000C0E003C0C2E001C0C3E08C2FDF91CF9120
:103CB0001F910F91FF90EF9008958F929F92AF9276
:103CC000BF920F931F93CF93DF93CDB7DEB7A1972A
:103CD0000FB6F894DEBF0FBECDBF19A2423008F474
:103CE0004AE08E010F5D1F4F842E912CA12CB12C28
:103CF000A50194010E94D92FE62FB901CA010150F4
:103D00001109EA3014F4E05D01C0E95CD801EC93DC
:103D1000232B242B252B61F7B80181EF93E00E9420
:103D20003A12A1960FB6F894DEBF0FBECDBFDF9159
:103D3000CF911F910F91BF90AF909F908F9008955A
:103D4000CF92DF92EF92FF92CF93DF936C01990FA6
:103D5000EE08FF08F7FE19C06DE281EF93E00E94C4
:103D60003312EC0166277727CB016C197D098E0988
:103D70009F094AE00E945D1E8C0F9D1FDF91CF912D
:103D8000FF90EF90DF90CF9008954AE0C701B60111
:103D9000DF91CF91FF90EF90DF90CF900C945D1E5C
:103DA000CF93DF93E9E3F7E08491EAE1F7E0D49180
:103DB000EBEFF6E0C491CC2391F081110E94DB235C
:103DC000EC2FF0E0EE0FFF1FEA51F94FA591B491EF
:103DD000EC91ED2381E090E021F480E002C080E0EE
:103DE00090E0DF91CF9108950F931F9390E0FC0135
:103DF000ED5EF84F6491FC01EC50F94FE491F0E076
:103E0000EE0FFF1FEA51F94F8591949100E41CE9F0
:103E100020E030E040E00E948C2A611571058105A8
:103E2000910549F0DC01CB010196A11DB11DBC013A
:103E3000CD019F7003C060E070E0CB011F910F9136
:103E400008953F924F925F926F927F928F929F92CE
:103E5000AF92BF92CF92DF92EF92FF920F931F9398
:103E6000CF93DF9300D000D000D0CDB7DEB72C01C8
:103E70003B014A015901C901079697FD07969C012C
:103E800093E0359527959A95E1F73C832B83C12CD8
:103E9000D12CE12CF12C312CC3018E0D9F1D9A8366
:103EA0008983E016F106C4F51E821D822D813E81B4
:103EB0002A153B054CF5C90187709927892B11F00C
:103EC000330C0EC0ED81FE81F7FD379683E0F5954A
:103ED000E7958A95E1F7EC0DFD1DE80DF91D34908D
:103EE00037FE0CC021E030E049815A816D817E812E
:103EF000640D751D81EF93E00E947B168D819E817C
:103F000001969E838D83D2CF9FEFE91AF90A2B8108
:103F10003C81C20ED31EC0CF26960FB6F894DEBFEA
:103F20000FBECDBFDF91CF911F910F91FF90EF900A
:103F3000DF90CF90BF90AF909F908F907F906F90C9
:103F40005F904F903F9008953FB7F89480913E0462
:103F500090913F04A0914004B091410426B5A89BE4
:103F600005C02F3F19F00196A11DB11D3FBFBA2F0B
:103F7000A92F982F8827820F911DA11DB11DBC016B
:103F8000CD0142E0660F771F881F991F4A95D1F730
:103F9000089581E08093C4038093C5032AEC33E045
:103FA0003093C7032093C6031092C9031092C8032D
:103FB0002DEA31E03093C1032093C0031092CC036B
:103FC0001092CB031092CE031092CD038093CF03B7
:103FD0008093D00381EC8093CA030E944F12FC01AE
:103FE00021818091C40390E0820F911D0897C4F550
:103FF000A281B381109729F480EC93E093838283AC
:104000000EC018968D919C911997009711F0DC01C4
:10401000F8CF80EC93E019969C938E93189780814B
:104020008093C20381818093C30390818091C503F3
:10403000890F808380E09091C403891788F4A09150
:10404000C603B091C703A80FB11D9C91A181B0E038
:10405000A45CBE4F9C9391819F5F91838F5FEBCF58
:1040600008950F931F93CF93DF931F92CDB7DEB7C1
:104070008C018091D103811105C00E94C91F81E08C
:104080008093D10382E0898341E050E0BE016F5FFD
:104090007F4F8091C3030E94771197FD08C08091E4
:1040A000C30348E050E0B80180640E9477110F908C
:1040B000DF91CF911F910F9108952F923F924F92D0
:1040C0005F926F927F928F929F92AF92BF92CF92A8
:1040D000DF92EF92FF920F931F93CF93DF93CDB7B1
:1040E000DEB76B970FB6F894DEBF0FBECDBF9B8FC8
:1040F0008A8F1B014A01D22E198708873701A982AE
:10410000DC0159962D913C915A972115310509F002
:10411000FFC018968D919C911997681779070CF03C
:10412000E7C11A968D919C911B97481759070CF07F
:10413000DFC1EC2DF0E0FB83EA839B0146E0C49EE7
:10414000200D311D11243D872C87121613060CF00B
:10415000CFC16A2D70E07B876A8783E0660F771F87
:104160008A95E1F77F876E87CB01880D991D181618
:1041700019060CF0BDC158968C91811104C08FEACC
:104180008D1508F4D394AA8DBB8DED91FC911197F8
:104190000284F385E02DCD010995B5E0DB9EC001D9
:1041A0001124EC2DF0E0F98BE88B91012B5F3F4F50
:1041B0003B8B2A8B3D822C822101AC014219530991
:1041C0005D8B4C8B7981672F70E07F8B6E8BC40188
:1041D0000896998F888FEC89FD89E40DF51DED53C4
:1041E000F84FD49054019F828E82D0FE16C0AA8DC3
:1041F000BB8DED91FC91B1E0CB1209C0298121303A
:1042000031F40484F585E02D2885398519C00684AC
:10421000F785E02DE884F9841DC048855985461549
:10422000570519F1AA8DBB8DED91FC91B1E0CB1230
:104230000DC02981213051F40484F585E02D9301CE
:10424000A501B2018A8D9B8D09950FC00684F78563
:10425000E02D73010A851B852A813B814E815F8198
:104260006C817D818A8D9B8D0995D6943FEFA31A31
:10427000B30A4E815F816E897F89460F571F5F8326
:104280004E83888D998DA816B90609F0AECF9FEFA1
:10429000491A590AAC81BD81E889F989AE0FBF1F5F
:1042A000BD83AC832A893B894216530609F093CF1C
:1042B000488559854615570509F4F8C0AA8DBB8D68
:1042C000ED91FC91B1E0CB1211C02981213071F444
:1042D000B1016B5F7F4F0088F189E02D830128E0F9
:1042E00030E0A4018A8D9B8D0995E0C06C857D85A9
:1042F0004A815B81641B750B0684F785E02D730191
:104300000E851F859A01A4018A8D9B8D0995CEC0CB
:10431000F9013496E491DE1AF9013296859194916F
:10432000B7E0DB9E800D911D1124F9012591349198
:104330003B8B2A8BFC01259134915901FC0132966B
:104340005490319634913C87329674903196149102
:1043500041E04C1518F05981523068F0672D072C58
:10436000000C770B7D836C83812F012E000C990B41
:104370009B838A8304C01B821A821D821C82AA8DA1
:10438000BB8DED91FC9111970284F385E02DCD0159
:104390000995412CD12C612CF981EF2FF0E0FF839E
:1043A000EE832C2D30E03B872A87A401410F511D5D
:1043B00017FD5A955F8B4E8BB101670D711D77FC10
:1043C0007A95798F688F7C85671608F06FC0262DE7
:1043D00030E04A815B81420F531FAE81BF81A49FB1
:1043E000C001A59F900DB49F900D1124F401E80F1A
:1043F000F91FF98BE88B842D712C4E895F89420F50
:10440000531F5D8B4C8B751408F04DC051E0580F55
:104410005E87877041F4C5010196EA89FB89EA0D40
:10442000FB1DD4905C01D7FE3AC061E0C61216C0F5
:104430007981713099F4AA8DBB8DED91FC91119722
:104440000484F585E02D288539854C895D89688D42
:10445000798D670D711DCD01099521C08C819D81DC
:10446000870D911DEA85FB858E9FB0018F9F700D92
:104470009E9F700D1124620D731DAA8DBB8DED9151
:10448000FC9111970684F785E02DE884F9840E816C
:104490001F812A853B8548895989CD010995DD0C05
:1044A00073948E85B0CF450C63948DCFAA8DBB8D50
:1044B000ED91FC9111970688F789E02DCD016B965F
:1044C0000FB6F894DEBF0FBECDBFDF91CF911F9125
:1044D0000F91FF90EF90DF90CF90BF90AF909F90A3
:1044E0008F907F906F905F904F903F902F900994A6
:1044F0006B960FB6F894DEBF0FBECDBFDF91CF91A4
:104500001F910F91FF90EF90DF90CF90BF90AF90F1
:104510009F908F907F906F905F904F903F902F90E3
:1045200008950F931F93CF93DF9377FF04C0260F57
:10453000371F60E070E0DC011496CD91DC91159797
:10454000FB01E20FF31FCE17DF071CF49E01261BB1
:10455000370B121613060CF046C0FA0157FD3796BA
:10456000DF01E3E0B595A795EA95E1F7AC9FF0018F
:10457000AD9FF00DBC9FF00D11246E0F7F1FDC016D
:104580005F96ED91FC919097E60FF71F47705527C6
:1045900081E090E001C0880F4A95EAF7482F01308A
:1045A000110539F078F002301105E9F42E0F3F1FA4
:1045B00013C02E0F3F1FE217F307A9F08081842B51
:1045C0008193F9CF80952E0F3F1FE217F30759F023
:1045D000908198239193F9CFE217F30721F080811E
:1045E00084278193F9CFDF91CF911F910F91089587
:1045F000EF92FF920F931F93CF93DF93EC0177FD20
:10460000A5C0EC80FD806E157F050CF09FC057FFA4
:1046100004C0240F351F40E050E08E819F81FA01D5
:10462000E20FF31F8E179F071CF49C01241B350B10
:10463000121613060CF08AC0922F842F8695869549
:1046400086958E9DD0018F9DB00D11246A0F7B1F22
:10465000AF8DB8A1A60FB71F4770B1F188E0841BDA
:10466000482F682F70E0FB01E554F84FE4912817BC
:1046700098F4621B71092FEF30E002C03595279541
:104680006A95E2F7E2230130110549F078F0023033
:10469000110509F05BC00EC00130110519F48C91B1
:1046A000E82B0AC00130110508F049C0E0958C9153
:1046B000E82302C08C91E827EC93941708F446C0D5
:1046C0002C813D81A20FB31FE92FE41BE830F8F0E5
:1046D0000230110561F48E2F9C9190959C932C8152
:1046E0003D81A20FB31F88508830B0F70FC081E022
:1046F0000115110509F480E081959E2F8C932C8182
:104700003D81A20FB31F98509830C0F7E770EE2399
:10471000E9F0F0E0ED54F84FE4910130110539F083
:1047200048F00230110591F48C91E82706C08C9175
:10473000E82B03C0E0958C91E823EC9307C002308E
:10474000110509F4B7CFAE0DBF1DBECFDF91CF91DC
:104750001F910F91FF90EF90089520914304211134
:1047600003C08FEF9FEF08955FB7F89422E0209386
:10477000E9002091F20030E01216130614F421E053
:1047800030E0422FFC0184E6415038F028988093B5
:1047900042049091F1009193F7CF2115310521F05A
:1047A0008091F200882319F05FBFC90108958BE65C
:1047B0008093E800F9CF90E0FC013197EF30F105EC
:1047C000B0F5EA5AFF4F0C943230809180008F7719
:1047D00003C0809180008F7D809380000895809138
:1047E0008000877FF9CF84B58F7702C084B58F7D35
:1047F00084BD0895809190008F7707C080919000CC
:104800008F7D03C080919000877F809390000895F2
:104810008091C0008F7703C08091C0008F7D80930E
:10482000C00008958091C200877F8093C2000895E0
:104830001F93CF93DF93282F30E0F901EE5CF84F00
:104840008491F901ED5EF84FD491F901EC50F94FE4
:10485000C491CC23C1F0162F81110E94DB23EC2FD1
:10486000F0E0EE0FFF1FEB55F84FA591B4919FB705
:10487000F894111104C08C91D095D82302C0EC910A
:10488000DE2BDC939FBFDF91CF911F910895CF93D3
:10489000DF9390E0FC01ED5EF84F2491FC01EC50B9
:1048A000F94F8491882361F190E0880F991FFC01F2
:1048B000E956F84FC591D491FC01EB55F84FA591FD
:1048C000B491611109C09FB7F89488812095822323
:1048D0008883EC912E230BC0623061F49FB7F8946B
:1048E0008881322F309583238883EC912E2B2C9353
:1048F0009FBF06C08FB7F894E8812E2B28838FBF07
:10490000DF91CF9108958F929F92AF92BF92CF92F5
:10491000DF92EF92FF926B017C010E94A41F4B017A
:104920005C01C114D104E104F104F1F00E94A41F60
:10493000DC01CB0188199909AA09BB09883E93407B
:10494000A105B10570F321E0C21AD108E108F10810
:1049500088EE880E83E0981EA11CB11CC114D104FE
:10496000E104F10419F7DDCFFF90EF90DF90CF90D5
:10497000BF90AF909F908F900895000000000000BE
:104980000000000000000000000000000000000027
:104990000000000000000000000000000000000017
:1049A0000000000000000000000000000000000007
:1049B00000000000000000000000000000000000F7
:1049C00000000000000000000000000000000000E7
:1049D00000000000000000000000000000000000D7
:1049E00000000000000000000000000000000000C7
:1049F00000000000000000000000000000000000B7
:104A00004EE003C04CE001C04AE02F923F924F922B
:104A10005F926F927F928F929F92AF92BF92CF924E
:104A2000DF92EF92FF920F931F93CF93DF938F93B9
:104A30009F93DB01FC01842F43954295A40FB11D88
:104A4000E89481909190A190B190C190D190E19023
:104A5000F190019111912191319141915191619187
:104A600071919BE10E9070250E9060250E9050255F
:104A70000E9040250E9030250E9020250E9010258A
:104A80000E9000250E90F0240E90E0240E90D0247D
:104A90000E90C0240E90B0240E90A0240E9090246E
:104AA0000E9080248A9509F46894F2E5E82D8490AC
:104AB000EC2DC490E02F0491E42F4491E52F249035
:104AC000E12F5491ED2D1491E92DD490922CE62FE5
:104AD0002490E22F3490EE2D6491EA2D2491E22C63
:104AE000A32CEB2D2490EF2DB490E32FF490E72F1F
:104AF0003491722D0E9070250E9060250E905025E9
:104B00000E9040250E9030250E9020250E901025F9
:104B10000E9000250E90F0240E90E0240E90D024EC
:104B20000E90C0240E90B0240E90A0240E909024DD
:104B30000E9080242EF5FF91EF9181929192A19297
:104B4000B192C192D192E192F1920193119321938A
:104B500031934193519361937193DF91CF911F9161
:104B60000F91FF90EF90DF90CF90BF90AF909F900C
:104B70008F907F906F905F904F903F902F9008950F
:104B8000FDE42B2C2A24382C3924E22DE3254490F3
:104B9000FEE4EA2DE82554905424EB2DE9250490F9
:104BA0004024682C6B24660C08F469266424B6241F
:104BB0006A2C6924660C08F4692664249624220C65
:104BC00008F429262524A224330C08F43926352498
:104BD0008324FDE42F2C2E243C2C3D24E22DE325C0
:104BE0004490FEE4EE2DEC2554905424EF2DED2559
:104BF000049040246C2C6F24660C08F4692664240D
:104C0000F6246E2C6D24660C08F469266424D624E0
:104C1000220C08F429262524E224330C08F4392632
:104C20003524C324FDE4232E2226302E3126E22D06
:104C3000E3254490FEE4E22FE02754905424E32F30
:104C4000E12704904024602E6326660C08F4692650
:104C500064243625622E6126660C08F469266424D5
:104C60001625220C08F4292625242225330C08F4C5
:104C7000392635240325FDE4272E2626342E352615
:104C8000E22DE3254490FEE4E62FE42754905424DB
:104C9000E72FE52704904024642E6726660C08F46D
:104CA000692664247625662E6526660C08F4692636
:104CB00064245625220C08F4292625246225330C69
:104CC00008F4392635244325EDCE0000000000000D
:104CD00000000000000000000000000000000000D4
:104CE00000000000000000000000000000000000C4
:104CF00000000000000000000000000000000000B4
:104D00000009121B242D363F48415A536C657E77AB
:104D10009099828BB4BDA6AFD8D1CAC3FCF5EEE79B
:104D20003B3229201F160D04737A6168575E454C8B
:104D3000ABA2B9B08F869D94E3EAF1F8C7CED5DC7B
:104D4000767F646D525B40493E372C251A1308016B
:104D5000E6EFF4FDC2CBD0D9AEA7BCB58A8398915B
:104D60004D445F5669607B72050C171E2128333A4B
:104D7000DDD4CFC6F9F0EBE2959C878EB1B8A3AA3B
:104D8000ECE5FEF7C8C1DAD3A4ADB6BF8089929B2B
:104D90007C756E6758514A43343D262F1019020B1B
:104DA000D7DEC5CCF3FAE1E89F968D84BBB2A9A00B
:104DB000474E555C636A71780F061D142B223930FB
:104DC0009A938881BEB7ACA5D2DBC0C9F6FFE4EDEB
:104DD0000A0318112E273C35424B5059666F747DDB
:104DE000A1A8B3BA858C979EE9E0FBF2CDC4DFD6CB
:104DF0003138232A151C070E79706B625D544F46BB
:104E00000004080C1014181C2024282C3034383CC2
:104E10004044484C5054585C6064686C7074787CB2
:104E20008084888C9094989CA0A4A8ACB0B4B8BCA2
:104E3000C0C4C8CCD0D4D8DCE0E4E8ECF0F4F8FC92
:104E40001B1F13170B0F03073B3F33372B2F232752
:104E50005B5F53574B4F43477B7F73776B6F636742
:104E60009B9F93978B8F8387BBBFB3B7ABAFA3A732
:104E7000DBDFD3D7CBCFC3C7FBFFF3F7EBEFE3E722
:104E800036323E3A26222E2A16121E1A06020E0A22
:104E900076727E7A66626E6A56525E5A46424E4A12
:104EA000B6B2BEBAA6A2AEAA96929E9A86828E8A02
:104EB000F6F2FEFAE6E2EEEAD6D2DEDAC6C2CECAF2
:104EC0002D2925213D3935310D0905011D191511F2
:104ED0006D6965617D7975714D4945415D595551E2
:104EE000ADA9A5A1BDB9B5B18D8985819D999591D2
:104EF000EDE9E5E1FDF9F5F1CDC9C5C1DDD9D5D1C2
:104F00004EE003C04CE001C04AE02F923F924F9226
:104F10005F926F927F928F929F92AF92BF92CF9249
:104F2000DF92EF92FF920F931F93CF93DF938F93B4
:104F30009F93DB01FC01842FE89481909190A190D4
:104F4000B190C190D190E190F19001911191219196
:104F5000319141915191619171919BE1F4E50D90F5
:104F600080240D9090240D90A0240D90B0240D90DD
:104F7000C0240D90D0240D90E0240D90F0240D90CD
:104F800000250D9010250D9020250D9030250D90B9
:104F900040250D9050250D9060250D9070252EF523
:104FA000FF91EF9181929192A192B192C192D1928F
:104FB000E192F19201931193219331934193519393
:104FC00061937193DF91CF911F910F91FF90EF90BB
:104FD000DF90CF90BF90AF909F908F907F906F9019
:104FE0005F904F903F902F9008958A9509F46894B0
:104FF000E82D8490EC2DC490E02F0491E42F44918F
:10500000E92D2490ED2D9490E12FD490E52F14916B
:10501000522DEA2D2490EE2D3490E22FA490E62F0D
:10502000E490222D632DEB2D2490E72FB490E32FF5
:105030007491EF2D3491F22C0EF491CF0A2C0B24A5
:10504000402C282C89240824880C08F489268024E4
:105050008224392C3A24330C08F439263024932442
:10506000440C08F449264024A4242B24220C08F4E0
:1050700029262024B2240E2C0F24402C2C2CCD24A5
:105080000C24CC0C08F4C926C024C2243D2C3E2498
:10509000330C08F439263024D324440C08F4492670
:1050A0004024E4242F24220C08F429262024F2246E
:1050B000022E0326402C202E01270026000F08F484
:1050C000092700250225312E3226330C08F4392613
:1050D00030241325440C08F4492640242425232693
:1050E000220C08F4292620243225062E0726402CDF
:1050F000242E45270426440F08F44927402542253D
:10510000352E3626330C08F4392630245325440C2A
:1051100008F44926402464252726220C08F4292671
:10512000202472251CCF00000000000000000000B9
:10513000000000000000000000000000000000006F
:10514000000000000000000000000000000000005F
:10515000000000000000000000000000000000004F
:10516000000000000000000000000000000000003F
:10517000000000000000000000000000000000002F
:10518000000000000000000000000000000000001F
:10519000000000000000000000000000000000000F
:1051A00000000000000000000000000000000000FF
:1051B00000000000000000000000000000000000EF
:1051C00000000000000000000000000000000000DF
:1051D00000000000000000000000000000000000CF
:1051E00000000000000000000000000000000000BF
:1051F00000000000000000000000000000000000AF
:1052000052096AD53036A538BF40A39E81F3D7FB3B
:105210007CE339829B2FFF87348E4344C4DEE9CB85
:10522000547B9432A6C2233DEE4C950B42FAC34EFA
:10523000082EA16628D924B2765BA2496D8BD125B0
:1052400072F8F66486689816D4A45CCC5D65B69254
:105250006C704850FDEDB9DA5E154657A78D9D84F8
:1052600090D8AB008CBCD30AF7E45805B8B3450618
:10527000D02C1E8FCA3F0F02C1AFBD0301138A6B32
:105280003A9111414F67DCEA97F2CFCEF0B4E67362
:1052900096AC7422E7AD3585E2F937E81C75DF6E10
:1052A00047F11A711D29C5896FB7620EAA18BE1B76
:1052B000FC563E4BC6D279209ADBC0FE78CD5AF41C
:1052C0001FDDA8338807C731B11210592780EC5F62
:1052D00060517FA919B54A0D2DE57A9F93C99CEFBE
:1052E000A0E03B4DAE2AF5B0C8EBBB3C83539961BF
:1052F000172B047EBA77D626E169146355210C7DFD
:10530000AB0171E060E007C0AB0170E060EC03C08E
:10531000AB01772760E8EF92FF920F931F93CF9333
:10532000DF93FA01EA01DC0176956795669566954B
:10533000262F0D9001922A95E1F76695669563FBFD
:10534000362F762F795F770F770FDF011497262F8F
:10535000E0E0F4E57F0111E04D915D918D919D912B
:105360003217B1F05EF5022F0770043039F5F701FE
:10537000E40FF11D4491F701E50FF11D5491F70180
:10538000E80FF11D8491F701E90FF11D949116C00A
:10539000360FF701E40FF11D0491F701E50FF11D40
:1053A0004491F701E80FF11D5491F701E90FF11D48
:1053B0008491902F4127110F08F41BE1FD01099002
:1053C000042601920990052601920990082601926F
:1053D0000990092601922395271709F0BDCFE8947B
:1053E000DF91CF911F910F91FF90EF9008950000F2
:1053F00000000000000000000000000000000000AD
:10540000637C777BF26B6FC53001672BFED7AB7681
:10541000CA82C97DFA5947F0ADD4A2AF9CA472C02C
:10542000B7FD9326363FF7CC34A5E5F171D8311599
:1054300004C723C31896059A071280E2EB27B275BA
:1054400009832C1A1B6E5AA0523BD6B329E32F8432
:1054500053D100ED20FCB15B6ACBBE394A4C58CF2A
:10546000D0EFAAFB434D338545F9027F503C9FA8FE
:1054700051A3408F929D38F5BCB6DA2110FFF3D2CC
:10548000CD0C13EC5F974417C4A77E3D645D197380
:1054900060814FDC222A908846EEB814DE5E0BDB7A
:1054A000E0323A0A4906245CC2D3AC629195E479B1
:1054B000E7C8376D8DD54EA96C56F4EA657AAE080B
:1054C000BA78252E1CA6B4C6E8DD741F4BBD8B8AA6
:1054D000703EB5664803F60E613557B986C11D9E0C
:1054E000E1F8981169D98E949B1E87E9CE5528DF83
:1054F0008CA1890DBFE6426841992D0FB054BB16AF
:10550000FC01DB01CA01009631F04D915081452725
:1055100041930197D1F70895CF92DF92EF92FF92D6
:105520000F931F93E82FF92F05C00150110921098E
:10553000310961F1908196239417B9F305C00150A8
:1055400011092109310911F1908196239413F7CFA4
:10555000C12CD12CE12CF12C0AC08FEFC81AD80A2B
:10556000E80AF80A0C151D052E053F0579F0808123
:105570008623841791F36C2D7D2D8E2D9F2D1F91E9
:105580000F91FF90EF90DF90CF90089560E070E072
:1055900080E090E01F910F91FF90EF90DF90CF900F
:1055A0000895DF92EF92FF920F931F93CF93DF93B3
:1055B000D82EF92EE42E062F10E0C8010196880F90
:1055C0000E94491183E00E944911CD2DDF2D0C0F5F
:1055D0001D1FC017D10789F0E7FE03C0FE018491AB
:1055E00001C088810E944911F82E80E00E94491173
:1055F0008F2121968111EDCF01C081E0DF91CF9104
:105600001F910F91FF90EF90DF900895789484B5EB
:10561000826084BD84B5816084BD85B5826085BDAE
:1056200085B5816085BD80916E00816080936E003C
:10563000109281008091810082608093810080912E
:1056400081008160809381008091800081608093DF
:105650008000809191008260809391008091910000
:105660008160809391008091900081608093900090
:105670008091C10084608093C1008091C1008260EC
:105680008093C1008091C10081608093C1008091AE
:10569000C30081608093C3008091C00082608093CA
:1056A000C0008091C20081608093C20080917A0026
:1056B000846080937A0080917A00826080937A007F
:1056C00080917A00816080937A0080917A0080686E
:1056D00080937A00109243041092A5021092A102C6
:1056E0008091D70081608093D70080EA8093D800B2
:1056F00089B5806189BD89B5826089BD09B400FE24
:10570000FDCF61E070E080E090E00E948324809112
:10571000D8008F7C80618093D8008091E000807FEA
:105720008093E0008091E1008E7E8093E1008DE027
:105730008093E200559A209A809110049091110470
:10574000892B11F52091F7033091F803C9010796D1
:1057500097FD079613E0959587951A95E1F72091A7
:10576000F5033091F603AC01429FC001439F900DB9
:10577000529F900D11240E94383090931104809311
:105780001004892B09F4DFC00E94901B8091F7035D
:105790009091F803813291050CF417C1BC0160545B
:1057A000710977FF02C06F5F7F4F75956795809194
:1057B000F5039091F6038255910997FD019600E457
:1057C00010E022E530E049E953E0959587950E9485
:1057D000211F82E08093130480910E0490910F04A6
:1057E000009709F40AC12CE3209312040E94501B75
:1057F0008091190487FD1EC061E00E94472461E08A
:10580000809119040E94182461E070E080E090E02B
:105810000E94832460E0809119040E9418246AE0A9
:1058200070E080E090E00E94832461E080911904A0
:105830000E94182480910E0490910F04892B09F482
:105840009BC1209128043091290440912A04509151
:105850002B0460E074E284EF90E00E94D92FDA011B
:10586000C9014097A109B109B695A7959795879564
:105870008093B80064E085EB91E00E94B51B6091D5
:10588000F703615081EF93E00E946B1264E081EBBB
:1058900091E00E94B51B80911304813009F483C10B
:1058A00064E181EF93E00E946B1264E08DEA91E085
:1058B0000E94B51B8091F5039091F6038038910505
:1058C00009F084C18091F7039091F803803291052B
:1058D00009F06BC164E089EA91E00E94B51B69EDB3
:1058E00081EF93E00E946B1280911304813009F4E0
:1058F00089C161EF81EF93E00E946B1266E08DE950
:1059000091E00E94B51B80910E0490910F04892BA9
:1059100009F47AC120912C0430912D0440912E0479
:1059200050912F0460E074E284EF90E00E94D92F40
:10593000DA01C9014097A109B109B695A7959795D4
:1059400087958093B80082E090E09093A3028093C3
:10595000A2020E94CB070FB6F894A8958091600030
:10596000886180936000109260000FBE8FEF9FEF00
:1059700090937D0380937C0362E087E00E9447243C
:1059800062E08FE00E94472462E080E10E944724A9
:1059900062E08EE00E94472462E08AE00E94472491
:1059A00085EE93E00E94501B62E370E080E090E09F
:1059B0000E948324C0E0D0E08091A2020E94D70719
:1059C0002097D1F30E940000F7CFBC01605271090B
:1059D00077FF02C06F5F7F4F759567958091F503E4
:1059E0009091F6038357910997FD019600E210E02C
:1059F00023E730E049EB51E0E8CE61E08091170405
:105A00000E94472461E0809118040E9447248091FD
:105A10001704082E000C990BFC01EC50F94FE4918F
:105A2000F0E0EE0FFF1FEB55F84F259134913093C6
:105A30001F0420931E04FC01ED5EF84FE491E093F7
:105A4000240480911804082E000C990BFC01EC50E2
:105A5000F94FE491F0E0EE0FFF1FEB55F84FA591E1
:105A6000B491B0932104A0932004FC01ED5EF84FA3
:105A7000E491E09325048C91E82BEC9380910C0445
:105A800090910D04892B09F434C0CFB7F89480911C
:105A9000A602811127C0E5E0F7E08491E4E2F7E097
:105AA0009491E82FF0E0EE0FFF1FE956F84FA59113
:105AB000B491EC91E92321F461E081E10E94182482
:105AC00061E081E10E9447248CB580618CBD8CB57A
:105AD00080648CBD61E08FE00E94472461E080E13A
