:100000000C9464060C948C060C948C060C948C0650
:100010000C948C060C948C060C948C060C948C0618
:100020000C948C060C948C060C94C1100C944F12FA
:100030000C948C060C948C060C948C060C948C06F8
:100040000C948C060C948C060C948C060C948C06E8
:100050000C948C060C948C060C948C060C94E9225F
:100060000C948C060C948C060C948C060C948C06C8
:100070000C948C060C948C060C948C060C948C06B8
:100080000C948C060C948C060C948C060C948C06A8
:100090000C948B0C0C948C060C948C060C948C0693
:1000A0000C948C060C948C060C948C061F22222235
:1000B000112215221B2243224322432226222A22D6
:1000C0002E223422382243223E220000000000006B
:1000D00000002A2B280000000000000000000000A3
:1000E000000000000000000000002C9EB4A0A1A2AF
:1000F000A434A6A7A5AE362D3738271E1F202122EF
:1001000023242526B333B62EB7B89F8485868788E7
:10011000898A8B8C8D8E8F909192939495969798D7
:10012000999A9B9C9D2F3130A3AD35040506070895
:10013000090A0B0C0D0E0F101112131415161718B7
:10014000191A1B1C1DAFB1B0B500080B000202024A
:100150000100090400000102020000052400100152
:1001600005240101010424020605240600010705F7
:10017000810310004009040100020A000000070585
:100180000202400000070583024000000403090446
:1001900012010002EF0201404123368000010102FA
:1001A000030141726475696E6F204C4C43004172CB
:1001B0006475696E6F204C656F6E6172646F00DBF1
:1001C00040A4A62EAFDA0281DA1281DA02818F20F2
:1001D00000A1C8D300408DAED580A800006000000B
:1001E000000000000000000000000000E00000002F
:1001F0000000000000000000000001E0000000001E
:1002000000000000000000000001F00000000000FD
:10021000000000000000000003F0000000000000EB
:100220000000000000000007F000000000000000D7
:1002300000000000000007F80000000000000000BF
:1002400000000000000FF800000003C0007E000066
:1002500001E0007F0FF800000003C000FE00000175
:10026000E000FFEFF800000003C000FE000001E026
:1002700000FFFFF800000003C000F00000000F00C6
:100280007FFE7FC0000003C000F00000000F003FB1
:10029000FE7FF83FF1FBCFFCFEF3BC3DEFE01FFE1D
:1002A0007FFF7FFBFFDFFEFEFFBC3DEFE01FC6FFD1
:1002B000FF7FFBFFDFFEFEFFBC3DEFE00FE3C7FE6D
:1002C000787BC3DE1EF0FFBC3DEF0007FF87FC78A4
:1002D0007BC3DE1EF0F83C3DEF0001FFFFF0007B2A
:1002E000C3C01EF0F03C3DEF0001F37FE03FFBC3D5
:1002F000CFFEF0F03C3DEF0003E33F807FFBC3DF28
:10030000FEF0F03C3DEF0007E73C00787BC3DE1ECB
:10031000F0F03C3DEF0007FFBE00787BC3DE1EF02F
:10032000F03C3DEF0007FFFE00787BC3DE1EF0F0DF
:100330003C3DEF000FFFFE007FFBFFDFFEF0F03FD4
:10034000FDEFE00FFFFF007FFBFFDFFEF0F03FFD62
:10035000EFE00FF9FF003E79F9CF9EF0F01F3DE787
:10036000E01FF1FF0000000000000000000000009E
:100370001F80FF007FFFFFFFFFFFFFFFFFFFE01C6D
:10038000007F007FFFFFFFFEB46D888D18E0000046
:100390001F007FFFFFFFFE95AD7DB577E000000FEA
:1003A000007FFFFFFFFEA5AD9D8D19E00000060058
:1003B0007FFFFFFFFEB5ADEDB57EE0000000000061
:1003C0000180000000000000000000038000000029
:1003D00000000000000007C0000000000000000056
:1003E0000007C00000000000000000000FC0000077
:1003F000000000000000001FE000000000000000FE
:1004000000001FE00000000000000000003FE000CE
:1004100000000000000000003FF0000000000000AD
:100420000000007FF0000000000000001FF87FF0D7
:10043000000000000000003FFE7FF0000000000010
:1004400000003FFF7FF0000000000000001FFFFBE6
:10045000E0000000000000000FFFF9FFC0000000F6
:100460000000000FFFF9FFF800000000000007FF88
:10047000F1FFFF00000000000003FC73FFFF80009D
:100480000000000001FE3FFFFF80000000000000B0
:10049000FF1E0FFF000000000000007FFE1FFC0099
:1004A0000000000000003FFFFFF800000000000017
:1004B000000FDFFFE0000000000000001F19FFC078
:1004C000000000000000003F3CFF000000000000B2
:1004D00000007E7CF800000000000000007FFE7C31
:1004E0000000000000000000FFFFFC000000000012
:1004F000000000FFFFFE0000000000000000FFFF02
:10050000FE0000000000000001FFEFFE0000000000
:1005100000000001FFCFFE0000000000000003FF0C
:1005200007FE0000000000000003FC07FE000000C2
:100530000000000003F003FE0000000000000001C6
:100540008000FE000000000000000000007E0000AF
:1005500000000000000000003E000000000000005D
:100560000000000C000000000000078000FC0000FC
:1005700003C0000000078001FC000003C000000071
:10058000078001FC000003C0000000078001E000BC
:1005900000001E000000078001E00000001E007F38
:1005A000E3F79FF9FDE7787BDFC0FFF7FFBFFDFDB5
:1005B000FF787BDFC0FFF7FFBFFDFDFF787BDFC06B
:1005C000F0F787BC3DE1FF787BDE00F0F787BC3DAC
:1005D000E1F0787BDE0000F787803DE1E0787BDEAC
:1005E000007FF7879FFDE1E0787BDE00FFF787BFA4
:1005F000FDE1E0787BDE00F0F787BC3DE1E0787B51
:10060000DE00F0F787BC3DE1E0787BDE00F0F787A5
:10061000BC3DE1E0787BDE00FFF7FFBFFDE1E07F5E
:10062000FBDFC0FFF7FFBFFDE1E07FFBDFC07CF336
:10063000F39F3DE1E03E7BCFC000000000000000E2
:1006400000000000FFFFFFFFFFFFFFFFFFFFC0FFF5
:10065000FFFFFFFD68DB111A31C0FFFFFFFFFD2B1D
:100660005AFB6AEFC0FFFFFFFFFD4B5B3B1A33C035
:10067000FFFFFFFFFD6B5BDB6AFDC041424344456A
:10068000464748494A4B4C4D4E4F50515253545592
:10069000565758595A28295B5D7B7D6162636465B2
:1006A000666768696A6B6C6D6E6F70717273747572
:1006B000767778797A3C3E7C5C2F3F303132333428
:1006C00035363738392D2B21402324255E262A5FE5
:1006D0002B607E3B3A22272C2E01018000004145F1
:1006E000532D31323800000000002300260029007D
:1006F0002C002F0004040404040304050202020277
:1007000004030202020206060606060604040202AA
:100710000204040408020110408040102040804080
:100720008008020401804020100201108010204047
:1007300040200000000200090F0000030401000C2B
:1007400000000000000000000000000000000000A9
:10075000000100DE06B00080000828042684230083
:1007600000D9062200FF210005010906A10185022A
:10077000050719E029E71500250175019508810293
:100780009501750881039506750815002573050701
:10079000190029738100C000000000240027002AEE
:1007A000002D00300000000000250028002B002E46
:1007B000003100000103070F1F3F7F0080C0E0F001
:1007C000F8FCFE00000000003E5B4F5B3E3E6B4FBE
:1007D0006B3E1C3E7C3E1C183C7E3C181C577D57D3
:1007E0001C1C5E7F5E1C00183C1800FFE7C3E7FF7F
:1007F0000018241800FFE7DBE7FF30483A060E2612
:1008000029792926407F050507407F05253F5A3C69
:10081000E73C5A7F3E1C1C08081C1C3E7F14227FAC
:1008200022145F5F005F5F06097F017F0066899584
:100830006A606060606094A2FFA29408047E04086D
:1008400010207E201008082A1C08081C2A08081EF0
:10085000101010100C1E0C1E0C30383E3830060ED6
:100860003E0E06000000000000005F0000000700D0
:100870000700147F147F14242A7F2A12231308648C
:100880006236495620500008070300001C22410030
:100890000041221C002A1C7F1C2A08083E08080070
:1008A0008070300008080808080000606000201010
:1008B0000804023E5149453E00427F4000724949CA
:1008C00049462141494D331814127F1027454545AB
:1008D000393C4A49493141211109073649494936CC
:1008E000464949291E000014000000403400000061
:1008F0000814224114141414140041221408020193
:100900005909063E415D594E7C1211127C7F4949BE
:1009100049363E414141227F4141413E7F4949495B
:10092000417F090909013E414151737F0808087F51
:1009300000417F41002040413F017F081422417F58
:10094000404040407F021C027F7F0408107F3E41F0
:1009500041413E7F090909063E4151215E7F091947
:100960002946264949493203017F01033F4040405F
:100970003F1F2040201F3F4038403F63140814634E
:1009800003047804036159494D43007F414141020A
:1009900004081020004141417F040201020440404C
:1009A000404040000307080020545478407F28440A
:1009B00044383844444428384444287F38545454F4
:1009C0001800087E090218A4A49C787F0804047803
:1009D00000447D40002040403D007F10284400003E
:1009E000417F40007C047804787C08040478384413
:1009F000444438FC1824241818242418FC7C0804C7
:100A00000408485454542404043F44243C404020E7
:100A10007C1C2040201C3C4030403C442810284492
:100A20004C9090907C4464544C4400083641000043
:100A300000770000004136080002010204023C2653
:100A400023263C1EA1A161123A4040207A3854541A
:100A5000555921555579412254547842215554789D
:100A60004020545579400C1E527212395555555933
:100A7000395454545939555454580000457C410058
:100A800002457D420001457C407D1211127DF02817
:100A90002528F07C545545002054547C547C0A0988
:100AA0007F4932494949323A4444443A324A4848F3
:100AB000303A4141217A3A42402078009DA0A07D01
:100AC0003D4242423D3D4040403D3C24FF242448BD
:100AD0007E4943662B2FFC2F2BFF0929F620C08867
:100AE0007E090320545479410000447D4130484838
:100AF0004A32384040227A007A0A0A727D0D193152
:100B00007D2629292F28262929292630484D4020AD
:100B1000380808080808080808382F10C8ACBA2F89
:100B2000102834FA00007B000008142A1422221432
:100B30002A14085500550055AA55AA55AAFF55FF75
:100B400055FF000000FF00101010FF00141414FFE8
:100B5000001010FF00FF1010F010F0141414FC002F
:100B60001414F700FF0000FF00FF1414F404FC1439
:100B70001417101F10101F101F1414141F00101032
:100B800010F0000000001F101010101F10101010A7
:100B9000F010000000FF101010101010101010FFC7
:100BA00010000000FF140000FF00FF00001F1017DE
:100BB0000000FC04F414141710171414F404F400C7
:100BC00000FF00F714141414141414F700F714148D
:100BD00014171410101F101F141414F4141010F014
:100BE00010F000001F101F0000001F14000000FC88
:100BF000140000F010F01010FF10FF141414FF1474
:100C00001010101F00000000F010FFFFFFFFFFF0AA
:100C1000F0F0F0F0FFFFFF0000000000FFFF0F0FFB
:100C20000F0F0F3844443844FC4A4A4A347E0202CB
:100C30000606027E027E0263554941633844443C05
:100C400004407E201E2006027E020299A5E7A59997
:100C50001C2A492A1C4C7201724C304A4D4D3030CE
:100C600048784830BC625A463D3E494949007E01B9
:100C700001017E2A2A2A2A2A44445F444440514AD8
:100C8000444040444A51400000FF0103E080FF001F
:100C90000008086B6B083612362436060F090F065B
:100CA000000018180000001010003040FF01010083
:100CB0001F01011E00191D1712003C3C3C3C0000A6
:100CC00000000000862E772E11241FBECFEFDAE041
:100CD000DEBFCDBF12E0A0E0B1E0ECEAF3E602C077
:100CE00005900D92A434B107D9F724E0A4E4B2E052
:100CF00001C01D92A137B207E1F716E0C3E6D6E0C6
:100D000004C02197FE010E949230C236D107C9F774
:100D10000E9486290C94C9310C9400000895FC01AE
:100D20006370668B8481958126813781613039F0CB
:100D3000633029F091878087338722870895318730
:100D400020879387828708956F927F928F929F92D8
:100D5000AF92BF92CF92DF92EF92FF920F931F93C9
:100D6000CF93DF93EC014B015A0169013801E8810F
:100D7000F9810284F385E02D0995E881F9810288E3
:100D8000F389E02D87019601A501B401CE010995F3
:100D9000A501460D571D41505109E881F98102888E
:100DA000F389E02D9601B401CE010995E881F9811E
:100DB0000088F189E02D9301A501B401CE010995C8
:100DC000C80CD91CB60161507109E881F98100880D
:100DD000F189E02D9301A501CE010995E881F98102
:100DE0000688F789E02DCE01DF91CF911F910F91F9
:100DF000FF90EF90DF90CF90BF90AF909F908F903B
:100E00007F906F9009948F929F92AF92BF92CF92F2
:100E1000DF92EF92FF920F931F93CF93DF934C01DA
:100E20006B015A01E901DC01ED91FC916217730736
:100E300081F40417150724F48B2D5801042F182F63
:100E40000A191B0998012F5F3F4F048CF58DE02D87
:100E500012C04017510709F52617370724F48D2DC6
:100E60006901C62FD82F9E012C193D092F5F3F4FD6
:100E7000068CF78DE02D8701A501B601C401099507
:100E8000DF91CF911F910F91FF90EF90DF90CF9066
:100E9000BF90AF909F908F9008950284F385E02DCE
:100EA0000995D401ED91FC910488F589E02D9E010E
:100EB000A501B601C4010995D401ED91FC91068804
:100EC000F789E02DC401DF91CF911F910F91FF9021
:100ED000EF90DF90CF90BF90AF909F908F9009944C
:100EE000EF92FF920F931F93DC011A960D911C91C4
:100EF0001B9718962D913C911997ED91FC9100A0AC
:100F0000F1A1E02D7B0140E050E060E070E0099548
:100F10001F910F91FF90EF9008954F925F926F9203
:100F20007F928F929F92AF92BF92CF92DF92EF9279
:100F3000FF920F931F93CF93DF936C012B015A0104
:100F400039014801DC01ED91FC910284F385E02D2B
:100F50000995E201640C751CD601ED91FC91C61552
:100F6000D7055CF40088F189E02D87019401A50183
:100F7000BE01C60109952196EFCF0688F789E02DBD
:100F8000C601DF91CF911F910F91FF90EF90DF90FD
:100F9000CF90BF90AF909F908F907F906F905F9019
:100FA0004F9009948F929F92AF92BF92CF92DF920F
:100FB000EF92FF920F931F93CF93DF93EC015B01AE
:100FC0004A016901E881F9810284F385E02D0995E0
:100FD00095012C0D3D1D21503109E881F9810488CE
:100FE000F589E02D78018401A401B501CE010995B0
:100FF000E881F9810688F789E02DCE01DF91CF9154
:101000001F910F91FF90EF90DF90CF90BF90AF9026
:101010009F908F9009948F929F92AF92BF92CF92A0
:10102000DF92EF92FF920F931F93CF93DF93EC0128
:101030005B014A0169017801E881F9810284F38545
:10104000E02D0995C80CD91C860101501109E881D1
:10105000F9810488F589E02D9501A401B501CE013F
:101060000995E881F9810688F789E02DCE01DF91A5
:10107000CF911F910F91FF90EF90DF90CF90BF9095
:10108000AF909F908F9009940895EF92FF920F93E5
:101090001F93DC01ED91FC9100A0F1A1E02D0995D9
:1010A0001F910F91FF90EF9008950F931F93DC0114
:1010B000ED91FC91068CF78DE02D09951F910F9114
:1010C00008950F931F93DC01ED91FC91048CF58D35
:1010D000E02D09951F910F910895DC01ED91FC9190
:1010E0000084F185E02D09942F923F924F925F92F8
:1010F0006F927F928F929F92AF92BF92CF92DF9228
:10110000EF92FF920F931F93CF93DF9300D000D005
:1011100000D0CDB7DEB72C017E836D836A01590103
:10112000C801FC82EB824801841A950A97FE03C02D
:1011300091948194910835012D813E81621A730A40
:1011400077FE03C0719461947108681479045CF4AB
:101150003A2D2B2D5C01832F922F3D812E81DE8233
:10116000CD82C32ED22EAD81BE81AA16BB065CF401
:101170003C2D2D2D6C01832F922F3D812E81BE821F
:10118000AD82A32EB22E85012D813E81021B130B51
:101190001C012C183D0837FE03C0319421943108FE
:1011A000780117FF03C03FEFE31AF30AF594E794C1
:1011B000C816D9062CF08FEF9FEF9A83898304C05D
:1011C000A1E0B0E0BA83A9832D813E81A216B306C7
:1011D00024F1D201ED91FC910484F585E02D2B8161
:1011E0003C816814790424F44D815E81B60103C00A
:1011F000A6016D817E81C2010995E218F308F7FE10
:1012000006C029813A81C20ED31EE00EF11E8D81E7
:101210009E8101969E838D83D7CF26960FB6F89434
:10122000DEBF0FBECDBFDF91CF911F910F91FF9019
:10123000EF90DF90CF90BF90AF909F908F907F9076
:101240006F905F904F903F902F900895DC01FB01CD
:1012500012968C91129790E0248135818217930722
:10126000D1F491818081813A31F481E0913091F023
:10127000933089F411C0813271F49B3021F4828162
:101280001F968C9305C09A3031F4828150968C93CE
:1012900081E00895089580E00895DC01FB0188E471
:1012A000808389E4818384E482831D969C911D97C9
:1012B0009F709F5B93831D968D919C911E9724E058
:1012C000969587952A95E1F78F708F5B848385E0EB
:1012D0000895FC0182818F5BFB01808381E008958A
:1012E000CF92DF92EF92FF920F931F93CF93DF93F2
:1012F0006C01EB017B01E40EF51E00E010E0CE1561
:10130000DF0581F069916D30D1F3D601ED91FC914B
:101310000190F081E02DC6010995892B19F00F5F2E
:101320001F4FEDCFC801DF91CF911F910F91FF901B
:10133000EF90DF90CF90089585ED8093BC00809171
:10134000BC0084FDFCCF10928E0208954091D4021F
:10135000262F30E0240F311D21323105DCF420919D
:101360008E022430C9F4FC0180E090E0861758F426
:101370003091D4022191DC01AC54BD4FA30FB11DBB
:101380002C930196F3CF8091D402680F6093D4021E
:1013900080E0089581E0089582E008950895089519
:1013A000E091860280918502E81730F4F0E0EB5975
:1013B000FD4F808190E008958FEF9FEF0895909109
:1013C000860280918502981750F4E92FF0E0EB59DE
:1013D000FD4F208130E09F5F9093860202C02FEF87
:1013E0003FEFC90108958091850290E02091860227
:1013F000821B91090895CF92DF92EF92FF920F9393
:101400001F93CF93DF937C01CB018A01209164026B
:10141000222389F0EB016B01C40ED51ECC15DD052E
:1014200069F06991D701ED91FC910190F081E02D77
:10143000C7010995F3CF642F0E94A609C801DF9167
:10144000CF911F910F91FF90EF90DF90CF90089573
:10145000CF93DF931F92CDB7DEB7698320916402EB
:101460002223D1F020918702203240F021E030E0A9
:10147000FC013383228380E090E015C080918802D4
:10148000E82FF0E0EC5BFD4F998190838F5F8093B4
:1014900088028093870205C061E0CE0101960E9418
:1014A000A60981E090E00F90DF91CF9108958F928F
:1014B0009F92AF92CF92EF92FF920F931F93CF9391
:1014C000DF93EC01262F898D9A8D009709F042C099
:1014D0006A3059F41D861C862D898E859F8538E0DB
:1014E000239F800D911D112443C06D3009F4AAC0C3
:1014F0008F898823C9F03C898C859D8546E0349F7F
:10150000800D911D1124488559854817590764F4A9
:101510001D861C863D898E859F8548E0349F800D01
:10152000911D11249F878E87EA88FB880889198975
:101530004E855F856C857D85AD88CC88CE010E9407
:10154000891E2C898C859D8536E0239F800D911DF9
:1015500011243EC06A3079F41D861C862D89FC0159
:101560003696E4918E859F852E9F800D911D1124C6
:101570009F878E8767C06D3009F464C0FC01349684
:101580003491631708F45EC03196E491E61708F4CD
:1015900059C0462F431B342FFC01329685909490FE
:1015A00047E0349F800C911C1124F4013296349151
:1015B0003196E491332311F0E1110DC0F40134961A
:1015C000E4912C898C859D85E29F800D911D1124CD
:1015D0009D878C8737C0F401359644915F895523E8
:1015E00019F15C89E32FF0E0E40FF11D47FDFA9556
:1015F0005E9FB0015F9F700D11244C855D85460F85
:10160000571F688579856417750774F41D861C86D5
:101610003D89FC013696E4918E859F853E9F800D25
:10162000911D11249F878E87EA88FB880889198974
:101630004E855F856C857D85AD88CC88CE010E9406
:10164000891EBCCF81E090E0DF91CF911F910F9177
:10165000FF90EF90CF90AF909F908F900895EF9272
:10166000FF920F931F93CF93DF93FB0120812138CB
:1016700051F52381223239F5DC0112962C9130E0AC
:101680004481558142175307F1F4EC010B851C8509
:10169000E12CF12C0115110591F0F80144815581DF
:1016A0006281738180E80E9433118F3FFFEF9F07B3
:1016B00069F0E80EF91ED8010D911C91EBCF81E085
:1016C0008F87C70105C080E090E002C08FEF9FEFD9
:1016D000DF91CF911F910F91FF90EF900895CF93DD
:1016E000DF93CDB7DEB769970FB6F894DEBF0FBEB4
:1016F000CDBFFC01DB018C918F5F8C93BE016F5FCE
:101700007F4F89E1DB011D928A95E9F729E0298362
:1017100084E08A8391E09D8383E08E832A8721E29F
:101720002B879C879D879F8722E2288B27E02B8B26
:1017300025E02C8B8E8B20E430E0388F2F8B998F17
:1017400082818B8395858685998B8A8B838180683E
:101750008D8B49E150E080E00E94331169960FB60D
:10176000F894DEBF0FBECDBFDF91CF910895EF9209
:10177000FF921F93CF93DF93EC01162F683818F078
:10178000E8E7E60F23C0E62FF0E067FF0DC0E05862
:10179000F10981E090E001C0880FEA95EAF79C81A9
:1017A000892B8C83E0E012C0E653FF4FE491E111F6
:1017B00007C081E090E09B838A83E12CF12C3CC040
:1017C000E7FF04C08C8182608C83EF778E818E1757
:1017D00039F18F81E81721F18885E81709F18985AA
:1017E000E817F1F08A85E817D9F08B85E817C1F082
:1017F000DE01169680E090E02D91211106C0DE01F9
:10180000A80FB91F1696EC930BC001968630910570
:1018100099F781E090E09B838A83E12CF12C07C04B
:10182000CE0104960E945D1EEE24E394F12C18383C
:1018300018F0E8E7E10F1DC0E12FF0E017FF0EC040
:10184000E058F10981E090E001C0880FEA95EAF7DD
:1018500080959C8189238C83E0E00BC0E653FF4F89
:10186000E491EE23D1F0E7FF04C08C818D7F8C835F
:10187000EF77DE0186E0EE2341F016969C911697F5
:10188000E91303C016961C92169781501196811188
:10189000F2CFCE0104960E945D1EC701DF91CF9169
:1018A0001F91FF90EF90089508958EBD00000DB434
:1018B00007FEFDCF8EB508958CBD9DBD0895CF93D5
:1018C000DF93EC01CE3F8FEFD80781F0EA81FB81F7
:1018D0003E96259134912115310521F08E819F810D
:1018E000F90109958E819F810E9430318885998503
:1018F000DF91CF910C943031DB01ED91FC913C965E
:10190000259134912115310529F0FB016481758100
:10191000F901099408951F920F920FB60F921124A6
:101920002F933F934F935F936F937F938F939F93E7
:10193000AF93BF93EF93FF938091B900887F803678
:1019400009F49CC068F5883209F45BC090F48031DA
:1019500009F454C038F4882309F4F6C0883009F437
:101960004DC0F6C0883109F44CC0803209F45DC026
:10197000EFC0803409F468C048F4803309F455C0DE
:10198000883309F0E5C080938D02D8C0803509F412
:101990004FC0883509F45DC0883409F0D9C0D6C07D
:1019A000883909F4C7C0A8F4883709F467C038F447
:1019B000883609F463C0803709F460C0C9C088382C
:1019C00009F4B8C0803909F45FC0803809F0C0C09C
:1019D0005BC0803B09F486C038F4803A09F466C0E5
:1019E000883A09F47FC0B4C0803C09F4A7C0883CA1
:1019F00009F4A4C0883B09F48AC0AAC08091B3024C
:101A000010C09091B2028091B102981770F5E091E8
:101A1000B20281E08E0F8093B202F0E0EF56FD4FEC
:101A200080818093BB0085EC86C080938D028EC040
:101A3000E091B20281E08E0F8093B2028091BB00F0
:101A4000F0E0EF56FD4F80839091B2028091B10299
:101A50006EC0E091B20281E08E0F8093B20280915D
:101A6000BB00F0E0EF56FD4F808380919002811122
:101A70006DC081E080938F0284EA61C083E080932F
:101A80008E021092F602CFCF8091F602803208F0DB
:101A900051C0E091F60281E08E0F8093F6028091B2
:101AA000BB00F0E0EA52FD4F8083BDCF85EC809310
:101AB000BC0010928E028091F602803230F4E091E8
:101AC000F602F0E0EA52FD4F10826091F60270E0FB
:101AD000E0918B02F0918C0286ED92E009951092D4
:101AE000F60236C084E080938E021092D5021092E6
:101AF000D402E0918902F0918A0209958091D40282
:101B0000811105C081E08093D4021092B402E0916B
:101B1000D50281E08E0F8093D502F0E0EC54FD4FAA
:101B200080818093BB009091D5028091D402981758
:101B300008F479CF85E88093BC000AC085EC8093D7
:101B4000BC0010928E0204C010928D020E949C096B
:101B5000FF91EF91BF91AF919F918F917F916F9185
:101B60005F914F913F912F910F900FBE0F901F905B
:101B7000189561E00C9491141F93CF93DF93FC01AF
:101B8000858D968D009701F1162FEF0161A10E94BE
:101B9000EC148D8D9E8DDC01ED91FC910190F08116
:101BA000E02D60E009958D8D9E8DDC01ED91FC911D
:101BB0000190F081E02D612F09958D8D9E8DDF9133
:101BC000CF911F910C94B90DA5A5B6A59C9183A9A1
:101BD000809589238C93838D948D892B31F0862F6A
:101BE000DF91CF911F910C94550C28E030E080E8F4
:101BF000A1A5B2A591A9462F482319F04C91942B89
:101C000003C04C91909594239C93A3A5B4A54C91AB
:101C100092A9942B9C93A3A5B4A54C9192A99095BD
:101C200094239C9386952150310911F7DF91CF9130
:101C30001F910895409105035091060320910303DD
:101C40003091040342175307B4F49091E800957063
:101C5000E1F39091E80092FD19C08093F10080912A
:101C600005039091060301968F739927892B19F428
:101C70008EEF8093E8008091050390910603019612
:101C8000909306038093050381E0089580E0089512
:101C90002FB7F89487708093E9009091E800892F1E
:101CA000807295FF04C09091F20080E4891B2FBFE1
:101CB0000895615030F02091F100FC0120830196DD
:101CC000F8CF289884E6809362040895CF92DF923B
:101CD000EF92FF920F931F93CF93DF936C017A01E2
:101CE0008B01C0E0D0E0CE15DF0581F0D8016D9109
:101CF0008D01D601ED91FC910190F081E02DC6019E
:101D00000995892B11F02196EECF7E01C701DF9155
:101D1000CF911F910F91FF90EF90DF90CF9008959A
:101D2000CF93DF931F92CDB7DEB76983DC01ED91CE
:101D3000FC910280F381E02D41E050E0BE016F5F35
:101D40007F4F09950F90DF91CF91089583E08093A5
:101D5000E9008091F200882319F08AE38093E8007B
:101D6000089583E00E94480E90E00895FC01848568
:101D7000958597FD0BC09FB7F89482E08093E900AA
:101D80008091F2009FBF90E0019608959FB7F8946C
:101D900082E08093E9008091F2009FBF90E0089577
:101DA000FC0177FDB9C080859185681779070CF033
:101DB000B3C057FDB1C082859385481759070CF011
:101DC00008958689823079F484819581DC01A61B8F
:101DD000B70BBD016150710986819781DC01A41B9D
:101DE000B50BAD010EC0833009F084C064277527A0
:101DF000CA01862797276827792746815781481B7C
:101E0000590B415051092130310531F048F1223050
:101E1000310509F44AC00895CA0157FD07969C018F
:101E2000A3E035952795AA95E1F7A481B5812A9F6E
:101E3000C0012B9F900D3A9F900D1124680F791FC0
:101E4000078CF0A1E02DE60FF71F4770552781E0C2
:101E500090E001C0880F4A95EAF79081892B48C02D
:101E6000CA0157FD07969C0193E0359527959A95F1
:101E7000E1F7A481B5812A9FC0012B9F900D3A9F65
:101E8000900D1124680F791F078CF0A1E02DE60F4B
:101E9000F71F4770552781E090E001C0880F4A95F1
:101EA000EAF780959081892323C0CA0157FD0796E0
:101EB0009C0183E0359527958A95E1F7A481B5814A
:101EC0002A9FC0012B9F900D3A9F900D1124680FFF
:101ED000791F078CF0A1E02DE60FF71F47705527FB
:101EE00081E090E001C0880F4A95EAF79081892748
:101EF00080830895813009F086CF642775274627AF
:101F000057276427752784819581DC01A61BB70BB1
:101F1000BD016150710977CF08950F931F93CF933F
:101F2000DF931F92CDB7DEB78C01FC0184859585C8
:101F300097FF0EC0CE0101960E94D921019719F496
:101F4000898190E002C08FEF9FEFF8019587848729
:101F5000F801848595850F90DF91CF911F910F91A6
:101F60000895CF93DF931F92CDB7DEB7FC01848530
:101F7000958597FD05C02FEF3FEF358724870BC070
:101F8000CE0101960E94D921019719F4898190E030
:101F900002C08FEF9FEF0F90DF91CF9108951F93B5
:101FA000CF93DF93EC01162F8D8D9E8D892BB1F091
:101FB0002FA938AD49AD5AAD60E074E284EF90E0EE
:101FC0000E943930DA01C9014097A109B109B695DB
:101FD000A795979587958093B8000FC08B8D9C8DA2
:101FE000892B21F08DA99EA90E945C0CEFA5F8A970
:101FF00090818CA9809589238083111102C066EAA3
:1020000001C067EACE010E94BC0D8D8D9E8D892B8B
:10201000B1F02BAD3CAD4DAD5EAD60E074E284EF50
:1020200090E00E943930DA01C9014097A109B10955
:10203000B695A795979587958093B8000FC0EFA5A3
:10204000F8A990818CA9892B80838B8D9C8D892BFD
:1020500029F0DF91CF911F910C94540CDF91CF9117
:102060001F9108950F931F93CF93DF93DC01569632
:10207000EC915697E23071F0E330E9F0E13079F518
:10208000FB0114960D90BC91A02DA41BB50BA21BB7
:10209000B30B18C0EC01EC81FD81E61BF70BBF010F
:1020A00061507109EE81FF81DF01A41BB50BAD0109
:1020B000421B530B14C0DA01EC01EE81FF81E61BD9
:1020C000F70B3197F7FD0DC0EC014E815F81E417EE
:1020D000F5073CF4AF01BD010E94BD2002C00E9483
:1020E0002421DF91CF911F910F9108950F931F939A
:1020F000DC015696EC915697E23061F0E33009F13D
:10210000E13081F51496ED91FC911597E41BF50BE8
:10211000319723C0DC011496ED91FC911597DF01F6
:10212000A61BB70BBD01DC011696ED91FC9117972C
:10213000DF01A41BB50BAD0141505109621B730BAC
:1021400011C0FA01DC0116964D915C911797DA01E6
:10215000A61BB70BBD01621B730BAB01BF010E9435
:1021600024210CC057FD0AC0DC011696ED91FC91AC
:1021700017974E175F0714F40E94BD201F910F910F
:1021800008951F920F920FB60F9211248F939F9371
:102190008091E1009091E100937F9093E10083FFB3
:1021A0000FC01092E90091E09093EB001092EC00C8
:1021B00092E39093ED001092630498E09093F00006
:1021C00082FF20C093E09093E9009091F200992360
:1021D00019F09AE39093E80090910803992339F05D
:1021E00090910803915090930803992389F190915D
:1021F0006204992339F090916204915090936204A3
:10220000992341F184FF10C08091E2008E7E8160AD
:102210008093E2008091E1008F7E8093E1008091C5
:1022200009038E7E806111C080FF16C08091E2009C
:102230008E7E80618093E2008091E1008E7E8093AB
:10224000E100809109038E7E81608093090304C0C0
:102250005D9ACDCF289AD6CF9F918F910F900FBEC8
:102260000F901F901895DF92EF92FF920F931F939C
:10227000CF93DF93D82E8A017B01E40EF51EEB018C
:10228000CE15DF0571F0D7FE03C0FE01849101C0B9
:1022900088810E941A0E21968111F2CF8FEF9FEF55
:1022A00001C0C801DF91CF911F910F91FF90EF9076
:1022B000DF9008957F928F929F92AF92BF92CF92BC
:1022C000DF92EF92FF920F931F93CF93DF93C82E6D
:1022D0008B017A0180916304811103C08FEF9FEF1E
:1022E00074C08091090380FF05C08091E000826086
:1022F0008093E000CE2DDF2DD12C8AEFB82E8C2DCF
:102300008770982E8C2D8072882E8C2D8074782E5C
:102310009AE3A92E209719F4DD2009F451C08C2DE1
:102320000E94480E81110AC0BA94BB20B9F261E044
:1023300070E080E090E00E94AF22ECCF282F30E0E8
:10234000C217D3070CF48C2F9FB7F8949092E90032
:102350002091E80025FF32C0282F30E0C21BD30BAC
:10236000882029F08150A0F01092F100FBCFF801F5
:10237000C7FE0AC0815050F044914093F10031965D
:10238000F9CF41914093F1008150D8F7020F131F0C
:10239000DD2019F0A092E8000AC08091E80085FDD8
:1023A00008C0A092E800DD24D394209739F0D12C06
:1023B00005C0209719F47110A092E8009FBFAACF22
:1023C0005D9884E680930803C701DF91CF911F9148
:1023D0000F91FF90EF90DF90CF90BF90AF909F90C4
:1023E0008F907F900895CF93DF93EC0180910B0144
:1023F000882331F083E00E945A111816190634F030
:1024000081E090E09B838A8380E090E0DF91CF9130
:1024100008958091FB0281110DC082E08093F70244
:1024200084E08093F8021092FA021092F90281E09F
:102430008093FB0287EF92E008950F931F93CF9351
:10244000DF931F92CDB7DEB782E0898342E450E08C
:102450006AE471E080E80E9433110E940912DC01F5
:1024600012960D911C9113970115110589F0D80151
:10247000ED91FC910280F381E02DBE016F5F7F4FF3
:10248000C801099597FD04C0F80100851185ECCFBE
:1024900089810F90DF91CF911F910F9108951F9225
:1024A0000F920FB60F921124CF92DF92EF92FF920C
:1024B0000F931F932F933F934F935F936F937F934C
:1024C0008F939F93AF93BF93EF93FF93CF93DF933C
:1024D000CDB7DEB76C97DEBFCDBF1092E90080911B
:1024E000E80083FFFBC168E0CE0145960E94590ECB
:1024F00082EF8093E8008D8987FF05C09091E80006
:1025000090FFFCCF03C09EEF9093E800982F907649
:1025100009F0C6C09E894F89588D2F89F88C91117A
:102520000CC0803829F480910A038093F10002C026
:102530001092F1001092F10045C1913051F48111D7
:1025400041C14130510509F03DC180910A038D7FA1
:102550000BC0933061F4811135C14130510509F050
:1025600031C180910A03826080930A032BC19530A8
:1025700049F48091E80080FFFCCF822F806880932F
:10258000E30020C1963009F05EC00B8D1C8D22E067
:102590001092E9001092060310920503F21232C065
:1025A00010920403109203030E941D1299E0BE01D1
:1025B0006F5F7F4FDB01E92F1D92EA95E9F7998361
:1025C000FA8291E09E8390EA98879AEF998720910A
:1025D000050330910603275F3F4F3C832B838D8398
:1025E0001092E90010920603109205031093040361
:1025F0000093030349E050E080E00E9433110E9401
:102600001D12E0C010930403009303030E940912FB
:10261000DC0112960D911C9113970115110509F417
:10262000BBC0D801ED91FC910480F581E02DBE0185
:102630006B5E7F4FC8010995009709F0C7C0F8018C
:1026400000851185EACF973009F445C1983021F40F
:1026500081E08093F100B6C0993009F0B3C0837077
:1026600009F039C1EDE3F1E081E031E096E320814A
:10267000211109C08EE78093EA001092EA008F8949
:10268000809363049FC08093E9003093EB00219115
:102690002093EC009093ED008F5F873041F7EACFF5
:1026A0008B8D9C8D1092E900109206031092050309
:1026B0009093040380930303898D811153C08E8905
:1026C0009D89913A49F4813209F005C147E050E013
:1026D00064E071E080E0BBC0913209F0FCC083325D
:1026E00069F48F89988DA0E0B0E080930001909309
:1026F0000101A0930201B093030164C0803269F428
:102700008091E80082FFFCCF67E084E091E00E94C6
:10271000590E8BEF8093E80055C0823209F052C009
:102720008F8980930B01EEEFFFE7859194918B3FAA
:102730009C4D19F0E0E0F8E002C0EEEFFAE0809185
:10274000040190910501A0910601B0910701803B21
:102750009440A105B10509F09EC080910B0180FF56
:1027600079C099C00E940912FC01028113810115F0
:10277000110509F4B0C0D801ED91FC910190F081F0
:10278000E02DBE016B5E7F4FC801099581111AC013
:10279000F80100851185EBCFF1E0FF1609F44EC07A
:1027A000F3E0FF1298C08F89882309F44AC0823071
:1027B00089F440E860E18EEA91E00E945129882383
:1027C00009F489C08EEF8093E80088C018161906B6
:1027D000CCF381C0813029F440E86BE082EA91E0DB
:1027E000ECCF833009F077C00E940912DC01129609
:1027F000ED90FC9013978E010F5F1F4F6801E1145D
:10280000F10479F0D701ED91FC910680F781E02D7C
:10281000B801C7010995080F111DF701E084F18483
:10282000EECFD8011C92F60101900020E9F7319714
:10283000BF016C197D0940E0C601BFCF60E971E0BE
:1028400002C06CE871E0FB01449150E080E80E9416
:102850003311B8CFEE3F2AE0F20751F08081918129
:102860008737A7E79A0721F09093FF0A8093FE0A23
:1028700087E797E7918380838091600080930703C7
:102880009BE088E10FB6F894A895809360000FBE96
:102890009093600097CF808191818737974709F0A7
:1028A00091CFA895809160008861809360008091AD
:1028B000070380936000EE3FBAE0FB0739F0809198
:1028C000FE0A9091FF0A918380837CCF1092FF0AC9
:1028D0001092FE0A77CF81E28093EB006C960FB6E0
:1028E000F894DEBF0FBECDBFDF91CF91FF91EF9186
:1028F000BF91AF919F918F917F916F915F914F9118
:102900003F912F911F910F91FF90EF90DF90CF900B
:102910000F900FBE0F901F901895089580E090E0E3
:10292000089530918702313208F04AC080918E02BA
:102930008111FCCF9091830322E020938E0260935B
:1029400090022FEF20938D021092B2023093B102C9
:10295000E4E4F2E0A1E9B2E020E0321721F0419195
:102960004D932F5FFACF1092B3022091B302990FCB
:10297000922B9093B30290918F02913061F4109258
:102980008F029091B3029093BB009091BC0093FD95
:10299000F8CF95EC01C095EE9093BC0090918E021B
:1029A0009230E1F390918D029F3F79F080918D02FA
:1029B000803241F080918D02803331F084E005C097
:1029C00081E003C082E001C083E01092880210928F
:1029D000870210926402089581E0809364026093FC
:1029E0008303109288021092870208951092860243
:1029F00010928502109288021092870210928E0225
:102A000081E08093900210928F0261E082E00E9448
:102A1000442261E083E00E944422E9EBF0E08081FF
:102A20008E7F808380818D7F808388E48093B8004F
:102A300085E48093BC008EEC99E090938A028093A9
:102A400089028FEC99E090938C0280938B02089519
:102A500060E58DEF93E00E94EC148DEF93E00E940F
:102A6000B90D91E0811190E0892F08958F929F9286
:102A7000AF92BF92CF92DF92EF92FF920F931F938C
:102A8000CF93DF93CDB7DEB72B970FB6F894DEBFA9
:102A90000FBECDBF00910B0310910C030E942815AF
:102AA000882309F481C046E0000F111F4A95E1F721
:102AB00060E58DEF93E00E94EC14C801110FAA0BA2
:102AC000BB0B692F7A2F8B2F992787FD9A958DEF56
:102AD00093E00E94280A602F8DEF93E00E94280A5D
:102AE00061E08DEF93E00E9491140DE013E0FF246C
:102AF000F394EE24EA9465EED62E75ECC72E809101
:102B00008E028111FCCFF0928E02F0929002E09240
:102B10008D021092B2021092B102F092B302809133
:102B2000B302806A8093B30280918F02813069F48E
:102B300010928F028091B3028093BB008091BC0001
:102B400083FDF8CFC092BC0002C0D092BC0080913F
:102B50008E028130E1F38091B202811103C0909125
:102B6000B20201C091E0A1E9B2E0E5E6F2E080E066
:102B7000891721F02D9121938F5FFACF1092860251
:102B8000809385028DEF93E00E94DF09F801819325
:102B90008F01F3E00D341F0709F0B1CF61E08DEF35
:102BA00093E00E9491140EC00E94B11985EB91E050
:102BB0000E94E3190E94941A68EC70E080E090E0B3
:102BC0000E94AF223DE3C32E33E0D32E6DE473E0C9
:102BD000ADE5B3E084E893E09601F90141919F01EE
:102BE000FB014193BF014C911296FC014193CF012F
:102BF000F3E06D357F0789F7CE0101960E94391CFD
:102C0000811131C00B8510E0000F111F035F1C4FB5
:102C100022E0E22EF12C8B855801A81AB108BE01E2
:102C20006D5F7F4FC8010E947C0C4B8550E0B50161
:102C3000C8010E9400298B85081B110941E0E41A94
:102C4000F10849F7BE016D5F7F4FC8010E947C0CFF
:102C50004B8550E06DE473E0C8010E940029CE016D
:102C600001960E945F0C0DE013E078018EE5882E3E
:102C7000912CA12CB12CF701808180528F3560F00E
:102C80000E94B02FA50194010E940730FB01E55876
:102C9000F94F6491F7016083FFEFEF1AFF0ACE143A
:102CA000DF0449F78CE291E0ACE1B1E06CE071E067
:102CB0002DE133E0F80141918F01FC014193CF01F7
:102CC000F80147854D93478DFB014193BF012017C4
:102CD000310781F72B960FB6F894DEBF0FBECDBF3C
:102CE000DF91CF911F910F91FF90EF90DF90CF90E8
:102CF000BF90AF909F908F900895CF93DF930E94E5
:102D0000B119C9E0D4E08AE190E09D878C8788E022
:102D100090E09F878E8782ED91E00E94E31983E225
:102D200090E09D878C8788E190E09F878E8781EE79
:102D300091E00E94E3198DE190E09D878C8782E20B
:102D400090E09F878E878DEE91E00E94E319DF91DE
:102D5000CF910C94941A0F931F93CF93DF930E94FB
:102D6000B11985E290E0909316048093150488E3EE
:102D700090E090931804809317048BEF91E00E94E9
:102D8000E31980910B0390910C0301960E940B1C98
:102D900081E092E00E94E31910921604109215044B
:102DA000109218041092170485E092E00E94E31933
:102DB000CCE2D1E089910E94C51B81E0CA33D807DB
:102DC000C9F7109216041092150488E090E09093D1
:102DD0001804809317048DE092E00E94E319CCE17F
:102DE000D1E089910E94C51B81E0CA32D807C9F79A
:102DF000109216041092150480E190E0909318044C
:102E00008093170485E192E00E94E319CCE0D1E0C1
:102E10000AE111E089910E94C51B0C171D07D1F72B
:102E2000109216041092150400E210E0109318049A
:102E3000009317048DE192E00E94E31910921604AA
:102E400010921504C8E2D0E0D0931804C093170480
:102E500082E292E00E94E3198FE590E090931604DD
:102E600080931504109318040093170487E292E0EE
:102E70000E94E3198CE590E090931604809315046A
:102E8000D0931804C093170481E080931D048093AD
:102E90001E048DE292E00E94E319DF91CF911F9111
:102EA0000F910C94941A0E94B11980917D03909116
:102EB0007E030E940B180C94941AAF92BF92CF928B
:102EC000DF92EF92FF920F931F93CF9390E2E92E40
:102ED000F12C2CE1C22ED12CC1E001E010E08430B5
:102EE00009F479C080F5823009F440C0833009F0DC
:102EF00088C064E670E080E090E00E94AF2210920B
:102F00000C0310920B030E94B119F0921604E09288
:102F10001504D0921804C0921704C0931D04C093E6
:102F20001E0410931C0400931B0410931A040093B6
:102F3000190484E392E00E94E3190E94941A83E04A
:102F4000A82EB12C1EC0853009F450C0863009F07F
:102F500058C00E94B119CF911F910F91FF90EF902F
:102F6000DF90CF90BF90AF900C94941ACF911F91A7
:102F70000F91FF90EF90DF90CF90BF90AF900C94A7
:102F8000531768EC70E080E090E00E94AF228EE37F
:102F900092E00E94E3190E94941A81E0A81AB108F5
:102FA00081F70E94361564EF71E080E090E00E94A6
:102FB000AF22809181038F5F8093810310931C0463
:102FC00000931B0410931A0400931904C0931D046A
:102FD000C0931E0484CFCF911F910F91FF90EF906B
:102FE000DF90CF90BF90AF900C94AB16CF911F9114
:102FF0000F91FF90EF90DF90CF90BF90AF900C9427
:103000007D16CF911F910F91FF90EF90DF90CF90A1
:10301000BF90AF9008952F923F924F925F926F9220
:103020007F928F929F92AF92BF92CF92DF92EF9258
:10303000FF920F931F93CF93DF9300D000D0CDB7B3
:10304000DEB79A83898380917F03909180038230D9
:103050009105A1F13CF4009709F48EC0019709F4A1
:103060005CC062C140970CF05FC10E94B1198AE058
:1030700090E0909316048093150487E190E090937C
:1030800018048093170483E080931D0480931E042A
:1030900081E090E090931C0480931B0490931A04A9
:1030A00080931904E0917F03F0918003EE0FFF1FDE
:1030B000E95AFC4F808191810E940B1C80917F0313
:1030C00090918003029711F40E94B1198BE290E075
:1030D000909316048093150487E190E09093180470
:1030E0008093170483E080931D0480931E0481E085
:1030F00090E090931C0480931B0490931A04809397
:103100001904E0917F03F0918003EE0FFF1FE75A4F
:10311000FC4F808191810E940B1C80917F039091D4
:103120008003019711F40E94B1198CE490E0909310
:1031300016048093150487E190E09093180480931F
:10314000170483E080931D0480931E0481E090E0C7
:1031500090931C0480931B0490931A048093190489
:10316000E0917F03F0918003EE0FFF1FE55AFC4FC3
:10317000808191810E940B1C01E010E029E330E086
:1031800044E050E06FE770E089E094E00E9461085D
:103190005CE1652E712C44244394512CE12CF12CDC
:1031A0008CE190E09C838B8378EC272E33243A9437
:1031B000E5EECE2EDD24DA948FEFE81AF80A92E0DD
:1031C000490E511CC40CD51C8B819C818E159F050A
:1031D000BCF14C01880C991C9FEF891A990A01E0F7
:1031E00010E0940140E2A42EB12C8B819C81A81A9E
:1031F000B90AA501B70161587F4F89E094E00E94A8
:1032000061089401A5016FE770E06E197F0989E0FC
:1032100094E00E9461088B819C8186159705A9F432
:103220008B819C81E816F9068CF5D7FCC5CF0197F8
:103230009C838B8392E0290E311CC20CD31CBCCF23
:103240008B819C818615970509F1B30161587F4FE9
:1032500001E010E0420192E0891A9108940181E2B4
:10326000A82EB12CAE18BF08A50189E094E00E94F9
:1032700061086FE770E0661977099401A50189E09C
:1032800094E00E9461086B807C80CACF8EE690E05B
:10329000909316048093150487E190E090931804AE
:1032A0008093170483E080931D0480931E04109282
:1032B0001C0410921B0410921A04109219048981A4
:1032C0009A816C01990FEE08FF08F7FE0CC08DE2A1
:1032D0000E94C51B66277727CB016C197D098E09D3
:1032E0009F094AE003C04AE0C701B6010E94CA1B19
:1032F00080E492E00E94D1190F900F900F900F90F0
:10330000DF91CF911F910F91FF90EF90DF90CF90C1
:10331000BF90AF909F908F907F906F905F904F90F5
:103320003F902F900C94941A809181038F5F80932B
:1033300081030F900F900F900F90DF91CF911F910D
:103340000F91FF90EF90DF90CF90BF90AF909F9044
:103350008F907F906F905F904F903F902F900C9444
:103360005D1720910F0430911004C901079697FD55
:10337000079623E0959587952A95E1F720910D040E
:1033800030910E04829FA001839F500D929F500D9B
:10339000112460E070E080912804909129040C943D
:1033A000C231009769F0FC0101900020E9F73197E4
:1033B000AF01481B590BBC0189E094E00C94660EE8
:1033C00080E090E008950C94D119DF92EF92FF9283
:1033D0000F931F93CF93DF93D82ED92FC62F8091B1
:1033E000260490912704009709F44EC060912A04A6
:1033F0000E94EC148091260490912704DC01ED9149
:10340000FC910190F081E02D60E00995ED2CFD2EFE
:1034100011E08091260490912704CC2361F11032B1
:10342000B8F00E94B90D60912A0480912604909111
:1034300027040E94EC148091260490912704DC015B
:10344000ED91FC910190F081E02D60E0099511E093
:103450008091260490912704F7016491DC01ED919D
:10346000FC910190F081E02D09951F5FC150BFEFE5
:10347000EB1AFB0ACECFDF91CF911F910F91FF90F6
:10348000EF90DF900C94B90DE0913604F091370481
:10349000908180913C048095892380830D2D1D2F80
:1034A000CC2309F439C0F80184912091240430918F
:1034B0002504232B31F00E94550CC1500F5F1F4F84
:1034C000EFCF28E030E040E8E0913204F09133049F
:1034D00090913A04582F542319F05081952B03C032
:1034E0005081909595239083E0913404F0913504B8
:1034F000508190913B04952B9083E0913404F0919E
:103500003504508190913B04909595239083469586
:1035100021503109C9F6D1CFDF91CF911F910F9181
:10352000FF90EF90DF900895EF92FF920F931F931B
:10353000CF93DF938091260490912704892BD1F0BB
:103540002091400430914104409142045091430441
:1035500060E074E284EF90E00E943930DA01C90142
:103560004097A109B109B695A7959795879580933E
:10357000B80016C08091240490912504892B31F065
:1035800080913E0490913F040E945C0CE0913804CD
:10359000F0913904908180913D0480958923808346
:1035A00065E083E697E00E94E51960910D046150A3
:1035B00089E094E00E94BC0D20910F04309110042A
:1035C000C901079697FD079633E0959587953A953B
:1035D000E1F720910D0430910E04829F8001839FBA
:1035E000100D929F100D1124C0912804D091290430
:1035F00080912604909127040C0F1D1F009709F459
:1036000045C060912A040E94EC1480912604909198
:103610002704DC01ED91FC910190F081E02D60E444
:1036200009957E01D1E080912604909127040E1522
:103630001F0549F1D032B8F00E94B90D60912A04FB
:1036400080912604909127040E94EC148091260416
:1036500090912704DC01ED91FC910190F081E02D27
:1036600060E40995D1E08091260490912704F70148
:1036700061917F01DC01ED91FC910190F081E02DE1
:103680000995DF5FD0CF0E94B90D41C0E0913604AB
:10369000F0913704908180913C04892B8083C0177E
:1036A000D107A9F189912091240430912504232B7D
:1036B00019F00E94550CF3CF28E030E040E8E0918B
:1036C0003204F091330490913A04582F542319F0A6
:1036D0005081952B03C05081909595239083E09164
:1036E0003404F0913504508190913B04952B9083E4
:1036F000E0913404F0913504508190913B04909511
:1037000095239083469521503109C9F6C8CF809101
:10371000260490912704892BD1F020914404309104
:103720004504409146045091470460E074E284EF00
:1037300090E00E943930DA01C9014097A109B1092E
:10374000B695A795979587958093B80017C0E09197
:103750003804F0913904908180913D04892B808355
:103760008091240490912504892B41F0DF91CF9121
:103770001F910F91FF90EF900C94540CDF91CF911B
:103780001F910F91FF90EF900895682F89E094E0CA
:103790000C94570A8F929F92AF92BF920F931F93F0
:1037A000CF93DF93CDB7DEB7A1970FB6F894DEBF06
:1037B0000FBECDBF19A2423008F44AE08E010F5D62
:1037C0001F4F842E912CA12CB12CA50194010E9495
:1037D0003930E62FB901CA0101501109EA3014F459
:1037E000E05D01C0E95CD801EC93232B242B252B51
:1037F00061F7C8010E94D119A1960FB6F894DEBFF7
:103800000FBECDBFDF91CF911F910F91BF90AF90B1
:103810009F908F900895CF92DF92EF92FF92CF9377
:10382000DF936C01990FEE08FF08F7FE17C08DE2D9
:103830000E94C51BEC0166277727CB016C197D0917
:103840008E099F094AE00E94CA1B8C0F9D1FDF91C1
:10385000CF91FF90EF90DF90CF9008954AE0C7019D
:10386000B601DF91CF91FF90EF90DF90CF900C9455
:10387000CA1BEF92FF920F931F93CF93DF93EC013C
:1038800081E597E099838883E7E5F7E08591949156
:10389000079623E0969587952A95E1F78A879927D9
:1038A0000E94983099878887892B09F456C0E1E6F1
:1038B000F7E08591949100E810E09C012F5F3F4F65
:1038C000FC014491442309F44AC0413091F402962A
:1038D000F9012491222349F0FC014591549102966B
:1038E000215040385105B1F73CC09C0122503109AC
:1038F00031C0423081F4F901459154919C012D5F12
:103900003F4FF901859194914138510518F5803860
:10391000910500F126C0433011F5F901459154910C
:10392000FC013396A591B491FC0135966591749193
:103930009C01295F3F4FF901E590F4904138510512
:1039400048F4A038B10530F0C8010E946A30E8168A
:10395000F90639F0C9010196B0CFC1E145C0C1E017
:1039600043C081E597E09B838A8380E890E09D8354
:103970008C83E0E0F0E01491E9E5F7E0E590F49065
:10398000E114F10489F480E190E00E9498309F8373
:103990008E83009731F120E1E4E8F3E0DC0101904F
:1039A0000D922A95E1F71BC0E5E5F7E0859194912A
:1039B0000E9498309F838E830097A9F0C12FC17019
:1039C00010FD06C0BC0184E893E0F70109950CC026
:1039D000AC0160E870E084E893E0F7010995C0E08D
:1039E00003C0C2E001C0C3E08C2FDF91CF911F91D3
:1039F0000F91FF90EF9008953F924F925F926F92D8
:103A00007F928F929F92AF92BF92CF92DF92EF926E
:103A1000FF920F931F93CF93DF9300D000D000D07D
:103A2000CDB7DEB72C013B014A015901C901079608
:103A300097FD07969C0193E0359527959A95E1F7B8
:103A40003C832B83C12CD12CE12CF12C312CC301D4
:103A50008E0D9F1D9A838983E016F106C4F51E82A0
:103A60001D822D813E812A153B054CF5C9018770C9
:103A70009927892B11F0330C0EC0ED81FE81F7FDE3
:103A8000379683E0F595E7958A95E1F7EC0DFD1DF6
:103A9000E80DF91D349037FE0CC021E030E049817B
:103AA0005A816D817E81640D751D89E094E00E94CC
:103AB0006D088D819E8101969E838D83D2CF9FEF6D
:103AC000E91AF90A2B813C81C20ED31EC0CF26967B
:103AD0000FB6F894DEBF0FBECDBFDF91CF911F911F
:103AE0000F91FF90EF90DF90CF90BF90AF909F909D
:103AF0008F907F906F905F904F903F900895CF93FD
:103B0000DF93E9E3F7E08491EAE1F7E0D491EBEFAA
:103B1000F6E0C491CC2391F081110E940722EC2F92
:103B2000F0E0EE0FFF1FEA51F94FA591B491EC912F
:103B3000ED2381E090E021F480E002C080E090E09D
:103B4000DF91CF9108950F931F9390E0FC01ED5EFC
:103B5000F84F6491FC01EC50F94FE491F0E0EE0F66
:103B6000FF1FEA51F94F8591949108EB18E820E086
:103B700030E040E00E940C29611571058105910536
:103B800049F0DC01CB010196A11DB11DBC01CD01A5
:103B90009F7003C060E070E0CB011F910F9108950A
:103BA00081E08093E8038093E9032EEE33E03093C5
:103BB000EB032093EA031092ED031092EC0321E54E
:103BC00031E03093E5032093E4031092F003109268
:103BD000EF031092F2031092F1038093F3038093AA
:103BE000F40381EC8093EE030E940912FC01218111
:103BF0008091E80390E0820F911D0897C4F5A2819F
:103C0000B381109729F484EE93E0938382830EC0EE
:103C100018968D919C911997009711F0DC01F8CFBF
:103C200084EE93E019969C938E93189780818093ED
:103C3000E60381818093E70390818091E903890FF6
:103C4000808380E09091E803891788F4A091EA03CB
:103C5000B091EB03A80FB11D9C91A181B0E0A45CD1
:103C6000BE4F9C9391819F5F91838F5FEBCF0895AF
:103C70003FB7F8948091690490916A04A0916B0415
:103C8000B0916C0426B5A89B05C02F3F19F0019692
:103C9000A11DB11D3FBFBA2FA92F982F8827820FD2
:103CA000911DA11DB11DBC01CD0142E0660F771F22
:103CB000881F991F4A95D1F708950F931F93CF93AB
:103CC000DF931F92CDB7DEB78C018091F503811190
:103CD00005C00E94D01D81E08093F50382E08983B6
:103CE00041E050E0BE016F5F7F4F8091E7030E948B
:103CF0005A1197FD08C08091E70348E050E0B801F1
:103D000080640E945A110F90DF91CF911F910F9103
:103D100008952F923F924F925F926F927F928F926F
:103D20009F92AF92BF92CF92DF92EF92FF920F934A
:103D30001F93CF93DF93CDB7DEB76B970FB6F89491
:103D4000DEBF0FBECDBF9B8F8A8F1B014A01D22ED3
:103D5000198708873701A982DC0159962D913C917A
:103D60005A972115310509F0FFC018968D919C9145
:103D70001997681779070CF0E7C11A968D919C91F5
:103D80001B97481759070CF0DFC1EC2DF0E0FB83BF
:103D9000EA839B0146E0C49E200D311D11243D871E
:103DA0002C87121613060CF0CFC16A2D70E07B87AA
:103DB0006A8783E0660F771F8A95E1F77F876E87B2
:103DC000CB01880D991D181619060CF0BDC1589627
:103DD0008C91811104C08FEA8D1508F4D394AA8DBB
:103DE000BB8DED91FC9111970284F385E02DCD01FF
:103DF0000995B5E0DB9EC0011124EC2DF0E0F98BB4
:103E0000E88B91012B5F3F4F3B8B2A8B3D822C82AD
:103E10002101AC01421953095D8B4C8B7981672FCD
:103E200070E07F8B6E8BC4010896998F888FEC8928
:103E3000FD89E40DF51DED53F84FD49054019F8298
:103E40008E82D0FE16C0AA8DBB8DED91FC91B1E0A3
:103E5000CB1209C02981213031F40484F585E02D8D
:103E60002885398519C00684F785E02DE884F98412
:103E70001DC0488559854615570519F1AA8DBB8D7A
:103E8000ED91FC91B1E0CB120DC02981213051F4AC
:103E90000484F585E02D9301A501B2018A8D9B8DE7
:103EA00009950FC00684F785E02D73010A851B85EF
:103EB0002A813B814E815F816C817D818A8D9B8DC2
:103EC0000995D6943FEFA31AB30A4E815F816E899C
:103ED0007F89460F571F5F834E83888D998DA81663
:103EE000B90609F0AECF9FEF491A590AAC81BD81DE
:103EF000E889F989AE0FBF1FBD83AC832A893B894E
:103F00004216530609F093CF488559854615570543
:103F100009F4F8C0AA8DBB8DED91FC91B1E0CB12F4
:103F200011C02981213071F4B1016B5F7F4F00888E
:103F3000F189E02D830128E030E0A4018A8D9B8D7A
:103F40000995E0C06C857D854A815B81641B750B9A
:103F50000684F785E02D73010E851F859A01A40163
:103F60008A8D9B8D0995CEC0F9013496E491DE1AB5
:103F7000F901329685919491B7E0DB9E800D911DF9
:103F80001124F901259134913B8B2A8BFC01259159
:103F900034915901FC0132965490319634913C870A
:103FA000329674903196149141E04C1518F0598175
:103FB000523068F0672D072C000C770B7D836C83E3
:103FC000812F012E000C990B9B838A8304C01B82D6
:103FD0001A821D821C82AA8DBB8DED91FC911197D6
:103FE0000284F385E02DCD010995412CD12C612C63
:103FF000F981EF2FF0E0FF83EE832C2D30E03B873B
:104000002A87A401410F511D17FD5A955F8B4E8BD6
:10401000B101670D711D77FC7A95798F688F7C856A
:10402000671608F06FC0262D30E04A815B81420F91
:10403000531FAE81BF81A49FC001A59F900DB49F67
:10404000900D1124F401E80FF91FF98BE88B842DF2
:10405000712C4E895F89420F531F5D8B4C8B7514F9
:1040600008F04DC051E0580F5E87877041F4C501DC
:104070000196EA89FB89EA0DFB1DD4905C01D7FE0D
:104080003AC061E0C61216C07981713099F4AA8DE8
:10409000BB8DED91FC9111970484F585E02D288569
:1040A00039854C895D89688D798D670D711DCD01CC
:1040B000099521C08C819D81870D911DEA85FB8525
:1040C0008E9FB0018F9F700D9E9F700D1124620D09
:1040D000731DAA8DBB8DED91FC9111970684F78518
:1040E000E02DE884F9840E811F812A853B8548896B
:1040F0005989CD010995DD0C73948E85B0CF450C9F
:1041000063948DCFAA8DBB8DED91FC91119706889C
:10411000F789E02DCD016B960FB6F894DEBF0FBE88
:10412000CDBFDF91CF911F910F91FF90EF90DF9066
:10413000CF90BF90AF909F908F907F906F905F9047
:104140004F903F902F9009946B960FB6F894DEBF76
:104150000FBECDBFDF91CF911F910F91FF90EF90D8
:10416000DF90CF90BF90AF909F908F907F906F9097
:104170005F904F903F902F9008950F931F93CF9390
:10418000DF9377FF04C0260F371F60E070E0DC018B
:104190001496CD91DC911597FB01E20FF31FCE171A
:1041A000DF071CF49E01261B370B121613060CF0BA
:1041B00046C0FA0157FD3796DF01E3E0B595A795B4
:1041C000EA95E1F7AC9FF001AD9FF00DBC9FF00DBB
:1041D00011246E0F7F1FDC015F96ED91FC9190978B
:1041E000E60FF71F4770552781E090E001C0880F68
:1041F0004A95EAF7482F0130110539F078F002307E
:104200001105E9F42E0F3F1F13C02E0F3F1FE217B9
:10421000F307A9F08081842B8193F9CF80952E0F2D
:104220003F1FE217F30759F0908198239193F9CF3C
:10423000E217F30721F0808184278193F9CFDF9182
:10424000CF911F910F910895EF92FF920F931F93BB
:10425000CF93DF93EC0177FDA5C0EC80FD806E1558
:104260007F050CF09FC057FF04C0240F351F40E0AE
:1042700050E08E819F81FA01E20FF31F8E179F0796
:104280001CF49C01241B350B121613060CF08AC07B
:10429000922F842F8695869586958E9DD0018F9D31
:1042A000B00D11246A0F7B1FAF8DB8A1A60FB71FE9
:1042B0004770B1F188E0841B482F682F70E0FB0144
:1042C000E554F84FE491281798F4621B71092FEF19
:1042D00030E002C0359527956A95E2F7E223013078
:1042E000110549F078F00230110509F05BC00EC0ED
:1042F0000130110519F48C91E82B0AC00130110529
:1043000008F049C0E0958C91E82302C08C91E82721
:10431000EC93941708F446C02C813D81A20FB31F83
:10432000E92FE41BE830F8F00230110561F48E2F1C
:104330009C9190959C932C813D81A20FB31F885036
:104340008830B0F70FC081E00115110509F480E055
:1043500081959E2F8C932C813D81A20FB31F985085
:104360009830C0F7E770EE23E9F0F0E0ED54F84F35
:10437000E4910130110539F048F00230110591F453
:104380008C91E82706C08C91E82B03C0E0958C91B6
:10439000E823EC9307C00230110509F4B7CFAE0D46
:1043A000BF1DBECFDF91CF911F910F91FF90EF9076
:1043B000089520916304211103C08FEF9FEF0895AA
:1043C0005FB7F89422E02093E9002091F20030E0FA
:1043D0001216130614F421E030E0422FFC0184E6AB
:1043E000415038F02898809362049091F1009193A5
:1043F000F7CF2115310521F08091F200882319F0C3
:104400005FBFC90108958BE68093E800F9CF90E083
:10441000FC013197EF30F105B0F5EA5AFF4F0C94EB
:104420009230809180008F7703C0809180008F7DD3
:1044300080938000089580918000877FF9CF84B5B4
:104440008F7702C084B58F7D84BD089580919000E0
:104450008F7707C0809190008F7D03C0809190007E
:10446000877F8093900008958091C0008F7703C06C
:104470008091C0008F7D8093C00008958091C2001C
:10448000877F8093C20008951F93CF93DF93282FD7
:1044900030E0F901EE5CF84F8491F901ED5EF84FE0
:1044A000D491F901EC50F94FC491CC23C1F0162FEF
:1044B00081110E940722EC2FF0E0EE0FFF1FEB5559
:1044C000F84FA591B4919FB7F894111104C08C9145
:1044D000D095D82302C0EC91DE2BDC939FBFDF91F7
:1044E000CF911F910895CF93DF9390E0FC01ED5E93
:1044F000F84F2491FC01EC50F94F8491882361F12D
:1045000090E0880F991FFC01E956F84FC591D491AE
:10451000FC01EB55F84FA591B491611109C09FB70B
:10452000F8948881209582238883EC912E230BC0F8
:10453000623061F49FB7F8948881322F30958323DD
:104540008883EC912E2B2C939FBF06C08FB7F894D5
:10455000E8812E2B28838FBFDF91CF9108958F9212
:104560009F92AF92BF92CF92DF92EF92FF926B0138
:104570007C010E94381E4B015C01C114D104E1048E
:10458000F104F1F00E94381EDC01CB018819990971
:10459000AA09BB09883E9340A105B10570F321E04B
:1045A000C21AD108E108F10888EE880E83E0981E4F
:1045B000A11CB11CC114D104E104F10419F7DDCF31
:1045C000FF90EF90DF90CF90BF90AF909F908F9033
:1045D00008951F920F920FB60F9211242F933F93BD
:1045E0008F939F93AF93BF938091650490916604DE
:1045F000A0916704B09168043091640423E0230F14
:104600002D3720F40196A11DB11D05C026E8230F0A
:104610000296A11DB11D20936404809365049093BC
:104620006604A0936704B093680480916904909134
:104630006A04A0916B04B0916C040196A11DB11D98
:104640008093690490936A04A0936B04B0936C0404
:10465000BF91AF919F918F913F912F910F900FBE7E
:104660000F901F901895000000000000000000004F
:10467000000000000000000000000000000000003A
:10468000000000000000000000000000000000002A
:10469000000000000000000000000000000000001A
:1046A000000000000000000000000000000000000A
:1046B00000000000000000000000000000000000FA
:1046C00000000000000000000000000000000000EA
:1046D00000000000000000000000000000000000DA
:1046E00000000000000000000000000000000000CA
:1046F00000000000000000000000000000000000BA
:104700004EE003C04CE001C04AE02F923F924F922E
:104710005F926F927F928F929F92AF92BF92CF9251
:10472000DF92EF92FF920F931F93CF93DF938F93BC
:104730009F93DB01FC01842F43954295A40FB11D8B
:10474000E89481909190A190B190C190D190E19026
:10475000F19001911191219131914191519161918A
:1047600071919BE10E9070250E9060250E90502562
:104770000E9040250E9030250E9020250E9010258D
:104780000E9000250E90F0240E90E0240E90D02480
:104790000E90C0240E90B0240E90A0240E90902471
:1047A0000E9080248A9509F46894FFE4E82D8490A3
:1047B000EC2DC490E02F0491E42F4491E52F249038
:1047C000E12F5491ED2D1491E92DD490922CE62FE8
:1047D0002490E22F3490EE2D6491EA2D2491E22C66
:1047E000A32CEB2D2490EF2DB490E32FF490E72F22
:1047F0003491722D0E9070250E9060250E905025EC
:104800000E9040250E9030250E9020250E901025FC
:104810000E9000250E90F0240E90E0240E90D024EF
:104820000E90C0240E90B0240E90A0240E909024E0
:104830000E9080242EF5FF91EF9181929192A1929A
:10484000B192C192D192E192F1920193119321938D
:1048500031934193519361937193DF91CF911F9164
:104860000F91FF90EF90DF90CF90BF90AF909F900F
:104870008F907F906F905F904F903F902F90089512
:10488000FAE42B2C2A24382C3924E22DE3254490F9
:10489000FBE4EA2DE82554905424EB2DE9250490FF
:1048A0004024682C6B24660C08F469266424B62422
:1048B0006A2C6924660C08F4692664249624220C68
:1048C00008F429262524A224330C08F4392635249B
:1048D0008324FAE42F2C2E243C2C3D24E22DE325C6
:1048E0004490FBE4EE2DEC2554905424EF2DED255F
:1048F000049040246C2C6F24660C08F46926642410
:10490000F6246E2C6D24660C08F469266424D624E3
:10491000220C08F429262524E224330C08F4392635
:104920003524C324FAE4232E2226302E3126E22D0C
:10493000E3254490FBE4E22FE02754905424E32F36
:10494000E12704904024602E6326660C08F4692653
:1049500064243625622E6126660C08F469266424D8
:104960001625220C08F4292625242225330C08F4C8
:10497000392635240325FAE4272E2626342E35261B
:10498000E22DE3254490FBE4E62FE42754905424E1
:10499000E72FE52704904024642E6726660C08F470
:1049A000692664247625662E6526660C08F4692639
:1049B00064245625220C08F4292625246225330C6C
:1049C00008F4392635244325EDCE00000000000010
:1049D00000000000000000000000000000000000D7
:1049E00000000000000000000000000000000000C7
:1049F00000000000000000000000000000000000B7
:104A00000009121B242D363F48415A536C657E77AE
:104A10009099828BB4BDA6AFD8D1CAC3FCF5EEE79E
:104A20003B3229201F160D04737A6168575E454C8E
:104A3000ABA2B9B08F869D94E3EAF1F8C7CED5DC7E
:104A4000767F646D525B40493E372C251A1308016E
:104A5000E6EFF4FDC2CBD0D9AEA7BCB58A8398915E
:104A60004D445F5669607B72050C171E2128333A4E
:104A7000DDD4CFC6F9F0EBE2959C878EB1B8A3AA3E
:104A8000ECE5FEF7C8C1DAD3A4ADB6BF8089929B2E
:104A90007C756E6758514A43343D262F1019020B1E
:104AA000D7DEC5CCF3FAE1E89F968D84BBB2A9A00E
:104AB000474E555C636A71780F061D142B223930FE
:104AC0009A938881BEB7ACA5D2DBC0C9F6FFE4EDEE
:104AD0000A0318112E273C35424B5059666F747DDE
:104AE000A1A8B3BA858C979EE9E0FBF2CDC4DFD6CE
:104AF0003138232A151C070E79706B625D544F46BE
:104B00000004080C1014181C2024282C3034383CC5
:104B10004044484C5054585C6064686C7074787CB5
:104B20008084888C9094989CA0A4A8ACB0B4B8BCA5
:104B3000C0C4C8CCD0D4D8DCE0E4E8ECF0F4F8FC95
:104B40001B1F13170B0F03073B3F33372B2F232755
:104B50005B5F53574B4F43477B7F73776B6F636745
:104B60009B9F93978B8F8387BBBFB3B7ABAFA3A735
:104B7000DBDFD3D7CBCFC3C7FBFFF3F7EBEFE3E725
:104B800036323E3A26222E2A16121E1A06020E0A25
:104B900076727E7A66626E6A56525E5A46424E4A15
:104BA000B6B2BEBAA6A2AEAA96929E9A86828E8A05
:104BB000F6F2FEFAE6E2EEEAD6D2DEDAC6C2CECAF5
:104BC0002D2925213D3935310D0905011D191511F5
:104BD0006D6965617D7975714D4945415D595551E5
:104BE000ADA9A5A1BDB9B5B18D8985819D999591D5
:104BF000EDE9E5E1FDF9F5F1CDC9C5C1DDD9D5D1C5
:104C00004EE003C04CE001C04AE02F923F924F9229
:104C10005F926F927F928F929F92AF92BF92CF924C
:104C2000DF92EF92FF920F931F93CF93DF938F93B7
:104C30009F93DB01FC01842FE89481909190A190D7
:104C4000B190C190D190E190F19001911191219199
:104C5000319141915191619171919BE1F1E50D90FB
:104C600080240D9090240D90A0240D90B0240D90E0
:104C7000C0240D90D0240D90E0240D90F0240D90D0
:104C800000250D9010250D9020250D9030250D90BC
:104C900040250D9050250D9060250D9070252EF526
:104CA000FF91EF9181929192A192B192C192D19292
:104CB000E192F19201931193219331934193519396
:104CC00061937193DF91CF911F910F91FF90EF90BE
:104CD000DF90CF90BF90AF909F908F907F906F901C
:104CE0005F904F903F902F9008958A9509F46894B3
:104CF000E82D8490EC2DC490E02F0491E42F449192
:104D0000E92D2490ED2D9490E12FD490E52F14916E
:104D1000522DEA2D2490EE2D3490E22FA490E62F10
:104D2000E490222D632DEB2D2490E72FB490E32FF8
:104D30007491EF2D3491F22C0EF491CF0A2C0B24A8
:104D4000402C282C89240824880C08F489268024E7
:104D50008224392C3A24330C08F439263024932445
:104D6000440C08F449264024A4242B24220C08F4E3
:104D700029262024B2240E2C0F24402C2C2CCD24A8
:104D80000C24CC0C08F4C926C024C2243D2C3E249B
:104D9000330C08F439263024D324440C08F4492673
:104DA0004024E4242F24220C08F429262024F22471
:104DB000022E0326402C202E01270026000F08F487
:104DC000092700250225312E3226330C08F4392616
:104DD00030241325440C08F4492640242425232696
:104DE000220C08F4292620243225062E0726402CE2
:104DF000242E45270426440F08F449274025422540
:104E0000352E3626330C08F4392630245325440C2D
:104E100008F44926402464252726220C08F4292674
:104E2000202472251CCF00000000000000000000BC
:104E30000000000000000000000000000000000072
:104E40000000000000000000000000000000000062
:104E50000000000000000000000000000000000052
:104E60000000000000000000000000000000000042
:104E70000000000000000000000000000000000032
:104E80000000000000000000000000000000000022
:104E90000000000000000000000000000000000012
:104EA0000000000000000000000000000000000002
:104EB00000000000000000000000000000000000F2
:104EC00000000000000000000000000000000000E2
:104ED00000000000000000000000000000000000D2
:104EE00000000000000000000000000000000000C2
:104EF00000000000000000000000000000000000B2
:104F000052096AD53036A538BF40A39E81F3D7FB3E
:104F10007CE339829B2FFF87348E4344C4DEE9CB88
:104F2000547B9432A6C2233DEE4C950B42FAC34EFD
:104F3000082EA16628D924B2765BA2496D8BD125B3
:104F400072F8F66486689816D4A45CCC5D65B69257
:104F50006C704850FDEDB9DA5E154657A78D9D84FB
:104F600090D8AB008CBCD30AF7E45805B8B345061B
:104F7000D02C1E8FCA3F0F02C1AFBD0301138A6B35
:104F80003A9111414F67DCEA97F2CFCEF0B4E67365
:104F900096AC7422E7AD3585E2F937E81C75DF6E13
:104FA00047F11A711D29C5896FB7620EAA18BE1B79
:104FB000FC563E4BC6D279209ADBC0FE78CD5AF41F
:104FC0001FDDA8338807C731B11210592780EC5F65
:104FD00060517FA919B54A0D2DE57A9F93C99CEFC1
:104FE000A0E03B4DAE2AF5B0C8EBBB3C83539961C2
:104FF000172B047EBA77D626E169146355210C7D00
:10500000AB0171E060E007C0AB0170E060EC03C091
:10501000AB01772760E8EF92FF920F931F93CF9336
:10502000DF93FA01EA01DC0176956795669566954E
:10503000262F0D9001922A95E1F76695669563FB00
:10504000362F762F795F770F770FDF011497262F92
:10505000E0E0F1E57F0111E04D915D918D919D9131
:105060003217B1F05EF5022F0770043039F5F70101
:10507000E40FF11D4491F701E50FF11D5491F70183
:10508000E80FF11D8491F701E90FF11D949116C00D
:10509000360FF701E40FF11D0491F701E50FF11D43
:1050A0004491F701E80FF11D5491F701E90FF11D4B
:1050B0008491902F4127110F08F41BE1FD01099005
:1050C0000426019209900526019209900826019272
:1050D0000990092601922395271709F0BDCFE8947E
:1050E000DF91CF911F910F91FF90EF9008950000F5
:1050F00000000000000000000000000000000000B0
:10510000637C777BF26B6FC53001672BFED7AB7684
:10511000CA82C97DFA5947F0ADD4A2AF9CA472C02F
:10512000B7FD9326363FF7CC34A5E5F171D831159C
:1051300004C723C31896059A071280E2EB27B275BD
:1051400009832C1A1B6E5AA0523BD6B329E32F8435
:1051500053D100ED20FCB15B6ACBBE394A4C58CF2D
:10516000D0EFAAFB434D338545F9027F503C9FA801
:1051700051A3408F929D38F5BCB6DA2110FFF3D2CF
:10518000CD0C13EC5F974417C4A77E3D645D197383
:1051900060814FDC222A908846EEB814DE5E0BDB7D
:1051A000E0323A0A4906245CC2D3AC629195E479B4
:1051B000E7C8376D8DD54EA96C56F4EA657AAE080E
:1051C000BA78252E1CA6B4C6E8DD741F4BBD8B8AA9
:1051D000703EB5664803F60E613557B986C11D9E0F
:1051E000E1F8981169D98E949B1E87E9CE5528DF86
:1051F0008CA1890DBFE6426841992D0FB054BB16B2
:10520000FC01DB01CA01009631F04D915081452728
:1052100041930197D1F70895CF92DF92EF92FF92D9
:105220000F931F93E82FF92F05C001501109210991
:10523000310961F1908196239417B9F305C00150AB
:1052400011092109310911F1908196239413F7CFA7
:10525000C12CD12CE12CF12C0AC08FEFC81AD80A2E
:10526000E80AF80A0C151D052E053F0579F0808126
:105270008623841791F36C2D7D2D8E2D9F2D1F91EC
:105280000F91FF90EF90DF90CF90089560E070E075
:1052900080E090E01F910F91FF90EF90DF90CF9012
:1052A0000895DF92EF92FF920F931F93CF93DF93B6
:1052B000D82EF92EE42E062F10E0C8010196880F93
:1052C0000E941A0E83E00E941A0ECD2DDF2D0C0FC6
:1052D0001D1FC017D10789F0E7FE03C0FE018491AE
:1052E00001C088810E941A0EF82E80E00E941A0EDA
:1052F0008F2121968111EDCF01C081E0DF91CF9107
:105300001F910F91FF90EF90DF900895CF93DF935F
:10531000CDB7DEB72D970FB6F894DEBF0FBECDBF69
:10532000789484B5826084BD84B5816084BD85B580
:10533000826085BD85B5816085BD80916E0081608C
:1053400080936E0010928100809181008260809332
:105350008100809181008160809381008091800034
:1053600081608093800080919100826080939100A1
:105370008091910081608093910080919000816084
:10538000809390008091C10084608093C1008091DF
:10539000C10082608093C1008091C10081608093D0
:1053A000C1008091C30081608093C3008091C000E0
:1053B00082608093C0008091C20081608093C200AF
:1053C00080917A00846080937A0080917A00826074
:1053D00080937A0080917A00816080937A00809136
:1053E0007A00806880937A001092630410920A0316
:1053F000109209038091D70081608093D70080EAE2
:105400008093D80089B5806189BD89B5826089BDE6
:1054100009B400FEFDCF61E070E080E090E00E9402
:10542000AF228091D8008F7C80618093D8008091DA
:10543000E000807F8093E0008091E1008E7E809389
:10544000E1008DE08093E200559A209A8091280433
:1054500090912904892B11F520910F0430911004AB
:10546000C901079697FD079623E0959587952A959C
:10547000E1F720910D0430910E04AC01429FC00170
:10548000439F900D529F900D11240E94983090934D
:10549000290480932804892B09F4DFC00E94B119E4
:1054A00080910F0490911004813291050CF4EDC2AB
:1054B000BC016054710977FF02C06F5F7F4F759523
:1054C000679580910D0490910E048255910997FD86
:1054D000019600E410E022E530E04BEB53E09595B7
:1054E00087950E94FC1C82E080932B048091260407
:1054F00090912704009709F4E0C22CE320932A043A
:105500000E94F6148091310487FD1EC061E00E9464
:10551000732261E0809131040E94442261E070E0D6
:1055200080E090E00E94AF2260E0809131040E9410
:1055300044226AE070E080E090E00E94AF2261E0E7
:10554000809131040E944422809126049091270486
:10555000892B09F471C3209140043091410440919A
:1055600042045091430460E074E284EF90E00E94B2
:105570003930DA01C9014097A109B109B695A7955B
:10558000979587958093B80064E087ED91E00E943D
:10559000E51960910F04615089E094E00E94BC0D10
:1055A00064E083ED91E00E94E51980912B04813045
:1055B00009F459C364E189E094E00E94BC0D64E001
:1055C0008FEC91E00E94E51980910D0490910E04FA
:1055D0008038910509F05AC380910F04909110040E
:1055E0008032910509F041C364E08BEC91E00E94A8
:1055F000E51969ED89E094E00E94BC0D80912B04CF
:10560000813009F45FC361EF89E094E00E94BC0D32
:1056100066E08FEB91E00E94E5198091260490915D
:105620002704892B09F450C3209144043091450488
:10563000409146045091470460E074E284EF90E0AA
:105640000E943930DA01C9014097A109B109B69524
:10565000A795979587958093B80082E08093810302
:105660000E9453170FB6F894A89580916000886146
:1056700080936000109260000FBE8FEF9FEF9093B9
:10568000A1038093A00362E087E00E94732262E09E
:105690008FE00E94732262E080E10E94732262E048
:1056A0008EE00E94732262E08AE00E9473228DEFF6
:1056B00093E00E94F61462E370E080E090E00E94C4
:1056C000AF22809181030E945D171AE0212E312CB8
:1056D00004E1802E912C14E000E28FE00E94A31DD3
:1056E0002B013C0180E10E94A31D5B018AE00E9426
:1056F000A31D6B018EE00E94A31D7B0114141504F1
:105700001CF580918103843099F08530C9F0823096
:10571000D9F480917D0390917E030196B1010E949E
:105720007E3090937E0380937D030E940B180CC003
:1057300056E0509381030E94B1190E94941A04C04C
:10574000109381030E94AB161A141B04FCF4809181
:105750008103823041F08430C9F495E09093810355
:105760000E947D1613C080917D0390917E03019766
:1057700097FF02C089E090E090937E0380937D03C1
:1057800080917D0390917E030E940B181C141D04D0
:10579000B4F480918103843091F480910B03909153
:1057A0000C030196B4010E947E3090930C03809309
:1057B0000B030E943615809181030E945D171E1411
:1057C0001F04E4F4809181038430C1F480910B03C1
:1057D00090910C03019797FD05C090930C03809363
:1057E0000B0306C0A3E1B0E0B0930C03A0930B033E
:1057F0000E943615809181030E945D170E947F1DD3
:10580000892B09F03AC164E670E080E090E00E94E4
:10581000AF220E947F1D892B09F02FC164EF71E038
:1058200080E090E00E94AF220E947F1D20918103C2
:10583000892BF1F4223021F0233009F419C11DC164
:1058400080917F0390918003833091050CF415C102
:10585000880F991FFC01E35AFC4F80917D039091C2
:105860007E0391838083B3E0B093810383E003C11F
:10587000233009F4FDC0253001F1223009F0FDC0CC
:1058800080917F0390918003FC01EE0FFF1FE35A8C
:10589000FC4F20917D0330917E033183208301965C
:1058A0009093800380937F0310927E0310927D0378
:1058B00080E090E00E940B18E0C06CE271E0FB0118
:1058C000019341E0EC33F407D9F74CE151E0FA01E0
:1058D000019381E0EC32F807D9F72CE031E0F901CF
:1058E0000193ACE1B1E0AE17BF07D1F7EDE4AE2E06
:1058F000E3E0BE2EEDE5F3E0FD87EC87F4E8EF2E64
:10590000F3E0FF2EADE06A2EA3E07A2EF3016501ED
:1059100080E090E0D6011D926D01AC85BD855C9064
:105920001296BD87AC87D7015D927D01DB015D904A
:10593000BD015082DA015D90AD01508AD9015D90C0
:105940009D0150A2019631968031910519F7CE0143
:1059500001960E94391C811136C04B8550E06DE4E0
:1059600073E089859A850E94B93144E0C42ED12C18
:105970005DE0E52E53E0F52EF1E0CF1AD108F9F005
:105980004B8550E069857A85C7010E940029EB812B
:10599000FC813A96259134912115310529F06F81CA
:1059A0007885C701F90109954B8550E0B7018985D4
:1059B0009A850E94B9318B85E80EF11CDDCFCE01AE
:1059C00001960E945F0CEDE3F3E0D5018D915D013E
:1059D0008193BDE5AB16B3E0BB06B9F7E0900B03CE
:1059E000F0900C030E942815882379F136E0EE0C24
:1059F000FF1C3A95E1F760E58DEF93E00E94EC140F
:105A00006F2D8DEF93E00E94280A6E2D8DEF93E0AD
:105A10000E94280AF30161913F018DEF93E00E94FB
:105A2000280A61E08DEF93E00E94911462E370E038
:105A300080E090E00E94AF22FFEFEF1AFF0A4DE4F2
:105A4000641643E07406B9F60EC00E94B11985EBE6
:105A500091E00E94E3190E94941A68EC70E080E0E3
:105A600090E00E94AF22109381030E94AB1605C004
:105A70001093810384E00E945D1780E090E0892B01
:105A800009F42BCE0E94000026CEBC0160527109A1
:105A900077FF02C06F5F7F4F7595679580910D040A
:105AA00090910E048357910997FD019600E210E052
:105AB00023E730E04BED51E012CD61E080912F04FF
:105AC0000E94732261E0809130040E9473228091D1
:105AD0002F04082E000C990BFC01EC50F94FE491B7
