:100000000C94DD040C9405050C9405050C94050571
:100010000C9405050C9405050C9405050C94050538
:100020000C9405050C9405050C9463180C94D218D7
:100030000C9405050C9405050C9405050C94050518
:100040000C9405050C9405050C9405050C94050508
:100050000C9405050C9405050C9405050C94041BE3
:100060000C9405050C9405050C9405050C940505E8
:100070000C9405050C9405050C9405050C940505D8
:100080000C9405050C9405050C9405050C940505C8
:100090000C944E1B0C9405050C9405050C94050559
:1000A0000C9405050C9405050C940505AED580A8A7
:1000B0003FD300408D142002A1C8DA12817FD9F10C
:1000C000DB40A4A6AF01018000004145532D313231
:1000D0003800000005072061000000000000005FFC
:1000E00000000007000700147F147F14242A7F2AD1
:1000F000122313086462364955225000050300009C
:10010000001C2241000041221C00082A1C2A080869
:10011000083E080800503000000808080808006081
:1001200060000020100804023E5149453E00427F15
:10013000400042615149462141454B311814127F1C
:100140001027454545393C4A4949300171090503A5
:100150003649494936064949291E0036360000000D
:1001600056360000000814224114141414144122BD
:100170001408000201510906324979413E7E1111ED
:10018000117E7F494949363E414141227F4141220A
:100190001C7F494949417F090901013E41415132D2
:1001A0007F0808087F00417F41002040413F017FD8
:1001B000081422417F404040407F0204027F7F04B8
:1001C00008107F3E4141413E7F090909063E4151E9
:1001D000215E7F09192946464949493101017F01BC
:1001E000013F4040403F1F2040201F7F2018207FBC
:1001F0006314081463030478040361514945430000
:10020000007F4141020408102041417F00000402A8
:1002100001020440404040400001020400205454C8
:1002200054787F484444383844444420384444484F
:100230007F3854545418087E090102081454543C61
:100240007F0804047800447D40002040443D0000C5
:100250007F10284400417F40007C041804787C080B
:1002600004047838444444387C14141408081414E2
:10027000187C7C080404084854545420043F44402B
:10028000203C4040207C1C2040201C3C4030403C16
:1002900044281028440C5050503C4464544C4400B2
:1002A0000836410000007F000000413608000808C1
:1002B0002A1C08081C2A08080006090906414243AE
:1002C0004445464748494A4B4C4D4E4F5051525376
:1002D0005455565758595A28295B5D7B7D61626396
:1002E0006465666768696A6B6C6D6E6F7071727356
:1002F0007475767778797A3C3E7C5C2F3F3031326A
:10030000333435363738392D2B21402324255E26CA
:100310002A5F2B607E3B3A22272C2E000000000033
:100320000000002A2B280000000000000000000050
:1003300000000000000000000000002C9EB4A0A1FE
:10034000A2A434A6A7A5AE362D3738271E1F20211C
:100350002223242526B333B62EB7B89F84858687FB
:1003600088898A8B8C8D8E8F909192939495969795
:1003700098999A9B9C9D2F3130A3AD3504050607B3
:1003800008090A0B0C0D0E0F101112131415161775
:1003900018191A1B1C1DAFB1B0B50000030C0F30AB
:1003A000333C3FC0C3CCCFF0F3FCFF00000000257E
:1003B0000028002B002E003100080B000202020072
:1003C00000090400000102020000052400100105DC
:1003D0002401010104240206052406000107058109
:1003E0000310004009040100020A00000007050292
:1003F00002400000070583024000000403090412C4
:10040000010002EF02014041233680000101020396
:100410000141726475696E6F204C4C4300417264F7
:1004200075696E6F204C656F6E6172646F000000BD
:100430000000240027002A002D00300011121314A0
:1004400015160A0B0C0D0E0F00010203040507061A
:1004500005040100080A0B0C0D0920550A0F206045
:1004600002010408060A0901030305070203010645
:100470000605060606060606060601020607060526
:100480000C0907080806050808010406060B0809F8
:10049000060A07050708090B0807070306030708EC
:1004A00003060605060604070601020501090606FD
:1004B00006060405040605090505040401040708E9
:1004C00000000000FE1A1E00001E0000000020A018
:1004D0007C2020A07C20021E0202021E0202384460
:1004E0004487840808107010100E38444438806027
:1004F000108C80000000180402000E10100E805CAA
:100500002262920C00C0000E101010100A040A1093
:100510001E00F00C021E6080020CF080601E241889
:100520007E18240000000000808080F08080800021
:1005300000000E000000000040380000000202022F
:100540000018000080601806601806000000F8041B
:10055000040404F80E101010100E1008FC00001017
:10056000101E101008040404C438101814121010BF
:100570000844444444B808101010100E00C0300C59
:10058000FC00060404041E04007C44444484081057
:100590001010100EF088444444840E101010100EF9
:1005A000040404C4340C00100C020000B844444499
:1005B00044B80E101010100E7884848444F8101083
:1005C000101008066018006040388040402020105D
:1005D0000002020404082020202020202002020221
:1005E000020202021020204040800804040202009F
:1005F0000402C2423C00001A0000C03008884424B3
:100600002444E40408F00E30204648484446480894
:1006100004020000C0300C30C000001806020202C4
:1006200002020618FC44444444B8001E1010101086
:10063000100EF0080404040404080608101010103A
:100640001008FC040404040408F01E10101010101C
:100650000806FC44444444041E1010101010FC44CE
:100660004444441E00000000F0080404848484888C
:10067000060810101010100EFC404040404040FC96
:100680001E0000000000001EFC1E000000FC1010F8
:10069000100EFC40A01008041E0000060810FC000C
:1006A000000000001E1010101010FC0C30C00000E4
:1006B00000C0300CFC1E0000000618060000001EE2
:1006C000FC041860800000FC1E000000020C101EDC
:1006D000F008040404040408F006081010101010B8
:1006E0000806FC84848484781E0000000000F00862
:1006F000040404040408F000060810101010101878
:100700002620FC8484848478001E000000020C10E3
:100710003844448408081010100E040404FC040437
:10072000040000001E000000FC000000000000FCAF
:1007300006081010101008060C30C0000000C03071
:100740000C0000000618060000001CE00000E01C81
:10075000E00000E01C00021C06000000061C020075
:10076000040830C0C0300804100806000006081055
:10077000041860806018040000001E0000000404DB
:1007800004C424140C18141210101010FE0202FEDF
:1007900080800618608000000000000618600202D9
:1007A000FE8080FE80601804186080000000000059
:1007B0000000000000000000000080808080808039
:1007C00080800204080000004020202020C00C127D
:1007D00012120A1EFE40202020C01E081010100E0B
:1007E000C0202020400E10101008C020202040FE05
:1007F0000E101010081EC020202020C00E12121251
:10080000121220FC2222001E0000C020202020E026
:10081000206A949494949260FE40202020C01E0090
:100820000000001EE81E00E8807EFE008040201EC2
:1008300002040810FE1EE0402020C0402020C01E00
:100840000000001E0000001EE040202020C01E000E
:100850000000001EC020202020C00E101010100E1E
:10086000E040202020C0FE081010100EC0202020E4
:1008700040E00E10101008FEE04020201E00000096
:10088000C020202020101212120C20F82020000E70
:100890001010E000000000E00E101010081E608034
:1008A0000080600006180600608000806080008084
:1008B0006000061806000618060020C000C02010C0
:1008C0000C020C10608000806000C63806002020FA
:1008D000A06018161010807C0202007E8080FEFE50
:1008E00002027C8080807E003008081020201800E2
:1008F000000000000000FC041494946404FC1E102A
:1009000010141010101EAC001980400000000000F0
:100910002300260029002C002F00040404040403F3
:10092000040502020202040302020202060606068F
:1009300006060404020202040404080201104080B6
:1009400040102040804080080204018040201002B6
:1009500001108010204040200000000200090F001C
:1009600000030401000C0000000000000000000073
:10097000000000000000000100CA00B00080000874
:1009800021041F841C0000C50005010906A1018582
:1009900002050719E029E715002501750195088171
:1009A00002950175088103950675081500257305E4
:1009B00007190029738100C0512211241FBECFEFF7
:1009C000DAE0DEBFCDBF13E0A0E0B1E0E2E5F9E59B
:1009D00002C005900D92A03DB107D9F725E0A0ED2A
:1009E000B3E001C01D92A23FB207E1F714E0CDEDE4
:1009F000D4E004C02197FE010E94AA2ACC3DD10771
:100A0000C9F70E9435230C94A72C0C940000CF93B7
:100A1000DF93FC01818190918705482F490F55276D
:100A2000551F483051059CF5A281B381109709F5F7
:100A300023E835E03383228320812093850580934A
:100A4000860580918805820F808320918905A22FD9
:100A5000B0918A058A2F821B8917E8F481813D9124
:100A6000C82FD0E0C35CDE4F38838F5F8183F2CF25
:100A7000D90118962D913C91199721153105C1F78F
:100A800023E835E019963C932E931897D5CF80E054
:100A9000DF91CF91089581E0FBCF982F209132050F
:100AA00081E0213208F043C080910E058111FCCF16
:100AB0008091310532E030930E0590930D059FEF44
:100AC00090930C0510920B0520930A05A1E1B5E067
:100AD000EAEEF4E090E0291331C01092E90490911D
:100AE000E904880F892B8093E9048091E804813020
:100AF00049F51092E8048091E9048093BB0080914D
:100B0000BC0083FDF8CF85EC8093BC0080910E057E
:100B10008230E1F380910C058F3FB1F080910C059C
:100B20008032A1F080910C05803391F084E0109226
:100B300010051092320510920F0508953D913193E2
:100B40009F5FC9CF85EEE0CF80E0F1CF82E0EFCFAD
:100B500083E0EDCFFC018091D704882311F13FB7EA
:100B6000F89482E08093E9002091F200822F90E0D7
:100B70001816190614F481E090E0882339F02898BB
:100B800044E64093D6044091F1004083222339F09B
:100B90002091F200211103C02BE62093E8003FBF13
:100BA00008958FEF9FEF0895089508950895409157
:100BB0009A0450919B042091980430919904421713
:100BC0005307B4F49091E8009570E1F39091E80038
:100BD00092FD19C08093F10080919A0490919B043A
:100BE00001968F739927892B19F48EEF8093E80073
:100BF00080919A0490919B04019690939B0480931A
:100C00009A0481E0089580E00895EF92FF920F9397
:100C10001F93CF93DF93F82E192FE62E042F81E038
:100C2000860F880F0E94D70583E00E94D705CF2D3D
:100C3000D12FEC0EFD2EF11CCE15DF05B9F007FF0C
:100C400013C0FE0184910E94D705182F80E00E94F6
:100C5000D705812321968111EFCFDF91CF911F918D
:100C60000F91FF90EF9008958881EDCF81E0F5CF4F
:100C7000DF92EF92FF920F931F93CF93DF93D82EC3
:100C80008A01EB017B01E40EF51ECE15DF0559F05C
:100C9000D7FE12C0FE0184910E94D70521968111D2
:100CA000F4CF0FEF1FEFC801DF91CF911F910F918C
:100CB000FF90EF90DF9008958881EECF2FB7F894E2
:100CC00087708093E9009091E800892F807295FFEA
:100CD00004C09091F20080E4891B2FBF08956150F9
:100CE00030F02091F100FC0120830196F8CF289884
:100CF00084E68093D6040895DC01ED91FC91019087
:100D0000F081E02D0994AF92BF92CF92DF92EF92E3
:100D1000FF920F931F93CF93DF936C017B018B01A5
:100D2000040F151FEB015E01AE18BF08C017D107F5
:100D300059F06991D601ED91FC910190F081E02D7F
:100D4000C6010995892B79F7C501DF91CF911F91D4
:100D50000F91FF90EF90DF90CF90BF90AF900895EC
:100D60008091900481110DC082E080938C0484E016
:100D700080938D0410928F0410928E0481E08093F2
:100D800090048CE894E008950F931F93CF93DF9322
:100D90001F92CDB7DEB782E0898342E450E069EB71
:100DA00073E080E80E9438060E94B006DC011296CB
:100DB0000D911C910115110589F0D801ED91FC915F
:100DC0000280F381E02DBE016F5F7F4FC80109955E
:100DD00097FD04C0F80100851185ECCF89810F9043
:100DE000DF91CF911F910F910895CF93DF931F92C1
:100DF000CDB7DEB76983DC01ED91FC910280F38110
:100E0000E02D41E050E0BE016F5F7F4F09950F90EC
:100E1000DF91CF91089583E08093E9008091F20003
:100E2000882319F08AE38093E800089583E00E9404
:100E30005E0690E00895CF93DF931F92CDB7DEB7A3
:100E4000FC018485958597FD08C02FEF3FEF35871E
:100E500024870F90DF91CF910895CE0101960E94D3
:100E6000AA05019719F4898190E0F3CF8FEF9FEFE6
:100E7000F0CF0F931F93CF93DF931F92CDB7DEB7C1
:100E80008C01FC018485958597FF0BC0CE010196EE
:100E90000E94AA05019771F4898190E0F801958775
:100EA0008487F801848595850F90DF91CF911F91FC
:100EB0000F9108958FEF9FEFF1CFFC018485958509
:100EC00097FD0BC09FB7F89482E08093E900809172
:100ED000F2009FBF90E0019608959FB7F89482E0DA
:100EE0008093E9008091F2009FBF90E008958150C7
:100EF0008F3008F047C0E82FF0E0EF57F84F0C9420
:100F0000AA2A9E07A207900796079A07C207C20758
:100F1000C207A507AB07AF07B307B907C207BD07ED
:100F2000809180008F778093800008958091800069
:100F30008F7DF9CF80918000877FF5CF84B58F7743
:100F400084BD089584B58F7DFBCF809190008F770D
:100F5000809390000895809190008F7DF9CF8091CB
:100F60009000877FF5CF8091C0008F778093C0007D
:100F700008958091C0008F7DF9CF8091C200877F56
:100F80008093C2000895CF93DF93EFE5F9E0849159
:100F9000E0E4F9E0D491E1E2F9E0C491CC23A1F0DE
:100FA00081110E947707EC2FF0E0EE0FFF1FE45F46
:100FB000F64FA591B491EC91ED2381E090E009F416
:100FC00080E0DF91CF91089580E090E0FACF1F9309
:100FD000CF93DF93282F30E0F901E85AF64F849140
:100FE000F901E75CF64FD491F901E65EF64FC49142
:100FF000CC23A9F0162F81110E947707EC2FF0E087
:10100000EE0FFF1FE555FC4FA591B4918FB7F894F3
:10101000EC91111108C0D095DE23DC938FBFDF91D6
:10102000CF911F910895DE2BF8CF9CB59F7D9CBD7D
:101030009CB5937F9CBD9CB59C7F9CBD9DB59160EC
:101040009DBD682F8091D8050E94E7078091EA0531
:101050009091EB058230910538F0880F991F880F29
:10106000991F05970197F1F70895CF93DF9390E0CB
:10107000FC01E75CF64F2491865E964FFC0184915B
:101080008823D1F090E0880F991FFC01E25DFB4FAF
:10109000A591B491FC01E555FC4FC591D491623006
:1010A00071F49FB7F8943C91822F809583238C93A1
:1010B000E8812E2B28839FBFDF91CF9108958FB7B2
:1010C000F894EC912E2B2C938FBFF6CF3FB7F8946A
:1010D0008091880490918904A0918A04B0918B0436
:1010E00026B5A89B05C02F3F19F00196A11DB11D83
:1010F0003FBFBA2FA92F982F8827BC01CD01620FBF
:10110000711D811D911D42E0660F771F881F991F79
:101110004A95D1F708958F929F92AF92BF92CF9246
:10112000DF92EF92FF924B015C010E9466086B0117
:101130007C010E9466086C197D098E099F09683E32
:10114000734081059105A8F321E0821A9108A10856
:10115000B10888EEC80E83E0D81EE11CF11C811492
:101160009104A104B10429F7FF90EF90DF90CF9094
:10117000BF90AF909F908F9008957F928F929F9293
:10118000AF92BF92CF92DF92EF92FF920F931F9395
:10119000CF93DF93C82E8B017A018091D704811100
:1011A00010C08FEF9FEFDF91CF911F910F91FF90B4
:1011B000EF90DF90CF90BF90AF909F908F907F90F7
:1011C000089580919E0480FF05C08091E0008260B8
:1011D0008093E000CE2DDF2DD12C8AEFB82E8C2D00
:1011E0008770982E8C2D8072882E8C2D8074782E8E
:1011F0009AE3A92E209719F4DD2009F452C08C2D12
:101200000E945E0681110AC0BA94BB2051F261E0CF
:1012100070E080E090E00E948B08ECCF8C171D06F8
:1012200011F00CF08C2F9FB7F8949092E900209168
:10123000E80025FD02C09FBFDDCF282F30E0C21B94
:10124000D30B882029F08150A0F01092F100FBCF41
:10125000F801C7FC0AC0815050F041914093F10061
:10126000FACF44914093F10031968150D0F7020FAC
:10127000131FDD2021F0A092E800D12CDCCF80915B
:10128000E80085FD07C0A092E800DD24D3942097F4
:1012900091F2F3CF209779F6772069F2A092E800D7
:1012A000CACF5D9884E680939D04C7017CCFEF92FE
:1012B000FF921F93CF93DF931F92CDB7DEB77C01D0
:1012C0008091940581112AC011E010938705109335
:1012D00088058DE895E090938A05809389051092A2
:1012E0008C0510928B0586E292E0909384058093A2
:1012F000830510928F0510928E0510929105109221
:101300009005109392051093930581EC80938D05C1
:101310000E94B0060E9407051093940582E089831D
:1013200041E050E0BE016F5F7F4F809186050E94D3
:10133000BD0897FD08C08091860548E050E0B701E0
:1013400080640E94BD080F90DF91CF911F91FF90A4
:10135000EF900895CF93DF93EC0180910B018823E8
:1013600031F083E00E94BD081816190634F081E0C0
:1013700090E09B838A8380E090E0DF91CF91089595
:101380008EBD00000DB407FEFDCF8EB50895CF933E
:1013900080E00E94150881EE0E94C009C82F81E0FC
:1013A0000E9415088C2FCF910895CF93C82F80E00D
:1013B0000E9415088C2F0E94C0098FEF0E94C0095F
:1013C000C82F81E00E9415088C2FCF910895CF93EC
:1013D000DF93C82FD62F80E00E9415088C2F8F71C5
:1013E00080620E94C009C82F8D2F0E94C00981E031
:1013F0000E9415088C2FDF91CF91089580E00E9404
:10140000D50981FD0BC0682F626080E00E94E7096A
:1014100065E070E080E090E00C948B080895EF9216
:10142000FF920F931F93CF93DF93C82F7B01142F4D
:1014300080E00E9415088C2F8F7180620E94C00985
:10144000082FE701115020F089910E94C009FACFBE
:1014500081E00E941508802FDF91CF911F910F919D
:10146000FF90EF900895CF93DF93EC018D85882353
:1014700029F081508D87DF91CF9108959C818E81D5
:101480009817C8F788896827E881F9810084F18571
:10149000E02D42E0CE0109958C818F5F8C83EBCFEC
:1014A000DC01ED91FC910084F185E02D40E0099490
:1014B000FC012781269526952695621738F46583C9
:1014C0002385620F6770606B0C94500A08950F9328
:1014D0001F93CF93FC012681621798F4C62F8C01CD
:1014E00064836085C60F6C2F6F700E94500A6C2F4A
:1014F00062956F706061C801CF911F910F910C943C
:10150000500ACF911F910F910895CF92DF92EF92E1
:10151000FF920F931F93CF93DF93EC01F62EC42E0F
:10152000D22E1D868F81869586958695081710F098
:101530000FEF080F1D2D6F2DCE01011788F00E94AF
:10154000670A612FCE010E94580AEF2CCE1430F0AA
:101550006889CE010E94330AE394F8CF1F5FEBCF76
:101560000E94670A6D2DCE01DF91CF911F910F91DF
:10157000FF90EF90DF90CF900C94580A0F93CF9389
:10158000DF93C2ECD5E01B861A8660E4CE010E9490
:10159000500A0F8106950695069501504E814150DF
:1015A00020E060E0CE010E94850ADF91CF910F918B
:1015B00008952F923F924F925F926F927F928F92F7
:1015C0009F92AF92BF92CF92DF92EF92FF920F93D2
:1015D0001F93CF93DF9300D000D000D0CDB7DEB7FC
:1015E000DC011E962D913C912115310509F459C15C
:1015F0009E838D83F9013296649031964491E42E56
:10160000F12CB7E0EB0EF11C53E0F594E7945A95FA
:10161000E1F7E982319654913196E491651748F0EB
:101620008E2F90E0FC01E50FF11D6E171F060CF4E4
:101630006EC06D3041F460E08D819E810E94670A2A
:1016400081E090E030C16A3009F02BC160E08D810B
:101650009E810E94670AED81FE8101890E9DE02C2A
:10166000112465816E0D8485882349F02781269594
:10167000269526958E2D821B860F18162CF08D81AF
:101680009E810E94580ADCCFAD81BE811B969C9141
:101690001B97890F87701B968C931B972E19159695
:1016A0002C9315971E96ED91FC91309771F133961E
:1016B000E491F0E0379633E0F595E7953A95E1F758
:1016C0000E9F002D1124EFEFE20F0E0FED81FE8132
:1016D000468141506481CF010E94850AAD81BE815F
:1016E0001C968C911C97813009F0AACF1B966C91A7
:1016F0001B97660F660F660F6F731A966C931A9797
:101700006064CD010E94500A9BCF00E0DCCF8901CC
:101710000A5F1F4F651BED81FE8171855189759FA1
:10172000502D11245C83F90154912F5F3F4FF90133
:101730002491352F2230310508F075C06E9CC00110
:101740006F9C900D1124689FF001699FF00D11248A
:101750000E0F1F1F512CAD81BE811496BC91BA8310
:10176000ED81FE812580F585FB83862C912CAA24B2
:10177000A394B12C312C8981381608F090C0412CEB
:10178000AD81BE8151968C915197481608F080C06A
:10179000EB811D96EC93311002C0442079F0AD81AD
:1017A000BE811596DC901597D3946A81CD010E9475
:1017B000670A6D2D8D819E810E94580AD12CC12C03
:1017C000C61408F058C0F801EC0DFD1D74905520AA
:1017D00061F0EA14FB0449F4E72DF0E0052C02C0A7
:1017E000F595E7950A94E2F77E2EED81FE818189D9
:1017F000823081F4442009F43AC072948FE0782258
:10180000E72DF0E0E556FC4F7490672D8D819E81A9
:101810000E94330A672D8D819E810E94330A8FEFCB
:10182000C81AD80ACDCF477028E0522E541A411159
:1018300001C0512CF801612C30E020E0661631F037
:101840004491240F311D63943196F8CF600E712EB0
:10185000711CF3016490E29EF001E39EF00DF29E94
:10186000F00D11248E0F9F1F080F191F74CFF72D35
:10187000FF707F2EC5CFD12CAC81DA1639F060E035
:101880008D819E810E94330AD394F6CF439478CF02
:101890003394080D191DBFEFAB1ABB0A6CCF622D34
:1018A000EECE90E080E026960FB6F894DEBF0FBE35
:1018B000CDBFDF91CF911F910F91FF90EF90DF90FF
:1018C000CF90BF90AF909F908F907F906F905F90E0
:1018D0004F903F902F900895DB01ED91FC913C9645
:1018E000259134912115310529F0FB016481758121
:1018F000F90109940895DC01FB0112962C911297CD
:10190000848195812817190641F491818081813A5B
:1019100031F49D7F81E0913009F080E008958132BB
:10192000E1F79B3029F482811F968C9381E0089522
:101930009A3099F7828150968C93F8CFDC01FB01A5
:1019400088E4808389E4818384E482831D969C916A
:101950001D979F709F5B93831D968D919C9124E0B2
:10196000969587952A95E1F78F708F5B848385E044
:101970000895EF92FF920F931F93CF93DF93FB0194
:101980002081213871F52381223259F5DC0112962C
:101990004C91248135814217130619F5EC010B8512
:1019A0001C85F12CE12C0115110589F0F801448109
:1019B00055816281738180E80E9438068F3F9807C5
:1019C00049F0E80EF91ED8010D911C91ECCF81E091
:1019D0008F87C701DF91CF911F910F91FF90EF90FB
:1019E000089590E080E0F6CFCF93DF93CDB7DEB7D8
:1019F00069970FB6F894DEBF0FBECDBFFC01DB01C7
:101A00008C918F5F8C939E012D5F3F4F8DE0D901AC
:101A10001D928A95E9F729E0298384E08A8391E081
:101A20009D8383E08E832A8721E22B879C879D8775
:101A30009F8722E2288B27E02B8B25E02C8B8E8B37
:101A400020E430E0388F2F8B998F82818B839585AE
:101A50008685998B8A8B838180688D8B49E150E0E4
:101A6000BE016F5F7F4F80E00E94380669960FB617
:101A7000F894DEBF0FBECDBFDF91CF910895CF9216
:101A8000DF92EF92FF920F931F93CF93DF936C013E
:101A9000EB017B01E40EF51E10E000E0CE15DF0542
:101AA00081F069916D30D1F3D601ED91FC910190F7
:101AB000F081E02DC6010995892B19F00F5F1F4FAA
:101AC000EDCFC801DF91CF911F910F91FF90EF9063
:101AD000DF90CF900895DC016838A0F06858FD01D0
:101AE00086E0662321F09681961301C0168281500C
:101AF00031968111F6CFCD0104960E94570981E0FD
:101B000090E00895E62FF0E067FF12C0E058F10979
:101B100081E090E001C0880FEA95EAF7809514967D
:101B20009C911497892314968C93149760E0D7CFD7
:101B3000E55EFC4F6491662359F067FFD0CF1496A1
:101B40008C9114978D7F14968C9314976F77C7CFD1
:101B500090E080E00895DC01683888F168581696B6
:101B60008C911697861721F117968C9117978617E7
:101B7000F9F018968C9118978617D1F019968C91D8
:101B800019978617A9F01A968C911A97861781F0E3
:101B90001B968C911B97861759F0FD01369690E0A5
:101BA00080E02191211139C08A0F9B1FFC016683BF
:101BB000CD0104960E94570981E090E00895E62F38
:101BC000F0E067FF11C0E058F10921E030E001C00A
:101BD000220FEA95EAF714968C911497822B1496AB
:101BE0008C93149760E0BBCFE55EFC4F649161116C
:101BF00009C081E090E013969C938E93129790E039
:101C000080E0089567FFABCF14968C9114978260A3
:101C100014968C9314976F77A2CF01968630910516
:101C200009F0BFCFE6CFEF92FF921F93CF93DF93E0
:101C3000EC01162F0E94AB0D7C01612FCE010E949A
:101C40006B0DC7019927DF91CF911F91FF90EF9006
:101C5000089585ED8093BC008091BC0084FDFCCF8D
:101C600010920E05089520916004260F3327331F2C
:101C700021323105ECF420910E05FC0190E080E06A
:101C8000243069F082E00895A09160042191AC01B4
:101C9000405C5B4FA40FB52FB11D2C9301968617A6
:101CA00098F380916004680F6093600480E0089569
:101CB00081E00895E091A5048091A404E81730F430
:101CC000F0E0E05EFB4F808190E008958FEF9FEFA2
:101CD00008959091A5048091A4042FEF3FEF9817E9
:101CE00048F4E92FF0E0E05EFB4F208130E09F5F99
:101CF0009093A504C90108958091A4049091A5042E
:101D0000891B990B0895CF92DF92EF92FF920F9368
:101D10001F93CF93DF937C01CB018A0120910F05A4
:101D2000222389F0EB016B01C40ED51ECC15DD0515
:101D300069F06991D701ED91FC910190F081E02D5E
:101D4000C7010995F3CF642F0E94330EC801DF91BC
:101D5000CF911F910F91FF90EF90DF90CF9008955A
:101D6000CF93DF931F92CDB7DEB7698320910F0524
:101D70002223F9F020913205203258F021E030E0A2
:101D8000FC013383228390E080E00F90DF91CF91BC
:101D9000089580911005E82FF0E0EF5EFA4F9981E9
:101DA00090838F5F809310058093320581E090E0EF
:101DB000ECCF61E0CE0101960E94330EF7CFCF93B6
:101DC000DF93C2ECD5E09FEF988B682FCE010E9485
:101DD0007C06188ADF91CF910895CF93DF93C2ECF0
:101DE000D5E02FEF288BFC01448155816081718102
:101DF000CE010E948306188ADF91CF91089581E079
:101E000080930F0580E580933105109210051092A4
:101E1000320581E00E944D0591E0811190E0892F0B
:101E20000895CF93C62F682F82EC95E00E94670A31
:101E30006C2F82EC95E0CF910C94580A0F931F936E
:101E4000CF93DF93EC01062F142F8B89813120F47F
:101E5000882331F0411104C081E00E944D051B8AA6
:101E60008B89811112C08A8991E090930F0580932C
:101E70003105109210051092320560E4111101C075
:101E800060E086EB95E00E94B00E602F86EB95E057
:101E90000E94B00E123041F48B898F5F8B8BDF91E3
:101EA000CF911F910F91089581E00E944D051B8AEB
:101EB000F6CF089590E080E00895FC0101900020A5
:101EC000E9F73197AF01481B590BBC0182EC95E053
:101ED0000C9483060C945D0F0E94BE0A61E070E0D2
:101EE0008AE190E00E94110F8AE592E00E946A0F59
:101EF00063E070E083E290E00E94110F89E692E0D7
:101F00000E946A0F64E070E08DE190E00E94110F82
:101F100085E792E00C946A0FCF93DF930E945D0FE8
:101F2000EC0183E892E00E945D0F8C0F9D1FDF9112
:101F3000CF9108958F929F92AF92BF92CF92DF92EE
:101F4000EF92FF920F931F93CF93DF93CDB7DEB73E
:101F5000A1970FB6F894DEBF0FBECDBF6C01990FED
:101F6000EE08FF08F7FE41C06DE282EC95E00E94AA
:101F70007C068C0122273327A9012C193D094E0923
:101F80005F0919A2CE0181967C019AE0892E912CDD
:101F9000A12CB12CCA01B901A50194010E94512ABA
:101FA000605DF70162937F012115310541055105FF
:101FB00089F790E080E0309719F0CF010E945D0F23
:101FC000800F911FA1960FB6F894DEBF0FBECDBF54
:101FD000DF91CF911F910F91FF90EF90DF90CF9005
:101FE000BF90AF909F908F900895A701960119A27E
:101FF0008E010F5D1F4F8AE0C82ED12CE12CF12CF1
:10200000CA01B901A70196010E94512A605DF80139
:1020100062938F01211531054105510589F790E043
:1020200080E0309779F2CF010E945D0FCBCF0F9304
:102030001F93CF93DF930E94BE0A81E08093D30564
:1020400067E070E085E290E00E94110F86E892E080
:102050000E946A0F8091A7049091A80401960E94A3
:102060009A0F8CE892E00E946A0F70E060E090E0C6
:1020700080E00E94110F80E992E00E946A0FCDE299
:10208000D1E0699182EC95E00E947C0681E0CD333D
:10209000D807B9F761E070E090E080E00E94110F8E
:1020A00088E992E00E946A0FCDE1D1E0699182EC6B
:1020B00095E00E947C0681E0CD32D807B9F762E056
:1020C00070E090E080E00E94110F80EA92E00E94B0
:1020D0006A0FCDE0D1E00DE111E0699182EC95E06D
:1020E0000E947C060C171D07C1F764E070E090E0C9
:1020F00080E00E94110F88EA92E00E946A0F65E07A
:1021000070E090E080E00E94110F8DEA92E00E9462
:102110006A0F64E070E08FE590E00E94110F82EB9F
:1021200092E00E946A0F65E070E08CE590E00E940A
:10213000110F81E08093D30588EB92E0DF91CF917E
:102140001F910F910C946A0FEF92FF920F931F93C0
:10215000CF93DF93EC0187E799E099838883EDE7DC
:10216000F9E085919491079623E0969587952A95B5
:10217000E1F78A8799270E94B02A99878887892B57
:1021800009F4A2C0E7E8F9E08591949100E810E035
:102190009C012F5F3F4FFC014491442309F496C0FA
:1021A000413009F03FC00296F9012491211106C087
:1021B0009C0122503109C9010196EACFFC014591E9
:1021C0005491029621504038510581F787E799E0F4
:1021D0009B838A8380E890E09D838C83F0E0E0E03D
:1021E000F490EFE7F9E0059114910115110509F05C
:1021F00051C080E190E00E94B02A9F838E830097B7
:1022000009F466C020E1E8EDF4E0DC0101900D92F4
:102210002A95E1F780E0DF91CF911F910F91FF9018
:10222000EF900895423091F4F901459154919C0149
:102230002D5F3F4FF901859194914138510508F088
:10224000BACF8038910508F4B6CFC0CF433009F03B
:102250003DC0F90145915491FC013396A591B4918B
:10226000FC013596659174919C01295F3F4FF901FE
:10227000E590F4904138510508F09DCFA038B105A4
:1022800008F499CFC8010E94822AE816F90609F0DD
:1022900092CF9CCFEBE7F9E0859194910E94B02A10
:1022A0009F838E830097B1F0F0FC06C0BC0188EDDF
:1022B00094E0F8010995AECFAC0160E870E088EDDC
:1022C00094E0F8010995A6CF81E1A5CF81E0A3CFE5
:1022D00082E0A1CF83E09FCF0F931F9390E0FC019A
:1022E000E75CF64F6491FC01E65EF64FE491F0E0A6
:1022F000EE0FFF1FE45FF64F8591949100E315E721
:1023000020E030E040E00E940C226115710581055B
:10231000910529F06F5F7F4F8F4F9F4F9F701F91E7
:102320000F9108950E94922CFC0180819181009769
:1023300011F00C944C2B0895CF93DF93EC01EA81BC
:10234000FB813E96259134912115310521F08E8136
:102350009F81F90109958E819F810E944C2B888570
:102360009985DF91CF910C944C2BEF92FF920F93B4
:102370001F93CF93DF93EC017B01198218821B829C
:102380001A821D821C82FB0101900020E9F731971F
:102390008F01061B170BB8016F5F7F4F90E080E045
:1023A0000E94D52B0097B9F0998388831B830A83F9
:1023B0002C813D81232B11F4FC0110821D830C83A1
:1023C000B70188819981DF91CF911F910F91FF9083
:1023D000EF900C94A02C88819981009711F00E94B5
:1023E0004C2B198218821D821C821B821A82DF915B
:1023F000CF911F910F91FF90EF900895EF92FF9270
:102400000F931F93CF93DF9300D000D000D0CDB7B0
:10241000DEB70091AB041091AC040130110509F452
:10242000DDC00230110509F451C10115110509F093
:1024300065C062E070E090E080E00E94110FE4E986
:10244000EE2EE1E0FE2EF70181917F012091AD0497
:102450003091AE042017310709F0AEC00E94DF0EA4
:1024600060E282EC95E00E947C060F5F1F4F0B300C
:10247000110549F763E070E090E080E00E94110FE1
:102480007FE9E72E71E0F72E0BE010E0F701819174
:102490007F012091AD043091AE040217130709F0BB
:1024A00091C00E94DF0E60E282EC95E00E947C0603
:1024B0000F5F1F4F0631110549F764E070E090E0AF
:1024C00080E00E94110F6AEAE62E61E0F62EF70125
:1024D00081917F012091AD043091AE040217130762
:1024E00009F076C00E94DF0E60E282EC95E00E9467
:1024F0007C060F5F1F4F0032110549F765E070E061
:1025000090E080E00E94110F8091AD049091AE04A4
:10251000809709F053C16FEB72E0CE0101960E94E3
:10252000B511CE0101960E94ED0ECE0101960E94DA
:10253000941166E070E090E080E00E94110F8091BD
:10254000AD049091AE04819709F03DC165EE72E053
:10255000CE0101960E94B511CE0101960E94ED0EAA
:10256000CE0101960E94941167E070E090E080E057
:102570000E94110F8091AD049091AE04829709F0F2
:1025800027C16FEF72E0CE0101960E94B511CE0116
:1025900001960E94ED0ECE0101960E94941126969E
:1025A0000FB6F894DEBF0FBECDBFDF91CF911F9164
:1025B0000F91FF90EF900895682F82EC95E00E94B4
:1025C0007C064ECF682F82EC95E00E947C066BCF94
:1025D000682F82EC95E00E947C0686CF62E070E076
:1025E00090E080E00E94110F54E7E52E51E0F52EB7
:1025F00010E000E0F70181917F012091AD0430915E
:10260000AE042017310709F04FC00E94DF0E60E2D0
:1026100082EC95E00E947C060F5F1F4F0B30110586
:1026200049F763E070E090E080E00E94110F4FE70F
:10263000E42E41E0F42E0BE010E0F70181917F01E0
:102640002091AD043091AE040217130799F50E9452
:10265000DF0E60E282EC95E00E947C060F5F1F4F68
:102660000631110551F764E070E090E080E00E94CF
:10267000110F3AE8E32E31E0F32EF70181917F014B
:102680002091AD043091AE0402171307C9F40E94E3
:10269000DF0E60E282EC95E00E947C060F5F1F4F28
:1026A0000032110551F72ACF682F82EC95E00E9485
:1026B0007C06ADCF682F82EC95E00E947C06C9CFE6
:1026C000682F82EC95E00E947C06E3CF62E070E028
:1026D00090E080E00E94110F24E5E22E21E0F22E2E
:1026E00010E000E0F70181917F012091AD0430916D
:1026F000AE042017310709F04FC00E94DF0E60E2E0
:1027000082EC95E00E947C060F5F1F4F0B30110595
:1027100049F763E070E090E080E00E94110F9FE5D0
:10272000E92E91E0F92E0BE010E0F70181917F0195
:102730002091AD043091AE040217130799F50E9461
:10274000DF0E60E282EC95E00E947C060F5F1F4F77
:102750000631110551F764E070E090E080E00E94DE
:10276000110F8AE6E82E81E0F82EF70181917F01B2
:102770002091AD043091AE0402171307C9F40E94F2
:10278000DF0E60E282EC95E00E947C060F5F1F4F37
:102790000032110551F7B2CE682F82EC95E00E940D
:1027A0007C06ADCF682F82EC95E00E947C06C9CFF5
:1027B000682F82EC95E00E947C06E3CF81ED92E0E9
:1027C0000E946A0FB6CE81EF92E00E946A0FCCCED3
:1027D0008CE093E00E946A0FE2CE0F931F93CF9399
:1027E000DF930E94BE0A70E060E090E080E00E940B
:1027F000110F8091A9049091AA0481309105D9F01C
:102800008230910541F1892B81F48BE193E00E94A4
:102810006A0FCDE2D1E00DE311E0699182EC95E021
:102820000E947C060C171D07C1F7DF91CF911F9105
:102830000F910C94FE1182E293E00E946A0FCDE1A9
:10284000D1E0699182EC95E00E947C0681E0CD3276
:10285000D807B9F7EACF89E293E00E946A0FCDE08A
:10286000D1E0699182EC95E00E947C0681E0CD3157
:10287000D807B9F7DACFCF93DF9300D000D000D0DC
:10288000CDB7DEB70E94BE0A70E060E08AE090E05B
:102890000E94110F80E393E00E946A0F62E070E0F3
:1028A00083E290E00E94110F83E493E00E948C0F7A
:1028B00063E282EC95E00E94670A8FE493E00E9455
:1028C0008C0F63E282EC95E00E94670A8BE593E04F
:1028D0000E948C0F8091A9049091AA0481309105E7
:1028E00061F18230910591F1892BA1F462E070E0F1
:1028F0008BE190E00E94110F66E673E0CE01019635
:102900000E94B511CE0101960E94ED0ECE010196F6
:102910000E94941167E070E090E080E00E94110F47
:1029200089E893E00E946A0F26960FB6F894DEBFFE
:102930000FBECDBFDF91CF91089563E070E08BE1D2
:1029400090E00E94110F62E773E0D8CF64E070E07E
:102950008BE190E00E94110F6EE773E0CFCF8F9272
:102960009F92AF92BF92EF92FF920F931F93CF93DC
:10297000DF93CDB7DEB72B970FB6F894DEBF0FBE4F
:10298000CDBF0091A7041091A8040E94FF0E8823D8
:1029900009F427C136E0000F111F3A95E1F781E0F5
:1029A00080930F0580E580933105109210051092F9
:1029B0003205B801110F880B990B672F782F892FDB
:1029C000992787FD9A9586EB95E00E94B00E602FBF
:1029D00086EB95E00E94B00E81E00E944D0500EE6E
:1029E00013E0FF24F394EE24EA9455EEB52E65EC43
:1029F000A62E80910E058111FCCFF0920E05F0926B
:102A00000D05E0920C0510920B0510920A05F0924C
:102A1000E9048091E904806A8093E9048091E804E4
:102A2000813009F0D7C01092E8048091E9048093C6
:102A3000BB008091BC0083FDF8CFA092BC008091C8
:102A40000E058130E1F380910B0591E0811102C008
:102A500090910B05EAEEF4E0A0E2B4E080E0891387
:102A6000BCC01092A5048093A40486EB95E00E945C
:102A7000690EF80181938F01F4E000321F0709F01D
:102A8000B8CF81E00E944D0520E134E060ED73E0B5
:102A9000A1EBB4E088ED94E0F90141919F01FB01C5
:102AA0004193BF014C911296FC014193CF01F3E099
:102AB000603E7F0789F7CE0101960E94A410811124
:102AC00040C08B8590E08C01000F111F00521C4FFD
:102AD0007801E81AF90ABE016D5F7F4FC8010E94B4
:102AE0006C0C4B8550E0B701C8010E9400226B8539
:102AF00070E0EE24FF24E61AF70A0E0D1F1DE00E0B
:102B0000F11EBE016D5F7F4FC8010E946C0C4B85AA
:102B100050E0B701C8010E9400228B85081B1109F3
:102B2000BE016D5F7F4FC8010E946C0C4B8550E069
:102B300060ED73E0C8010E940022CE0101960E9460
:102B40009C1100EE13E078018EE5882E912CA12CCB
:102B5000B12CF70181917F0180528F3568F00E947E
:102B60009029A50194010E94E82963547D4FFB013F
:102B70006491F70131976083F0E1EF16F4E0FF060E
:102B800041F78DE291E0ADE1B1E06DE071E020EF61
:102B900033E0F80141918F01FC014193CF01F8012D
:102BA00047854D93478DFB014193BF0120173107A6
:102BB00081F72B960FB6F894DEBF0FBECDBFDF9125
:102BC000CF911F910F91FF90EF90BF90AF909F908A
:102BD0008F900895B092BC0032CF21912D938F5FDA
:102BE0003ECF0E94BE0A8FE993E00E946A0F68EC14
:102BF00070E080E090E00E948B0846CFCF92DF9299
:102C0000EF92FF920F931F93CF9392EDE92E90E0F6
:102C1000F92E23EDC22E20E0D22EC1E0843009F43B
:102C200075C060F48230D1F0833039F1CF911F91BB
:102C30000F91FF90EF90DF90CF900895863009F4C8
:102C400077C008F46CC0873089F7CF911F910F913E
:102C5000FF90EF90DF90CF900C94ED130E94BE0A8E
:102C60008091D1049091D204CF911F910F91FF9048
:102C7000EF90DF90CF900C94A116F092D105E092E6
:102C8000D005F7018491F601949189279827892727
:102C90000197C9F51092CB0564E670E080E090E002
:102CA0000E948B081092A8041092A7040E94BE0AEA
:102CB00064E070E080E290E00E94110FC093D305C1
:102CC0008CEB93E00E946A0F03E010E068EC70E088
:102CD00080E090E00E948B0886EC93E00E946A0FEF
:102CE0000150110999F70E94AF1464EF71E080E080
:102CF00090E00E948B088091D5048F5F8093D5046B
:102D0000C093D3058BCFC093CB05C6CFCF911F9176
:102D10000F91FF90EF90DF90CF900C941710CF9110
:102D20001F910F91FF90EF90DF90CF900C946C0F5C
:102D3000CF911F910F91FF90EF90DF90CF900C9467
:102D40003B140F931F93CF93DF93E091D304F09143
:102D5000D404E031F10508F0C6C0EC01EE54F94EA0
:102D60000C94AA2A4D1730171317F616D916C21647
:102D7000C216C216C216C216C216C216C216C21693
:102D8000C216C2160E94BE0A62E070E08AE090E0BD
:102D90000E94110F82E08093D305E091D304F0915B
:102DA000D404EE0FFF1FE955FB4F808191810E94F3
:102DB0009A0F8091D3049091D404049711F40E9447
:102DC000BE0A62E070E08EE190E00E94110F82E0A6
:102DD0008093D305E091D304F091D404EE0FFF1F4C
:102DE000E755FB4F808191810E949A0F8091D30417
:102DF0009091D404039711F40E94BE0A62E070E03F
:102E000082E390E00E94110F82E08093D305E0916D
:102E1000D304F091D404EE0FFF1FE555FB4F8081E2
:102E200091810E949A0F8091D3049091D4040297CB
:102E300011F40E94BE0A62E070E086E490E00E9415
:102E4000110F82E08093D305E091D304F091D40474
:102E5000EE0FFF1FE355FB4F808191810E949A0F77
:102E60008091D3049091D404019711F40E94BE0A7A
:102E700062E070E08AE590E00E94110F82E08093AA
:102E8000D305E091D304F091D404EE0FFF1FE15578
:102E9000FB4F808191810E949A0F8FEF8093D20522
:102EA00010E000E0B80189E690E00E94110F88EC84
:102EB00093E00E946A0F0E5F1F4F0830110591F7D3
:102EC00062E070E08EE690E00E94110F82E0809355
:102ED000D305CE010E949A0F1092D205DF91CF91B7
:102EE0001F910F9108958091D5048F5F8093D50431
:102EF000DF91CF911F910F910C94FE158F929F92AD
:102F0000AF92BF92CF92DF92EF92FF920F931F93F7
:102F1000CF93DF93CDB7DEB72B970FB6F894DEBF14
:102F20000FBECDBF40EDC42E43E0D42E81EB94E024
:102F300008ED14E06DE271E050EEE52E53E0F52E61
:102F40004DE151E02DE031E0F7014601D4011D9241
:102F50004D01DC01BC900296D801BD928D01DB01D0
:102F6000BD90BD01B192DA01BD90AD01B786D90126
:102F7000BD909D01B78EB0EE8B16B3E09B0631F786
:102F8000CE0101960E94A410811116C04B8550E01D
:102F900060ED73E089859A850E94972C34E0A32E1A
:102FA000B12C00EE13E0F1E0AF1AB10809F05FC0F8
:102FB000CE0101960E949C11E0E1F4E0D6018D91D2
:102FC0006D018193B0EECB16B3E0DB06B9F700914B
:102FD000A7041091A8040E94FF0E882309F466C07C
:102FE00086E0000F111F8A95E1F790E2C92E94E068
:102FF000D92EAA24A39420E5B22EA0920F05B09258
:1030000031051092100510923205612F86EB95E084
:103010000E94B00E602F86EB95E00E94B00EF70183
:1030200061917F0186EB95E00E94B00E81E00E94E5
:103030004D0562E370E080E090E00E948B080F5F36
:103040001F4FCE14DF04C9F62B960FB6F894DEBFDF
:103050000FBECDBFDF91CF911F910F91FF90EF90E9
:10306000DF90CF90BF90AF909F908F9008954B8549
:1030700050E069857A85C8010E940022EB81FC81BD
:103080003A96259134912115310529F06F81788583
:10309000C801F90109954B8550E0B80189859A85E9
:1030A0000E94972C8B85080F111D7DCF0E94BE0AB0
:1030B0008FE993E00E946A0F68EC70E080E090E096
:1030C0000E948B08C1CF1F920F920FB60F9211244E
:1030D0008F939F938091E1009091E100937F909373
:1030E000E10083FF0FC01092E90091E09093EB00A4
:1030F0001092EC0092E39093ED001092D70498E0C8
:103100009093F00082FF22C093E09093E9009091A9
:10311000F200992319F09AE39093E80090919D04AE
:10312000992341F090919D04915090939D049111A9
:1031300001C05D9A9091D604992341F09091D604F4
:1031400091509093D604911101C0289A84FF18C021
:103150008091E2008E7E81608093E2008091E100A8
:103160008F7E8093E10080919E048E7E80618093AB
:103170009E049F918F910F900FBE0F901F901895F6
:1031800080FFF7CF8091E2008E7E80618093E20025
:103190008091E1008E7E8093E10080919E048E7E7E
:1031A0008160E5CF1F920F920FB60F921124CF923C
:1031B000DF92EF92FF920F931F932F933F934F93C2
:1031C0005F936F937F938F939F93AF93BF93EF938F
:1031D000FF93CF93DF93CDB7DEB76C97DEBFCDBF44
:1031E0001092E9008091E80083FF25C068E0CE01DD
:1031F00045960E946F0682EF8093E8008D8987FFD5
:1032000039C09091E80090FFFCCF982F907609F09C
:1032100034C19E894F89588D2F89F88C911131C006
:10322000803861F580919F048093F1001092F10045
:103230008EEF8093E8006C960FB6F894DEBF0FBE59
:10324000CDBFDF91CF91FF91EF91BF91AF919F9152
:103250008F917F916F915F914F913F912F911F912E
:103260000F91FF90EF90DF90CF900F900FBE0F90D7
:103270001F9018959EEF9093E800C7CF1092F10031
:10328000D5CF913059F48111D3CF4130510581F61A
:1032900080919F048D7F80939F04CACF933049F41F
:1032A0008111C6CF4130510519F680919F0482608B
:1032B000F2CF953041F48091E80080FFFCCF206888
:1032C0002093E300B5CF963009F0A9C00B8D1C8D7B
:1032D00022E01092E90010929B0410929A04F212DC
:1032E0002EC010929904109298040E94C4061F8266
:1032F00099E09983FA8291E09E8390EA98879AEF09
:10330000998720919A0430919B04275F3F4F3C831B
:103310002B838D831092E90010929B0410929A04E3
:10332000109399040093980449E050E0BE016F5F48
:103330007F4F80E00E9438060E94C40679CF109328
:103340009904009398040E94B006DC0112960D9136
:103350001C910115110509F451C1D801ED91FC91A1
:103360000480F581E02DBE016B5E7F4FC801099599
:10337000009709F03EC1F80100851185EACFF3E01E
:10338000FF120EC08F89882309F440C0823061F497
:1033900040E860E18DE194E00E940506811148CF8C
:1033A00081E28093EB0047CF813029F440E86BE065
:1033B00081E194E0F1CF833099F70E94B006DC01FF
:1033C0001296ED90FC908E010F5F1F4F6801E11483
:1033D000F10479F0D701ED91FC910680F781E02DA1
:1033E000B801C7010995080F111DF701E084F184A8
:1033F000EECFD8011C92F60101900020E9F7319739
:10340000BF016C197D0940E0C601C6CF6BEF73E0C8
:10341000FB01449150E080E80E94380609CF9730C4
:1034200009F4BECF983021F481E08093F10000CF01
:10343000993009F0FDCE837009F0B2CFEEE3F1E0F0
:1034400081E031E096E32191222371F08093E9003D
:103450003093EB00DF0111972C912093EC009093B7
:10346000ED008F5F873079F78EE78093EA00109246
:10347000EA008F898093D704DBCE8B8D9C8D1092D0
:10348000E90010929B0410929A04909399048093FF
:103490009804898D811192C08E899D89913A49F451
:1034A000813209F07DCF47E050E064E071E080E0D8
:1034B000B3CF913209F074CF833269F48F89988D3C
:1034C000B0E0A0E08093000190930101A09302017D
:1034D000B0930301ADCE803269F48091E80082FFA1
:1034E000FCCF67E084E091E00E946F068BEF809351
:1034F000E8009ECE823209F09BCE8F8980930B012B
:10350000EEEFFFE7859194918B3F9C4D51F1E0E008
:10351000F8E08091040190910501A0910601B0911D
:103520000701803B9440A105B105F1F480910B01A6
:1035300080FD1AC0EE3F8AE0F80789F587E797E734
:10354000918380838091600080939C0488E19BE05C
:103550000FB6F894A895809360000FBE909360001A
:1035600067CEEEEFFAE0D5CF80819181873797471C
:1035700009F05ECEA895809160008861809360001C
:1035800080919C0480936000EE3F2AE0F20789F06E
:103590008091FE0A9091FF0A9183808349CE8081B9
:1035A00091818737980751F29093FF0A8093FE0A22
:1035B000C5CF1092FF0A1092FE0A3ACE0E94B006C2
:1035C000DC0112960D911C910115110509F4E8CE4C
:1035D000D801ED91FC910190F081E02DBE016B5E70
:1035E0007F4FC8010995811123CEF801008511850F
:1035F000EBCF181619060CF41BCED2CEF1E0FF1259
:10360000BECE6FEF73E004CF1F920F920FB60F92F2
:1036100011242F933F938F939F93AF93BF938091E8
:10362000840490918504A0918604B0918704309120
:10363000830423E0230F2D3758F50196A11DB11DFA
:10364000209383048093840490938504A09386043C
:10365000B09387048091880490918904A0918A0492
:10366000B0918B040196A11DB11D809388049093A5
:103670008904A0938A04B0938B04BF91AF919F916A
:103680008F913F912F910F900FBE0F901F90189523
:1036900026E8230F0296A11DB11DD2CF1F920F92D3
:1036A0000FB60F9211242F933F934F935F936F9315
:1036B0007F938F939F93AF93BF93EF93FF938091EB
:1036C000B900887F803609F44AC0F0F5883209F4E1
:1036D000A7C018F5803109F49BC0B8F4882309F419
:1036E000F9C0883009F494C0FF91EF91BF91AF9178
:1036F0009F918F917F916F915F914F913F912F910A
:103700000F900FBE0F901F901895883109F488C054
:10371000803251F780930C0514C0803409F49DC0A9
:1037200040F48033B9F38833F9F680930C0585ECC7
:10373000B0C0803509F485C0883509F496C0883456
:1037400099F60E94290ED0CF883909F48CC038F53B
:10375000883729F050F4883611F0803729F683E055
:1037600080930E051092820457C0883809F47BC0FC
:10377000803919F0803809F0B7CF80918204803207
:1037800008F071C0E091820481E08E0F8093820482
:103790008091BB00F0E0EE59FB4F80833DC0803B41
:1037A00039F0E0F4803A09F479C0883A09F09CCF06
:1037B00084E080930E051092610410926004E09101
:1037C000A204F091A30409958091600481110FC0B7
:1037D00081E0809360041092400409C0803C09F4A9
:1037E000A6CF883C09F4A3CF883B09F07DCFE091B8
:1037F000610481E08E0F80936104F0E0E05CFB4F98
:1038000080818093BB00909161048091600429C005
:103810008091E9048093BB0085EC8093BC0064CF69
:1038200090910B0580910A05981758F5E0910B05CA
:1038300081E08E0F80930B05F0E0E651FB4F808115
:10384000E9CFE0910B0581E08E0F80930B0580910D
:10385000BB00F0E0E651FB4F808390910B05809117
:103860000A059817C8F285E8D8CFE0910B0581E0EA
:103870008E0F80930B058091BB00F0E0E651FB4F6B
:10388000808380910D0581115CCF81E08093E804F5
:1038900084EA8093BC0010920E0526CF85EC8093BD
:1038A000BC0010920E0580918204803230F4E091C9
:1038B0008204F0E0EE59FB4F10826091820470E0C8
:1038C000E091A004F091A10482E694E009951092A1
:1038D00082040ACF10920C0534CF000000000000D3
:1038E00000000000000000000000000000000000D8
:1038F00000000000000000000000000000000000C8
:103900004EE003C04CE001C04AE02F923F924F923C
:103910005F926F927F928F929F92AF92BF92CF925F
:10392000DF92EF92FF920F931F93CF93DF938F93CA
:103930009F93DB01FC01842F43954295A40FB11D99
:10394000E89481909190A190B190C190D190E19034
:10395000F190019111912191319141915191619198
:1039600071919BE10E9070250E9060250E90502570
:103970000E9040250E9030250E9020250E9010259B
:103980000E9000250E90F0240E90E0240E90D0248E
:103990000E90C0240E90B0240E90A0240E9090247F
:1039A0000E9080248A9509F46894F1E4E82D8490BF
:1039B000EC2DC490E02F0491E42F4491E52F249046
:1039C000E12F5491ED2D1491E92DD490922CE62FF6
:1039D0002490E22F3490EE2D6491EA2D2491E22C74
:1039E000A32CEB2D2490EF2DB490E32FF490E72F30
:1039F0003491722D0E9070250E9060250E905025FA
:103A00000E9040250E9030250E9020250E9010250A
:103A10000E9000250E90F0240E90E0240E90D024FD
:103A20000E90C0240E90B0240E90A0240E909024EE
:103A30000E9080242EF5FF91EF9181929192A192A8
:103A4000B192C192D192E192F1920193119321939B
:103A500031934193519361937193DF91CF911F9172
:103A60000F91FF90EF90DF90CF90BF90AF909F901D
:103A70008F907F906F905F904F903F902F90089520
:103A8000FCE32B2C2A24382C3924E22DE325449006
:103A9000FDE3EA2DE82554905424EB2DE92504900C
:103AA0004024682C6B24660C08F469266424B62430
:103AB0006A2C6924660C08F4692664249624220C76
:103AC00008F429262524A224330C08F439263524A9
:103AD0008324FCE32F2C2E243C2C3D24E22DE325D3
:103AE0004490FDE3EE2DEC2554905424EF2DED256C
:103AF000049040246C2C6F24660C08F4692664241E
:103B0000F6246E2C6D24660C08F469266424D624F1
:103B1000220C08F429262524E224330C08F4392643
:103B20003524C324FCE3232E2226302E3126E22D19
:103B3000E3254490FDE3E22FE02754905424E32F43
:103B4000E12704904024602E6326660C08F4692661
:103B500064243625622E6126660C08F469266424E6
:103B60001625220C08F4292625242225330C08F4D6
:103B7000392635240325FCE3272E2626342E352628
:103B8000E22DE3254490FDE3E62FE42754905424EE
:103B9000E72FE52704904024642E6726660C08F47E
:103BA000692664247625662E6526660C08F4692647
:103BB00064245625220C08F4292625246225330C7A
:103BC00008F4392635244325EDCE0000000000001E
:103BD00000000000000000000000000000000000E5
:103BE00000000000000000000000000000000000D5
:103BF00000000000000000000000000000000000C5
:103C00000009121B242D363F48415A536C657E77BC
:103C10009099828BB4BDA6AFD8D1CAC3FCF5EEE7AC
:103C20003B3229201F160D04737A6168575E454C9C
:103C3000ABA2B9B08F869D94E3EAF1F8C7CED5DC8C
:103C4000767F646D525B40493E372C251A1308017C
:103C5000E6EFF4FDC2CBD0D9AEA7BCB58A8398916C
:103C60004D445F5669607B72050C171E2128333A5C
:103C7000DDD4CFC6F9F0EBE2959C878EB1B8A3AA4C
:103C8000ECE5FEF7C8C1DAD3A4ADB6BF8089929B3C
:103C90007C756E6758514A43343D262F1019020B2C
:103CA000D7DEC5CCF3FAE1E89F968D84BBB2A9A01C
:103CB000474E555C636A71780F061D142B2239300C
:103CC0009A938881BEB7ACA5D2DBC0C9F6FFE4EDFC
:103CD0000A0318112E273C35424B5059666F747DEC
:103CE000A1A8B3BA858C979EE9E0FBF2CDC4DFD6DC
:103CF0003138232A151C070E79706B625D544F46CC
:103D00000004080C1014181C2024282C3034383CD3
:103D10004044484C5054585C6064686C7074787CC3
:103D20008084888C9094989CA0A4A8ACB0B4B8BCB3
:103D3000C0C4C8CCD0D4D8DCE0E4E8ECF0F4F8FCA3
:103D40001B1F13170B0F03073B3F33372B2F232763
:103D50005B5F53574B4F43477B7F73776B6F636753
:103D60009B9F93978B8F8387BBBFB3B7ABAFA3A743
:103D7000DBDFD3D7CBCFC3C7FBFFF3F7EBEFE3E733
:103D800036323E3A26222E2A16121E1A06020E0A33
:103D900076727E7A66626E6A56525E5A46424E4A23
:103DA000B6B2BEBAA6A2AEAA96929E9A86828E8A13
:103DB000F6F2FEFAE6E2EEEAD6D2DEDAC6C2CECA03
:103DC0002D2925213D3935310D0905011D19151103
:103DD0006D6965617D7975714D4945415D595551F3
:103DE000ADA9A5A1BDB9B5B18D8985819D999591E3
:103DF000EDE9E5E1FDF9F5F1CDC9C5C1DDD9D5D1D3
:103E00004EE003C04CE001C04AE02F923F924F9237
:103E10005F926F927F928F929F92AF92BF92CF925A
:103E2000DF92EF92FF920F931F93CF93DF938F93C5
:103E30009F93DB01FC01842FE89481909190A190E5
:103E4000B190C190D190E190F190019111912191A7
:103E5000319141915191619171919BE1F3E40D9008
:103E600080240D9090240D90A0240D90B0240D90EE
:103E7000C0240D90D0240D90E0240D90F0240D90DE
:103E800000250D9010250D9020250D9030250D90CA
:103E900040250D9050250D9060250D9070252EF534
:103EA000FF91EF9181929192A192B192C192D192A0
:103EB000E192F192019311932193319341935193A4
:103EC00061937193DF91CF911F910F91FF90EF90CC
:103ED000DF90CF90BF90AF909F908F907F906F902A
:103EE0005F904F903F902F9008958A9509F46894C1
:103EF000E82D8490EC2DC490E02F0491E42F4491A0
:103F0000E92D2490ED2D9490E12FD490E52F14917C
:103F1000522DEA2D2490EE2D3490E22FA490E62F1E
:103F2000E490222D632DEB2D2490E72FB490E32F06
:103F30007491EF2D3491F22C0EF491CF0A2C0B24B6
:103F4000402C282C89240824880C08F489268024F5
:103F50008224392C3A24330C08F439263024932453
:103F6000440C08F449264024A4242B24220C08F4F1
:103F700029262024B2240E2C0F24402C2C2CCD24B6
:103F80000C24CC0C08F4C926C024C2243D2C3E24A9
:103F9000330C08F439263024D324440C08F4492681
:103FA0004024E4242F24220C08F429262024F2247F
:103FB000022E0326402C202E01270026000F08F495
:103FC000092700250225312E3226330C08F4392624
:103FD00030241325440C08F44926402424252326A4
:103FE000220C08F4292620243225062E0726402CF0
:103FF000242E45270426440F08F44927402542254E
:10400000352E3626330C08F4392630245325440C3B
:1040100008F44926402464252726220C08F4292682
:10402000202472251CCF00000000000000000000CA
:104030000000000000000000000000000000000080
:104040000000000000000000000000000000000070
:104050000000000000000000000000000000000060
:104060000000000000000000000000000000000050
:104070000000000000000000000000000000000040
:104080000000000000000000000000000000000030
:104090000000000000000000000000000000000020
:1040A0000000000000000000000000000000000010
:1040B0000000000000000000000000000000000000
:1040C00000000000000000000000000000000000F0
:1040D00000000000000000000000000000000000E0
:1040E00000000000000000000000000000000000D0
:1040F00000000000000000000000000000000000C0
:1041000052096AD53036A538BF40A39E81F3D7FB4C
:104110007CE339829B2FFF87348E4344C4DEE9CB96
:10412000547B9432A6C2233DEE4C950B42FAC34E0B
:10413000082EA16628D924B2765BA2496D8BD125C1
:1041400072F8F66486689816D4A45CCC5D65B69265
:104150006C704850FDEDB9DA5E154657A78D9D8409
:1041600090D8AB008CBCD30AF7E45805B8B3450629
:10417000D02C1E8FCA3F0F02C1AFBD0301138A6B43
:104180003A9111414F67DCEA97F2CFCEF0B4E67373
:1041900096AC7422E7AD3585E2F937E81C75DF6E21
:1041A00047F11A711D29C5896FB7620EAA18BE1B87
:1041B000FC563E4BC6D279209ADBC0FE78CD5AF42D
:1041C0001FDDA8338807C731B11210592780EC5F73
:1041D00060517FA919B54A0D2DE57A9F93C99CEFCF
:1041E000A0E03B4DAE2AF5B0C8EBBB3C83539961D0
:1041F000172B047EBA77D626E169146355210C7D0E
:10420000AB0171E060E007C0AB0170E060EC03C09F
:10421000AB01772760E8EF92FF920F931F93CF9344
:10422000DF93FA01EA01DC0176956795669566955C
:10423000262F0D9001922A95E1F76695669563FB0E
:10424000362F762F795F770F770FDF011497262FA0
:10425000E0E0F3E47F0111E04D915D918D919D913E
:104260003217B1F05EF5022F0770043039F5F7010F
:10427000E40FF11D4491F701E50FF11D5491F70191
:10428000E80FF11D8491F701E90FF11D949116C01B
:10429000360FF701E40FF11D0491F701E50FF11D51
:1042A0004491F701E80FF11D5491F701E90FF11D59
:1042B0008491902F4127110F08F41BE1FD01099013
:1042C0000426019209900526019209900826019280
:1042D0000990092601922395271709F0BDCFE8948C
:1042E000DF91CF911F910F91FF90EF900895000003
:1042F00000000000000000000000000000000000BE
:10430000637C777BF26B6FC53001672BFED7AB7692
:10431000CA82C97DFA5947F0ADD4A2AF9CA472C03D
:10432000B7FD9326363FF7CC34A5E5F171D83115AA
:1043300004C723C31896059A071280E2EB27B275CB
:1043400009832C1A1B6E5AA0523BD6B329E32F8443
:1043500053D100ED20FCB15B6ACBBE394A4C58CF3B
:10436000D0EFAAFB434D338545F9027F503C9FA80F
:1043700051A3408F929D38F5BCB6DA2110FFF3D2DD
:10438000CD0C13EC5F974417C4A77E3D645D197391
:1043900060814FDC222A908846EEB814DE5E0BDB8B
:1043A000E0323A0A4906245CC2D3AC629195E479C2
:1043B000E7C8376D8DD54EA96C56F4EA657AAE081C
:1043C000BA78252E1CA6B4C6E8DD741F4BBD8B8AB7
:1043D000703EB5664803F60E613557B986C11D9E1D
:1043E000E1F8981169D98E949B1E87E9CE5528DF94
:1043F0008CA1890DBFE6426841992D0FB054BB16C0
:10440000FC01DB01CA01009631F04D915081452736
:1044100041930197D1F70895CF92DF92EF92FF92E7
:104420000F931F93E82FF92F05C00150110921099F
:10443000310961F1908196239417B9F305C00150B9
:1044400011092109310911F1908196239413F7CFB5
:10445000C12CD12CE12CF12C0AC08FEFC81AD80A3C
:10446000E80AF80A0C151D052E053F0579F0808134
:104470008623841791F36C2D7D2D8E2D9F2D1F91FA
:104480000F91FF90EF90DF90CF90089560E070E083
:1044900080E090E01F910F91FF90EF90DF90CF9020
:1044A0000895CF93109236051092350588EE93E06B
:1044B000A0E0B0E08093370590933805A0933905CC
:1044C000B0933A0584E192E09093340580933305EC
:1044D0008FEF9FEF9093400580933F051092AD05BD
:1044E0001092AC0582E392E09093AB058093AA050D
:1044F0008091A205811113C010929D0510929C0518
:1045000089E899E090939F0580939E058FE290E063
:104510009093A1058093A00581E08093A2058091EE
:10452000940581112AC0C1E0C0938705C093880516
:104530008DE895E090938A058093890510928C050B
:1045400010928B0586E292E0909384058093830518
:1045500010928F0510928E05109291051092900581
:10456000C0939205C093930581EC80938D050E94C2
:10457000B0060E940705C0939405E0918E05F09166
:104580008F05309709F068C08CE995E090938F050E
:1045900080938E0580919005909191052091A005C2
:1045A0003091A105820F931F909391058093900500
:1045B0001092B9051092B80588EE93E0A0E0B0E043
:1045C0008093BA059093BB05A093BC05B093BD053D
:1045D0008EE392E09093B7058093B60587E090E074
:1045E0009093D7058093D60588E090E09093D90505
:1045F0008093D8051092DC0580E28093DD0510924F
:10460000DE0585E08093E40585E090E0A0E0B0E081
:104610008093EA059093EB05A093EC05B093ED052C
:104620001092DF051092C5051092C4051092CE05B8
:104630001092CF051092D1051092D0051092D2059C
:1046400081E08093D30580E592E09093C305809349
:10465000C205CF910895FC01808191810097D9F71F
:104660008CE995E09183808395CFCF93DF9300D041
:1046700000D0CDB7DEB7789484B5826084BD84B5B0
:10468000816084BD85B5826085BD85B5816085BD4D
:1046900080916E00816080936E0010928100809105
:1046A000810082608093810080918100816080938D
:1046B00081008091800081608093800080919100D2
:1046C000826080939100809191008160809391003D
:1046D000809190008160809390008091C1008460FF
:1046E0008093C1008091C10082608093C10080915D
:1046F000C10081608093C1008091C300816080937C
:10470000C3008091C00082608093C0008091C2008D
:1047100081608093C20080917A00846080937A00E7
:1047200080917A00826080937A0080917A00816023
:1047300080937A0080917A00806880937A0010924A
:10474000D70410929F0410929E048091D70081603C
:104750008093D70080EA8093D80089B5806189BDB5
:1047600089B5826089BD09B400FEFDCF61E070E0CB
:1047700080E090E00E948B088091D8008F7C80615F
:104780008093D8008091E000807F8093E00080914A
:10479000E1008E7E8093E1008DE08093E200559AE7
:1047A000209A1092A5041092A40410921005109261
:1047B000320510920E0581E080930D051092E804F9
:1047C00061E082E00E94E70761E083E00E94E70782
:1047D0008091B9008E7F8093B9008091B9008D7F60
:1047E0008093B90088E48093B80085E48093BC008E
:1047F00085ED95E09093A3048093A20486ED95E067
:104800009093A1048093A0048CE08093B800109250
:10481000D5058CE38093D4051092C6051092C70588
:10482000E6E0F9E085919491082FE8E0F9E0149131
:10483000E9E0F9E0E491E093C805EAE0F9E0E49109
:10484000E093C905EBE0F9E0E491E093CA058983C0
:104850009A838981801B811770F4E981FA816491C0
:1048600082EC95E00E94500A29813A812F5F3F4FE8
:104870003A832983EECF0E94BE0AEAE5F4E0F09382
:10488000D105E093D0058491EBE5F4E0E491F82FB5
:10489000319709F043C21092CB0582E08093D50492
:1048A0000E94BE0A8091D1049091D2040E94A11668
:1048B0000FB6F894A895809160008861809360009D
:1048C000109260000FBE8FEF9FEF90934005809392
:1048D0003F058091D6059091D7052091D80530915C
:1048E000D9058217930719F061E00E94350880917D
:1048F000D8059091D9052091D6053091D705281774
:10490000390719F061E00E9435083FB73983F89400
:104910008091A604811127C0EBE2F9E08491EAE4DA
:10492000F9E09491E82FF0E0EE0FFF1FE25DFB4FFE
:10493000A591B491EC91E92321F461E081E10E9419
:10494000E70761E081E10E9435088CB580618CBD8C
:104950008CB580648CBD61E08FE00E94350861E019
:1049600080E10E9435088091A6048F5F8093A604A1
:1049700089818FBF8091D6059091D7052091D80568
:104980003091D9058217930719F060E00E94E7077C
:1049900081E00E94150865E070E080E090E00E94F0
:1049A0008B086CE080E00E94E7096FE584E00E94DC
:1049B000E70986E00E94D509877D806289838BE9BB
:1049C00090E0A0E0B0E08093E6059093E705A09327
:1049D000E805B093E905698186E00E94E70986E071
:1049E0000E94D5099981981303C081E08093DC056A
:1049F00086E00E94D50986E00E94D50945E550E091
:104A000060E070E04093E6055093E7056093E805A9
:104A10007093E905682F677D86E00E94E70986E0CC
:104A20000E94D50980E00E94150880E50E94C00917
:104A300083E70E94C00981E00E94150860E08DE1D3
:104A40000E94E70960E08CE10E94E7091092DE0510
:104A500060E787E00E94E7096CE485E00E94E709CF
:104A600080E00E94150882EE0E94C00981E00E9449
:104A700015080E94C7090E94FE0980E00E94D5091E
:104A8000682F6E7F80E00E94E7094091E40550E0C6
:104A90006EE471E08FED95E00E94972CE2E4F4E083
:104AA00084914091E4056EE471E00E940F0AECE30A
:104AB000F4E084916091DD050E94E70982E00E94A4
:104AC000D509E8E4F4E0949161E070E001C0660F7C
:104AD0009A95EAF7682B82E00E94E70986E00E9437
:104AE000D509887F682F616086E00E94E7090E94EF
:104AF000FE0980E00E94D509682F616080E00E9475
:104B0000E70960E787E00E94E7098091D605909168
:104B1000D7052091D8053091D9058217930719F050
:104B200061E00E94E7078091DF05882309F4FAC05D
:104B30004091E4056FED75E08AE00E940F0A8DE177
:104B40000E94D50981FD0E94C70983E080930C0172
:104B500062E087E00E94350862E08FE00E9435083D
:104B600062E080E10E94350862E08EE00E94350834
:104B700062E08AE00E943508EEE4F4E0E49190916E
:104B80007B008E2F880F880F80729F7D892B8093EA
:104B90007B0080910C0120E4829FC0011124E7700A
:104BA000E82BE0937C0080917A00806480937A0007
:104BB00080917A0086FDFCCF809178006091790029
:104BC000762F682F072E000C880B990B6115710545
:104BD0008105910511F00E94DF2962E370E080E019
:104BE00090E00E948B088091D5040E94FE1563E03E
:104BF000E62EF12C7CE5472E512C612C712C4DE3D7
:104C0000C42E41E0D42E5DE1252E51E0352E8FE0FB
:104C10000E946C114B0180E10E946C117A836983C0
:104C20008AE00E946C118B018EE00E946C117C83E3
:104C30006B83181419046CF48091D504853009F441
:104C4000BCC00CF083C0823009F4A1C0843009F4E8
:104C5000AEC029813A811216130654F48091D5040E
:104C6000843009F4F7C00CF0C2C0823009F4DDC012
:104C70001016110644F48091D504843009F40CC157
:104C8000873009F41DC12B813C8112161306DCF418
:104C90008091D504863009F426C1873009F429C1F2
:104CA000843089F48091A7049091A804019797FD1E
:104CB00017C19093A8048093A7040E94AF14809119
:104CC000D5040E94FE150E94C307892BF9F464E6FF
:104CD00070E080E090E00E948B080E94C307892B5F
:104CE000A9F464EF71E080E090E00E948B080E94DC
:104CF000C3072091D504892B09F072C1233009F430
:104D000078C10CF00BC1223009F413C180E090E0AF
:104D1000892B09F47CCF0E94000071CF81E0809341
:104D2000CB05BBCD82E00E94D509E8E4F4E0F49124
:104D3000F98321E030E001C0220FFA95EAF72095CF
:104D4000622F682382E00E94E709F9CE8630D9F10C
:104D5000873009F07ECF8091AD049091AE0480320F
:104D600091050CF442C001979093AE048093AD047A
:104D70008091AD049091AE0497FF06C0E2E2F0E0AE
:104D8000F093AE04E093AD040E94FE1162CF8091D7
:104D9000D1049091D20401966AE070E00E94962AB4
:104DA0009093D2048093D1040E94A11652CF86E042
:104DB0008093D5040E943B144CCF84E08093D504AB
:104DC0000E94171046CF8091A9049091AA040197E0
:104DD00097FD08C09093AA048093A90486E00E94DE
:104DE000FE1537CF82E090E0F5CF0B97BDCF863030
:104DF000B9F1873009F03CCF8091AD049091AE04B9
:104E000080329105ECF101969093AE048093AD044D
:104E10008091AD049091AE04839724F01092AE047B
:104E20001092AD040E94FE1123CF8091D104909185
:104E3000D204019797FD0BC09093D2048093D104C4
:104E40008091D1049091D2040E94A11611CF89E0E3
:104E500090E0F2CF85E08093D5040E946C0F08CFDC
:104E60008091A9049091AA040196B7010E94962A04
:104E70009093AA048093A90486E00E94FE15F8CEC0
:104E80000B96803291050CF4BFCFE0E2F0E0F09396
:104E9000AE04E093AD04BCCF8091A7049091A80428
:104EA000019664E170E00E94962A9093A804809392
:104EB000A7040E94AF148091D5040E94FE15E3CE92
:104EC0008091AD049091AE04019660E270E00E9482
:104ED000962A9093AE048093AD040E94FE11D3CE27
:104EE00083E190E0E6CE84E08093D5040E94171021
:104EF000EACE8091AD049091AE04019797FD07C072
:104F00009093AE048093AD040E94FE11DCCEEFE1DD
:104F1000F0E0F093AE04E093AD04F6CF243009F155
:104F2000263009F0F3CE84E08093D5040E94171058
:104F3000EDCEE091D304F091D404E330F1050CF40C
:104F4000E5CEEE0FFF1FEF54FB4F8091D1049091FF
:104F5000D2049183808383E08093D5040E94FE1560
:104F6000D5CE0DE111E0F80161918F01603221F0A1
:104F70008AEA95E00E947C062DE231E02017310795
:104F800091F763EB8AEA95E00E94AB0D63EB8AEA46
:104F900095E00E946B0D0DE011E0F80161918F0129
:104FA000603221F08AEA95E00E947C0620163106E4
:104FB000A1F764E170E080E090E00E948B0860EB74
:104FC0008AEA95E00E94AB0D60EB8AEA95E00E94C8
:104FD0006B0D68EE73E080E090E00E948B0896CE47
:104FE000253009F44CC03CF4223061F1233009F043
:104FF0008DCE84E0B1CF263009F45BC0273009F0B4
:1050000085CE2091AD043091AE042132310509F4F2
:1050100088C02232310509F4CDC08091AB04909153
:10502000AC042032310509F0CDC00196B7010E94D1
:10503000962A9093AC048093AB040E94FE11809159
:10504000D5048CCF8091D3049091D404FC01EE0F51
:10505000FF1FEF54FB4F2091D1043091D2043183D4
:10506000208301969093D4048093D3041092D204A9
:105070001092D10490E080E00E94A11647CEEDE2AC
:10508000F1E080E28193CE16DF06E1F7EDE1F1E099
:1050900080E281932DE231E02E173F07D1F7EDE05A
:1050A000F1E080E281932E163F06E1F70E947E1721
:1050B0003ACF1092B0041092AF041092AE04109246
:1050C000AD041092AC041092AB0487E08093D50439
:1050D0008091A9049091AA048130910579F08230E1
:1050E0009105B1F0892B39F4EDE2F1E080E2819392
:1050F000CE16DF06E1F70E94ED1308CEEDE1F1E0F8
:1051000080E281932DE231E02E173F07D1F7F3CFF4
:10511000EDE0F1E080E2819331E0ED31F307D9F782
:10512000EACF8091A9049091AA0481309105D1F031
:105130008230910561F1892B09F081CF0DE211E0F8
:105140000E949029A30192010E94E8296C547E4F8D
:10515000FB018081F80181938F01F1E00D331F077E
:1051600079F76DCF0DE111E00E949029A301920122
:105170000E94E8296C547E4FFB018081F8018193E5
:105180008F012DE231E02E173F0771F758CF0DE068
:1051900011E00E949029A30192010E94E8296C5419
:1051A0007E4FFB018081F80181938F012E163F060F
:1051B00081F745CF0E947E1784E08093D5040E943A
:1051C00017103DCF4091AF045091B004813091054C
:1051D00059F18230910509F442C0892B71F4809114
:1051E000A9049091AA048130910571F08230910553
:1051F00099F02C563E4F892B29F14F5F5F4F50930A
:10520000B0044093AF041BCF2C563E4FF901808170
:10521000FA01E35EFE4F1BC02C563E4FF901808120
:10522000FA01E35FFE4F13C08091A9049091AA0494
:105230008130910571F08230910571F02C583E4F0C
:10524000892BD9F6F9018081FA01E35DFE4F808355
:10525000D4CF2C583E4FDACF2C583E4FDFCF809121
:10526000A9049091AA048130910541F08230910502
:1052700041F0892B11F62C5A3E4FE4CF2C5A3E4F69
:10528000C5CF2C5A3E4FCACF8F929F92AF92BF92FA
:10529000CF92DF92EF92FF92CF93DF93EC01688180
:1052A00079818A819B81611571058105910521F4C0
:1052B00064E279ED8BE597E02DE133EF41E050E0DA
:1052C0000E94E82949015A019B01AC01A7EAB1E417
:1052D0000E94072A6B017C01ACEEB4EFA50194019A
:1052E0000E94152AC60ED71EE81EF91EF7FE06C03C
:1052F00081E0C81AD108E10880E8F80AC882D9829A
:10530000EA82FB82C701B6019F77DF91CF91FF90C0
:10531000EF90DF90CF90BF90AF909F908F900895C7
:105320008F929F92AF92BF92CF92DF92EF92FF92B5
:10533000609144017091450180914601909147012F
:10534000611571058105910521F464E279ED8BE524
:1053500097E02DE133EF41E050E00E94E829490158
:105360005A019B01AC01A7EAB1E40E94072A6B0134
:105370007C01ACEEB4EFA50194010E94152AC60E83
:10538000D71EE81EF91EF7FE06C081E0C81AD10834
:10539000E10880E8F80AC0924401D0924501E09209
:1053A0004601F0924701C701B6019F77FF90EF9049
:1053B000DF90CF90BF90AF909F908F9008956093B3
:1053C00044017093450180934601909347010895ED
:1053D000052E97FB1EF400940E94FF2957FD07D06D
:1053E0000E94512A07FC03D04EF40C94FF295095DB
:1053F0004095309521953F4F4F4F5F4F08959095C1
:105400008095709561957F4F8F4F9F4F08950E94B3
:10541000732AA59F900DB49F900DA49F800D911DA0
:1054200011240895B7FF0C94072A0E94072A821BB3
:10543000930B08952F923F924F925F926F927F92BB
:105440008F929F92AF92BF92CF92DF92EF92FF9294
:105450000F931F93CF93DF93CDB7DEB7CA1BDB0B40
:105460000FB6F894DEBF0FBECDBF09942A883988E5
:1054700048885F846E847D848C849B84AA84B984EC
:10548000C884DF80EE80FD800C811B81AA81B981F8
:10549000CE0FD11D0FB6F894DEBF0FBECDBFED010C
:1054A0000895A1E21A2EAA1BBB1BFD010DC0AA1F65
:1054B000BB1FEE1FFF1FA217B307E407F50720F07D
:1054C000A21BB30BE40BF50B661F771F881F991FF8
:1054D0001A9469F760957095809590959B01AC0141
:1054E000BD01CF010895A29FB001B39FC001A39F4A
:1054F000700D811D1124911DB29F700D811D11240D
:10550000911D0895AA1BBB1B51E107C0AA1FBB1F19
:10551000A617B70710F0A61BB70B881F991F5A953F
:10552000A9F780959095BC01CD01089597FB072EB2
:1055300016F4009407D077FD09D00E94822A07FC58
:1055400005D03EF4909581959F4F08957095619593
:105550007F4F0895EE0FFF1F0590F491E02D099401
:105560000F931F93CF93DF938230910510F482E065
:1055700090E0E091F005F091F10530E020E0B0E03E
:10558000A0E0309799F42115310509F44AC0281B91
:10559000390B24303105D8F58A819B81611571055D
:1055A00089F1FB0193838283FE0111C04081518107
:1055B0000281138148175907E0F04817590799F4F9
:1055C000109761F012960C93129713961C933296D3
:1055D000CF01DF91CF911F910F9108950093F005B6
:1055E0001093F105F4CF2115310551F042175307FF
:1055F00038F0A901DB019A01BD01DF01F801C1CF3B
:10560000EF01F9CF9093F1058093F005CDCFFE0126
:10561000E20FF31F8193919322503109398328833C
:10562000D7CF2091EE053091EF05232B41F4209147
:105630004A0130914B013093EF052093EE05209104
:105640004801309149012115310541F42DB73EB78C
:1056500040914C0150914D01241B350BE091EE051A
:10566000F091EF05E217F307A0F42E1B3F0B28176C
:10567000390778F0AC014E5F5F4F2417350748F0CB
:105680004E0F5F1F5093EF054093EE05819391936A
:105690009FCFF0E0E0E09CCFCF93DF930097E9F05D
:1056A000FC01329713821282A091F005B091F105AE
:1056B000ED0130E020E01097A1F420813181820FCC
:1056C000931F2091EE053091EF052817390709F057
:1056D00061C0F093EF05E093EE05DF91CF9108955F
:1056E000EA01CE17DF07E8F54A815B819E0141158B
:1056F0005105B1F7E901FB83EA8349915991C40F40
:10570000D51FEC17FD0761F4808191810296840F0B
:10571000951FE90199838883828193819B838A8382
:10572000F0E0E0E012968D919C9113970097B9F507
:105730002D913C911197CD010296820F931F2091DC
:10574000EE053091EF052817390739F6309751F5F6
:105750001092F1051092F005B093EF05A093EE05BD
:10576000BCCFD383C28340815181840F951FC8175A
:10577000D90761F44E5F5F4F88819981480F591FA7
:10578000518340838A819B819383828321153105D4
:1057900009F0B0CFF093F105E093F0059ECFFD0145
:1057A000DC01C0CF13821282D7CFB0E0A0E0EBEDD6
:1057B000FBE20C941C2A8C01009751F4CB010E944F
:1057C000B02A8C01C801CDB7DEB7E0E10C94382ACD
:1057D000FC01E60FF71F9C0122503109E217F30785
:1057E00008F49DC0D901CD91DC911197C617D70758
:1057F00098F0C530D10530F3CE010497861797078E
:1058000008F3C61BD70B2297C193D1936D937C935A
:10581000CF010E944C2BD6CF5B01AC1ABD0A4C01C4
:105820008C0E9D1EA091F005B091F105512C412CDC
:10583000F12CE12C109731F58091EE059091EF0558
:105840008815990509F05CC04616570608F058C03F
:105850008091480190914901009741F48DB79EB71E
:1058600040914C0150914D01841B950BE817F907AD
:1058700008F055C0F093EF05E093EE05F901718350
:105880006083A0CF8D919C91119712966C90129786
:1058900013967C901397A815B90559F56C0142E051
:1058A000C40ED11CCA14DB0420F1AC014A195B09F7
:1058B000DA011296159780F06282738251834083D9
:1058C000D9016D937C93E114F10471F0D701139623
:1058D000FC93EE93129776CF22968C0F9D1FF901C1
:1058E00091838083F301EFCFF093F105E093F0050E
:1058F00069CF4816590608F42C017D01D3019ACFCF
:10590000CB010E94B02A7C01009749F0AE01B8019A
:105910000E94972CC8010E944C2B870153CF10E0A6
:1059200000E050CF81E090E0F8940C94A72CFB01AC
:10593000DC0102C001900D9241505040D8F708950B
:10594000FB01DC0101900D920020E1F70895F8942D
:02595000FFCF87
:10595200FFFFFFFF00E10000000000000120202007
:105962002020202020202020202020202020202035
:105972002020202020202020202020202020202025
:105982002020202020202020202020202000C18034
:1059920081000000010000000000F20580003030AC
:1059A20030303100303132333435363738392D2BFF
:1059B20021402324255E262A5F2B607E3B3A222744
:1059C2002C2E20206162636465666768696A6B6C6D
:1059D2006D6E6F707172737475767778797A3C3EFA
:1059E2007C5C2F3F4142434445464748494A4B4C21
:1059F2004D4E4F505152535455565758595A2829C3
:105A02005B5D7B7D4142434445464748494A4B4C96
:105A12004D4E4F505152535455565758595A2829A2
:105A22005B5D7B7D6162636465666768696A6B6CF6
:105A32006D6E6F707172737475767778797A3C3E99
:105A42007C2F3F303132333435363738392D2B21E4
:105A5200402324255E262A5F2B607E3B3A222C2E91
:105A620000000000F506AA0916070B075D071B07D1
:105A72003907000000007B0CF40CB90C9E0C0000EE
:105A82000000130E3F0D5A0F590F00000000B00E18
:105A9200830E5A0FD4057C0E690E5A0E00000000C8
:105AA200D90A83065A0F590F1E0F41726520596F8A
:105AB200752053757265203F00594553203A205096
:105AC20072657373004E4F203A20537769706520D8
:105AD2007570000D0A005061676520002F3230009A
