:100000000C94DD040C9405050C9405050C94050571
:100010000C9405050C9405050C9405050C94050538
:100020000C9405050C9405050C94A3180C94121956
:100030000C9405050C9405050C9405050C94050518
:100040000C9405050C9405050C9405050C94050508
:100050000C9405050C9405050C9405050C94441BA3
:100060000C9405050C9405050C9405050C940505E8
:100070000C9405050C9405050C9405050C940505D8
:100080000C9405050C9405050C9405050C940505C8
:100090000C948E1B0C9405050C9405050C94050519
:1000A0000C9405050C9405050C940505AED580A8A7
:1000B0003FD300408D142002A1C8DA12817FD9F10C
:1000C000DB40A4A6AF01018000004145532D313231
:1000D0003800000005072061000000000000005FFC
:1000E00000000007000700147F147F14242A7F2AD1
:1000F000122313086462364955225000050300009C
:10010000001C2241000041221C00082A1C2A080869
:10011000083E080800503000000808080808006081
:1001200060000020100804023E5149453E00427F15
:10013000400042615149462141454B311814127F1C
:100140001027454545393C4A4949300171090503A5
:100150003649494936064949291E0036360000000D
:1001600056360000000814224114141414144122BD
:100170001408000201510906324979413E7E1111ED
:10018000117E7F494949363E414141227F4141220A
:100190001C7F494949417F090901013E41415132D2
:1001A0007F0808087F00417F41002040413F017FD8
:1001B000081422417F404040407F0204027F7F04B8
:1001C00008107F3E4141413E7F090909063E4151E9
:1001D000215E7F09192946464949493101017F01BC
:1001E000013F4040403F1F2040201F7F2018207FBC
:1001F0006314081463030478040361514945430000
:10020000007F4141020408102041417F00000402A8
:1002100001020440404040400001020400205454C8
:1002200054787F484444383844444420384444484F
:100230007F3854545418087E090102081454543C61
:100240007F0804047800447D40002040443D0000C5
:100250007F10284400417F40007C041804787C080B
:1002600004047838444444387C14141408081414E2
:10027000187C7C080404084854545420043F44402B
:10028000203C4040207C1C2040201C3C4030403C16
:1002900044281028440C5050503C4464544C4400B2
:1002A0000836410000007F000000413608000808C1
:1002B0002A1C08081C2A08080006090906414243AE
:1002C0004445464748494A4B4C4D4E4F5051525376
:1002D0005455565758595A28295B5D7B7D61626396
:1002E0006465666768696A6B6C6D6E6F7071727356
:1002F0007475767778797A3C3E7C5C2F3F3031326A
:10030000333435363738392D2B21402324255E26CA
:100310002A5F2B607E3B3A22272C2E000000000033
:100320000000002A2B280000000000000000000050
:1003300000000000000000000000002C9EB4A0A1FE
:10034000A2A434A6A7A5AE362D3738271E1F20211C
:100350002223242526B333B62EB7B89F84858687FB
:1003600088898A8B8C8D8E8F909192939495969795
:1003700098999A9B9C9D2F3130A3AD3504050607B3
:1003800008090A0B0C0D0E0F101112131415161775
:1003900018191A1B1C1DAFB1B0B50000030C0F30AB
:1003A000333C3FC0C3CCCFF0F3FCFF00000000257E
:1003B0000028002B002E003100080B000202020072
:1003C00000090400000102020000052400100105DC
:1003D0002401010104240206052406000107058109
:1003E0000310004009040100020A00000007050292
:1003F00002400000070583024000000403090412C4
:10040000010002EF02014041233680000101020396
:100410000141726475696E6F204C4C4300417264F7
:1004200075696E6F204C656F6E6172646F000000BD
:100430000000240027002A002D00300011121314A0
:1004400015160A0B0C0D0E0F00010203040507061A
:1004500005040100080A0B0C0D0920550A0F206045
:1004600002010408060A0901030305070203010645
:100470000605060606060606060601020607060526
:100480000C0907080806050808010406060B0809F8
:10049000060A07050708090B0807070306030708EC
:1004A00003060605060604070601020501090606FD
:1004B00006060405040605090505040401040708E9
:1004C00000000000FE1A1E00001E0000000020A018
:1004D0007C2020A07C20021E0202021E0202384460
:1004E0004487840808107010100E38444438806027
:1004F000108C80000000180402000E10100E805CAA
:100500002262920C00C0000E101010100A040A1093
:100510001E00F00C021E6080020CF080601E241889
:100520007E18240000000000808080F08080800021
:1005300000000E000000000040380000000202022F
:100540000018000080601806601806000000F8041B
:10055000040404F80E101010100E1008FC00001017
:10056000101E101008040404C438101814121010BF
:100570000844444444B808101010100E00C0300C59
:10058000FC00060404041E04007C44444484081057
:100590001010100EF088444444840E101010100EF9
:1005A000040404C4340C00100C020000B844444499
:1005B00044B80E101010100E7884848444F8101083
:1005C000101008066018006040388040402020105D
:1005D0000002020404082020202020202002020221
:1005E000020202021020204040800804040202009F
:1005F0000402C2423C00001A0000C03008884424B3
:100600002444E40408F00E30204648484446480894
:1006100004020000C0300C30C000001806020202C4
:1006200002020618FC44444444B8001E1010101086
:10063000100EF0080404040404080608101010103A
:100640001008FC040404040408F01E10101010101C
:100650000806FC44444444041E1010101010FC44CE
:100660004444441E00000000F0080404848484888C
:10067000060810101010100EFC404040404040FC96
:100680001E0000000000001EFC1E000000FC1010F8
:10069000100EFC40A01008041E0000060810FC000C
:1006A000000000001E1010101010FC0C30C00000E4
:1006B00000C0300CFC1E0000000618060000001EE2
:1006C000FC041860800000FC1E000000020C101EDC
:1006D000F008040404040408F006081010101010B8
:1006E0000806FC84848484781E0000000000F00862
:1006F000040404040408F000060810101010101878
:100700002620FC8484848478001E000000020C10E3
:100710003844448408081010100E040404FC040437
:10072000040000001E000000FC000000000000FCAF
:1007300006081010101008060C30C0000000C03071
:100740000C0000000618060000001CE00000E01C81
:10075000E00000E01C00021C06000000061C020075
:10076000040830C0C0300804100806000006081055
:10077000041860806018040000001E0000000404DB
:1007800004C424140C18141210101010FE0202FEDF
:1007900080800618608000000000000618600202D9
:1007A000FE8080FE80601804186080000000000059
:1007B0000000000000000000000080808080808039
:1007C00080800204080000004020202020C00C127D
:1007D00012120A1EFE40202020C01E081010100E0B
:1007E000C0202020400E10101008C020202040FE05
:1007F0000E101010081EC020202020C00E12121251
:10080000121220FC2222001E0000C020202020E026
:10081000206A949494949260FE40202020C01E0090
:100820000000001EE81E00E8807EFE008040201EC2
:1008300002040810FE1EE0402020C0402020C01E00
:100840000000001E0000001EE040202020C01E000E
:100850000000001EC020202020C00E101010100E1E
:10086000E040202020C0FE081010100EC0202020E4
:1008700040E00E10101008FEE04020201E00000096
:10088000C020202020101212120C20F82020000E70
:100890001010E000000000E00E101010081E608034
:1008A0000080600006180600608000806080008084
:1008B0006000061806000618060020C000C02010C0
:1008C0000C020C10608000806000C63806002020FA
:1008D000A06018161010807C0202007E8080FEFE50
:1008E00002027C8080807E003008081020201800E2
:1008F000000000000000FC041494946404FC1E102A
:1009000010141010101EAC001980400000000000F0
:100910002300260029002C002F00040404040403F3
:10092000040502020202040302020202060606068F
:1009300006060404020202040404080201104080B6
:1009400040102040804080080204018040201002B6
:1009500001108010204040200000000200090F001C
:1009600000030401000C0000000000000000000073
:10097000000000000000000100CA00B000800088F4
:1009800021841F041D0000C50005010906A1018581
:1009900002050719E029E715002501750195088171
:1009A00002950175088103950675081500257305E4
:1009B00007190029738100C0D12211241FBECFEF77
:1009C000DAE0DEBFCDBF13E0A0E0B1E0E4E9FBE593
:1009D00002C005900D92AE3CB107D9F725E0AEEC10
:1009E000B3E001C01D92A03FB207E1F714E0CDEDE6
:1009F000D4E004C02197FE010E94CB2BCC3DD1074F
:100A0000C9F70E94B5230C94C82D0C940000CF9315
:100A1000DF93FC01818190918505482F490F55276F
:100A2000551F483051059CF5A281B381109709F5F7
:100A300021E835E03383228320812093830580934E
:100A4000840580918605820F808320918705A22FDF
:100A5000B09188058A2F821B8917E8F481813D9126
:100A6000C82FD0E0C35CDE4F38838F5F8183F2CF25
:100A7000D90118962D913C91199721153105C1F78F
:100A800021E835E019963C932E931897D5CF80E056
:100A9000DF91CF91089581E0FBCF982F2091300511
:100AA00081E0213208F043C080910C058111FCCF18
:100AB00080912F0532E030930C0590930B059FEF4A
:100AC00090930A051092090520930805AFE0B5E060
:100AD000E8EEF4E090E0291331C01092E704909121
:100AE000E704880F892B8093E7048091E604813026
:100AF00049F51092E6048091E7048093BB00809151
:100B0000BC0083FDF8CF85EC8093BC0080910C0580
:100B10008230E1F380910A058F3FB1F080910A05A0
:100B20008032A1F080910A05803391F084E0109228
:100B30000E051092300510920D0508953D913193E8
:100B40009F5FC9CF85EEE0CF80E0F1CF82E0EFCFAD
:100B500083E0EDCFFC018091D504882311F13FB7EC
:100B6000F89482E08093E9002091F200822F90E0D7
:100B70001816190614F481E090E0882339F02898BB
:100B800044E64093D4044091F1004083222339F09D
:100B90002091F200211103C02BE62093E8003FBF13
:100BA00008958FEF9FEF0895089508950895409157
:100BB000980450919904209196043091970442171B
:100BC0005307B4F49091E8009570E1F39091E80038
:100BD00092FD19C08093F10080919804909199043E
:100BE00001968F739927892B19F48EEF8093E80073
:100BF0008091980490919904019690939904809320
:100C0000980481E0089580E00895EF92FF920F9399
:100C10001F93CF93DF93F82E192FE62E042F81E038
:100C2000860F880F0E94D70583E00E94D705CF2D3D
:100C3000D12FEC0EFD2EF11CCE15DF05B9F007FF0C
:100C400013C0FE0184910E94D705182F80E00E94F6
:100C5000D705812321968111EFCFDF91CF911F918D
:100C60000F91FF90EF9008958881EDCF81E0F5CF4F
:100C7000DF92EF92FF920F931F93CF93DF93D82EC3
:100C80008A01EB017B01E40EF51ECE15DF0559F05C
:100C9000D7FE12C0FE0184910E94D70521968111D2
:100CA000F4CF0FEF1FEFC801DF91CF911F910F918C
:100CB000FF90EF90DF9008958881EECF2FB7F894E2
:100CC00087708093E9009091E800892F807295FFEA
:100CD00004C09091F20080E4891B2FBF08956150F9
:100CE00030F02091F100FC0120830196F8CF289884
:100CF00084E68093D4040895DC01ED91FC91019089
:100D0000F081E02D0994AF92BF92CF92DF92EF92E3
:100D1000FF920F931F93CF93DF936C017B018B01A5
:100D2000040F151FEB015E01AE18BF08C017D107F5
:100D300059F06991D601ED91FC910190F081E02D7F
:100D4000C6010995892B79F7C501DF91CF911F91D4
:100D50000F91FF90EF90DF90CF90BF90AF900895EC
:100D600080918E0481110DC082E080938A0484E01A
:100D700080938B0410928D0410928C0481E08093F8
:100D80008E048AE894E008950F931F93CF93DF9326
:100D90001F92CDB7DEB782E0898342E450E069EB71
:100DA00073E080E80E9438060E94B006DC011296CB
:100DB0000D911C910115110589F0D801ED91FC915F
:100DC0000280F381E02DBE016F5F7F4FC80109955E
:100DD00097FD04C0F80100851185ECCF89810F9043
:100DE000DF91CF911F910F910895CF93DF931F92C1
:100DF000CDB7DEB76983DC01ED91FC910280F38110
:100E0000E02D41E050E0BE016F5F7F4F09950F90EC
:100E1000DF91CF91089583E08093E9008091F20003
:100E2000882319F08AE38093E800089583E00E9404
:100E30005E0690E00895CF93DF931F92CDB7DEB7A3
:100E4000FC018485958597FD08C02FEF3FEF35871E
:100E500024870F90DF91CF910895CE0101960E94D3
:100E6000AA05019719F4898190E0F3CF8FEF9FEFE6
:100E7000F0CF0F931F93CF93DF931F92CDB7DEB7C1
:100E80008C01FC018485958597FF0BC0CE010196EE
:100E90000E94AA05019771F4898190E0F801958775
:100EA0008487F801848595850F90DF91CF911F91FC
:100EB0000F9108958FEF9FEFF1CFFC018485958509
:100EC00097FD0BC09FB7F89482E08093E900809172
:100ED000F2009FBF90E0019608959FB7F89482E0DA
:100EE0008093E9008091F2009FBF90E008958150C7
:100EF0008F3008F047C0E82FF0E0EF57F84F0C9420
:100F0000CB2B9E07A207900796079A07C207C20736
:100F1000C207A507AB07AF07B307B907C207BD07ED
:100F2000809180008F778093800008958091800069
:100F30008F7DF9CF80918000877FF5CF84B58F7743
:100F400084BD089584B58F7DFBCF809190008F770D
:100F5000809390000895809190008F7DF9CF8091CB
:100F60009000877FF5CF8091C0008F778093C0007D
:100F700008958091C0008F7DF9CF8091C200877F56
:100F80008093C2000895CF93DF93EFE5F9E0849159
:100F9000E0E4F9E0D491E1E2F9E0C491CC23A1F0DE
:100FA00081110E947707EC2FF0E0EE0FFF1FE45F46
:100FB000F64FA591B491EC91ED2381E090E009F416
:100FC00080E0DF91CF91089580E090E0FACF1F9309
:100FD000CF93DF93282F30E0F901E85AF64F849140
:100FE000F901E75CF64FD491F901E65EF64FC49142
:100FF000CC23A9F0162F81110E947707EC2FF0E087
:10100000EE0FFF1FE555FC4FA591B4918FB7F894F3
:10101000EC91111108C0D095DE23DC938FBFDF91D6
:10102000CF911F910895DE2BF8CF9CB59F7D9CBD7D
:101030009CB5937F9CBD9CB59C7F9CBD9DB59160EC
:101040009DBD682F8091D6050E94E7078091E80535
:101050009091E9058230910538F0880F991F880F2B
:10106000991F05970197F1F70895CF93DF9390E0CB
:10107000FC01E75CF64F2491865E964FFC0184915B
:101080008823D1F090E0880F991FFC01E25DFB4FAF
:10109000A591B491FC01E555FC4FC591D491623006
:1010A00071F49FB7F8943C91822F809583238C93A1
:1010B000E8812E2B28839FBFDF91CF9108958FB7B2
:1010C000F894EC912E2B2C938FBFF6CF3FB7F8946A
:1010D0008091860490918704A0918804B09189043E
:1010E00026B5A89B05C02F3F19F00196A11DB11D83
:1010F0003FBFBA2FA92F982F8827BC01CD01620FBF
:10110000711D811D911D42E0660F771F881F991F79
:101110004A95D1F708958F929F92AF92BF92CF9246
:10112000DF92EF92FF924B015C010E9466086B0117
:101130007C010E9466086C197D098E099F09683E32
:10114000734081059105A8F321E0821A9108A10856
:10115000B10888EEC80E83E0D81EE11CF11C811492
:101160009104A104B10429F7FF90EF90DF90CF9094
:10117000BF90AF909F908F9008957F928F929F9293
:10118000AF92BF92CF92DF92EF92FF920F931F9395
:10119000CF93DF93C82E8B017A018091D504811102
:1011A00010C08FEF9FEFDF91CF911F910F91FF90B4
:1011B000EF90DF90CF90BF90AF909F908F907F90F7
:1011C000089580919C0480FF05C08091E0008260BA
:1011D0008093E000CE2DDF2DD12C8AEFB82E8C2D00
:1011E0008770982E8C2D8072882E8C2D8074782E8E
:1011F0009AE3A92E209719F4DD2009F452C08C2D12
:101200000E945E0681110AC0BA94BB2051F261E0CF
:1012100070E080E090E00E948B08ECCF8C171D06F8
:1012200011F00CF08C2F9FB7F8949092E900209168
:10123000E80025FD02C09FBFDDCF282F30E0C21B94
:10124000D30B882029F08150A0F01092F100FBCF41
:10125000F801C7FC0AC0815050F041914093F10061
:10126000FACF44914093F10031968150D0F7020FAC
:10127000131FDD2021F0A092E800D12CDCCF80915B
:10128000E80085FD07C0A092E800DD24D3942097F4
:1012900091F2F3CF209779F6772069F2A092E800D7
:1012A000CACF5D9884E680939B04C7017CCFEF9200
:1012B000FF921F93CF93DF931F92CDB7DEB77C01D0
:1012C0008091920581112AC011E010938505109339
:1012D00086058BE895E090938805809387051092AA
:1012E0008A051092890586E292E0909382058093A8
:1012F000810510928D0510928C0510928F05109229
:101300008E05109390051093910581EC80938B05C9
:101310000E94B0060E9407051093920582E089831F
:1013200041E050E0BE016F5F7F4F809184050E94D5
:10133000BD0897FD08C08091840548E050E0B701E2
:1013400080640E94BD080F90DF91CF911F91FF90A4
:10135000EF900895CF93DF93EC0180910B018823E8
:1013600031F083E00E94BD081816190634F081E0C0
:1013700090E09B838A8380E090E0DF91CF91089595
:101380008EBD00000DB407FEFDCF8EB50895CF933E
:1013900080E00E94150881EE0E94C009C82F81E0FC
:1013A0000E9415088C2FCF910895CF93C82F80E00D
:1013B0000E9415088C2F0E94C0098FEF0E94C0095F
:1013C000C82F81E00E9415088C2FCF910895CF93EC
:1013D000DF93C82FD62F80E00E9415088C2F8F71C5
:1013E00080620E94C009C82F8D2F0E94C00981E031
:1013F0000E9415088C2FDF91CF91089580E00E9404
:10140000D50981FD0BC0682F626080E00E94E7096A
:1014100065E070E080E090E00C948B080895EF9216
:10142000FF920F931F93CF93DF93C82F7B01142F4D
:1014300080E00E9415088C2F8F7180620E94C00985
:10144000082FE701115020F089910E94C009FACFBE
:1014500081E00E941508802FDF91CF911F910F919D
:10146000FF90EF900895CF93DF93EC018D85882353
:1014700029F081508D87DF91CF9108959C818E81D5
:101480009817C8F788896827E881F9810084F18571
:10149000E02D42E0CE0109958C818F5F8C83EBCFEC
:1014A000DC01ED91FC910084F185E02D40E0099490
:1014B000FC012781269526952695621738F46583C9
:1014C0002385620F6770606B0C94500A08950F9328
:1014D0001F93CF93FC012681621798F4C62F8C01CD
:1014E00064836085C60F6C2F6F700E94500A6C2F4A
:1014F00062956F706061C801CF911F910F910C943C
:10150000500ACF911F910F910895CF92DF92EF92E1
:10151000FF920F931F93CF93DF93EC01F62EC42E0F
:10152000D22E1D868F81869586958695081710F098
:101530000FEF080F1D2D6F2DCE01011788F00E94AF
:10154000670A612FCE010E94580AEF2CCE1430F0AA
:101550006889CE010E94330AE394F8CF1F5FEBCF76
:101560000E94670A6D2DCE01DF91CF911F910F91DF
:10157000FF90EF90DF90CF900C94580A0F93CF9389
:10158000DF93C0ECD5E01B861A8660E4CE010E9492
:10159000500A0F8106950695069501504E814150DF
:1015A00020E060E0CE010E94850ADF91CF910F918B
:1015B00008952F923F924F925F926F927F928F92F7
:1015C0009F92AF92BF92CF92DF92EF92FF920F93D2
:1015D0001F93CF93DF9300D000D000D0CDB7DEB7FC
:1015E000DC011E962D913C912115310509F459C15C
:1015F0009E838D83F9013296649031964491E42E56
:10160000F12CB7E0EB0EF11C53E0F594E7945A95FA
:10161000E1F7E982319654913196E491651748F0EB
:101620008E2F90E0FC01E50FF11D6E171F060CF4E4
:101630006EC06D3041F460E08D819E810E94670A2A
:1016400081E090E030C16A3009F02BC160E08D810B
:101650009E810E94670AED81FE8101890E9DE02C2A
:10166000112465816E0D8485882349F02781269594
:10167000269526958E2D821B860F18162CF08D81AF
:101680009E810E94580ADCCFAD81BE811B969C9141
:101690001B97890F87701B968C931B972E19159695
:1016A0002C9315971E96ED91FC91309771F133961E
:1016B000E491F0E0379633E0F595E7953A95E1F758
:1016C0000E9F002D1124EFEFE20F0E0FED81FE8132
:1016D000468141506481CF010E94850AAD81BE815F
:1016E0001C968C911C97813009F0AACF1B966C91A7
:1016F0001B97660F660F660F6F731A966C931A9797
:101700006064CD010E94500A9BCF00E0DCCF8901CC
:101710000A5F1F4F651BED81FE8171855189759FA1
:10172000502D11245C83F90154912F5F3F4FF90133
:101730002491352F2230310508F075C06E9CC00110
:101740006F9C900D1124689FF001699FF00D11248A
:101750000E0F1F1F512CAD81BE811496BC91BA8310
:10176000ED81FE812580F585FB83862C912CAA24B2
:10177000A394B12C312C8981381608F090C0412CEB
:10178000AD81BE8151968C915197481608F080C06A
:10179000EB811D96EC93311002C0442079F0AD81AD
:1017A000BE811596DC901597D3946A81CD010E9475
:1017B000670A6D2D8D819E810E94580AD12CC12C03
:1017C000C61408F058C0F801EC0DFD1D74905520AA
:1017D00061F0EA14FB0449F4E72DF0E0052C02C0A7
:1017E000F595E7950A94E2F77E2EED81FE818189D9
:1017F000823081F4442009F43AC072948FE0782258
:10180000E72DF0E0E556FC4F7490672D8D819E81A9
:101810000E94330A672D8D819E810E94330A8FEFCB
:10182000C81AD80ACDCF477028E0522E541A411159
:1018300001C0512CF801612C30E020E0661631F037
:101840004491240F311D63943196F8CF600E712EB0
:10185000711CF3016490E29EF001E39EF00DF29E94
:10186000F00D11248E0F9F1F080F191F74CFF72D35
:10187000FF707F2EC5CFD12CAC81DA1639F060E035
:101880008D819E810E94330AD394F6CF439478CF02
:101890003394080D191DBFEFAB1ABB0A6CCF622D34
:1018A000EECE90E080E026960FB6F894DEBF0FBE35
:1018B000CDBFDF91CF911F910F91FF90EF90DF90FF
:1018C000CF90BF90AF909F908F907F906F905F90E0
:1018D0004F903F902F900895DB01ED91FC913C9645
:1018E000259134912115310529F0FB016481758121
:1018F000F90109940895DC01FB0112962C911297CD
:10190000848195812817190641F491818081813A5B
:1019100031F49D7F81E0913009F080E008958132BB
:10192000E1F79B3029F482811F968C9381E0089522
:101930009A3099F7828150968C93F8CFDC01FB01A5
:1019400088E4808389E4818384E482831D969C916A
:101950001D979F709F5B93831D968D919C9124E0B2
:10196000969587952A95E1F78F708F5B848385E044
:101970000895EF92FF920F931F93CF93DF93FB0194
:101980002081213871F52381223259F5DC0112962C
:101990004C91248135814217130619F5EC010B8512
:1019A0001C85F12CE12C0115110589F0F801448109
:1019B00055816281738180E80E9438068F3F9807C5
:1019C00049F0E80EF91ED8010D911C91ECCF81E091
:1019D0008F87C701DF91CF911F910F91FF90EF90FB
:1019E000089590E080E0F6CFCF93DF93CDB7DEB7D8
:1019F00069970FB6F894DEBF0FBECDBFFC01DB01C7
:101A00008C918F5F8C939E012D5F3F4F8DE0D901AC
:101A10001D928A95E9F729E0298384E08A8391E081
:101A20009D8383E08E832A8721E22B879C879D8775
:101A30009F8722E2288B27E02B8B25E02C8B8E8B37
:101A400020E430E0388F2F8B998F82818B839585AE
:101A50008685998B8A8B838180688D8B49E150E0E4
:101A6000BE016F5F7F4F80E00E94380669960FB617
:101A7000F894DEBF0FBECDBFDF91CF910895CF9216
:101A8000DF92EF92FF920F931F93CF93DF936C013E
:101A9000EB017B01E40EF51E10E000E0CE15DF0542
:101AA00081F069916D30D1F3D601ED91FC910190F7
:101AB000F081E02DC6010995892B19F00F5F1F4FAA
:101AC000EDCFC801DF91CF911F910F91FF90EF9063
:101AD000DF90CF900895DC016838A0F06858FD01D0
:101AE00086E0662321F09681961301C0168281500C
:101AF00031968111F6CFCD0104960E94570981E0FD
:101B000090E00895E62FF0E067FF12C0E058F10979
:101B100081E090E001C0880FEA95EAF7809514967D
:101B20009C911497892314968C93149760E0D7CFD7
:101B3000E55EFC4F6491662359F067FFD0CF1496A1
:101B40008C9114978D7F14968C9314976F77C7CFD1
:101B500090E080E00895DC01683888F168581696B6
:101B60008C911697861721F117968C9117978617E7
:101B7000F9F018968C9118978617D1F019968C91D8
:101B800019978617A9F01A968C911A97861781F0E3
:101B90001B968C911B97861759F0FD01369690E0A5
:101BA00080E02191211139C08A0F9B1FFC016683BF
:101BB000CD0104960E94570981E090E00895E62F38
:101BC000F0E067FF11C0E058F10921E030E001C00A
:101BD000220FEA95EAF714968C911497822B1496AB
:101BE0008C93149760E0BBCFE55EFC4F649161116C
:101BF00009C081E090E013969C938E93129790E039
:101C000080E0089567FFABCF14968C9114978260A3
:101C100014968C9314976F77A2CF01968630910516
:101C200009F0BFCFE6CFEF92FF921F93CF93DF93E0
:101C3000EC01162F0E94AB0D7C01612FCE010E949A
:101C40006B0DC7019927DF91CF911F91FF90EF9006
:101C5000089585ED8093BC008091BC0084FDFCCF8D
:101C600010920C05089520915E04260F3327331F30
:101C700021323105ECF420910C05FC0190E080E06C
:101C8000243069F082E00895A0915E042191AC01B6
:101C9000425C5B4FA40FB52FB11D2C9301968617A4
:101CA00098F380915E04680F60935E0480E008956D
:101CB00081E00895E091A3048091A204E81730F434
:101CC000F0E0E25EFB4F808190E008958FEF9FEFA0
:101CD00008959091A3048091A2042FEF3FEF9817ED
:101CE00048F4E92FF0E0E25EFB4F208130E09F5F97
:101CF0009093A304C90108958091A2049091A30434
:101D0000891B990B0895CF92DF92EF92FF920F9368
:101D10001F93CF93DF937C01CB018A0120910D05A6
:101D2000222389F0EB016B01C40ED51ECC15DD0515
:101D300069F06991D701ED91FC910190F081E02D5E
:101D4000C7010995F3CF642F0E94330EC801DF91BC
:101D5000CF911F910F91FF90EF90DF90CF9008955A
:101D6000CF93DF931F92CDB7DEB7698320910D0526
:101D70002223F9F020913005203258F021E030E0A4
:101D8000FC013383228390E080E00F90DF91CF91BC
:101D9000089580910E05E82FF0E0E15FFA4F9981F8
:101DA00090838F5F80930E058093300581E090E0F3
:101DB000ECCF61E0CE0101960E94330EF7CFCF93B6
:101DC000DF93C0ECD5E09FEF988B682FCE010E9487
:101DD0007C06188ADF91CF910895CF93DF93C0ECF2
:101DE000D5E02FEF288BFC01448155816081718102
:101DF000CE010E948306188ADF91CF91089581E079
:101E000080930D0580E580932F0510920E051092AA
:101E1000300581E00E944D0591E0811190E0892F0D
:101E20000895CF93C62F682F80EC95E00E94670A33
:101E30006C2F80EC95E0CF910C94580A0F931F9370
:101E4000CF93DF93EC01062F142F8B89813120F47F
:101E5000882331F0411104C081E00E944D051B8AA6
:101E60008B89811112C08A8991E090930D0580932E
:101E70002F0510920E051092300560E4111101C07B
:101E800060E084EB95E00E94B00E602F84EB95E05B
:101E90000E94B00E123041F48B898F5F8B8BDF91E3
:101EA000CF911F910F91089581E00E944D051B8AEB
:101EB000F6CF089590E080E00895FC0101900020A5
:101EC000E9F73197AF01481B590BBC0180EC95E055
:101ED0000C9483060C945D0F0E94BE0A61E070E0D2
:101EE0008AE190E00E94110F8AE592E00E946A0F59
:101EF00063E070E083E290E00E94110F89E692E0D7
:101F00000E946A0F64E070E08DE190E00E94110F82
:101F100085E792E00C946A0FCF93DF930E945D0FE8
:101F2000EC0183E892E00E945D0F8C0F9D1FDF9112
:101F3000CF9108958F929F92AF92BF92CF92DF92EE
:101F4000EF92FF920F931F93CF93DF93CDB7DEB73E
:101F5000A1970FB6F894DEBF0FBECDBF6C01990FED
:101F6000EE08FF08F7FE41C06DE280EC95E00E94AC
:101F70007C068C0122273327A9012C193D094E0923
:101F80005F0919A2CE0181967C019AE0892E912CDD
:101F9000A12CB12CCA01B901A50194010E94722B98
:101FA000605DF70162937F012115310541055105FF
:101FB00089F790E080E0309719F0CF010E945D0F23
:101FC000800F911FA1960FB6F894DEBF0FBECDBF54
:101FD000DF91CF911F910F91FF90EF90DF90CF9005
:101FE000BF90AF909F908F900895A701960119A27E
:101FF0008E010F5D1F4F8AE0C82ED12CE12CF12CF1
:10200000CA01B901A70196010E94722B605DF80117
:1020100062938F01211531054105510589F790E043
:1020200080E0309779F2CF010E945D0FCBCF0F9304
:102030001F93CF93DF930E94BE0A81E08093D10566
:1020400067E070E085E290E00E94110F86E892E080
:102050000E946A0F8091A5049091A60401960E94A7
:102060009A0F8CE892E00E946A0F70E060E090E0C6
:1020700080E00E94110F80E992E00E946A0FCDE299
:10208000D1E0699180EC95E00E947C0681E0CD333F
:10209000D807B9F761E070E090E080E00E94110F8E
:1020A00088E992E00E946A0FCDE1D1E0699180EC6D
:1020B00095E00E947C0681E0CD32D807B9F762E056
:1020C00070E090E080E00E94110F80EA92E00E94B0
:1020D0006A0FCDE0D1E00DE111E0699180EC95E06F
:1020E0000E947C060C171D07C1F764E070E090E0C9
:1020F00080E00E94110F88EA92E00E946A0F65E07A
:1021000070E090E080E00E94110F8DEA92E00E9462
:102110006A0F64E070E08FE590E00E94110F82EB9F
:1021200092E00E946A0F65E070E08CE590E00E940A
:10213000110F81E08093D10588EB92E0DF91CF9180
:102140001F910F910C946A0FEF92FF920F931F93C0
:10215000CF93DF93EC0187E799E099838883EDE7DC
:10216000F9E085919491079623E0969587952A95B5
:10217000E1F78A8799270E94D12B99878887892B35
:1021800009F4A2C0E7E8F9E08591949100E810E035
:102190009C012F5F3F4FFC014491442309F496C0FA
:1021A000413009F03FC00296F9012491211106C087
:1021B0009C0122503109C9010196EACFFC014591E9
:1021C0005491029621504038510581F787E799E0F4
:1021D0009B838A8380E890E09D838C83F0E0E0E03D
:1021E000F490EFE7F9E0059114910115110509F05C
:1021F00051C080E190E00E94D12B9F838E83009795
:1022000009F466C020E1E6EDF4E0DC0101900D92F6
:102210002A95E1F780E0DF91CF911F910F91FF9018
:10222000EF900895423091F4F901459154919C0149
:102230002D5F3F4FF901859194914138510508F088
:10224000BACF8038910508F4B6CFC0CF433009F03B
:102250003DC0F90145915491FC013396A591B4918B
:10226000FC013596659174919C01295F3F4FF901FE
:10227000E590F4904138510508F09DCFA038B105A4
:1022800008F499CFC8010E94A32BE816F90609F0BB
:1022900092CF9CCFEBE7F9E0859194910E94D12BEE
:1022A0009F838E830097B1F0F0FC06C0BC0186EDE1
:1022B00094E0F8010995AECFAC0160E870E086EDDE
:1022C00094E0F8010995A6CF81E1A5CF81E0A3CFE5
:1022D00082E0A1CF83E09FCF0F931F9390E0FC019A
:1022E000E75CF64F6491FC01E65EF64FE491F0E0A6
:1022F000EE0FFF1FE45FF64F8591949100E315E721
:1023000020E030E040E00E948C22611571058105DB
:10231000910529F06F5F7F4F8F4F9F4F9F701F91E7
:102320000F9108950E94B32DFC0180819181009747
:1023300011F00C946D2C0895CF93DF93EC01EA819A
:10234000FB813E96259134912115310521F08E8136
:102350009F81F90109958E819F810E946D2C88854E
:102360009985DF91CF910C946D2CEF92FF920F9392
:102370001F93CF93DF93EC017B01198218821B829C
:102380001A821D821C82FB0101900020E9F731971F
:102390008F01061B170BB8016F5F7F4F90E080E045
:1023A0000E94F62C0097B9F0998388831B830A83D7
:1023B0002C813D81232B11F4FC0110821D830C83A1
:1023C000B70188819981DF91CF911F910F91FF9083
:1023D000EF900C94C12D88819981009711F00E9493
:1023E0006D2C198218821D821C821B821A82DF9139
:1023F000CF911F910F91FF90EF900895EF92FF9270
:102400000F931F93CF93DF9300D000D000D0CDB7B0
:10241000DEB70091A9041091AA040130110509F456
:1024200013C10230110509F487C10115110509F026
:1024300065C062E070E090E080E00E94110FE4E986
:10244000EE2EE1E0FE2EF70181917F012091AB0499
:102450003091AC042017310709F0E4C00E94DF0E70
:1024600060E280EC95E00E947C060F5F1F4F0B300E
:10247000110549F763E070E090E080E00E94110FE1
:102480007FE9E72E71E0F72E0BE010E0F701819174
:102490007F012091AB043091AC040217130709F0BF
:1024A000C7C00E94DF0E60E280EC95E00E947C06CF
:1024B0000F5F1F4F0631110549F764E070E090E0AF
:1024C00080E00E94110F6AEAE62E61E0F62EF70125
:1024D00081917F012091AB043091AC040217130766
:1024E00009F0ACC00E94DF0E60E280EC95E00E9433
:1024F0007C060F5F1F4F0032110549F765E070E061
:1025000090E080E00E94110F8091AB049091AC04A8
:10251000809709F089C16FEB72E0CE0101960E94AD
:10252000B511CE0101960E94ED0ECE0101960E94DA
:10253000941165E070E08AE590E00E94110F8091AF
:10254000AB049091AC04849709F073C161ED72E023
:10255000CE0101960E94B511CE0101960E94ED0EAA
:10256000CE0101960E94941166E070E090E080E058
:102570000E94110F8091AB049091AC04819709F0F7
:102580005DC16DED72E0CE0101960E94B511CE01E4
:1025900001960E94ED0ECE0101960E94941167E013
:1025A00070E090E080E00E94110F8091AB04909168
:1025B000AC04829709F047C167EF72E0CE01019643
:1025C0000E94B511CE0101960E94ED0ECE0101963A
:1025D0000E94941167E070E086E490E00E94110F81
:1025E0008091AB049091AC04839709F031C166E00F
:1025F00073E0CE0101960E94B511CE0101960E94B2
:10260000ED0ECE0101960E94941126960FB6F89415
:10261000DEBF0FBECDBFDF91CF911F910F91FF9015
:10262000EF900895682F80EC95E00E947C0618CF0B
:10263000682F80EC95E00E947C0635CF682F80ECF7
:1026400095E00E947C0650CF62E070E090E080E070
:102650000E94110F54E7E52E51E0F52E10E000E046
:10266000F70181917F012091AB043091AC042017D8
:10267000310709F04FC00E94DF0E60E280EC95E068
:102680000E947C060F5F1F4F0B30110549F763E076
:1026900070E090E080E00E94110F4FE7E42E41E0EF
:1026A000F42E0BE010E0F70181917F012091AB0443
:1026B0003091AC040217130799F50E94DF0E60E217
:1026C00080EC95E00E947C060F5F1F4F06311105DC
:1026D00051F764E070E090E080E00E94110F3AE86A
:1026E000E32E31E0F32EF70181917F012091AB04BD
:1026F0003091AC0402171307C9F40E94DF0E60E2A8
:1027000080EC95E00E947C060F5F1F4F00321105A0
:1027100051F7F4CE682F80EC95E00E947C06ADCF97
:10272000682F80EC95E00E947C06C9CF682F80EC72
:1027300095E00E947C06E3CF62E070E090E080E0EC
:102740000E94110F24E5E22E21E0F22E10E000E0BD
:10275000F70181917F012091AB043091AC042017E7
:10276000310709F04FC00E94DF0E60E280EC95E077
:102770000E947C060F5F1F4F0B30110549F763E085
:1027800070E090E080E00E94110F9FE5E92E91E05B
:10279000F92E0BE010E0F70181917F012091AB044D
:1027A0003091AC040217130799F50E94DF0E60E226
:1027B00080EC95E00E947C060F5F1F4F06311105EB
:1027C00051F764E070E090E080E00E94110F8AE62B
:1027D000E82E81E0F82EF70181917F012091AB0472
:1027E0003091AC0402171307C9F40E94DF0E60E2B7
:1027F00080EC95E00E947C060F5F1F4F00321105B0
:1028000051F77CCE682F80EC95E00E947C06ADCF1E
:10281000682F80EC95E00E947C06C9CF682F80EC81
:1028200095E00E947C06E3CF88EC92E00E946A0F5C
:1028300080CE87ED92E00E946A0F96CE89EE92E0FC
:102840000E946A0FACCE8EEF92E00E946A0FC2CE59
:102850008FE093E00E946A0FD8CE0F931F93CF931F
:10286000DF930E94BE0A70E060E090E080E00E948A
:10287000110F8091A7049091A80481309105D9F09F
:102880008230910541F1892B81F488E193E00E9427
:102890006A0FCDE2D1E00DE311E0699180EC95E0A3
:1028A0000E947C060C171D07C1F7DF91CF911F9185
:1028B0000F910C94FE118FE193E00E946A0FCDE11D
:1028C000D1E0699180EC95E00E947C0681E0CD32F8
:1028D000D807B9F7EACF86E293E00E946A0FCDE00D
:1028E000D1E0699180EC95E00E947C0681E0CD31D9
:1028F000D807B9F7DACFCF93DF9300D000D000D05C
:10290000CDB7DEB70E94BE0A70E060E08AE090E0DA
:102910000E94110F8DE293E00E946A0F62E070E066
:1029200083E290E00E94110F80E493E00E948C0FFC
:1029300063E280EC95E00E94670A8CE493E00E94D9
:102940008C0F63E280EC95E00E94670A88E593E0D3
:102950000E948C0F8091A7049091A804813091056A
:1029600061F18230910591F1892BA1F462E070E070
:102970008BE190E00E94110F63E673E0CE010196B7
:102980000E94B511CE0101960E94ED0ECE01019676
:102990000E94941167E070E090E080E00E94110FC7
:1029A00086E893E00E946A0F26960FB6F894DEBF81
:1029B0000FBECDBFDF91CF91089563E070E08BE152
:1029C00090E00E94110F6FE673E0D8CF64E070E0F2
:1029D0008BE190E00E94110F6BE773E0CFCF8F92F5
:1029E0009F92AF92BF92EF92FF920F931F93CF935C
:1029F000DF93CDB7DEB72B970FB6F894DEBF0FBECF
:102A0000CDBF0091A5041091A6040E94FF0E88235B
:102A100009F427C136E0000F111F3A95E1F781E074
:102A200080930D0580E580932F0510920E0510927E
:102A30003005B801110F880B990B672F782F892F5C
:102A4000992787FD9A9584EB95E00E94B00E602F40
:102A500084EB95E00E94B00E81E00E944D050EEDE2
:102A600013E0FF24F394EE24EA9455EEB52E65ECC2
:102A7000A62E80910C058111FCCFF0920C05F092EE
:102A80000B05E0920A051092090510920805F092D4
:102A9000E7048091E704806A8093E7048091E6046C
:102AA000813009F0D7C01092E6048091E70480934A
:102AB000BB008091BC0083FDF8CFA092BC00809148
:102AC0000C058130E1F38091090591E0811102C08C
:102AD00090910905E8EEF4E0AEE1B4E080E08913FE
:102AE000BCC01092A3048093A20484EB95E00E94E2
:102AF000690EF80181938F01F4E00E311F0709F090
:102B0000B8CF81E00E944D052EE034E06EEC73E01A
:102B1000AFEAB4E086ED94E0F90141919F01FB0139
:102B20004193BF014C911296FC014193CF01F3E018
:102B30006E3D7F0789F7CE0101960E94A410811196
:102B400040C08B8590E08C01000F111F02521C4F7A
:102B50007801E81AF90ABE016D5F7F4FC8010E9433
:102B60006C0C4B8550E0B701C8010E9480226B8538
:102B700070E0EE24FF24E61AF70A0E0D1F1DE00E8A
:102B8000F11EBE016D5F7F4FC8010E946C0C4B852A
:102B900050E0B701C8010E9480228B85081B1109F3
:102BA000BE016D5F7F4FC8010E946C0C4B8550E0E9
:102BB0006EEC73E0C8010E948022CE0101960E9453
:102BC0009C110EED13E078018EE5882E912CA12C3E
:102BD000B12CF70181917F0180528F3568F00E94FE
:102BE000B12AA50194010E94092B63547D4FFB017A
:102BF0006491F70131976083FEE0EF16F4E0FF0681
:102C000041F78DE291E0ADE1B1E06DE071E02EEED3
:102C100033E0F80141918F01FC014193CF01F801AC
:102C200047854D93478DFB014193BF012017310725
:102C300081F72B960FB6F894DEBF0FBECDBFDF91A4
:102C4000CF911F910F91FF90EF90BF90AF909F9009
:102C50008F900895B092BC0032CF21912D938F5F59
:102C60003ECF0E94BE0A8CE993E00E946A0F68EC96
:102C700070E080E090E00E948B0846CFCF92DF9218
:102C8000EF92FF920F931F93CF9392EDE92E90E076
:102C9000F92E23EDC22E20E0D22EC1E0843009F4BB
:102CA00075C060F48230D1F0833039F1CF911F913B
:102CB0000F91FF90EF90DF90CF900895863009F448
:102CC00077C008F46CC0873089F7CF911F910F91BE
:102CD000FF90EF90DF90CF900C942D140E94BE0ACD
:102CE0008091CF049091D004CF911F910F91FF90CC
:102CF000EF90DF90CF900C94E116F092CF05E09228
:102D0000CE05F7018491F6019491892798278927A8
:102D10000197C9F51092C90564E670E080E090E083
:102D20000E948B081092A6041092A5040E94BE0A6D
:102D300064E070E080E290E00E94110FC093D10542
:102D400089EB93E00E946A0F03E010E068EC70E00A
:102D500080E090E00E948B0883EC93E00E946A0F71
:102D60000150110999F70E94EF1464EF71E080E0BF
:102D700090E00E948B088091D3048F5F8093D304EE
:102D8000C093D1058BCFC093C905C6CFCF911F91FA
:102D90000F91FF90EF90DF90CF900C941710CF9190
:102DA0001F910F91FF90EF90DF90CF900C946C0FDC
:102DB000CF911F910F91FF90EF90DF90CF900C94E7
:102DC0007B140F931F93CF93DF93E091D104F09185
:102DD000D204E031F10508F0C6C0EC01EE50F94E26
:102DE0000C94CB2B8D177017531736171917021722
:102DF000021702170217021702170217021702170B
:102E0000021702170E94BE0A62E070E08AE090E0BA
:102E10000E94110F82E08093D105E091D104F091DE
:102E2000D204EE0FFF1FEB55FB4F808191810E9472
:102E30009A0F8091D1049091D204049711F40E94CA
:102E4000BE0A62E070E08EE190E00E94110F82E025
:102E50008093D105E091D104F091D204EE0FFF1FD1
:102E6000E955FB4F808191810E949A0F8091D10496
:102E70009091D204039711F40E94BE0A62E070E0C0
:102E800082E390E00E94110F82E08093D105E091EF
:102E9000D104F091D204EE0FFF1FE755FB4F808164
:102EA00091810E949A0F8091D1049091D20402974F
:102EB00011F40E94BE0A62E070E086E490E00E9495
:102EC000110F82E08093D105E091D104F091D204FA
:102ED000EE0FFF1FE555FB4F808191810E949A0FF5
:102EE0008091D1049091D204019711F40E94BE0AFE
:102EF00062E070E08AE590E00E94110F82E080932A
:102F0000D105E091D104F091D204EE0FFF1FE355FB
:102F1000FB4F808191810E949A0F8FEF8093D005A3
:102F200010E000E0B80189E690E00E94110F85EC06
:102F300093E00E946A0F0E5F1F4F0830110591F752
:102F400062E070E08EE690E00E94110F82E08093D4
:102F5000D105CE010E949A0F1092D005DF91CF913A
:102F60001F910F9108958091D3048F5F8093D304B4
:102F7000DF91CF911F910F910C943E168F929F92EB
:102F8000AF92BF92CF92DF92EF92FF920F931F9377
:102F9000CF93DF93CDB7DEB72B970FB6F894DEBF94
:102FA0000FBECDBF4EECC42E43E0D42E8FEA94E08A
:102FB00006ED14E06DE271E05EEDE52E53E0F52ED6
:102FC0004DE151E02DE031E0F7014601D4011D92C1
:102FD0004D01DC01BC900296D801BD928D01DB0150
:102FE000BD90BD01B192DA01BD90AD01B786D901A6
:102FF000BD909D01B78EBEED8B16B3E09B0631F7F9
:10300000CE0101960E94A410811116C04B8550E09C
:103010006EEC73E089859A850E94B82D34E0A32E6A
:10302000B12C0EED13E0F1E0AF1AB10809F05FC06A
:10303000CE0101960E949C11EEE0F4E0D6018D9144
:103040006D018193BEEDCB16B3E0DB06B9F70091BD
:10305000A5041091A6040E94FF0E882309F466C0FF
:1030600086E0000F111F8A95E1F79EE1C92E94E0DA
:10307000D92EAA24A39420E5B22EA0920D05B092D9
:103080002F0510920E0510923005612F84EB95E00C
:103090000E94B00E602F84EB95E00E94B00EF70105
:1030A00061917F0184EB95E00E94B00E81E00E9467
:1030B0004D0562E370E080E090E00E948B080F5FB6
:1030C0001F4FCE14DF04C9F62B960FB6F894DEBF5F
:1030D0000FBECDBFDF91CF911F910F91FF90EF9069
:1030E000DF90CF90BF90AF909F908F9008954B85C9
:1030F00050E069857A85C8010E948022EB81FC81BD
:103100003A96259134912115310529F06F81788502
:10311000C801F90109954B8550E0B80189859A8568
:103120000E94B82D8B85080F111D7DCF0E94BE0A0D
:103130008CE993E00E946A0F68EC70E080E090E018
:103140000E948B08C1CF1F920F920FB60F921124CD
:103150008F939F938091E1009091E100937F9093F2
:10316000E10083FF0FC01092E90091E09093EB0023
:103170001092EC0092E39093ED001092D50498E049
:103180009093F00082FF22C093E09093E900909129
:10319000F200992319F09AE39093E80090919B0430
:1031A000992341F090919B04915090939B0491112D
:1031B00001C05D9A9091D404992341F09091D40478
:1031C00091509093D404911101C0289A84FF18C0A3
:1031D0008091E2008E7E81608093E2008091E10028
:1031E0008F7E8093E10080919C048E7E806180932D
:1031F0009C049F918F910F900FBE0F901F90189578
:1032000080FFF7CF8091E2008E7E80618093E200A4
:103210008091E1008E7E8093E10080919C048E7EFF
:103220008160E5CF1F920F920FB60F921124CF92BB
:10323000DF92EF92FF920F931F932F933F934F9341
:103240005F936F937F938F939F93AF93BF93EF930E
:10325000FF93CF93DF93CDB7DEB76C97DEBFCDBFC3
:103260001092E9008091E80083FF25C068E0CE015C
:1032700045960E946F0682EF8093E8008D8987FF54
:1032800039C09091E80090FFFCCF982F907609F01C
:1032900034C19E894F89588D2F89F88C911131C086
:1032A000803861F580919D048093F1001092F100C7
:1032B0008EEF8093E8006C960FB6F894DEBF0FBED9
:1032C000CDBFDF91CF91FF91EF91BF91AF919F91D2
:1032D0008F917F916F915F914F913F912F911F91AE
:1032E0000F91FF90EF90DF90CF900F900FBE0F9057
:1032F0001F9018959EEF9093E800C7CF1092F100B1
:10330000D5CF913059F48111D3CF4130510581F699
:1033100080919D048D7F80939D04CACF933049F4A2
:103320008111C6CF4130510519F680919D0482600C
:10333000F2CF953041F48091E80080FFFCCF206807
:103340002093E300B5CF963009F0A9C00B8D1C8DFA
:1033500022E01092E9001092990410929804F2125F
:103360002EC010929704109296040E94C4061F82E9
:1033700099E09983FA8291E09E8390EA98879AEF88
:1033800099872091980430919904275F3F4F3C839F
:103390002B838D831092E900109299041092980467
:1033A000109397040093960449E050E0BE016F5FCC
:1033B0007F4F80E00E9438060E94C40679CF1093A8
:1033C0009704009396040E94B006DC0112960D91BA
:1033D0001C910115110509F451C1D801ED91FC9121
:1033E0000480F581E02DBE016B5E7F4FC801099519
:1033F000009709F03EC1F80100851185EACFF3E09E
:10340000FF120EC08F89882309F440C0823061F416
:1034100040E860E18DE194E00E940506811148CF0B
:1034200081E28093EB0047CF813029F440E86BE0E4
:1034300081E194E0F1CF833099F70E94B006DC017E
:103440001296ED90FC908E010F5F1F4F6801E11402
:10345000F10479F0D701ED91FC910680F781E02D20
:10346000B801C7010995080F111DF701E084F18427
:10347000EECFD8011C92F60101900020E9F73197B8
:10348000BF016C197D0940E0C601C6CF6BEF73E048
:10349000FB01449150E080E80E94380609CF973044
:1034A00009F4BECF983021F481E08093F10000CF81
:1034B000993009F0FDCE837009F0B2CFEEE3F1E070
:1034C00081E031E096E32191222371F08093E900BD
:1034D0003093EB00DF0111972C912093EC00909337
:1034E000ED008F5F873079F78EE78093EA001092C6
:1034F000EA008F898093D504DBCE8B8D9C8D109252
:10350000E900109299041092980490939704809384
:103510009604898D811192C08E899D89913A49F4D2
:10352000813209F07DCF47E050E064E071E080E057
:10353000B3CF913209F074CF833269F48F89988DBB
:10354000B0E0A0E08093000190930101A0930201FC
:10355000B0930301ADCE803269F48091E80082FF20
:10356000FCCF67E084E091E00E946F068BEF8093D0
:10357000E8009ECE823209F09BCE8F8980930B01AA
:10358000EEEFFFE7859194918B3F9C4D51F1E0E088
:10359000F8E08091040190910501A0910601B0919D
:1035A0000701803B9440A105B105F1F480910B0126
:1035B00080FD1AC0EE3F8AE0F80789F587E797E7B4
:1035C000918380838091600080939A0488E19BE0DE
:1035D0000FB6F894A895809360000FBE909360009A
:1035E00067CEEEEFFAE0D5CF80819181873797479C
:1035F00009F05ECEA895809160008861809360009C
:1036000080919A0480936000EE3F2AE0F20789F0EF
:103610008091FE0A9091FF0A9183808349CE808138
:1036200091818737980751F29093FF0A8093FE0AA1
:10363000C5CF1092FF0A1092FE0A3ACE0E94B00641
:10364000DC0112960D911C910115110509F4E8CECB
:10365000D801ED91FC910190F081E02DBE016B5EEF
:103660007F4FC8010995811123CEF801008511858E
:10367000EBCF181619060CF41BCED2CEF1E0FF12D8
:10368000BECE6FEF73E004CF1F920F920FB60F9272
:1036900011242F933F938F939F93AF93BF93809168
:1036A000820490918304A0918404B09185043091A8
:1036B000810423E0230F2D3758F50196A11DB11D7C
:1036C000209381048093820490938304A0938404C4
:1036D000B09385048091860490918704A09188041A
:1036E000B09189040196A11DB11D80938604909329
:1036F0008704A0938804B0938904BF91AF919F91F0
:103700008F913F912F910F900FBE0F901F901895A2
:1037100026E8230F0296A11DB11DD2CF1F920F9252
:103720000FB60F9211242F933F934F935F936F9394
:103730007F938F939F93AF93BF93EF93FF9380916A
:10374000B900887F803609F44AC0F0F5883209F460
:10375000A7C018F5803109F49BC0B8F4882309F498
:10376000F9C0883009F494C0FF91EF91BF91AF91F7
:103770009F918F917F916F915F914F913F912F9189
:103780000F900FBE0F901F901895883109F488C0D4
:10379000803251F780930A0514C0803409F49DC02B
:1037A00040F48033B9F38833F9F680930A0585EC49
:1037B000B0C0803509F485C0883509F496C08834D6
:1037C00099F60E94290ED0CF883909F48CC038F5BB
:1037D000883729F050F4883611F0803729F683E0D5
:1037E00080930C051092800457C0883809F47BC080
:1037F000803919F0803809F0B7CF80918004803289
:1038000008F071C0E091800481E08E0F8093800405
:103810008091BB00F0E0E05AFB4F80833DC0803BCD
:1038200039F0E0F4803A09F479C0883A09F09CCF85
:1038300084E080930C0510925F0410925E04E09186
:10384000A004F091A104099580915E0481110FC03C
:1038500081E080935E0410923E0409C0803C09F42C
:10386000A6CF883C09F4A3CF883B09F07DCFE09137
:103870005F0481E08E0F80935F04F0E0E25CFB4F19
:1038800080818093BB0090915F0480915E0429C089
:103890008091E7048093BB0085EC8093BC0064CFEB
:1038A0009091090580910805981758F5E091090550
:1038B00081E08E0F80930905F0E0E851FB4F808195
:1038C000E9CFE091090581E08E0F80930905809191
:1038D000BB00F0E0E851FB4F808390910905809197
:1038E00008059817C8F285E8D8CFE091090581E06E
:1038F0008E0F809309058091BB00F0E0E851FB4FEB
:10390000808380910B0581115CCF81E08093E60478
:1039100084EA8093BC0010920C0526CF85EC80933E
:10392000BC0010920C0580918004803230F4E0914C
:103930008004F0E0E05AFB4F10826091800470E058
:10394000E0919E04F0919F0480E694E00995109226
:1039500080040ACF10920A0534CF00000000000056
:103960000000000000000000000000000000000057
:103970000000000000000000000000000000000047
:103980000000000000000000000000000000000037
:103990000000000000000000000000000000000027
:1039A0000000000000000000000000000000000017
:1039B0000000000000000000000000000000000007
:1039C00000000000000000000000000000000000F7
:1039D00000000000000000000000000000000000E7
:1039E00000000000000000000000000000000000D7
:1039F00000000000000000000000000000000000C7
:103A00004EE003C04CE001C04AE02F923F924F923B
:103A10005F926F927F928F929F92AF92BF92CF925E
:103A2000DF92EF92FF920F931F93CF93DF938F93C9
:103A30009F93DB01FC01842F43954295A40FB11D98
:103A4000E89481909190A190B190C190D190E19033
:103A5000F190019111912191319141915191619197
:103A600071919BE10E9070250E9060250E9050256F
:103A70000E9040250E9030250E9020250E9010259A
:103A80000E9000250E90F0240E90E0240E90D0248D
:103A90000E90C0240E90B0240E90A0240E9090247E
:103AA0000E9080248A9509F46894F2E4E82D8490BD
:103AB000EC2DC490E02F0491E42F4491E52F249045
:103AC000E12F5491ED2D1491E92DD490922CE62FF5
:103AD0002490E22F3490EE2D6491EA2D2491E22C73
:103AE000A32CEB2D2490EF2DB490E32FF490E72F2F
:103AF0003491722D0E9070250E9060250E905025F9
:103B00000E9040250E9030250E9020250E90102509
:103B10000E9000250E90F0240E90E0240E90D024FC
:103B20000E90C0240E90B0240E90A0240E909024ED
:103B30000E9080242EF5FF91EF9181929192A192A7
:103B4000B192C192D192E192F1920193119321939A
:103B500031934193519361937193DF91CF911F9171
:103B60000F91FF90EF90DF90CF90BF90AF909F901C
:103B70008F907F906F905F904F903F902F9008951F
:103B8000FDE32B2C2A24382C3924E22DE325449004
:103B9000FEE3EA2DE82554905424EB2DE92504900A
:103BA0004024682C6B24660C08F469266424B6242F
:103BB0006A2C6924660C08F4692664249624220C75
:103BC00008F429262524A224330C08F439263524A8
:103BD0008324FDE32F2C2E243C2C3D24E22DE325D1
:103BE0004490FEE3EE2DEC2554905424EF2DED256A
:103BF000049040246C2C6F24660C08F4692664241D
:103C0000F6246E2C6D24660C08F469266424D624F0
:103C1000220C08F429262524E224330C08F4392642
:103C20003524C324FDE3232E2226302E3126E22D17
:103C3000E3254490FEE3E22FE02754905424E32F41
:103C4000E12704904024602E6326660C08F4692660
:103C500064243625622E6126660C08F469266424E5
:103C60001625220C08F4292625242225330C08F4D5
:103C7000392635240325FDE3272E2626342E352626
:103C8000E22DE3254490FEE3E62FE42754905424EC
:103C9000E72FE52704904024642E6726660C08F47D
:103CA000692664247625662E6526660C08F4692646
:103CB00064245625220C08F4292625246225330C79
:103CC00008F4392635244325EDCE0000000000001D
:103CD00000000000000000000000000000000000E4
:103CE00000000000000000000000000000000000D4
:103CF00000000000000000000000000000000000C4
:103D00000009121B242D363F48415A536C657E77BB
:103D10009099828BB4BDA6AFD8D1CAC3FCF5EEE7AB
:103D20003B3229201F160D04737A6168575E454C9B
:103D3000ABA2B9B08F869D94E3EAF1F8C7CED5DC8B
:103D4000767F646D525B40493E372C251A1308017B
:103D5000E6EFF4FDC2CBD0D9AEA7BCB58A8398916B
:103D60004D445F5669607B72050C171E2128333A5B
:103D7000DDD4CFC6F9F0EBE2959C878EB1B8A3AA4B
:103D8000ECE5FEF7C8C1DAD3A4ADB6BF8089929B3B
:103D90007C756E6758514A43343D262F1019020B2B
:103DA000D7DEC5CCF3FAE1E89F968D84BBB2A9A01B
:103DB000474E555C636A71780F061D142B2239300B
:103DC0009A938881BEB7ACA5D2DBC0C9F6FFE4EDFB
:103DD0000A0318112E273C35424B5059666F747DEB
:103DE000A1A8B3BA858C979EE9E0FBF2CDC4DFD6DB
:103DF0003138232A151C070E79706B625D544F46CB
:103E00000004080C1014181C2024282C3034383CD2
:103E10004044484C5054585C6064686C7074787CC2
:103E20008084888C9094989CA0A4A8ACB0B4B8BCB2
:103E3000C0C4C8CCD0D4D8DCE0E4E8ECF0F4F8FCA2
:103E40001B1F13170B0F03073B3F33372B2F232762
:103E50005B5F53574B4F43477B7F73776B6F636752
:103E60009B9F93978B8F8387BBBFB3B7ABAFA3A742
:103E7000DBDFD3D7CBCFC3C7FBFFF3F7EBEFE3E732
:103E800036323E3A26222E2A16121E1A06020E0A32
:103E900076727E7A66626E6A56525E5A46424E4A22
:103EA000B6B2BEBAA6A2AEAA96929E9A86828E8A12
:103EB000F6F2FEFAE6E2EEEAD6D2DEDAC6C2CECA02
:103EC0002D2925213D3935310D0905011D19151102
:103ED0006D6965617D7975714D4945415D595551F2
:103EE000ADA9A5A1BDB9B5B18D8985819D999591E2
:103EF000EDE9E5E1FDF9F5F1CDC9C5C1DDD9D5D1D2
:103F00004EE003C04CE001C04AE02F923F924F9236
:103F10005F926F927F928F929F92AF92BF92CF9259
:103F2000DF92EF92FF920F931F93CF93DF938F93C4
:103F30009F93DB01FC01842FE89481909190A190E4
:103F4000B190C190D190E190F190019111912191A6
:103F5000319141915191619171919BE1F4E40D9006
:103F600080240D9090240D90A0240D90B0240D90ED
:103F7000C0240D90D0240D90E0240D90F0240D90DD
:103F800000250D9010250D9020250D9030250D90C9
:103F900040250D9050250D9060250D9070252EF533
:103FA000FF91EF9181929192A192B192C192D1929F
:103FB000E192F192019311932193319341935193A3
:103FC00061937193DF91CF911F910F91FF90EF90CB
:103FD000DF90CF90BF90AF909F908F907F906F9029
:103FE0005F904F903F902F9008958A9509F46894C0
:103FF000E82D8490EC2DC490E02F0491E42F44919F
:10400000E92D2490ED2D9490E12FD490E52F14917B
:10401000522DEA2D2490EE2D3490E22FA490E62F1D
:10402000E490222D632DEB2D2490E72FB490E32F05
:104030007491EF2D3491F22C0EF491CF0A2C0B24B5
:10404000402C282C89240824880C08F489268024F4
:104050008224392C3A24330C08F439263024932452
:10406000440C08F449264024A4242B24220C08F4F0
:1040700029262024B2240E2C0F24402C2C2CCD24B5
:104080000C24CC0C08F4C926C024C2243D2C3E24A8
:10409000330C08F439263024D324440C08F4492680
:1040A0004024E4242F24220C08F429262024F2247E
:1040B000022E0326402C202E01270026000F08F494
:1040C000092700250225312E3226330C08F4392623
:1040D00030241325440C08F44926402424252326A3
:1040E000220C08F4292620243225062E0726402CEF
:1040F000242E45270426440F08F44927402542254D
:10410000352E3626330C08F4392630245325440C3A
:1041100008F44926402464252726220C08F4292681
:10412000202472251CCF00000000000000000000C9
:10413000000000000000000000000000000000007F
:10414000000000000000000000000000000000006F
:10415000000000000000000000000000000000005F
:10416000000000000000000000000000000000004F
:10417000000000000000000000000000000000003F
:10418000000000000000000000000000000000002F
:10419000000000000000000000000000000000001F
:1041A000000000000000000000000000000000000F
:1041B00000000000000000000000000000000000FF
:1041C00000000000000000000000000000000000EF
:1041D00000000000000000000000000000000000DF
:1041E00000000000000000000000000000000000CF
:1041F00000000000000000000000000000000000BF
:1042000052096AD53036A538BF40A39E81F3D7FB4B
:104210007CE339829B2FFF87348E4344C4DEE9CB95
:10422000547B9432A6C2233DEE4C950B42FAC34E0A
:10423000082EA16628D924B2765BA2496D8BD125C0
:1042400072F8F66486689816D4A45CCC5D65B69264
:104250006C704850FDEDB9DA5E154657A78D9D8408
:1042600090D8AB008CBCD30AF7E45805B8B3450628
:10427000D02C1E8FCA3F0F02C1AFBD0301138A6B42
:104280003A9111414F67DCEA97F2CFCEF0B4E67372
:1042900096AC7422E7AD3585E2F937E81C75DF6E20
:1042A00047F11A711D29C5896FB7620EAA18BE1B86
:1042B000FC563E4BC6D279209ADBC0FE78CD5AF42C
:1042C0001FDDA8338807C731B11210592780EC5F72
:1042D00060517FA919B54A0D2DE57A9F93C99CEFCE
:1042E000A0E03B4DAE2AF5B0C8EBBB3C83539961CF
:1042F000172B047EBA77D626E169146355210C7D0D
:10430000AB0171E060E007C0AB0170E060EC03C09E
:10431000AB01772760E8EF92FF920F931F93CF9343
:10432000DF93FA01EA01DC0176956795669566955B
:10433000262F0D9001922A95E1F76695669563FB0D
:10434000362F762F795F770F770FDF011497262F9F
:10435000E0E0F4E47F0111E04D915D918D919D913C
:104360003217B1F05EF5022F0770043039F5F7010E
:10437000E40FF11D4491F701E50FF11D5491F70190
:10438000E80FF11D8491F701E90FF11D949116C01A
:10439000360FF701E40FF11D0491F701E50FF11D50
:1043A0004491F701E80FF11D5491F701E90FF11D58
:1043B0008491902F4127110F08F41BE1FD01099012
:1043C000042601920990052601920990082601927F
:1043D0000990092601922395271709F0BDCFE8948B
:1043E000DF91CF911F910F91FF90EF900895000002
:1043F00000000000000000000000000000000000BD
:10440000637C777BF26B6FC53001672BFED7AB7691
:10441000CA82C97DFA5947F0ADD4A2AF9CA472C03C
:10442000B7FD9326363FF7CC34A5E5F171D83115A9
:1044300004C723C31896059A071280E2EB27B275CA
:1044400009832C1A1B6E5AA0523BD6B329E32F8442
:1044500053D100ED20FCB15B6ACBBE394A4C58CF3A
:10446000D0EFAAFB434D338545F9027F503C9FA80E
:1044700051A3408F929D38F5BCB6DA2110FFF3D2DC
:10448000CD0C13EC5F974417C4A77E3D645D197390
:1044900060814FDC222A908846EEB814DE5E0BDB8A
:1044A000E0323A0A4906245CC2D3AC629195E479C1
:1044B000E7C8376D8DD54EA96C56F4EA657AAE081B
:1044C000BA78252E1CA6B4C6E8DD741F4BBD8B8AB6
:1044D000703EB5664803F60E613557B986C11D9E1C
:1044E000E1F8981169D98E949B1E87E9CE5528DF93
:1044F0008CA1890DBFE6426841992D0FB054BB16BF
:10450000FC01DB01CA01009631F04D915081452735
:1045100041930197D1F70895CF92DF92EF92FF92E6
:104520000F931F93E82FF92F05C00150110921099E
:10453000310961F1908196239417B9F305C00150B8
:1045400011092109310911F1908196239413F7CFB4
:10455000C12CD12CE12CF12C0AC08FEFC81AD80A3B
:10456000E80AF80A0C151D052E053F0579F0808133
:104570008623841791F36C2D7D2D8E2D9F2D1F91F9
:104580000F91FF90EF90DF90CF90089560E070E082
:1045900080E090E01F910F91FF90EF90DF90CF901F
:1045A0000895CF93109234051092330588EE93E06E
:1045B000A0E0B0E08093350590933605A0933705D1
:1045C000B093380584E192E09093320580933105F1
:1045D0008FEF9FEF90933E0580933D051092AB05C2
:1045E0001092AA0582E392E09093A9058093A80512
:1045F0008091A005811113C010929B0510929A051D
:1046000089E899E090939D0580939C058FE290E066
:1046100090939F0580939E0581E08093A0058091F3
:10462000920581112AC0C1E0C0938505C09386051B
:104630008BE895E0909388058093870510928A0512
:104640001092890586E292E090938205809381051D
:1046500010928D0510928C0510928F0510928E0588
:10466000C0939005C093910581EC80938B050E94C7
:10467000B0060E940705C0939205E0918C05F09169
:104680008D05309709F068C08AE995E090938D0513
:1046900080938C0580918E0590918F0520919E05C9
:1046A00030919F05820F931F90938F0580938E0505
:1046B0001092B7051092B60588EE93E0A0E0B0E046
:1046C0008093B8059093B905A093BA05B093BB0544
:1046D0008EE392E09093B5058093B40587E090E077
:1046E0009093D5058093D40588E090E09093D7050A
:1046F0008093D6051092DA0580E28093DB05109254
:10470000DC0585E08093E20585E090E0A0E0B0E084
:104710008093E8059093E905A093EA05B093EB0533
:104720001092DD051092C3051092C2051092CC05BF
:104730001092CD051092CF051092CE051092D005A3
:1047400081E08093D10580E592E09093C10580934C
:10475000C005CF910895FC01808191810097D9F720
:104760008AE995E09183808395CFCF93DF9300D042
:10477000CDB7DEB7789484B5826084BD84B581609E
:1047800084BD85B5826085BD85B5816085BD80911C
:104790006E00816080936E00109281008091810094
:1047A000826080938100809181008160809381008C
:1047B0008091800081608093800080919100826070
:1047C000809391008091910081608093910080910D
:1047D00090008160809390008091C10084608093FC
:1047E000C1008091C10082608093C1008091C100AE
:1047F00081608093C1008091C30081608093C30079
:104800008091C00082608093C0008091C20081606E
:104810008093C20080917A00846080937A008091B6
:104820007A00826080937A0080917A008160809320
:104830007A0080917A00806880937A001092D50483
:1048400010929D0410929C048091D7008160809307
:10485000D70080EA8093D80089B5806189BD89B589
:10486000826089BD09B400FEFDCF61E070E080E0A8
:1048700090E00E948B088091D8008F7C80618093AB
:10488000D8008091E000807F8093E0008091E1007B
:104890008E7E8093E1008DE08093E200559A209A0D
:1048A0001092A3041092A20410920E0510923005EB
:1048B00010920C0581E080930B051092E60461E0F4
:1048C00082E00E94E70761E083E00E94E7078091B1
:1048D000B9008E7F8093B9008091B9008D7F80935D
:1048E000B90088E48093B80085E48093BC0085ED2E
:1048F00095E09093A1048093A00486ED95E09093B9
:104900009F0480939E048CE08093B8001092D3059E
:104910008CE38093D2051092C4051092C505E6E0A1
:10492000F9E085919491082FE8E0F9E01491E9E02D
:10493000F9E0E491E093C605EAE0F9E0E491E09360
:10494000C705EBE0F9E0E491E093C80589839A8319
:104950008981801B811768F4E981FA81649180EC78
:1049600095E00E94500A89819A8101969A838983F1
:10497000EFCF0E94BE0AEAE5F4E0F093CF05E093A2
:10498000CE058491EBE5F4E0E491F82F319709F03E
:104990003BC21092C90582E08093D3040E94BE0AF4
:1049A0008091CF049091D0040E94E1160FB6F89444
:1049B000A8958091600088618093600010926000EB
:1049C0000FBE8FEF9FEF90933E0580933D05809142
:1049D000D4059091D5052091D6053091D705821741
:1049E000930719F061E00E9435088091D6059091F7
:1049F000D7052091D4053091D5052817390719F02E
:104A000061E00E9435089FB79983F8948091A404CF
:104A1000811127C0EBE2F9E08491EAE4F9E0949196
:104A2000E82FF0E0EE0FFF1FE25DFB4FA591B49180
:104A3000EC91E92321F461E081E10E94E70761E064
:104A400081E10E9435088CB580618CBD8CB5806495
:104A50008CBD61E08FE00E94350861E080E10E943A
:104A600035088091A4048F5F8093A404E981EFBF8F
:104A70008091D4059091D5052091D6053091D70528
:104A80008217930719F060E00E94E70781E00E9417
:104A9000150865E070E080E090E00E948B086CE013
:104AA00080E00E94E7096FE584E00E94E70986E064
:104AB0000E94D509877D806289838BE990E0A0E020
:104AC000B0E08093E4059093E505A093E605B093EC
:104AD000E705698186E00E94E70986E00E94D50922
:104AE000F981F81303C081E08093DA0586E00E9423
:104AF000D50986E00E94D50945E550E060E070E008
:104B00004093E4055093E5056093E6057093E7054F
:104B1000682F677D86E00E94E70986E00E94D5093C
:104B200080E00E94150880E50E94C00983E70E948A
:104B3000C00981E00E94150860E08DE10E94E7094C
:104B400060E08CE10E94E7091092DC0560E787E0F5
:104B50000E94E7096CE485E00E94E70980E00E947A
:104B6000150882EE0E94C00981E00E9415080E948B
:104B7000C7090E94FE0980E00E94D509682F6E7F58
:104B800080E00E94E7094091E20550E06EE471E0A8
:104B90008DED95E00E94B82DE2E4F4E0849140911F
:104BA000E2056EE471E00E940F0AECE3F4E0849108
:104BB0006091DB050E94E70982E00E94D509E8E4E4
:104BC000F4E0949161E070E001C0660F9A95EAF715
:104BD000682B82E00E94E70986E00E94D509887F61
:104BE000682F616086E00E94E7090E94FE0980E06C
:104BF0000E94D509682F616080E00E94E70960E7A4
:104C000087E00E94E7098091D4059091D505209115
:104C1000D6053091D7058217930719F061E00E94FD
:104C2000E7078091DD05882309F4F2C04091E20591
:104C30006DED75E08AE00E940F0A8DE10E94D509B2
:104C400081FD0E94C70983E080930C0162E087E048
:104C50000E94350862E08FE00E94350862E080E142
:104C60000E94350862E08EE00E94350862E08AE02A
:104C70000E943508EEE4F4E0E49190917B008E2FE1
:104C8000880F880F80729F7D892B80937B00809195
:104C90000C0120E4829FC0011124E770E82BE0930F
:104CA0007C0080917A00806480937A0080917A0001
:104CB00086FDFCCF8091780060917900762F682F77
:104CC000072E000C880B990B611571058105910564
:104CD00011F00E94002B62E370E080E090E00E94FF
:104CE0008B088091D3040E943E1663E0262E312C5F
:104CF0007CE5472E512C612C712CE2E2CE2ED12C7A
:104D00008FE00E946C114B0180E10E946C117B01CD
:104D10008AE00E946C118B018EE00E946C117A83F4
:104D20006983181419046CF48091D304853009F454
:104D3000B9C00CF081C0823009F49EC0843009F4FF
:104D4000ABC01E141F0454F48091D304843009F4C2
:104D500000C10CF0CAC0823009F4E6C0101611067A
:104D600044F48091D304843009F419C1873009F4E4
:104D70002AC189819A8118161906DCF48091D3041E
:104D8000863009F455C1873009F458C1843089F45C
:104D90008091A5049091A604019797FD42C190933C
:104DA000A6048093A5040E94EF148091D3040E946E
:104DB0003E160E94C307892BF9F464E670E080E098
:104DC00090E00E948B080E94C307892BA9F464EF2E
:104DD00071E080E090E00E948B080E94C307209160
:104DE000D304892B09F0C1C1233009F4C8C10CF0E8
:104DF00054C1223009F45CC180E090E0892B09F4B1
:104E00007FCF0E9400007CCF81E08093C905C3CD95
:104E100082E00E94D509E8E4F4E0F491F98321E00E
:104E200030E001C0220FFA95EAF72095622F68233F
:104E300082E00E94E70901CF8630D1F1873009F086
:104E400080CF8091AB049091AC048432910509F03D
:104E500041C0EFE1F0E0F093AC04E093AB0480914B
:104E6000AB049091AC0497FF04C0D092AC04C09204
:104E7000AB040E94FE1165CF8091CF049091D004C5
:104E800001966AE070E00E94B72B9093D004809363
:104E9000CF040E94E11655CF86E08093D3040E9490
:104EA0007B144FCF84E08093D3040E94171049CF26
:104EB0008091A7049091A804019797FD08C0909352
:104EC000A8048093A70486E00E943E163ACF82E0B1
:104ED00090E0F5CF8032910534F001979093AC04C7
:104EE0008093AB04BCCF0B97F9CF8630C1F18730EC
:104EF00009F034CF8091AB049091AC0484329105D9
:104F0000F1F5E1E2F0E0F093AC04E093AB048091C2
:104F1000AB049091AC04839721F41092AC041092EE
:104F2000AB040E94FE111ACF8091CF049091D0045F
:104F3000019797FD0BC09093D0048093CF0480918C
:104F4000CF049091D0040E94E11608CF89E090E050
:104F5000F2CF85E08093D3040E946C0FFFCE809146
:104F6000A7049091A8040196B1010E94B72B9093D9
:104F7000A8048093A70486E00E943E16EFCE8032FC
:104F8000910534F001969093AC048093AB04BFCFAD
:104F90000B9680329105BCF380E290E0F4CF8091D3
:104FA000A5049091A604019664E170E00E94B72BDD
:104FB0009093A6048093A5040E94EF148091D304DB
:104FC0000E943E16D6CE8091AB049091AC04823202
:104FD0009105C9F05CF4E4E2F0E080329105A9F0BB
:104FE000019660E270E00E94B72B08C08332910501
:104FF00099F084329105A1F780E290E09093AC049F
:105000008093AB0406C0E3E2F0E0F093AC04E093DD
:10501000AB040E94FE11ADCED092AC04C092AB04A2
:10502000F8CFE3E1F0E0F093A604E093A504BBCE53
:1050300084E08093D3040E941710BBCE8091AB0410
:105040009091AC048232910501F14CF480329105CB
:1050500099F0019797FF12C0EFE1F0E008C08332AA
:105060009105B1F0E0E2F0E08432910591F7F09320
:10507000AC04E093AB0406C084E290E09093AC04EF
:105080008093AB040E94FE1194CE83E290E0F6CFB1
:10509000D092AC04C092AB04F5CF243009F1263095
:1050A00009F0AACE84E08093D3040E941710A4CE06
:1050B000E091D104F091D204E330F1050CF49CCEE0
:1050C000EE0FFF1FE155FB4F8091CF049091D0046C
:1050D0009183808383E08093D3040E943E168CCE1C
:1050E0000DE111E04DE2E42E41E0F42EF801619172
:1050F0008F01603221F088EA95E00E947C06E0167C
:10510000F106A1F763EB88EA95E00E94AB0D63EB33
:1051100088EA95E00E946B0D0DE011E03DE1E32E81
:1051200031E0F32EF80161918F01603221F088EABD
:1051300095E00E947C06E016F106A1F764E170E0BC
:1051400080E090E00E948B0860EB88EA95E00E9486
:10515000AB0D60EB88EA95E00E946B0D68EE73E0A2
:1051600080E090E00E948B0847CE253009F468C0AB
:1051700044F4223009F447C0233009F03DCE84E0E6
:10518000AACF263009F47AC0273009F035CE8091B5
:10519000AB049091AC048232910509F434C10CF057
:1051A000A8C08032910509F4CFC08132910509F47D
:1051B000DCC02091AD043091AE044091A90450911F
:1051C000AA044130510509F44EC14230510509F499
:1051D00066C1452B89F44091A7045091A804413041
:1051E000510509F430C14230510509F434C18C56DF
:1051F0009E4F452B09F446C12F5F3F4F3093AE04BD
:105200002093AD04AFC08091D1049091D204FC01F1
:10521000EE0FFF1FE155FB4F2091CF043091D004DA
:105220003183208301969093D2048093D10410920D
:10523000D0041092CF0490E080E00E94E116DCCD13
:10524000EDE2F1E08DE391E020E221938E179F07DC
:10525000E1F7EDE1F1E08DE291E020E221938E179C
:105260009F07E1F7EDE0F1E08DE191E020E221938D
:105270008E179F07E1F70E94BE1714CF1092AE045D
:105280001092AD041092AC041092AB041092AA04D8
:105290001092A90487E08093D3048091A704909191
:1052A000A8048130910589F082309105C1F0892BE5
:1052B00049F4EDE2F1E08DE391E020E221938E17D5
:1052C0009F07E1F70E942D1497CDEDE1F1E08DE20B
:1052D00091E020E221938E179F07E1F7F3CFEDE0F5
:1052E000F1E08DE191E020E221938E179F07E1F735
:1052F000E9CF8332910509F48EC08432910509F01B
:1053000058CF8091AD049091AE04181619062CF474
:1053100001979093AE048093AD048091A70490917F
:10532000A8048130910509F480C08230910509F408
:1053300083C0892BB9F4E091AD04F091AE04E35D34
:10534000FE4F80E280830EC08091A9049091AA0450
:105350000196B1010E94B72B9093AA048093A904EF
:105360000E94FE118091D304B8CE8091A704909141
:10537000A80481309105E1F08230910569F1892B13
:1053800089F70DE211E09DE3E92E91E0F92E0E94EC
:10539000B12AA30192010E94092B6C547E4FFB019C
:1053A0008081F80181938F01EE16FF0681F7DACF35
:1053B0000DE111E00E94B12AA30192010E94092B84
:1053C0006C547E4FFB018081F80181938F01F1E0E5
:1053D0000D321F0779F7C6CF0DE011E08DE1E82E01
:1053E00081E0F82E0E94B12AA30192010E94092BAC
:1053F0006C547E4FFB018081F80181938F01EE1682
:10540000FF0681F7AFCF0E94BE1784E08093D304DC
:105410000E941710A7CF84E08093D3040E94EF145A
:105420008091D3040E943E169DCFE091AD04F0918F
:10543000AE04E35EFE4F85CFE091AD04F091AE0483
:10544000E35FFE4F7ECF8C569E4FFC018081F901B9
:10545000E35EFE4F1CC08C569E4FFC018081F9011B
:10546000E35FFE4F14C04091A7045091A80441305F
:10547000510579F04230510579F08C589E4F452BFB
:1054800009F0BACEFC018081F901E35DFE4F808313
:10549000B3CE8C589E4FD9CF8C589E4FDECF4091C3
:1054A000A7045091A8044130510549F042305105FC
:1054B00049F0452B09F0A0CE8C5A9E4FE3CF8C5A71
:1054C0009E4FC3CF8C5A9E4FC8CF8F929F92AF9260
:1054D000BF92CF92DF92EF92FF92CF93DF93EC01D6
:1054E000688179818A819B816115710581059105AA
:1054F00021F464E279ED8BE597E02DE133EF41E0B3
:1055000050E00E94092B49015A019B01AC01A7EA16
:10551000B1E40E94282B6B017C01ACEEB4EFA50135
:1055200094010E94362BC60ED71EE81EF91EF7FE08
:1055300006C081E0C81AD108E10880E8F80AC882EC
:10554000D982EA82FB82C701B6019F77DF91CF91B2
:10555000FF90EF90DF90CF90BF90AF909F908F9093
:1055600008958F929F92AF92BF92CF92DF92EF9267
:10557000FF926091440170914501809146019091A4
:105580004701611571058105910521F464E279ED0A
:105590008BE597E02DE133EF41E050E00E94092BCD
:1055A00049015A019B01AC01A7EAB1E40E94282BF2
:1055B0006B017C01ACEEB4EFA50194010E94362B87
:1055C000C60ED71EE81EF91EF7FE06C081E0C81AF7
:1055D000D108E10880E8F80AC0924401D092450160
:1055E000E0924601F0924701C701B6019F77FF9014
:1055F000EF90DF90CF90BF90AF909F908F900895E5
:105600006093440170934501809346019093470154
:105610000895052E97FB1EF400940E94202B57FD41
:1056200007D00E94722B07FC03D04EF40C94202B61
:1056300050954095309521953F4F4F4F5F4F0895BE
:1056400090958095709561957F4F8F4F9F4F0895EE
:105650000E94942BA59F900DB49F900DA49F800D48
:10566000911D11240895B7FF0C94282B0E94282B1C
:10567000821B930B08952F923F924F925F926F92ED
:105680007F928F929F92AF92BF92CF92DF92EF92D2
:10569000FF920F931F93CF93DF93CDB7DEB7CA1B53
:1056A000DB0B0FB6F894DEBF0FBECDBF09942A887E
:1056B000398848885F846E847D848C849B84AA8426
:1056C000B984C884DF80EE80FD800C811B81AA81B3
:1056D000B981CE0FD11D0FB6F894DEBF0FBECDBF7E
:1056E000ED010895A1E21A2EAA1BBB1BFD010DC0FE
:1056F000AA1FBB1FEE1FFF1FA217B307E407F50782
:1057000020F0A21BB30BE40BF50B661F771F881F5D
:10571000991F1A9469F760957095809590959B01F3
:10572000AC01BD01CF010895A29FB001B39FC0019C
:10573000A39F700D811D1124911DB29F700D811DBD
:105740001124911D0895AA1BBB1B51E107C0AA1F7C
:10575000BB1FA617B70710F0A61BB70B881F991F12
:105760005A95A9F780959095BC01CD01089597FBB6
:10577000072E16F4009407D077FD09D00E94A32BC2
:1057800007FC05D03EF4909581959F4F0895709544
:1057900061957F4F0895EE0FFF1F0590F491E02D66
:1057A00009940F931F93CF93DF938230910510F4E8
:1057B00082E090E0E091EE05F091EF0530E020E02E
:1057C000B0E0A0E0309799F42115310509F44AC002
:1057D000281B390B24303105D8F58A819B8161154E
:1057E000710589F1FB0193838283FE0111C0408121
:1057F00051810281138148175907E0F04817590772
:1058000099F4109761F012960C93129713961C93CB
:105810003296CF01DF91CF911F910F9108950093A0
:10582000EE051093EF05F4CF2115310551F0421725
:10583000530738F0A901DB019A01BD01DF01F8012E
:10584000C1CFEF01F9CF9093EF058093EE05CDCF57
:10585000FE01E20FF31F81939193225031093983A6
:105860002883D7CF2091EC053091ED05232B41F40F
:1058700020914A0130914B013093ED052093EC05C6
:1058800020914801309149012115310541F42DB78E
:105890003EB740914C0150914D01241B350BE091D6
:1058A000EC05F091ED05E217F307A0F42E1B3F0B7A
:1058B0002817390778F0AC014E5F5F4F2417350782
:1058C00048F04E0F5F1F5093ED054093EC05819318
:1058D00091939FCFF0E0E0E09CCFCF93DF930097D0
:1058E000E9F0FC01329713821282A091EE05B0918B
:1058F000EF05ED0130E020E01097A1F42081318127
:10590000820F931F2091EC053091ED052817390780
:1059100009F061C0F093ED05E093EC05DF91CF91C4
:105920000895EA01CE17DF07E8F54A815B819E0101
:1059300041155105B1F7E901FB83EA83499159917A
:10594000C40FD51FEC17FD0761F480819181029689
:10595000840F951FE90199838883828193819B83BA
:105960008A83F0E0E0E012968D919C911397009766
:10597000B9F52D913C911197CD010296820F931F9D
:105980002091EC053091ED052817390739F630974D
:1059900051F51092EF051092EE05B093ED05A0932E
:1059A000EC05BCCFD383C28340815181840F951F06
:1059B000C817D90761F44E5F5F4F88819981480FFE
:1059C000591F518340838A819B8193838283211550
:1059D000310509F0B0CFF093EF05E093EE059ECFCF
:1059E000FD01DC01C0CF13821282D7CFB0E0A0E06E
:1059F000ECEFFCE20C943D2B8C01009751F4CB01B1
:105A00000E94D12B8C01C801CDB7DEB7E0E10C9428
:105A1000592BFC01E60FF71F9C0122503109E217B8
:105A2000F30708F49DC0D901CD91DC911197C617F9
:105A3000D70798F0C530D10530F3CE01049786170B
:105A4000970708F3C61BD70B2297C193D1936D9389
:105A50007C93CF010E946D2CD6CF5B01AC1ABD0A9E
:105A60004C018C0E9D1EA091EE05B091EF05512CBE
:105A7000412CF12CE12C109731F58091EC0590919F
:105A8000ED058815990509F05CC04616570608F023
:105A900058C08091480190914901009741F48DB719
:105AA0009EB740914C0150914D01841B950BE81716
:105AB000F90708F055C0F093ED05E093EC05F90106
:105AC00071836083A0CF8D919C91119712966C90F9
:105AD000129713967C901397A815B90559F56C0188
